:020000040000FA
:1000000080850120B93B0000BD3B0000BF3B0000E4
:10001000C13B0000C33B0000C53B000000000000E6
:10002000000000000000000000000000610100006E
:10003000C93B000000000000A50100004D2C00009D
:10004000CF3B0000D13B0000D33B0000D53B00007C
:10005000D73B0000D93B0000DB3B0000DD3B00004C
:10006000DF3B0000E13B0000E33B0000E53B00001C
:10007000E73B0000E93B0000EB3B0000ED3B0000EC
:10008000EF3B0000F13B0000F33B0000F53B0000BC
:10009000F73B0000F93B0000FB3B0000FD3B00008C
:1000A000FF3B0000013C0000033C0000053C000059
:1000B000073C0000093C00000B3C00000D3C000028
:1000C0000F3C0000113C0000133C0000153C0000F8
:1000D000173C0000193C00001B3C00000117000009
:1000E0001F3C0000213C0000233C000000000000F9
:1000F000253C0000273C0000293C00002B3C000070
:100100002D3C00002F3C0000313C0000091600008F
:100110000D1600001116000015160000191600003B
:100120001D1600003F3C0000413C0000433C000025
:10013000453C0000473C0000493C00004B3C0000AF
:100140004D3C00004F3C0000DFF810D004F08EF86A
:1001500000480047F9010000AFF3008080850120CE
:10016000224B19680868B0E8F00F80F30988BFF3E4
:100170006F8F4FF0000080F311884EF00D0E704726
:100180000000000006480068006880F3088862B636
:1001900061B6BFF34F8FBFF36F8F00DF00BF00BFAB
:1001A00008ED00E0EFF30980BFF36F8F0F4B1A6883
:1001B00020E9F00F106008B54FF0800080F311883F
:1001C000BFF34F8FBFF36F8F01F0B8FD4FF000000A
:1001D00080F31188BDE8084019680868B0E8F00F9E
:1001E00080F30988BFF36F8F704700BF280A002093
:1001F000EFF305807047000003F094FC04480021F1
:10020000006842690846904701F0A9FEFEE7000039
:1002100054000020F8B5072126A004F0F3F80025CB
:100220002A4F002605EB450007EBC0046069012852
:100230001AD00023201D07C802F0DEFF60690128E4
:1002400014D0009600230122A168206902F024FE48
:10025000A168206902F01BFF1DA0216804F0D2F8FC
:100260006D1C072DDED3F8BD0123E3E700960123C3
:100270000022A168206902F00FFE1DA0216804F091
:10028000C1F8EDE770B50024104E04EB440506EB11
:10029000C5008168006902F00CFF08B11BA200E0F4
:1002A0001CA256F835101DA004F0ACF8641C072CF5
:1002B000EBD370BD5B494F20494E49545D20256406
:1002C0002070696E733A0D0A00000000184D00009E
:1002D0002020257320202D3E204F5554505554206A
:1002E00028696E6974204C4F57290D0A00000000E0
:1002F0002020257320202D3E20494E505554202883
:1003000070756C6C2D7570290D0A000048494748BE
:10031000000000004C4F57200000000020202573F3
:10032000203A2025730D0A002DE9F04106460C46BF
:1003300017469846002500E0641C217801B340462A
:1003400003F07CFD0028F7D11AE028466D1C47F821
:10035000204000E0641C217821B1404603F06EFD8E
:100360000028F7D0207820B1002004F8010B00E02D
:10037000641C217821B1404603F060FD0028F7D1CC
:10038000207808B1B542E0DB2846BDE8F08170B5C1
:1003900006460D46A749A8A004F034F8002406E05C
:1003A00055F824202146A6A004F02CF8641CB44281
:1003B000F6DB002070BD10B5A6A004F023F80020E5
:1003C00010BD70B5A6A004F01DF80024994D403D65
:1003D000A9A055F8341004F015F8641C082CF7D3C4
:1003E0009EA004F00FF8002070BDA5A004F00AF84C
:1003F000BFF34F8FA6480168A64A01F4E06111439C
:100400000160BFF34F8FFEE770B50C464FF0FF362B
:10041000022804DAA0A003F0F5FF304670BDA3A1C6
:10042000606803F015FDA24D50B1A2A1606803F011
:100430000FFD70B1A0A0616803F0E4FF304670BD0D
:1004400028680121426811209047A3A003F0DAFF39
:1004500007E028680021426811209047A1A003F01E
:10046000D1FF002070BD2DE9F0410C464FF0FF3761
:10047000032804DA9EA003F0C5FF384685E7A3A150
:10048000606803F0E5FC50B1A1A1606803F0E0FCF6
:1004900040B1A0A0616803F0B5FF384675E71A25A2
:1004A000A5A601E00325A6A680A1A06803F0D0FCC4
:1004B000DFF8FC8150B17FA1A06803F0C9FC80B1D6
:1004C0007DA0A16803F09EFF38465EE7D8F80000E3
:1004D000012142682846904731469BA003F092FFD5
:1004E00009E0D8F8000000214268284690473146CC
:1004F00097A003F087FF002047E710B5FFF7C2FE83
:10050000002010BD10B595A003F07CFF994801684C
:1005100099A003F077FF01F05BFD01469CA003F07A
:1005200071FFA1A003F06EFF4CA003F06BFF002051
:1005300010BD2DE9F043ABB0A34F0026786800282A
:1005400005D001280ED07E602BB0BDE8F0839FA0BF
:1005500003F058FF80219E4803F065FC3E600120B7
:100560007860F1E79B480121006842682AA890471B
:100570000028E9D03A68802A01DB7E60E4E79DF834
:10058000A81093480A291AD004DC08290DD009299B
:1005900004D1D9E70D2916D07F2906D0531C3B6022
:1005A00081548DA003F02EFFCEE7002A02DD521EFB
:1005B0003A608654864989A003F024FFC4E7002AE4
:1005C000C2D17E60C0E78654FAB1521C80496846A9
:1005D00003F010FC83A320AA69460A20FFF7A4FEBB
:1005E00081465FEA090012D000250024DFF844802C
:1005F000A8F14008209858F8341003F029FC40B1C5
:10060000641C082CF6DB7DB112E07E609CE77E6006
:100610009AE712A003F0F6FE08EBC40020A9426896
:10062000484690470125EEE770A0209903F0EAFEC6
:100630007E6089E7004E000025730D0A000000006F
:100640002020617267765B25645D3A2025730D0A70
:10065000000000000D0A0D0A0D0A0D0A0D0A000027
:100660000D0A3D3D3D20436F6D6D616E6473203D0D
:100670003D3D0D0A00000000202025730D0A0000FA
:100680005265626F6F74696E672E2E2E0D0A000020
:100690000CED00E00400FA0555736167653A206CC3
:1006A0006564206F6E7C6F66660D0A006F6E0000D9
:1006B000280100206F666600496E76616C69643AB5
:1006C0002025732028657870656374206F6E7C6FB9
:1006D0006666290D0A0000004C4544204F4E0D0A65
:1006E000000000004C4544204F46460D0A00000023
:1006F00055736167653A2072656C617920307C3191
:10070000206F6E7C6F66660D0A00000030000000EE
:1007100031000000496E76616C69642072656C611D
:10072000793A20257320286578706563742030201D
:100730006F722031290D0A00454C43300000000043
:10074000454C4331000000002573204F4E0D0A0038
:100750002573204F46460D0A000000000D0A3D3D5E
:100760003D2053797374656D20496E666F203D3D61
:100770003D0D0A00900A0020202043505520436C74
:100780006F636B203A20256420487A0D0A00000030
:1007900020205469636B2020202020203A202564EB
:1007A000206D730D0A000000202055415254202076
:1007B000202020203A203131353230302D382D4E56
:1007C0002D310D0A00000000000000200D0A3E003F
:1007D000C40A00200C010020256300000D0A3E25FC
:1007E0007300000020090A0D000000000D0A2020FF
:1007F000756E6B6E6F776E20636F6D6D616E643AB0
:100800002025730D0A00000010B5082802DB4FF008
:10081000010201E04FF0000201DBA0F108005D4B96
:100820004FF0010431B1995C04FA00F421EA0401AB
:10083000995410BD995C04FA00F441EA04019954FA
:1008400010BD10B5544C02225249206843685348E9
:10085000984720688168BDE810405048084710B5A7
:100860004E48242101602321416025218160FF221F
:100870000221484803F0D0FA46490020891C08703C
:100880004870891C08704870091F886042480068D9
:10089000016842488847BDE81040D2E710B50146DC
:1008A0000020FFF7B1FFBDE81040CAE710B50146D0
:1008B0000F20FFF7A9FFBDE81040C2E770B506465C
:1008C000022E23D23348801C8155354AC6EBC60020
:1008D000851861B1022919D100240121285DFFF793
:1008E00093FF641C072CF8DBBDE87040A9E70024E7
:1008F0000021285DFFF788FF641C072CF8DB2549E1
:100900000020091D8855BDE870409AE770BD2DE9AB
:10091000F04700201F4FB968491CB9600024DFF878
:10092000809007F1020A07F104081AF8041001295F
:1009300025D1397AC90722D00025C4EBC40000EBC9
:1009400009060021705DFFF75FFF6D1C072DF8DBC6
:10095000002504E0705D0121FFF756FF6D1C18F8BB
:100960000400A842F6DA18F80400401CC0B208F8E7
:100970000400072802D3002008F804000120641CAA
:10098000022CD2DB002802D0BDE8F04759E7BDE8D1
:10099000F0870000200000204C010020440B0020C4
:1009A000094E000010B542A003F02CFD41A003F059
:1009B00029FD4BA003F026FD5548016855A003F022
:1009C00021FD5AA003F01EFD64A003F01BFD724838
:1009D00003F018FD37A003F015FDBDE8104034A06A
:1009E00003F010BD6D48006801684FF4E13088479E
:1009F0006B4D286800688047FFF70CFC694C0021AC
:100A0000206842681A20904720680021426803202D
:100A100090472068002142681120904720680121FA
:100A2000426838209047604C2068006880475F48E3
:100A30000068006880475E4800680068804720685A
:100A40000121C2680020904720680121C268084641
:100A5000904720684168012088472868016955A0AF
:100A60008847FFF79FFF5E480021006842690846FB
:100A700090475C48002100684269084690475A4800
:100A800000210068426908469047052001F0CBF834
:100A9000FBE71CB555480023006802680169CDE9F1
:100AA000001281898AB24168514800F019FF1CBDCB
:100AB0000D0A00003D3D3D3D3D3D3D3D3D3D3D3D43
:100AC0003D3D3D3D3D3D3D3D3D3D3D3D3D3D3D3D56
:100AD0003D3D3D3D3D3D3D3D3D3D3D3D0D0A000023
:100AE0002020537465702031373A20467573652095
:100AF000446574656374696F6E20286F70746F63EA
:100B00006F75706C6572203530487A290D0A0000C7
:100B1000900A0020202043505520436C6F636B20C7
:100B20003A20256420487A0D0A000000202048431E
:100B300035393520427573203A204441543D5031B7
:100B40002833362920434C4B3D503028333529205B
:100B500055443D5032283337290D0A002020484C97
:100B600057383031322020203A20484C57303D430E
:100B7000332832322920484C57313D433728323010
:100B800029202866616C6C696E6720656467652042
:100B9000495352290D0A0000AC4E00000C01002000
:100BA000BC0A0020280100201C0000206401002055
:100BB000B40100205B6C65645F626F6172645D20EC
:100BC0006368617267696E6720616E696D617469DF
:100BD0006F6E20737461727465640D0A000000000A
:100BE00084000020E4000020B40000205000002019
:100BF000E5090000002401F0EBF905464FF4FA780E
:100C0000174E184F01F0E4F9411B41450DD305463D
:100C10001CB100241CB1012102E00124FAE70021EB
:100C200011480068426811209047FFF782FC306845
:100C300040688047386800698047022000F0F3FF71
:100C4000E0E71CB509480023006802680169CDE9A6
:100C5000001281898AB24168054800F041FE1CBD3E
:100C6000BC0A00201C000020280100208000002079
:100C7000F50B00000B48006801690BA08847642051
:100C800000F0D1FFFBE71CB50F48002300680268A5
:100C90000169CDE9001281898AB241680B4800F0F0
:100CA0001FFE1CBDBC0A00205B6374726C5D207269
:100CB000756E6E696E672028706C616365686F6C15
:100CC000646572290D0A0000B0000020750C000058
:100CD00015480068016915A088471F4C1F4D204E1C
:100CE000206840688047286840688047206880689E
:100CF000804738B10020316889688847052000F0B6
:100D000092FFEDE70120F6E71CB5164800230068C6
:100D100002680169CDE9001281898AB241681248EE
:100D200000F0DEFD1CBD0000BC0A00205B6C697396
:100D300074656E5D2066757365202B20484C5738AE
:100D4000303132206D65746572696E672072756E20
:100D50006E696E670D0A0000B40100206401002076
:100D60001C000020E0000020D10C0000434A014696
:100D70004348126800685268104710B53F4A404C1B
:100D8000014612686068136801229847002801DD57
:100D9000012010BD0020A06010BD38B5384CA068FF
:100DA000002810D135480122694600680368606850
:100DB0009847002807DD0120A06032480068C1691B
:100DC0009DF80000884738BD70B505462B4E306849
:100DD000C06880472A4C20603068C06880476060E7
:100DE0002168A1B198B10020A060264C206841691B
:100DF0002548884720688169244888472068016819
:100E00002846884720684068BDE870400047FEE7F4
:100E1000CAB21A4909680B680146194800681847A0
:100E20002DE9F04105460E460024144FDFF85080AE
:100E300006E03868295D4268D8F804009047641CD1
:100E4000B442F6DBBDE8F041A7E710B50B4A014616
:100E50000B481268406852689047BDE810409CE714
:100E600006480068816806480068084710B50446CF
:100E7000E0B2FFF7EAFF204610BD00003C01002071
:100E8000EC000020240A00206D0D00007B0D000006
:100E90000D490968096808470B4A126852681047EB
:100EA000094A12689268104730B4074C2468E46815
:100EB000A44630BC60470449096809690847024AEA
:100EC0001268526910470000F009002070B503460F
:100ED000002003F108050BE0D3E90064B44209D017
:100EE000645D0C549C88641CC4F309045C60401C61
:100EF0009042F1DB70BD10B502684468531CC3F327
:100F00000903A34207D000F10803D1540188491C0A
:100F1000C1F30901016010BD00210160416070470B
:100F200010B54FF4816001F0F6FE002802D00021D8
:100F30000160416010BD000008B50021009102E091
:100F40000099491C009100998142F9DB08BD2DE907
:100F5000F04105460E460024314FF10928683A68F1
:100F6000526890477006060E396868684A68002122
:100F700090471420FFF7E0FF396868684A6801214C
:100F800090471420FFF7D8FF641C082CE5DBBDE870
:100F9000F08170B50446224D206829688A680021D6
:100FA0009047296860688A68002190472968A0688E
:100FB0008A6800219047296820684A680021904784
:100FC000296860684A68012190472968A0684A68D2
:100FD000BDE870400121104770B506460D46002A55
:100FE00009D0541E002C06DB295D3046FFF7AFFF09
:100FF000641E002CF8DA70BD70B50446084DA06878
:1010000029684A68002190473220FFF795FF296838
:10101000A0684A6801219047BDE8704032208BE704
:101020002801002010B50468022C0BD2594850F852
:101030002410491C40F8241000F0CDFF5549083118
:1010400041F8240010BD2DE9F05F0024DFF844B121
:10105000DFF844A1514DA0460BF110095AF8246065
:101060004BF824804B48083040F8248049F824404D
:1010700028680221826830469047286809EB84037B
:10108000474AC76801213046B847286801214269AC
:1010900030469047641C022CE0DB4248006801693E
:1010A000BDE8F05F40A008472DE9F04700F090FF51
:1010B00081460024374E3B4D40F6B837083656F887
:1010C000240060B156F82400A9EB0000B84206D312
:1010D0002868214602693FA0904746F82490641C86
:1010E000022CECDB2B4E41F28831103E4FF0000811
:1010F000306806F10807A9EB0000884218D3C6F84B
:1011000000900024DFF88C9059F8242049F82480BE
:1011100057F82400104447F8240028682146036942
:101120003CA09847641C022CEEDB7068401C706089
:1011300070680C280ED30024286857F82420214614
:1011400003693DA0984747F82480641C022CF3DB18
:10115000C6F80480BDE8F087022801D3002070475C
:101160000C4A52F82010002342F8203008467047FD
:10117000022801D300207047064951F8200070472B
:10118000022801D3002070470249083151F820009D
:101190007047000078010020184E00002801002050
:1011A00025100000BC0A00205B686C7738303132B3
:1011B0005D20696E697420646F6E652C2032207228
:1011C0006F61647320636F6E666967757265640D25
:1011D0000A0000005B686C77383031325D20726F36
:1011E00061642025643A206E6F2070756C736520F1
:1011F000666F722033732C20736F636B6574206D80
:10120000617920626520756E706C75676765640D25
:101210000A0000005B686C77383031325D20726FF5
:1012200061642025643A20256C752070756C7365A7
:10123000732F35730D0A00005B686C7738303132DC
:101240005D20726F61642025643A20256C752070E2
:10125000756C7365732F6D696E0D0A0010B52F489C
:10126000022100688268152090472D4800214160C6
:101270008160C1603222026101700121416129480F
:1012800000680169BDE8104027A0084770B500F06C
:101290009FFE0446224D686900283BD0B4F5FA6FE2
:1012A00038D3A868201A052834D3AC601B480068DE
:1012B00001681520884729780122002679B1012983
:1012C00011D02E70E868201AB0F57A7F22D3EC6036
:1012D000296914480A2913D26B685BB118E0002809
:1012E000F0D12A70EEE70128ECD12E702869401C5D
:1012F0002861E7E76A600068026913A0904707E089
:101300006A68012A04D16E600068026917A09047DC
:101310002E612E7070BD0248406870472801002081
:1013200090010020BC0A00205B667573655D206932
:101330006E697420646F6E652C2070696E3D433257
:10134000283231290D0A00005B667573655D204205
:10135000524F4B454E212070756C73653D256C7561
:101360002F736563203C2031300D0A005B66757376
:10137000655D207265636F76657265642C2070759B
:101380006C73653D256C752F7365630D0A00000055
:10139000412801D300207047A14901EB401081682A
:1013A0000029F8D10020704710B5FFF7F1FF28B1F0
:1013B000C1688068BDE8104001F07BBE002010BD10
:1013C00010B50C46FFF7E4FF00280CD02CB1C16823
:1013D0008068BDE8104001F052BEC1688068BDE879
:1013E000104001F054BE10BD38B50D46FFF7D0FFD8
:1013F000002200230024002812D0052D10D2DFE89F
:1014000005F0030A05070900012204E0012302E0B8
:10141000012400E001220094C168806801F03CFDD5
:1014200038BD70B50E4614461D46FFF7B1FF20B11A
:101430008461C5614661002070BD4FF0FF3070BD12
:1014400010B5FFF7A5FF20B100218161C161002027
:1014500010BD4FF0FF3010BDF8B50E46FFF798FFF6
:10146000044620004FF0FF3213D00125012E12D088
:1014700094F9100000F01F018D404009800000F138
:10148000E020C0F88051D4E9020101F0B9FC00204D
:10149000F8BD1046F8BD61690020052954D2DFE887
:1014A00001F003101D2A37000095D4E90201002342
:1014B0001A4601F0F1FCD4E90201012201F0A6FC78
:1014C00032E00090D4E902010123002201F0E4FCA3
:1014D000D4E90201002201F099FC25E00095D4E94D
:1014E00002010123002201F0D7FCD4E9020102220B
:1014F00001F08CFC18E00095D4E9020100231A46A3
:1015000001F0CAFCD4E90201112201F07FFC0BE0DA
:101510000090D4E902010123002201F0BDFCD4E9CE
:101520000201102201F072FC94F9100000F01F017A
:101530008D404009800000F1E020C0F80051D4E95E
:10154000020101F095FCA2E71046F8BD2DE9F0413B
:101550003449884201D1002117E03349884201D142
:10156000012112E03149884201D102210DE03049C8
:10157000884201D1032108E02E49884201D104218B
:1015800003E02D4988423DD105212C4AA2F5A876D9
:1015900052F82130CBB9012342F821300022204FEC
:1015A000C1EBC10406EBC40507EB4314D4F808C033
:1015B000844507D1D4F800C01446521C45F824C015
:1015C0000E2A02DA5B1C412BEEDB0025C1EBC100C9
:1015D00006EBC00656F8250088B1FFF7D9FE044691
:1015E00020000CD0D4E9020101F048FC38B1D4E964
:1015F000020101F04DFCA16909B1E06988476D1C49
:101600000E2DE7DBBDE8F08106489FE706489DE721
:1016100006489BE7064899E7064897E7064895E796
:10162000B8010020001001400020014000300140BE
:10163000005001400060014000800140A00C0020EB
:101640001FB50446012364220221002001F0D4FDCD
:10165000002364220321184601F0CEFD00940020EF
:101660008DF804008DF805008DF8060007218DF82F
:10167000071001218DF808108DF809008DF80A0077
:10168000FF208DF80B008DF80C106946404801F0E2
:10169000CEFF1FBD3E4802F0A0B83D4801F0C2BFDA
:1016A00010B53B4C0146204602F09CF8204602F063
:1016B000A5F80028FAD110BD354802F09FB8354989
:1016C0000860704733494860704710B5304C014698
:1016D000204602F087F8606840F00400606010BDAA
:1016E0002B48416821F004014160704780212A4A5B
:1016F000002802D0C2F800117047C2F8801170476C
:101700007CB5234D1021284602F011F9214C48B92F
:101710000DE001A902F068F820B9216811B1019823
:10172000C0B28847E9682846C9B20129F1D84FF408
:101730008041284602F0FBF850B90EE001A9284686
:1017400002F052F820B9216811B10198C0B288475F
:10175000284602F058F80028F0D00421284602F06C
:10176000E6F8002801D0606848B97CBD6168684629
:10177000884750B19DF80010284602F033F82846FB
:1017800002F046F80028F1D07CBDFFF7A9FF7CBD30
:1017900000000240F409002004E000E070B50024DD
:1017A000FE4D04EB840005EB800001F0C6F9641CDB
:1017B000052CF6D3F948643001F0BFF9F7487830CA
:1017C00001F0BBF9F5488C3001F0B7F9F348A030CF
:1017D00001F0B3F9F148B43001F0AFF9EF49F04846
:1017E000643141631431816370BD70B5044601F00A
:1017F00018FAEB4DA868401CA860286810B1686909
:1018000038B10CE02C60A868012808D1FFF7C6FFAA
:1018100005E02868E16AC06A884200D82C60686ADE
:10182000401C6862E06A01212A69814011432961F4
:10183000DA4900EB800001EB8000211D01F08BF9FB
:1018400001F0FBF9686900280CD02868E16AC06AD9
:10185000884207D2D3494FF080500860BFF34F8FC2
:10186000BFF36F8F70BD2DE9F0478146DDE9085663
:101870000A9C9846521E206B00EB820020F007075E
:10188000002023180A5C83F834200A5C12B1401C43
:101890001028F6D34FF0000A84F843A0052D00D39A
:1018A0000425E5626564C4F848A0201D01F050F9E4
:1018B00004F1180001F04CF92461C5F10500A061A4
:1018C0006462C4F84CA084F850A0424649463846A9
:1018D00001F080F92060002E00D03460BDE8F08770
:1018E0002DE9FF5F8146DDE90E788A4616469B4664
:1018F000B00001F010FA054628000AD0542001F08B
:101900000AFA04460CB1256304E0284601F04DFABA
:1019100000E000248CB10020CDE90240CDE9007840
:101920005B46324651464846FFF79DFF2046FFF78B
:101930005CFF012004B0BDE8F09F4FF0FF30F9E7F5
:101940009748416B0968002905D0416BC968C9688F
:101950004968816270474FF0FF318162704710B56E
:101960000446206B01F021FA2046BDE8104001F04A
:101970001CBA70B5044601F054F9894D04B92C68BD
:10198000201D01F00CF958B9E06A844A00EB80018F
:1019900052F8211021B9012181402869884328612A
:1019A000A06A18B104F1180001F0F9F8686A401C47
:1019B00068622868844208D17848211DA03001F06F
:1019C000CAF86868401C686007E0A868401EA86004
:1019D0002046FFF7C4FFFFF7B3FF01F02EF9686957
:1019E00000280AD02868844207D16E494FF0805001
:1019F0000860BFF34F8FBFF36F8F70BD2DE9F041CB
:101A00000026674F386B002808D0B869401CB861C1
:101A1000F86900B101263046BDE8F081FD686D1C13
:101A2000FD6045B9786BB96B7963B863386A401C5F
:101A30003862FFF785FFB86ADFF8608185420DD311
:101A4000786B006838B1786BC068C468606885429C
:101A50000ED2B86202E04FF0FF30B8623868C06A58
:101A600000EB800058F820000128D1D90126CFE7EB
:101A7000201D01F094F8A06A18B104F1180001F0DB
:101A80008EF8E06A01213A6981401143396100EB27
:101A9000800008EB8000211D01F05DF8E06A3968E4
:101AA000C96A8842CCD30126CAE72DE9F041002457
:101AB000002701F0B6F83A4D286B401E2863286BCA
:101AC000F0BBA868E0B3DFF8D480012608F18C08E9
:101AD0001DE0D8F80C00C46804F1180001F05FF8AC
:101AE000201D01F05CF8E06A2A6906FA00F1114352
:101AF00029612A4900EB800001EB8000211D01F0E3
:101B00002AF8E06A2968C96A884200D3EE61D8F8E9
:101B100000000028DDD10CB1FFF712FFAC6944B121
:101B2000FFF76CFF00B1EE61641E002CF8D10020BD
:101B3000A861E86920B101271A493807086000E068
:101B400003E0BFF34F8FBFF36F8F01F076F8384695
:101B500062E72DE9F04104460F46114EF568306802
:101B6000001D01F01CF838B9306890F82C100120E5
:101B70008840316981433161601C08D13FB13168CF
:101B8000BDE8F0410548091DB43000F0E4BF2C4425
:101B900030684460AC420DD2316805E0B80C0020DA
:101BA000280A002004ED00E0B06B091DBDE8F041FB
:101BB00000F0DDBF3168706B091D00F0D8FFB06A1E
:101BC000844200D2B46227E7FB48016B491C0163E1
:101BD000704770B505460E460023FFF7F5FFF6483F
:101BE000C2682C68A119944205D98C4208D9914247
:101BF00006D9012304E08C4201D8914200D9012387
:101C000029601BB1881A0021FFF7A3FFFFF74DFFE2
:101C1000002807D1E9494FF080500860BFF34F8F8B
:101C2000BFF36F8F70BD10B502460020002A07D0A9
:101C3000FFF7CAFF00211046FFF78BFFFFF735FFC4
:101C4000002807D1DD494FF080500860BFF34F8F67
:101C5000BFF36F8F10BD10B5044600F0E2FF0CB962
:101C6000D5480468E46A00F0E8FF204610BD8022F1
:101C7000EFF3118182F31188BFF34F8FBFF36F8FA2
:101C8000002801D1CC480068C06A81F311887047F0
:101C90002DE9F04104460D460026052D00D304250C
:101CA00000F0BFFFC44F04B93C68606CA84241D04B
:101CB000854208D939688C4209D03968C96AA94275
:101CC00005D8012603E039688C4200D10126D4F8FA
:101CD0002C80404500D1E5626564A069002802DBE4
:101CE000C5F10500A061B64D08EB8801606905EB00
:101CF0008101884215D1201D00F051FF012120B93A
:101D00003A6901FA08F082433A61E06A3A6981402F
:101D10001143396100EB800005EB8000211D00F0CC
:101D20001AFF3EB1A5494FF080500860BFF34F8FB6
:101D3000BFF36F8FBDE8F04100F07FBF9E4A106B8C
:101D4000002802D00120D06170470020D0611069C6
:101D5000B0FA80F0C0F11F00994900EB800001EB60
:101D6000800041684968416000F10803994201D14F
:101D7000496841604068C0681060704770B50446AB
:101D800000F04FFF8C4D04B92C68201D00F007FFB8
:101D900058B9E06A8A4A00EB800152F8211021B953
:101DA00001218140286988432861A06A18B104F1A3
:101DB000180000F0F4FE8248211DB43000F0CBFE84
:101DC00000F03BFF686928B100F02BFFFFF7B8FD7A
:101DD00000F033FF2868844209D1686940B177492F
:101DE0004FF080500860BFF34F8FBFF36F8F70BD0F
:101DF0007348A968B4300068884202D10020286086
:101E000070BDBDE8704099E700216D4B4269B43365
:101E10009A4206D1806AA3F12802904201D000B90B
:101E200001210846704770B50446002C2BD0624D46
:101E30002868844227D000F0F4FE2046FFF7E4FF34
:101E4000E8B1201D00F0ABFEE06A01212A69814063
:101E5000114329615A4900EB800001EB8000211DEC
:101E600000F079FEE06A2968C96A884207D35349BD
:101E70004FF080500860BFF34F8FBFF36F8FBDE806
:101E8000704000F0DABE70BD2DE9F0410446002636
:101E90008020EFF3118580F31188BFF34F8FBFF3DC
:101EA0006F8F2046FFF7B0FF40B1434F386B48B10A
:101EB000434804F118018C3000F04DFE85F3118881
:101EC0003046A9E5E06A3968C96A884200D301262C
:101ED000201D00F064FEE06A01213A69814011434F
:101EE0003961374900EB800001EB8000211D00F0D3
:101EF00032FEE3E770B5324E2F4DA0361CE0FFF7FF
:101F000063FE306820B10024FFF7CFFDA4B901E0E3
:101F10000124F9E700F085FEF068C468201D00F098
:101F20003EFEA868401EA8606868401E686000F019
:101F300084FE2046FFF713FD68680028DFD170BDDE
:101F40001F4E4FF080541D4DFFF7D4FF306801281D
:101F5000FAD92C60BFF34F8FBFF36F8FF4E71CB536
:101F6000154800242C30CDE900402346802215A1DD
:101F70001648FFF7B5FC012811D1802080F31188A5
:101F8000BFF34F8FBFF36F8F0B484FF0FF3181626C
:101F900001214161C460BDE81C4000F02EBE1CBDA3
:101FA000802080F31188BFF34F8FBFF36F8F0249FA
:101FB0000020486100F034BE280A002004ED00E053
:101FC000B80C002049444C4500000000411F0000AF
:101FD000FC48C0687047FB48C0687047F948806893
:101FE0007047002801D1F74800683430704710B5B9
:101FF0000C46F4490968183100F0B9FD2046BDE8E7
:1020000010400121A5E570B5154641F00043ED49AA
:102010000C68A3610968183100F09DFD2846BDE8F1
:102020007040012195E52DE9F041C068C46804F1D4
:102030001800074600F0B3FDE24D2A6B01265AB1A5
:102040003946E14800F087FDE06A2968C96A88429C
:1020500015D90120EE61DFE4201D00F0A0FDE06A4B
:102060002A6906FA00F111432961D74900EB800083
:102070008C3901EB8000211D00F06DFDE4E70020AC
:10208000CAE470B541F000410160C46800F087FD0A
:10209000201D00F084FDCB4DE06A01262A6906FA76
:1020A00000F111432961C84900EB80008C3901EB34
:1020B0008000211D00F04FFDE06A2968C96A88424E
:1020C00002D90120EE6170BD002070BDBD490A6AD1
:1020D0000260C9684160704770B504460D4600F063
:1020E000A0FDB849C8682A68531C08D02368096A4B
:1020F0008B4206D06168814203D801240DE00024A0
:102100000BE06168401A904206D2101A28602046FF
:10211000FFF7DCFF002400E0012400F08EFD2046E4
:1021200070BDA8490120C8617047A6480068704783
:1021300070B5044600283AD0A24DE06A2968C96A01
:10214000884234D2A069002804DB2868C06AC0F144
:102150000500A061E06A9C4E00EB80008C3E616946
:1021600006EB800081421FD1201D00F018FD0121E7
:1021700050B9E06A00EB800256F8222022B92A69A1
:1021800001FA00F082432A612868C06AE0622A6985
:1021900081401143296100EB800006EB8000211D86
:1021A000BDE8704000F0D7BC2868C06AE06270BD2E
:1021B00070B504460020002C2DD0A16C491EA164EE
:1021C000636CE26A9A4226D0002924D1201D00F0D7
:1021D000E6FC7D4A7B498C3A012350B9E06A00EB6A
:1021E000800552F8255025B90D6903FA00F08543A2
:1021F0000D61606CE062C0F10500A061E06A0D69EC
:1022000083402B430B6100EB800002EB8000211D1B
:1022100000F0A1FC012070BD6A49086880690A6865
:102220000968D26AC2F105028A6170476549086887
:10223000002803D00868826C521C826408687047CA
:1022400070B506460C4600F0ECFC5E4D2868C06C8C
:1022500080B92A68012082F850005CB10121204633
:10226000FFF777FC59494FF080500860BFF34F8F5C
:10227000BFF36F8F00F0E1FC00F0D3FC2868C46C62
:10228000002034B116B12968C86402E02A68611ED2
:10229000D164296881F8500000F0CFFC204670BD61
:1022A0002DE9F04781460F461646984600F0B9FCE6
:1022B000444D286890F85000022817D02C68E06C34
:1022C00020EA0900E0642968012081F85000B8F193
:1022D000000F0BD001214046FFF73BFC3B494FF07C
:1022E00080500860BFF34F8FBFF36F8F00F0A5FCE5
:1022F00000F097FC16B12868C06C3060286890F830
:10230000500001280DD02868C16CB943C164012474
:102310002968002081F8500000F08FFC2046BDE8BD
:10232000F0870024F4E72DE9F04104460D4690467D
:102330001F46012600F075FC0FB1E06C386094F880
:102340005000022184F85010B8F1050F13D2DFE8D5
:1023500008F01203070B0D00E16C2943E1640AE069
:10236000E16C491CE16406E0E56404E0022801D068
:10237000E56400E0002601281FD1201D00F00FFCBD
:10238000104DE06A01212A698140114329610E49FB
:1023900000EB80008C3901EB8000211D00F0DBFB9D
:1023A000E06A2968C96A884207D908494FF0805015
:1023B0000860BFF34F8FBFF36F8F00F03EFC3046D5
:1023C0007FE50000280A0020440D002004ED00E015
:1023D0002DE9F0470446089F01268020EFF3118580
:1023E00080F31188BFF34F8FBFF36F8F002B01D0A5
:1023F000E06C186094F85000022384F85030052AED
:1024000013D2DFE802F01203070B0D00E26C0A435F
:10241000E2640AE0E16C491CE16406E0E16404E086
:10242000022801D0E16400E0002601282CD1DFF869
:102430001481D8F830004FF0010970B104F118018F
:10244000414800F088FBE06AD8F80010C96A884269
:102450001AD9BFB1C7F8009016E0201D00F09FFB0D
:10246000E06AD8F8102009FA00F11143C8F81010FA
:1024700000EB800134488C3800EB8100211D00F016
:102480006AFBE0E7C8F81C9085F31188304646E700
:102490002DE9F041044688468020EFF3118780F350
:1024A0001188BFF34F8FBFF36F8F94F85010022045
:1024B00084F85000E06C401CE064012927D1214DD4
:1024C000286B012678B104F118011F4800F043FB86
:1024D000E06A2968C96A884219D9B8F1000F15D095
:1024E000C8F8006013E0201D00F059FBE06A2A697B
:1024F00006FA00F111432961134900EB80008C3981
:1025000001EB8000211D00F026FBE1E7EE6187F37F
:102510001188D6E410B500280BD0044600F081FBEA
:1025200094F85000022807D0002400F086FB2046D3
:1025300010BD04480468F1E7002084F8500001242D
:10254000F3E70000280A0020440D002070B504467F
:102550000D4600F066FBD4E90F12206801FB020073
:1025600060600020A0632068A060E06B226C21689E
:10257000401E00FB0210E0604FF0FF3084F8440082
:1025800084F8450004F110004DB100F0D6FA04F1D2
:10259000240000F0D2FA00F050FB012070BD216948
:1025A0000029F8D0FFF73FFD0028F4D0FC494FF098
:1025B00080500860BFF34F8FBFF36F8FEBE7034688
:1025C0000098002904D00260C36301640121BDE7C3
:1025D0000060F9E7F8B506460D461746002D10D005
:1025E00006FB05F0483000F096FB04463CB104F1D0
:1025F00048023B46294630460094FFF7E0FF20465C
:10260000F8BD0020EEE72DE9F041044600F009FB9B
:1026100094F9455004F1240609E0606A48B1304657
:10262000FFF701FD08B1FFF77CFD6D1E6DB2002DB7
:10263000F3DC4FF0FF3684F8456000F0FEFA00F05E
:10264000F0FA94F9445004F1100709E0206948B108
:102650003846FFF7E8FC08B1FFF763FD6D1E6DB269
:10266000002DF3DC84F84460BDE8F04100F0E5BAE9
:1026700010B5044600F0D5FAA06BE16B884201D199
:10268000012400E0002400F0D8FA204610BD2DE916
:10269000F041044617460026A56B226C002A10D094
:1026A000C7B1E06801F0A6FBE168206C091AE1609F
:1026B0002268914202D26168081AE060022F16D0A7
:1026C00017E02068A8B96068FFF772FD0646002091
:1026D00060600EE0A06801F08DFB216CA0680844EA
:1026E000A0606168884204D32068A06001E005B161
:1026F0006D1E6D1CA5633046BDE8F0812DE9FF47D6
:1027000082B004468A4699460025A8464FF0805676
:10271000A34F00F086FAA06BE16B884206D3B9F1B3
:10272000020F03D00498F8B115B325E04A4651468C
:102730002046FFF7ACFF616A51B104F12400FFF7B6
:1027400072FC58B13E60BFF34F8FBFF36F8F05E04F
:1027500020B13E60BFF34F8FBFF36F8F00F06DFA73
:10276000012006B0BDE8F08700F067FA0020F8E726
:102770006846FFF7ABFC012500F05FFAFFF724FA8B
:1027800000F04FFA94F94400401C01D184F84480D1
:1027900094F94500401C01D184F8458000F04DFAC1
:1027A00004A96846FFF798FC30B12046FFF72BFFDD
:1027B000FFF77BF90020D4E72046FFF759FF88B1E7
:1027C00004F110000499FFF712FC2046FFF71BFFED
:1027D000FFF76BF900289CD13E60BFF34F8FBFF32A
:1027E0006F8F96E72046FFF70EFFFFF75EF990E741
:1027F000002807D0002141600160C16000231A4613
:1028000019467BE7704710B5024600210120FFF70B
:10281000E1FE04462046FFF7EBFF204610BD2DE900
:10282000F041174604461A468020EFF3118680F3E4
:102830001188BFF34F8FBFF36F8FA06BE36B98428C
:1028400005D3022A03D0002086F3118854E794F9B7
:1028500045502046FFF71BFF681C04D06D1C84F810
:1028600045500120F0E7606A0028FAD004F1240006
:10287000FFF7D9FB0028F4D0002FF2D001203860F8
:10288000EFE770B50D468021EFF3118481F31188D5
:10289000BFF34F8FBFF36F8F836BC16B994217D913
:1028A00090F945205B1C8363511C04D0521C80F8B6
:1028B000452001200DE0416A0029FAD02430FFF7BD
:1028C000B2FB0028F5D0002DF3D001202860F0E7FE
:1028D000002084F3118870BD10B5044600F0A1F902
:1028E000A06B20B1002400F0A8F9204610BD0124FF
:1028F000F9E730B40B46026C002A0CD0C1681144D1
:10290000C1604468A14201D30168C160C16830BCA4
:10291000184601F06FBA30BC70472DE9FF4F83B005
:1029200004468B469A460026B1464FF08057DFF8A2
:10293000708000F076F9A56BA5B3E668594620468D
:10294000FFF7D7FFBAF1000F13D0E660606A50B10D
:1029500004F12400FFF767FB28B1C8F80070BFF34B
:102960004F8FBFF36F8F00F068F9012007B0BDE80B
:10297000F08F6D1EA563206810B9FFF757FC6060EB
:1029800020690028EFD004F11000FFF74CFB00286D
:10299000E9D0C8F80070BFF34F8FBFF36F8FE2E745
:1029A00004ED00E0FFE7059808B126B107E000F06C
:1029B00044F90020DAE701A8FFF788FB012600F0C0
:1029C0003CF9FFF701F900F02CF994F94400401CA0
:1029D00001D184F8449094F94500401C01D184F859
:1029E000459000F02AF905A901A8FFF775FB58B139
:1029F0002046FFF708FEFFF758F82046FFF76CFF68
:102A0000002896D00020B1E72046FFF765FFE0B12F
:102A1000206830B900F005F96068FFF789FB00F025
:102A20000CF904F124000599FFF7E1FA2046FFF7BD
:102A3000EAFDFFF73AF800287FF47BAFC8F8007092
:102A4000BFF34F8FBFF36F8F73E72046FFF7DBFDB8
:102A5000FFF72BF86DE72DE9F04104469046802002
:102A6000EFF3118780F31188BFF34F8FBFF36F8FA0
:102A7000A66B002E1DD094F944502046FFF739FF75
:102A8000761EA663681C04D06D1C84F84450012097
:102A900010E020690028FAD004F11000FFF7C3FA13
:102AA0000028F4D0B8F1000FF1D00120C8F80000E0
:102AB000EDE7002087F311881EE670B504468020FC
:102AC000EFF3118580F31188BFF34F8FBFF36F8F42
:102AD000A06B002806D0E6682046FFF70AFFE660F4
:102AE000012000E0002085F3118870BD10B5044678
:102AF00000F097F8A46B00F0A0F8204610BD10B5C8
:102B0000044600F08EF8D4E90E10441A00F095F84F
:102B1000204610BD806B704700F047B9806B0028DD
:102B200001D00020704701207047816BC06B81424B
:102B300001D1012070470020704700F10801416079
:102B40004FF0FF328260C160016100210160704777
:102B500000210161704742684A6093688B60936806
:102B60005960916008610168491C0160704730B587
:102B70000C68621C02D000F1080202E0026904E065
:102B80001A4653681D68A542FAD953684B6099608C
:102B90008A60516008610168491C016030BD0169AB
:102BA000D0E901329A60D0E901235A604A68824232
:102BB00001D182684A60002202610868401E0860F4
:102BC00070470000802080F31188BFF34F8FBFF360
:102BD0006F8FFEE720384FF08073C36121F0010151
:102BE00081612449416140F8202970474FF0E0207D
:102BF0002149416107210161704710B51F480168F3
:102C000041F47F010160016841F07F410160FFF7FD
:102C1000EDFF1B4900200860FDF7B4FA002010BD4D
:102C20007047802080F31188BFF34F8FBFF36F8F01
:102C300013480168491C0160704711490868401E2B
:102C40000860002801D180F31188704710B58020FA
:102C500080F31188BFF34F8FBFF36F8FFEF7CEFE67
:102C600020B106494FF080501C390860002080F3E5
:102C7000118810BDC52B0000FFAF010020ED00E062
:102C8000640A002030B55C4900E011460A688242BF
:102C9000FBD34B685C18844203D1406818444860F9
:102CA00008460D6844682318AB420DD1524B103BC7
:102CB0001B689A4206D05268224442600A68126831
:102CC000026002E0036000E00260814200D0086020
:102CD00030BD4FF4B4314948420706D0C01D20F042
:102CE00007004649411AC1F5B431434A1060002338
:102CF00053600144083921F00701103A11604B601C
:102D00000B600B1A436001604068906050604FF0A8
:102D10000040D06070472DE9F04105460026FEF7DF
:102D200053FF354F103F386808B9FFF7D2FFF868F6
:102D3000054235D13DB10835680704D005F00700DC
:102D4000C0F1080005445DB37868854228D82A4957
:102D50000846046801E0214604466068A84202D2A1
:102D600020680028F7D13868844219D00E680836E8
:102D7000206808606068411B102904D9601941600F
:102D80006560FFF77FFF61687868401A7860BA680D
:102D9000904200D2B860F868014361600020206072
:102DA000FEF783FE3046BDE8F08170B5002819D0EB
:102DB00008380446104D6068103DE968084211D09B
:102DC0002268002A0ED188436060FEF7FDFE60682D
:102DD0006968084468602046FFF754FFBDE870400A
:102DE000FEF763BE70BD0448103840687047024863
:102DF0001038806870477047780A0020800D0020E6
:102E0000426901238B409A434261704770B5044682
:102E10000E46154631462046FFF7F2FFEA064FF010
:102E2000010000FA06F00CD5A1680143A160E90792
:102E300003D021690143216118E0216981432161A7
:102E400014E0A1688143A160A90703D5E1680143AB
:102E5000E1600BE0E1688143E160E90703D02169AB
:102E60000143216102E0216981432161206270BD3B
:102E7000426901238B401A4342617047C069C840D0
:102E800000F0010070478069C84000F00100704701
:102E900001228A40026270472DE9F0471646DDF8AC
:102EA00020801F46DFF8AC920124AB4D8C40A0EB94
:102EB00009034FF4805C4FF08042484576D01FDC18
:102EC000A64BC01838D0604558D0B0F5005F15D17A
:102ED000906840F00400906001230022022000F07E
:102EE0008BF99F48012E6CD04168A1434160012FAE
:102EF0006BD0D5F81002A043C5F81002BDE8F087EA
:102F000063457DD0B3F5405FF8D1906840F4001080
:102F1000906001230022052000F06EF99148012EF7
:102F20006FD04168A1434160012F6BD0D5F83002CA
:102F3000A043C5F83002E1E7906840F001009060DE
:102F400000220123104600F057F984484042012E28
:102F50000AD04168A1434160012F09D0D5F8000291
:102F6000A043C5F80002C9E7416821434160F3E787
:102F7000D5F800022043C5F80002BFE7906840F092
:102F80000200906001230022184600F035F97648CF
:102F9000012E0CD04168A1434160B8F1010F0AD065
:102FA000D5F80003A043C5F80003A7E713E0416884
:102FB00021434160F1E7D5F800032043C5F8000341
:102FC0009CE741682143416091E7D5F81002204316
:102FD000C5F8100292E7906840F01000906001235D
:102FE0000022032000F008F9012E10D0D9F80400C7
:102FF000A043C9F80400012F0FD0D5F8200202E049
:1030000011E032E035E0A043C5F8200276E7D9F8B8
:1030100004002043C9F80400EDE7D5F8200220435E
:10302000C5F820026AE7906840F020009060012314
:103030000022042000F0E0F84C48012E0BD041683B
:10304000A1434160B8F1010F09D0D5F82003A04396
:10305000C5F8200352E7416821434160F2E7D5F803
:1030600020032043C5F8200348E74168214341601D
:103070005AE7D5F830022043C5F830023EE7012276
:10308000400100EB810000F18440026070470022A3
:10309000400100EB810000F1844002607047400174
:1030A00000EB810000F184400168C1F10101016081
:1030B00070470068C84000F001007047C2F1180373
:1030C0006FF07F42DA4003688A4013430360704721
:1030D000C2F118036FF07F42DA4003688A409343DD
:1030E00003607047C2F118036FF07F42DA40036853
:1030F0008A40534003607047C2F118036FF07F426B
:10310000DA400068C84010407047C2F118036FF001
:103110007F42DA4072B603688A401343036062B6A6
:103120007047C2F118036FF07F42DA4072B603684D
:103130008A409343036062B67047C2F118036FF090
:103140007F42DA4072B603688A405340036062B639
:1031500070470000005001400000014000F0FEBF39
:10316000003001400080014000200140006001402B
:1031700010B572B6000B1B4CA168884720688047C9
:1031800062B610BD10B5030701D0022010BD930731
:1031900001D0022010BD72B69208124CE368984725
:1031A0002068804762B6002010BD10B572B60D4988
:1031B00040F289431E284A6808D028280AD050289F
:1031C0000CD00949581C904762B610BD07491846F3
:1031D0009047F9E7064918469047F5E7054918462C
:1031E0009047F1E7800A00206E7AFCAB251FF4AB14
:1031F0002929F4AB4D52F8AB2DE9F04F86B001EB25
:1032000081074FF01F0BA2F1640A0BFA07F60AFAC6
:1032100007F48D1F05EB850C0BFA0CF70AFA0CF579
:103220004FF001084FEA41094FF0030CA1F10C0ED9
:103230000CFA09FC08FA01F80EEB8E0E8B40CDF863
:1032400000E00BFA0EFECDF814E0DDF800E00AFA1B
:103250000EFECDF810E0A1F1120E0EEB8E0E0BFA61
:103260000EFB0AFA0EFACDE902ABA1F1100A4FEA01
:103270004A0A4FF0030B0BFA0AFBCDF804A0DFF863
:103280009CA3062837D2DFE800F003396EA3F0EFE5
:10329000632A18D906290AD2DAF80001B043CAF81D
:1032A0000001DAF800012043CAF800010BE00C2904
:1032B00009D2DAF80401B843CAF80401DAF80401C3
:1032C0002843CAF80401DAF8000020EA0C00CAF822
:1032D0000000632A00D90122DAF8000002FA09F29C
:1032E0000243CAF80020CE48016821EA08010160C3
:1032F00001681943016006B0BDE8F08F632A18D950
:1033000006290AD2DAF81001B043CAF81001DAF837
:1033100010012043CAF810010BE00C2909D2DAF899
:103320001401B843CAF81401DAF814012843CAF8A2
:103330001401DAF8040020EA0C00CAF80400632A39
:1033400000D90122DAF8040002FA09F20243CAF8AD
:103350000420B3481030016821EA080101600168C7
:1033600019430160C7E7632A18D906290AD2DAF897
:103370002001B043CAF82001DAF820012043CAF83E
:1033800020010BE00C2909D2DAF82401B843CAF86D
:103390002401DAF824012843CAF82401DAF80800E5
:1033A00020EA0C00CAF80800632A00D90122DAF8E2
:1033B000080002FA09F20243CAF8082098482030AF
:1033C000016821EA0801016001681943016092E780
:1033D000632A36D906290AD2DAF86001B043CAF85E
:1033E0006001DAF860012043CAF8600129E00C2985
:1033F0000AD2DAF86401B843CAF86401DAF8640161
:103400002843CAF864011CE012290CD2DAF86801DA
:10341000059CA043CAF86801DAF86801049C2043BF
:10342000CAF868010DE018290BD2DAF86C01039C88
:10343000A043CAF86C01DAF86C01029C2043CAF878
:103440006C01102912D2DAF8200020EA0C00CAF828
:103450002000632A00D90122DAF8200002FA09F2DA
:103460000243CAF8202011E071E019E0DAF82400E4
:1034700020EA0B00CAF82400632A00D9012201982F
:103480008240DAF824000243CAF82420644840301D
:10349000016821EA080101600168194301602AE717
:1034A000632A27D906290AD2DAF87001B043CAF88C
:1034B0007001DAF870012043CAF870011AE00C2993
:1034C0000AD2DAF87401B843CAF87401DAF8740160
:1034D0002843CAF874010DE012290BD2DAF87801FA
:1034E000059CA043CAF87801DAF8784104980443AF
:1034F000CAF87841102910D2DAF8300020EA0C001E
:10350000CAF83000632A00D90122DAF8300002FA42
:1035100009F20243CAF830200FE0DAF8340020EA5A
:103520000B00CAF83400632A00D9012201988240B6
:10353000DAF834000243CAF83420394850300168C0
:1035400021EA08010160016819430160D3E6632A9A
:1035500036D906290AD2DAF88001B043CAF88001C8
:10356000DAF880012043CAF8800129E00C290AD248
:10357000DAF88401B843CAF88401DAF884012843F0
:10358000CAF884011CE012290CD2DAF88801059CE3
:10359000A043CAF88801DAF8884104980443CAF8BD
:1035A00088410DE018290BD2DAF88C410398844346
:1035B000CAF88C41DAF88C01029C2043CAF88C01CD
:1035C000102910D2DAF8400020EA0C00CAF84000B6
:1035D000632A00D90122DAF8400002FA09F2024314
:1035E000CAF840200FE0DAF8440020EA0B00CAF8DD
:1035F0004400632A00D9012201988240DAF844008D
:103600000243CAF8442006486030016821EA0801F4
:1036100001600168194301606DE60000000001408F
:1036200000060140416821F40071416070472DE9B6
:10363000F04704460D46D5484FF4805726184FF002
:1036400080404FF400584FF4405973D0BE4276D0BA
:10365000464579D04E4503D1816841F4804181606F
:103660002046FFF7DFFF606840F400506060A0680C
:103670006FF30D00A060C648296800680009B0FB20
:10368000F1F0A168401E0843A060606820F47C004F
:10369000606060682979AA7940EA81406979C90443
:1036A00041EA825108436060F6B3BE4255D04645B8
:1036B00057D04E4502D12A2000F05CF9E06880B274
:1036C000E060E879697A401C000440EA0160E16842
:1036D0000843E060606820F07F4060606068E97ADD
:1036E00040EA01606060606844F2140188436060F1
:1036F0006068297A2A7B40EA0110A97A890041EAA8
:1037000082310843606086B3BE423FD046454DD00B
:103710004E4560D1287AA97A0843297B084355D0C1
:10372000BDE8F0472A2003E013E003E007E00BE0E8
:1037300000F015B9816841F40061816090E781680B
:1037400041F4805181608BE7816841F400518160D0
:1037500086E7272000F00EF9B0E7282000F00AF9EC
:10376000ACE7292000F006F9A8E7FFE7287AA97A54
:103770000843297B084304D0BDE8F047272000F028
:10378000EEB8BDE8F047272000F0F4B8287AA97A0F
:103790000843297B084304D0BDE8F047282000F007
:1037A000DEB8BDE8F047282000F0E4B8287AA97A0E
:1037B0000843297B084304D0BDE8F047292000F0E6
:1037C000CEB8BDE8F047292000F0D4B8BDE8F047F6
:1037D0002A2000F0CFB8BDE8F087416841F40071BD
:1037E00041607047016070470068C0F308020A60DA
:1037F000400501D50220704700207047406840F323
:103800000000401C7047406840F3C000401C7047F7
:103810004068C0F34000704782686FF30D02826019
:103820005B4A12681209B2FBF1F18268491E11432A
:10383000816070475649806809680909C0F30D0026
:10384000401CB1FBF0F07047436923F0050343616E
:10385000436941EA82010B43436170474069C0F309
:10386000C010704710B5446924F07A04446144697B
:10387000D20044EA410142EA03121143416110BD02
:103880004069C0F300207047036923F0050303611A
:10389000036941EA82010B4303617047016941F00A
:1038A0001001016170470069C0F340007047006972
:1038B000C0F3C00070470022FF2918D0A1F5807323
:1038C000FF3B14D0FE290DD0B1F5FF7F0AD0F829B7
:1038D0000AD0B1F5FC7F07D0802907D0B1F5C07FB1
:1038E00004D0FEE7012202E0022200E00322816808
:1038F00021F06071816081684FF4000343EA026245
:103900001143816070478168090201D5002070472A
:103910008068400101D5022070470120704742684D
:103920000A434260704742688A4342607047CA0651
:1039300002D5826852020ED44A0402D582689202ED
:1039400009D44A0702D58268920304D4490604D5F3
:103950008068000101D5012070470020704700F009
:103960001F02012191404009800000F1E020C0F8D1
:103970000011704700F01F020121914040098000B2
:1039800000F1E020C0F88011704700000000FEBF89
:10399000900A002030B54FF0804108687B4A450707
:1039A0007B4C7C4B7C480CD50D68AD0701D5026083
:1039B0001CE02268D20702D0784A026016E0036059
:1039C00014E00D68ED070ED0646AA40701D503600A
:1039D00000E0026002680523B2FBF3F2C8235A43F9
:1039E000D208026002E04FF4FA4202604968C90757
:1039F00002D0016849080160694A0168B1FBF2F12F
:103A0000416030BD4FF080400168490702D4006832
:103A1000C00707D0002044F6206100BF401C884248
:103A2000FBD37047002000BF401C1428FBD3704715
:103A300010B5574C01202062FFF7E4FFFFF7E2FFCB
:103A4000606A20F002006062A06A56490840A062E5
:103A5000A06A55490843A062606A20F004006062D1
:103A6000206B0028FCD010BD10B5FFF7E1FF4848DF
:103A7000416A41F0010141628004016841F00101A5
:103A80000160016821F00401016010BD10B54049DA
:103A900001200862FFF7B6FFFFF7B4FF4FF0804048
:103AA000016841F002010160016841F00401016018
:103AB00010BD10B54FF08044A06840F08070A06049
:103AC0003A48016A21F001010162FFF79BFF20687B
:103AD00020F001002060206820F00400206010BD6C
:103AE00010B52B4901200860FFF78CFF4FF0804094
:103AF000016821F002010160016841F004010160E8
:103B000010BD10B5224900200860FFF77BFF4FF081
:103B10008040016821F002010160016841F0040168
:103B2000016010BD10B54FF08044A06840F48000E3
:103B3000A0607820FFF739FBFFF796FF606820F060
:103B40000100606060686060FFF724FF1248184958
:103B50000068884204D9BDE810407820FFF725BBF3
:103B60000E49884204D9BDE810405020FFF71DBB24
:103B70001049884204D9BDE810402820FFF715BB42
:103B8000BDE810401E20FFF710BB0000008051016F
:103B900000100340002D3101900A0020005A6202FB
:103BA00040420F0000FEE0FC3200050000E0014052
:103BB00000B4C40480C3C90125480047FEE7FEE7FE
:103BC000FEE7FEE7FEE7FEE7FEE7FEE7FEE7FEE7CD
:103BD000FEE7FEE7FEE7FEE7FEE7FEE7FEE7FEE7BD
:103BE000FEE7FEE7FEE7FEE7FEE7FEE7FEE7FEE7AD
:103BF000FEE7FEE7FEE7FEE7FEE7FEE7FEE7FEE79D
:103C0000FEE7FEE7FEE7FEE7FEE7FEE7FEE7FEE78C
:103C1000FEE7FEE7FEE7FEE7FEE7FEE7FEE7FEE77C
:103C2000FEE7FEE7FEE7FEE7FEE7FEE7FEE7FEE76C
:103C3000FEE7FEE7FEE7FEE7FEE7FEE7FEE7FEE75C
:103C4000FEE7FEE7FEE7FEE7FEE7FEE7FEE7FEE74C
:103C5000490100003FB5A1B05E4C2368002B13D092
:103C60008DF800008DF801100025ADF8025080217C
:103C700001A8249B00F0D6FB8DF8835000231A4640
:103C800069462068FEF73AFD25B030BD37B5A2B0D1
:103C9000002400944F4D2B68002BF5D08DF80400C4
:103CA0008DF80540ADF806400A46802102A8249B05
:103CB00000F0B8FB8DF8874000236A4601A9286808
:103CC000FEF7ADFD00980028DED043494FF080504C
:103CD0000860BFF34F8FBFF36F8FD5E70FB410B5F8
:103CE00003AB00210846029AFFF7B4FF10BC5DF851
:103CF00014FB0FB410B503AB00210120029AFFF7AB
:103D0000A9FFF3E70FB410B503AB00210220029A1C
:103D1000FFF7A0FFEAE70FB410B503AB00210320C3
:103D2000029AFFF797FFE1E70FB410B503AB00214C
:103D30000420029AFFF78EFFD8E70FB410B503AA4C
:103D400000200299FFF7A2FFD0E710B5214C2068B0
:103D5000002808D1002284216420FEF73BFC20606B
:103D6000002800D1FEE710BD70B5A2B01BA5194810
:103D7000006800281ED000231A4601A9FEF7CDFDD9
:103D8000012817D19DF80400012815D0022817D06A
:103D9000032813D0042811D010A49DF8050001AE0B
:103DA00080B1FEF715F90246331D21460CA000959F
:103DB00000F028FB22B070BD08A4EEE707A4ECE7F2
:103DC00006A4EAE72B46321D214608A000F01AFBA4
:103DD000F0E70000980A002004ED00E00000000079
:103DE00025735B25645D202573257300257325737A
:103DF0002573000040EA01039B0703D009E008C9CE
:103E0000121F08C0042AFAD203E011F8013B00F89F
:103E1000013B521EF9D27047D2B201E000F8012BEB
:103E2000491EFBD270470022F6E710B513460A463A
:103E300004461946FFF7F0FF204610BDCAB2401EE7
:103E400010F8011F8A4202D00029F9D100207047E2
:103E500010B5002200E0521C835C8C5CA34201D1AF
:103E6000002BF8D1D8B2E1B2401A10BD30B50B46E4
:103E7000014600202022012409E021FA02F59D429A
:103E800005D303FA02F5491B04FA02F52844151E6E
:103E9000A2F10102F1DC30BD2DE9F05F0546002002
:103EA00092469B4688460646814640241BE02846AB
:103EB00041464746224600F0FAF953465A46C01A90
:103EC000914110D311461846224600F0E1F92D1A0F
:103ED00067EB01084F4622460120002100F0D8F987
:103EE00017EB00094E41201EA4F10104DFDC484617
:103EF00031462A464346BDE8F09F2DE9FE4F8046F5
:103F000081EA0300C00F0C46009021F0004123F02D
:103F10000045B8EB0200A94105D240462146904633
:103F20001C460B46024623F00040104347D0270DA5
:103F3000C7F30A00C3F30A510290401A01904028C7
:103F40006BDAC3F3130040F4801B0098924620B153
:103F50000023D2EB030A63EB0B0B01985946C0F127
:103F60004002504600F094F906460D465046594628
:103F7000019A00F0ACF910EB08006141002487EAD7
:103F8000115284EAE7731A4340D0009A62B3019A4F
:103F9000012A4FEA075215DC001B61EB02014FF0CA
:103FA000004202EA0752CDE90042001C41F58011AF
:103FB00032462B4600F0ACF903B0BDE8F08F404626
:103FC0002146F9E7001B61EB0201001C41F580135B
:103FD00000185B412018A2F5001747EB030140EAE7
:103FE000D570B6196D4111E06D084FEA360645EA05
:103FF000C0754FEA0752001B61EB0201001C41F53E
:10400000801149084FEA30000019514132462B46D1
:1040100003B0BDE8F04F00F06CB9009801224000F9
:104020000023D0EB020263EBE073009821464FEAD5
:10403000E074B8EB000061EB0401E9E783F00043B2
:104040005BE781F0004158E72DE9FE4F81EA030468
:1040500004F0004421F0004100944FF0000B23F0E5
:10406000004350EA01045ED052EA03045BD0C3F37C
:104070000A54C1F30A552C44A4F2F3340194A0FB72
:104080000254C1F3130141F48011C3F3130343F449
:10409000801301FB024400FB034E840A970A44EAA2
:1040A000815447EA8357A4FB076802958D0A05FBF4
:1040B00007854FEA932C04FB0C542705029D4FEA19
:1040C000065847EA1637B5EB08056EEB070C870E66
:1040D000920E47EA811742EA8312A7FB0201B6EB70
:1040E0000B0164EB00042B0D43EA0C335E1844EB28
:1040F0001C50DA465146E7FB0201C5F313044FEAB0
:104100000B3343EA14534FEA0432019C43EA06039B
:10411000A4F10C040294009CCDE900B400F0F8F87E
:1041200003B0BDE8F08F00200146F9E72DE9F04D1E
:1041300081EA030404F0004B21F0004514464FF0DF
:10414000000A23F0004150EA050220D054EA01029F
:104150001DD0C5F30A570246C5F31303C1F313007C
:10416000C1F30A5640F4801543F48013A7EB060808
:10417000101BD64608F2FD3873EB050002D308F198
:10418000010801E092185B41B8F1000F03DA00204A
:104190000146BDE8F08D00204FF4801106468446AC
:1041A0000EE0171B73EB050705D3121B63EB05032A
:1041B00006434CEA010C49084FEA300092185B4173
:1041C00050EA0107EDD152EA030012D082EA04005E
:1041D00083EA0501084305D0101BAB4106D201223A
:1041E000002306E000224FF0004302E06FF00102DE
:1041F00053101AEB06004CEB085110EB0A0041EB90
:104200000B01BDE8F04D00F074B8C1F30A52C1F3E0
:10421000130140F2FF3341F480119A4202DA002088
:104220000146704740F233439A42A2F2334202DC25
:10423000524200F03CB800F02BB8000030B5041E2C
:1042400071F1000404DB4FF00044404264EB0101D3
:10425000141E73F1000405DB1C464FF0004352426C
:1042600063EB0403994208BF904230BD064C074DF2
:1042700006E0E06840F0010394E807009847103436
:10428000AC42F6D3FBF764FF4450000064500000DA
:10429000202A04DB203A00FA02F100207047914006
:1042A000C2F1200320FA03F3194390407047202AFB
:1042B00004DB203A21FA02F00021704721FA02F3D0
:1042C000D040C2F120029140084319467047202A8D
:1042D00006DBCB17203A41FA02F043EAE07306E02E
:1042E00041FA02F3D040C2F120029140084319463E
:1042F000704710B5141E73F1000408DA401C41F138
:10430000000192185B411A4301D120F0010010BD59
:104310002DE9F04D92469B4611B1B1FA81F202E0CF
:10432000B0FA80F220329046FFF7B2FF04460F4603
:1043300040EA0A0041EA0B0153465A46084313D0AB
:10434000114653EA010019D0C8F140025046FFF768
:10435000AEFF05460E46504659464246FFF798FFC7
:10436000084305D0012004E020463946BDE8F08D21
:104370000020054346EAE0762C4337430A9863055C
:10438000E40AA0EB08000022FD0A44EA47540A3080
:1043900002D500200146E9E7010510196941DDE970
:1043A000084500196941BDE8F04DA2E770B58C18C9
:1043B00010F8015B15F0070301D110F8013B2A1139
:1043C00006D110F8012B03E010F8016B01F8016B26
:1043D0005B1EF9D12B0705D40023521E0DD401F822
:1043E000013BFAE710F8013BCB1A921C03E013F8EB
:1043F000015B01F8015B521EF9D5A142D8D3002020
:1044000070BD00000FB4054B10B503A9044A029813
:1044100000F0F4F810BC5DF814FB00006D0E000015
:10442000C00A00207CB50C001D461646014601D08E
:10443000601E00E00020CDE90010064B6A462946C8
:10444000304600F0DBF8002C02D0009A00211170F9
:104450007CBD0000034D000002E008C8121F08C127
:10446000002AFAD170477047002001E001C1121FF5
:10447000002AFBD1704700002DE9FF5F82B00021C8
:10448000DDE90430020DDDF840B0034318D044F6F6
:104490001050A2F2FF3242431514119801281FD088
:1044A000A5EB0B00401C5FEA000A4FF000064E4FE0
:1044B000DFF83891B046504615D5CAF1000413E034
:1044C000119801244AA3012801D16FEA0B01029837
:1044D000119AC0E90031C0E9024206B0BDE8F09F80
:1044E000CBF10000DFE704460021404A491842EBC7
:1044F0000450CDE9001012E0E00707D032463B46F9
:1045000040464946FFF7A0FD8046894632463B4675
:1045100010461946FFF798FD06460F466410002C1A
:10452000EAD1DDE90401DDE90023BAF1000F06DA82
:10453000FFF78AFD42464B46FFF786FD05E0FFF791
:10454000F5FD42464B46FFF7F1FD04460E460022BC
:10455000284BFFF773FE03D84FF0FF30014607E00A
:104560000022254B20463146FFF7C7FCFFF74DFEE2
:10457000102409E0002C0ADB0A220023FFF78CFC40
:10458000039B30321A55641E50EA0102F2D1641CBA
:10459000039AC4F111031444119A012A03D0012291
:1045A00008430DD10AE0084304D000204FF0110B5E
:1045B000119072E7A3EB0B056D1E0DE05B4504DD6A
:1045C0004FF0000205F1010504E003DA4FF00002AC
:1045D000A5F10105002AECD002981199C0E9023139
:1045E000C0E9004579E70000000014400000F03FFA
:1045F000300000000000F0430000E03F2DE9FF4FD5
:1046000095B09A46884606460025EEE1252877D1E2
:1046100000242746F94A0121039400E0044316F8D8
:10462000013F203B01FA03F01042F7D130782A28ED
:1046300011D06FF02F033078A0F13002092A16D87C
:10464000039A44F0020402EB820203EB420210449C
:10465000761C0390EFE758F8042B0392002A03DA44
:10466000504244F40054039044F00204761C307825
:104670002E2816D116F8010F44F004042A280DD074
:104680006FF02F023078A0F13003092B09D807EB27
:10469000870302EB4303C718761CF3E758F8047B43
:1046A000761C30786C280FD006DC4C2817D0682890
:1046B0000DD06A2814D104E0742810D07A280FD1C4
:1046C0000DE044F400140AE044F4801401E044F4E2
:1046D00040147278824202D104F58014761C761C54
:1046E000307866280BD013DC582877D009DC0028F6
:1046F00075D04528F6D04628F4D047281AD193E142
:1047000018E0632835D0642879D0652812D18BE170
:10471000702873D008DC6728F1D069286FD06E2824
:104720000DD06F2806D1ACE073282CD0752874D03A
:10473000782853D05246179990476D1C54E1C4F322
:104740000250022809D003280DD0D8F80010042800
:104750000DD00D6008F1040846E1D8F80010EA1702
:10476000C1E90052F6E7D8F800100D80F2E70D70AD
:10477000F0E718F8041B8DF8001000208DF80100F8
:10478000EB46012003E058F804BB4FF0FF3061070F
:104790004FF0000102D40DE009F101018946B94250
:1047A0000FDA8145F8DB1BF809100029F4D108E085
:1047B00009F1010189468142FADB1BF80910002941
:1047C000F6D103985346A0EB090721463846179ABD
:1047D00000F080FA284400EB090507E044E008E116
:1047E0000DE01BF8010B524617999047B9F10109EA
:1047F000F7D2534621463846179AF2E039E00A21AB
:10480000C4F302524FF0000B0091022A06D058F870
:10481000040BC117032A09D00AE023E008F10700BE
:1048200020F00702F2E80201904605E000B2C1174D
:10483000042A01D140B2C117002906DA0A46002134
:10484000404261EB02012D2202E0220504D52B2219
:104850008DF80420012203E0E20701D02022F7E7CF
:10486000914657E00A2100E010214FF0000B009123
:104870000BE010214FF0000B44F0040408270091D6
:1048800003E008204FF0000B0090C4F30252022A0C
:1048900005D058F8040B0021032A08D008E008F1DD
:1048A000070020F00702F2E80201904603E080B220
:1048B000042A00D1C0B24FF0000922072AD532786D
:1048C000702A07D0DDF800C08CF0100C5CEA0B0CED
:1048D00005D00EE040228DF80420012208E050EAC5
:1048E000010306D030238DF804308DF80520022214
:1048F0009146009B83F0080353EA0B030AD150EA68
:10490000010201D1620705D530228DF804204FF055
:1049100001097F1E3278582A04D039A20C920CAAC1
:1049200002920BE03BA2F9E75B46009AFFF7B4FA6C
:104930000C9B9B5C029A521E0292137050EA010279
:10494000F2D1029804A9081A00F1200B600702D5E1
:1049500024F4803400E001275F4502DDA7EB0B0063
:1049600000E0002000EB0B01009003984944401A3E
:104970000390E00306D453462146179A039800F0AB
:10498000A9F90544002706E001A85246C05D179921
:1049900090476D1C7F1C4F45F6DBE0030CD553465A
:1049A0002146179A039800F095F9054404E0302059
:1049B0005246179990476D1C0099481E0090002997
:1049C000F5DC08E00298029952460078491C0291F1
:1049D000179990476D1CBBF10001ABF1010BF1DCA5
:1049E0005BE100F065F90544761C307800287FF41F
:1049F0000DAE19B02846BDE8F08F0000092801006F
:104A00003031323334353637383961626364656644
:104A10000000000030313233343536373839414206
:104A20004344454600000000600700D4062708F113
:104A3000070020F00700F0E80223804603F0004C56
:104A40005FEA0C0001D097A009E0200501D596A0EF
:104A500005E0E00701D095A001E0AFF24C00139013
:104A6000307823F0004365280CD006DC452809D0B7
:104A700046281DD047287FD13BE0662818D06728FC
:104A80007AD136E00021112F01DB112000E0781CE3
:104A9000CDE9000104A90CA8FFF7EEFCDDE90D014A
:104AA0000C9A4FF0000B07F10109109200914EE0B3
:104AB0004FF000400097CDE9011004A90CA8FFF7C2
:104AC000DBFCDDE90D020C9B0F994FF0000B9146CA
:104AD0001093009211B9791C00EB0109B7EB0900A2
:104AE00003D4C0F1FF3B07F10109A9EB07000190D6
:104AF00042E0012F00DA01270021112F01DD1120F2
:104B000000E03846CDE9000104A90CA8FFF7B4FC89
:104B1000DDE90D010C9A00914FF0000BB94610929F
:104B200021070FD4009A4A4503DA914601E0A9F122
:104B30000109B9F1010F05DD109AA9F10101515CDC
:104B40003029F4D0B84202DA10F1040F03DA01215F
:104B5000CDE9011010E0002803DC8344A9EB00013B
:104B600002E0411C494500DD8946A0EB0B00401CDA
:104B700001904FF000400290200705D4019848456D
:104B800002DB4FF0FF30019000208DF84B000298BF
:104B90000DF14B07B0F1004F25D002200C902B20D7
:104BA0000D90029800280CDA404202902D200D90C2
:104BB00007E00A210298FFF759F93031029007F80F
:104BC000011D0C99481E0C900029F2DC0298002867
:104BD000EFD1791E0D980870307800F0200040F079
:104BE000450007F8020D11A8C01BC01D02901398C4
:104BF000007800B1012000EB0901019801EBE071A0
:104C0000029801440398401A401E0390E00306D422
:104C100053462146179A039800F05CF80544139810
:104C2000007818B15246179990476D1CE00323D5C0
:104C300053462146179A039800F04CF805441BE0B0
:104C4000BBF1000F07DB0098584504DD1098179959
:104C500010F80B0001E01799302052469047019858
:104C60000BF1010B401E05F10105019004D12E202E
:104C70005246179990476D1CB9F10001A9F101093D
:104C8000DEDC05E017F8010B5246179990476D1CC2
:104C90000299481E02900029F4DC53462146179AD7
:104CA00003989EE62D0000002B000000200000006D
:104CB0002DE9F041044600251E461746880404D419
:104CC00005E039462020B0476D1C641EF9D5284602
:104CD000BDE8F0812DE9F041044600251E469046CE
:104CE000C80301D5302700E02027880404D505E05B
:104CF00041463846B0476D1C641EF9D52846BDE8CC
:104D0000F0814A68002A06D00A68531C0B601070B4
:104D10004868401E48607047204E000003000000B5
:104D200002000000000000000050014000000000F0
:104D3000304E0000010000000C00000000000000E8
:104D40000020014000000000404E00000200000072
:104D500004000000000000000030014000000000DE
:104D6000504E00000400000007000000000000009A
:104D70000060014000000000484E000002000000FA
:104D800002000000000000000030014001000000AF
:104D9000284E000002000000030000000000000098
:104DA0000030014001000000384E00000200000009
:104DB000070000000000000000300140010000007A
:104DC000804E00008F030000704E0000B70300000B
:104DD000684E0000C3030000784E0000EB030000A3
:104DE000584E000009040000884E000067040000CF
:104DF000644E0000FB0400005C4E0000050500004E
:104E0000636D645F746573740008090A0B0C0D0E02
:104E1000070605040302010016000000140000004C
:104E2000454C433020200000484C573020200000E3
:104E3000454C433120200000484C573120200000D1
:104E4000534C4544202000006675736530200000F7
:104E50004E657452737400006C656400696E666F11
:104E600000000000696F000068656C7000000000C1
:104E7000636C6561720000007265626F6F740000A0
:104E8000746573740000000072656C617900000045
:104E900073746172745F7461736B0000E590AFE5C9
:104EA0008AA8E4BBBBE58AA100000000202046756B
:104EB00073652020202020203A2050494E3D433267
:104EC0002832312920286F70746F636F75706C659C
:104ED000722070756C73652C203C31302F736563C4
:104EE000203D2062726F6B656E290D0A0000000084
:104EF000686F73745F7461736B000000E4B8BBE6A5
:104F00008EA7E4BBBBE58AA1000000006374726C4D
:104F10005F7461736B000000E68EA7E588B6E4BBA2
:104F2000BBE58AA1000000006C697374656E5F7454
:104F300061736B00E79B91E590ACE4BBBBE58AA194
:104F400000000000413130004E313000503130005F
:104F500041300000423000004D3000004E30000073
:104F6000434150300000000050300000413131001A
:104F700050313100413100004D3100004E31000010
:104F800043415031000000005031000041313200F7
:104F900042313200503132004132000043320000D1
:104FA0004D3200004E3200004341503200000000FC
:104FB00050320000503133004133000043330000D1
:104FC0004D3300004E3300005033000033563300A1
:104FD00041340000433400004D3400004E340000E2
:104FE0005034000041350000433500004D350000CD
:104FF0004E35000050350000433600004D360000AD
:105000004E36000050360000433700004D37000098
:105010004E37000050370000503800004139000082
:105020004E39000050390000474E440058490000F6
:10503000584F000052455345540000004E6F6E65B6
:10504000000000006450000000000020C40A0000BE
:10505000AC430000CC530000C40A0020BC7A01001D
:105060006844000081235F081A9D041AAD041ABD2C
:1050700004230F091907C2201A581023904E1A9CB6
:10508000041122103203E3930A1A2C242904411A32
:1050900088081AF02C9AFC30E3430C1A5C2429048B
:1050A000411AB808230C4F1A1804297D2930DA87D1
:1050B000301A8C242904411AE8081A282C2A343082
:1050C00022043205E3090D1ABC24290401101AC96F
:1050D0002823110E1A21041A4B041A61041AF82805
:1050E0001A91081A99041AA1041AA9041AB7041AE1
:1050F000BF041310011B20CD081AF7041B190F3829
:1051000019041A2C141A93081AD9041AF9041A400B
:10511000101A47E81AA9042359111A71041A8104B4
:105120001A50180140235D121A8D042317135AA830
:1051300050031A3C503201031ACC4F32020A196054
:105140002032032A9020352001400CF2340A1D043D
:10515000600A1D052032060A1928C032070A19A85C
:10516000402A089B29403560014009F23729142A5A
:10517000484019200A110A2029140A1980600A1DC2
:105180000BA00A1D0CE0320D5AA4800A11028032D5
:105190000E5A7C200A110120320F5A5C2041E9206E
:1051A0000A1D108032112AD4203530014004F23516
:1051B00032125AE8200A11052032135AF8200A1137
:1051C000062032144B0850200A11072032155A9C31
:1051D000400A11022032165ABC200A11032032174D
:1051E0002A2C6001172A183B09192032190A193490
:1051F00020321A2AA0804A50A0F236321B5AC02010
:1052000029A0E920321C5AD8200A110420321D5A44
:10521000EC200A110520321E5AFC200A1106203209
:105220001F2A0CC019200A11072032200A1928E071
:1052300032215A78600A11014032225A582041E93D
:105240002032232A68204A8020F23832245A8820CB
:105250002960E92032255AB0200A11022032265A4C
:10526000C8200A11032032275AE0200A11042032F4
:10527000285AF4200A11052032294B0450200A1123
:105280000620322A5A14200A110720322B5A1820DD
:105290000A110820322C5A24200A110920322D5AD2
:1052A0004CA00A110A20322E5A70200A110B20320B
:1052B0002F5A94200A110C2032305AB4200A110DB2
:1052C0002032312A542044200140F23432322A5014
:1052D000204A1020F23329105A74200A1101202983
:1052E000505A98200A11022032355AB8200A110368
:1052F0002032365AD0200A11042032375AE4200ACC
:1053000011052029F03310505D6001400730C14283
:105310003959200A110620323A2AF06019202960F2
:10532000E920323B5ADC2029A0E920323C5AC42033
:1053300029E0E920323D2A1C8019C00A1109C03237
:105340003E5A44E00A110A20323F5A6C200A110BDF
:105350002032405A8C200A110C2023A9131AC104B0
:105360001AE9042323141A41041A590413D8098290
:10537000202341161A95041A9B041AA1041AB90491
:105380001ABF041AC5041ACB041AE1041AED049AD0
:10539000FC3401341AAA0101181301062B118104EF
:1053A00012071411010812111C2D3101A751234BB2
:1053B0003D1A690423DD3C1AF3041A050C1A17047C
:0C53C0001A29041A3B044B9C0A980000B8
:0400000500000149AD
:00000001FF
