:020000040000FA
:1000000078830120F1310000F5310000F731000064
:10001000F9310000FB310000FD310000000000005C
:10002000000000000000000000000000610100006E
:100030000132000000000000A50100008522000040
:1000400007320000093200000B3200000D320000C0
:100050000F32000011320000133200001532000090
:1000600017320000193200001B3200001D32000060
:100070001F32000021320000233200002532000030
:1000800027320000293200002B3200002D32000000
:100090002F320000313200003332000035320000D0
:1000A00037320000393200003B3200003D320000A0
:1000B0003F32000041320000433200004532000070
:1000C00047320000493200004B3200004D32000040
:1000D0004F3200005132000053320000C3050000CF
:1000E00057320000593200005B320000000000006F
:1000F0005D3200005F3200006132000063320000B8
:100100006532000067320000693200009D0D00007A
:10011000A10D0000A50D0000A90D0000AD0D00000F
:10012000B10D000077320000793200007B32000010
:100130007D3200007F3200008132000083320000F7
:100140008532000087320000DFF810D003F00CF990
:10015000004800475D020000AFF300807883012073
:10016000224B19680868B0E8F00F80F30988BFF3E4
:100170006F8F4FF0000080F311884EF00D0E704726
:100180000000000006480068006880F3088862B636
:1001900061B6BFF34F8FBFF36F8F00DF00BF00BFAB
:1001A00008ED00E0EFF30980BFF36F8F0F4B1A6883
:1001B00020E9F00F106008B54FF0800080F311883F
:1001C000BFF34F8FBFF36F8F01F0D4F84FF00000F3
:1001D00080F31188BDE8084019680868B0E8F00F9E
:1001E00080F30988BFF36F8F704700BF4C07002072
:1001F000EFF30580704700001CB50024002501F0D6
:1002000003FA0190364E4FF4FA771DB100251DB167
:10021000012102E00125FAE700213068426811203F
:100220009047641CE00709D101F0EEF900902D48D9
:1002300000231A466946806801F07CFD394601A812
:1002400000F0E3FFE1E708B5264C00F0FEFA0023DA
:100250001A466946A06801F07CFEF6E71CB502F07C
:100260007DFF00F0F3F84FF4E13000F079F91EA0C3
:1002700003F0D6F81DA003F0D3F827A003F0D0F8C0
:100280002E4801682EA003F0CBF833A003F0C8F885
:100290003BA003F0C5F844A003F0C2F813A003F09C
:1002A000BFF8002204210A2001F0B0FC0D4988604B
:1002B00008460221CDE900100023802244A14648CF
:1002C00000F02AFE07480121001DCDE900104A0276
:1002D000002342A1424800F01FFE01F05CF9FEE756
:1002E00048070020000000200D0A00003D3D3D3D74
:1002F0003D3D3D3D3D3D3D3D3D3D3D3D3D3D3D3D2E
:100300003D3D3D3D3D3D3D3D3D3D3D3D3D3D3D3D1D
:100310003D3D3D3D0D0A000020205374657020399D
:100320003A204750494F20506F72742044726976CA
:100330006572202864727670290D0A00B4070020C7
:10034000202043505520436C6F636B203A20256476
:1003500020487A0D0A00000020204750494F2041D4
:10036000504920203A20647276705F6770696F2D63
:100370003E726561642F77726974652F0D0A000003
:1003800020202020202020202020202020207365D5
:10039000745F6D6F64652F6174746163685F697207
:1003A000712F2E2E2E0D0A00202050696E732020F2
:1003B000202020203A2036342D70696E206D617027
:1003C000202853574D33323052455437290D0A00F7
:1003D000626C696E6B000000F9010000636D6400DF
:1003E000470200000021C0F80011C0F80411704756
:1003F00010B5D0F800315A1CD2B2D0F80441944262
:1004000001D1002010BDC154C0F80021012010BD51
:10041000D0F80031D0F80421934201D10020704778
:10042000825C0A7090F80411491CC9B2C0F804112A
:1004300001207047D0F80011D0F80401814201D3A7
:10044000081A7047401AC0F580707047F8B505214A
:1004500026A002F0E5FF00252A4F002605EB450007
:1004600007EBC004606901281AD00023201D07C8CB
:1004700002F0DEF96069012814D000960023012201
:10048000A168206902F024F8A168206902F01BF934
:100490001DA0216802F0C4FF6D1C052DDED3F8BD40
:1004A0000123E3E7009601230022A168206902F0FE
:1004B0000FF81DA0216802F0B3FFEDE770B500242E
:1004C000104E04EB440506EBC5008168006902F09C
:1004D0000CF908B11BA200E01CA256F835101DA0B3
:1004E00002F09EFF641C052CEBD370BD5B494F20CE
:1004F000494E49545D2025642070696E733A0D0A97
:1005000000000000B83800002020257320202D3E78
:10051000204F55545055542028696E6974204C4F13
:1005200057290D0A000000002020257320202D3EB1
:1005300020494E505554202870756C6C2D757029CB
:100540000D0A000048494748000000004C4F572062
:100550000000000020202573203A2025730D0A009A
:100560001FB504463448FFF73DFF012364220221F2
:10057000002002F05DF9002364220321184602F0F6
:1005800057F9009400208DF804008DF805008DF8CF
:10059000060007218DF8071001218DF808108DF84D
:1005A00009008DF80A00FF208DF80B008DF80C1063
:1005B000224C6946204602F056FB204602F029FCF8
:1005C0001FBD38B51D4C1021204602F0CCFC48B9A7
:1005D0000DE0694602F024FC20B90098C1B216482B
:1005E000FFF706FFE1682046C9B20129F1D84FF4B0
:1005F0008041204602F0B7FC50B938BD694620461C
:1006000002F00EFC20B90098C1B20B48FFF7F0FED3
:10061000204602F014FC0028F0D038BD70B5054625
:10062000064C2946204602F0F9FB204602F002FC67
:100630000028FAD1284670BDC00700200000024003
:100640002DE9F04106460C4617469846002500E085
:10065000641C217801B3404602F03CFE0028F7D12B
:100660001AE028466D1C47F8204000E0641C217801
:1006700021B1404602F02EFE0028F7D0207820B1AC
:10068000002004F8010B00E0641C217821B14046F1
:1006900002F020FE0028F7D1207808B1B542E0DB57
:1006A0002846BDE8F08170B506460D46A749A8A0CA
:1006B00002F0B6FE002406E055F824202146A6A04C
:1006C00002F0AEFE641CB442F6DB002070BD10B533
:1006D000A6A002F0A5FE002010BD70B5A6A002F0F5
:1006E0009FFE0024994D403DA9A055F8341002F01A
:1006F00097FE641C082CF7D39EA002F091FE002008
:1007000070BDA5A002F08CFEBFF34F8FA648016814
:10071000A64A01F4E06111430160BFF34F8FFEE789
:1007200070B50C464FF0FF36022804DAA0A002F0A4
:1007300077FE304670BDA3A1606802F0D5FDA24DE2
:1007400050B1A2A1606802F0CFFD70B1A0A06168B5
:1007500002F066FE304670BD286801214268112013
:100760009047A3A002F05CFE07E0286800214268E1
:1007700011209047A1A002F053FE002070BD2DE98A
:10078000F0410C464FF0FF37032804DA9EA002F038
:1007900047FE384685E7A3A1606802F0A5FD50B189
:1007A000A1A1606802F0A0FD40B1A0A0616802F0C4
:1007B00037FE384675E71A25A5A601E00325A6A64B
:1007C00080A1A06802F090FDDFF8FC8150B17FA10C
:1007D000A06802F089FD80B17DA0A16802F020FE32
:1007E00038465EE7D8F80000012142682846904765
:1007F00031469BA002F014FE09E0D8F80000002169
:10080000426828469047314697A002F009FE002032
:1008100047E710B5FFF752FE002010BD10B595A0B8
:1008200002F0FEFD9948016899A002F0F9FD00F080
:10083000EBFE01469CA002F0F3FDA1A002F0F0FD4A
:100840004CA002F0EDFD002010BD2DE9F043ABB04F
:10085000A34F00257868002805D001280ED07D60C0
:100860002BB0BDE8F0839FA002F0DAFD80219E4806
:1008700002F025FD3D6001207860F1E72AA99B4840
:10088000FFF7C6FD0028EBD03A68802A01DB7D60C7
:10089000E6E79DF8A81094480A291AD004DC082934
:1008A0000DD0092904D1DBE70D2916D07F2906D008
:1008B000531C3B6081548EA002F0B2FDD0E7002AA9
:1008C00002DD521E3A60855487498AA002F0A8FDD5
:1008D000C6E7002AC4D17D60C2E785542AB3521C02
:1008E0008149684602F0D2FC84A320AA69460A2006
:1008F000FFF7A6FE8146B9F1000F18D000260024AC
:10090000DFF84880A8F14008209858F8341002F029
:10091000EBFC70B1641C082CF6DB002EA0D179A092
:10092000209902F07DFD7D609AE77D6098E77D600B
:1009300096E710A002F074FD08EBC40020A94268FD
:100940004846904701267D60E7E7000070390000C7
:1009500025730D0A000000002020617267765B2578
:10096000645D3A2025730D0A000000000D0A0D0A8F
:100970000D0A0D0A0D0A00000D0A3D3D3D20436F92
:100980006D6D616E6473203D3D3D0D0A00000000F9
:10099000202025730D0A00005265626F6F74696E26
:1009A000672E2E2E0D0A00000CED00E00400FA0563
:1009B00055736167653A206C6564206F6E7C6F6665
:1009C000660D0A006F6E0000480700206F66660023
:1009D000496E76616C69643A2025732028657870C9
:1009E000656374206F6E7C6F6666290D0A000000D7
:1009F0004C4544204F4E0D0A000000004C45442059
:100A00004F46460D0A00000055736167653A207233
:100A1000656C617920307C31206F6E7C6F66660D6D
:100A20000A0000003000000031000000496E7661CD
:100A30006C69642072656C61793A202573202865A1
:100A400078706563742030206F722031290D0A00A0
:100A5000454C433000000000454C4331000000008D
:100A60002573204F4E0D0A002573204F46460D0A70
:100A7000000000000D0A3D3D3D2053797374656D03
:100A800020496E666F203D3D3D0D0A00B4070020F1
:100A9000202043505520436C6F636B203A2025641F
:100AA00020487A0D0A00000020205469636B202042
:100AB000202020203A202564206D730D0A000000BC
:100AC0002020554152542020202020203A2031312E
:100AD000353230302D382D4E2D310D0A00000000FA
:100AE0000C0000200D0A3E00C8080020C0070020AE
:100AF000256300000D0A3E257300000020090A0D41
:100B0000000000000D0A2020756E6B6E6F776E205E
:100B1000636F6D6D616E643A2025730D0A000000ED
:100B2000412801D300207047A249C0EBC00001EB6F
:100B3000800081680029F6D10020704710B5FFF7CA
:100B4000EFFF28B1C1688068BDE8104001F0CDBD5D
:100B5000002010BD10B50C46FFF7E2FF00280CD0B6
:100B60002CB1C1688068BDE8104001F0A4BDC16827
:100B70008068BDE8104001F0A6BD10BD38B50D4637
:100B8000FFF7CEFF002200230024002812D0052DFD
:100B900010D2DFE805F0030A05070900012204E08E
:100BA000012302E0012400E001220094C168806872
:100BB00001F08EFC38BD70B514461D46FFF7B0FF3E
:100BC00018B144618561002070BD4FF0FF3070BDE9
:100BD00010B5FFF7A5FF20B1002141618161002020
:100BE00010BD4FF0FF3010BDF8B50E46FFF798FF6F
:100BF000044620004FF0FF3213D00125012E12D001
:100C000094F9100000F01F018D404009800000F1B0
:100C1000E020C0F88051D4E9020101F00DFC002071
:100C2000F8BD1046F8BDA1690020052954D2DFE8BF
:100C300001F003101D2A37000095D4E902010023BA
:100C40001A4601F045FCD4E90201012201F0FAFB49
:100C500032E00090D4E902010123002201F038FCC7
:100C6000D4E90201002201F0EDFB25E00095D4E972
:100C700002010123002201F02BFCD4E9020102222F
:100C800001F0E0FB18E00095D4E9020100231A46C8
:100C900001F01EFCD4E90201112201F0D3FB0BE0AC
:100CA0000090D4E902010123002201F011FCD4E9F3
:100CB0000201102201F0C6FB94F9100000F01F01A0
:100CC0008D404009800000F1E020C0F80051D4E9D7
:100CD000020101F0E9FBA2E71046F8BD2DE9F04161
:100CE0003549884201D1002117E03449884201D1B9
:100CF000012112E03249884201D102210DE031493F
:100D0000884201D1032108E02F49884201D1042102
:100D100003E02E4988423FD105212D4AA2F5A8764D
:100D200052F82130DBB9012342F821300022214F53
:100D3000C1EBC10406EBC405C3EBC30407EB840499
:100D4000D4F808C0844507D1D4F800C01446521C1A
:100D500045F824C00E2A02DA5B1C412BECDB00258F
:100D6000C1EBC10006EBC00656F8250088B1FFF7BD
:100D7000D7FE044620000CD0D4E9020101F09AFB12
:100D800038B1D4E9020101F09FFB616909B1A069A2
:100D900088476D1C0E2DE7DBBDE8F08106489DE716
:100DA00006489BE7064899E7064897E7064895E70F
:100DB000064893E714000020001001400020014085
:100DC00000300140005001400060014000800140BF
:100DD000980A002070B50024FE4D04EB840005EB5A
:100DE000800001F0C6F9641C052CF6D3F948643084
:100DF00001F0BFF9F748783001F0BBF9F5488C30C5
:100E000001F0B7F9F348A03001F0B3F9F148B4307C
:100E100001F0AFF9EF49F048643141631431816367
:100E200070BD70B5044601F018FAEB4DA868401C7F
:100E3000A860286810B1686938B10CE02C60A86817
:100E4000012808D1FFF7C6FF05E02868E16AC06AFB
:100E5000884200D82C60686A401C6862E06A012100
:100E60002A69814011432961DA4900EB800001EBD6
:100E70008000211D01F08BF901F0FBF96869002861
:100E80000CD02868E16AC06A884207D2D3494FF083
:100E900080500860BFF34F8FBFF36F8F70BD2DE997
:100EA000F0478146DDE908560A9C9846521E206BA1
:100EB00000EB820020F00707002023180A5C83F86B
:100EC00034200A5C12B1401C1028F6D34FF0000AFF
:100ED00084F843A0052D00D30425E5626564C4F8B9
:100EE00048A0201D01F050F904F1180001F04CF960
:100EF0002461C5F10500A0616462C4F84CA084F8C7
:100F000050A042464946384601F080F92060002E44
:100F100000D03460BDE8F0872DE9FF5F8146DDE950
:100F20000E788A4616469B46B00001F010FA054638
:100F300028000AD0542001F00AFA04460CB12563B7
:100F400004E0284601F04DFA00E000248CB10020B6
:100F5000CDE90240CDE900785B463246514648462D
:100F6000FFF79DFF2046FFF75CFF012004B0BDE8BE
:100F7000F09F4FF0FF30F9E79748416B096800296F
:100F800005D0416BC968C9684968816270474FF0F4
:100F9000FF318162704710B50446206B01F021FAE1
:100FA0002046BDE8104001F01CBA70B5044601F0BF
:100FB00054F9894D04B92C68201D01F00CF958B979
:100FC000E06A844A00EB800152F8211021B9012126
:100FD0008140286988432861A06A18B104F118008B
:100FE00001F0F9F8686A401C68622868844208D1F8
:100FF0007848211DA03001F0CAF86868401C68607C
:1010000007E0A868401EA8602046FFF7C4FFFFF76E
:10101000B3FF01F02EF9686900280AD028688442DD
:1010200007D16E494FF080500860BFF34F8FBFF378
:101030006F8F70BD2DE9F0410026674F386B002897
:1010400008D0B869401CB861F86900B10126304683
:10105000BDE8F081FD686D1CFD6045B9786BB96B2A
:101060007963B863386A401C3862FFF785FFB86A55
:10107000DFF8608185420DD3786B006838B1786BFA
:10108000C068C468606885420ED2B86202E04FF062
:10109000FF30B8623868C06A00EB800058F8200062
:1010A0000128D1D90126CFE7201D01F094F8A06ACC
:1010B00018B104F1180001F08EF8E06A01213A69D4
:1010C00081401143396100EB800008EB8000211D55
:1010D00001F05DF8E06A3968C96A8842CCD301261C
:1010E000CAE72DE9F0410024002701F0B6F83A4D97
:1010F000286B401E2863286BF0BBA868E0B3DFF8BC
:10110000D480012608F18C081DE0D8F80C00C468D2
:1011100004F1180001F05FF8201D01F05CF8E06AAE
:101120002A6906FA00F1114329612A4900EB80007F
:1011300001EB8000211D01F02AF8E06A2968C96AE4
:10114000884200D3EE61D8F800000028DDD10CB150
:10115000FFF712FFAC6944B1FFF76CFF00B1EE611D
:10116000641E002CF8D10020A861E86920B1012795
:101170001A493807086000E003E0BFF34F8FBFF360
:101180006F8F01F076F8384662E72DE9F0410446AA
:101190000F46114EF5683068001D01F01CF838B993
:1011A000306890F82C10012088403169814331610A
:1011B000601C08D13FB13168BDE8F0410548091D08
:1011C000B43000F0E4BF2C4430684460AC420DD22F
:1011D000316805E0B00A00204C07002004ED00E073
:1011E000B06B091DBDE8F04100F0DDBF3168706BE8
:1011F000091D00F0D8FFB06A844200D2B46227E72C
:10120000FB48016B491C0163704770B505460E46EB
:101210000023FFF7F5FFF648C2682C68A119944235
:1012200005D98C4208D9914206D9012304E08C42A9
:1012300001D8914200D9012329601BB1881A0021ED
:10124000FFF7A3FFFFF74DFF002807D1E9494FF053
:1012500080500860BFF34F8FBFF36F8F70BD10B524
:1012600002460020002A07D0FFF7CAFF00211046DF
:10127000FFF78BFFFFF735FF002807D1DD494FF05F
:1012800080500860BFF34F8FBFF36F8F10BD10B554
:10129000044600F0E2FF0CB9D5480468E46A00F0A7
:1012A000E8FF204610BD8022EFF3118182F3118800
:1012B000BFF34F8FBFF36F8F002801D1CC48006878
:1012C000C06A81F3118870472DE9F04104460D464C
:1012D0000026052D00D3042500F0BFFFC44F04B93C
:1012E0003C68606CA84241D0854208D939688C427C
:1012F00009D03968C96AA94205D8012603E03968CE
:101300008C4200D10126D4F82C80404500D1E56202
:101310006564A069002802DBC5F10500A061B64D37
:1013200008EB8801606905EB8101884215D1201D19
:1013300000F051FF012120B93A6901FA08F0824317
:101340003A61E06A3A6981401143396100EB8000FB
:1013500005EB8000211D00F01AFF3EB1A5494FF0BA
:1013600080500860BFF34F8FBFF36F8FBDE8F0412F
:1013700000F07FBF9E4A106B002802D00120D06190
:1013800070470020D0611069B0FA80F0C0F11F00F2
:10139000994900EB800001EB800041684968416099
:1013A00000F10803994201D1496841604068C06872
:1013B0001060704770B5044600F04FFF8C4D04B9C3
:1013C0002C68201D00F007FF58B9E06A8A4A00EB3C
:1013D000800152F8211021B90121814028698843F8
:1013E0002861A06A18B104F1180000F0F4FE8248E8
:1013F000211DB43000F0CBFE00F03BFF686928B13E
:1014000000F02BFFFFF7B8FD00F033FF286884429F
:1014100009D1686940B177494FF080500860BFF347
:101420004F8FBFF36F8F70BD7348A968B4300068E9
:10143000884202D10020286070BDBDE8704099E765
:1014400000216D4B4269B4339A4206D1806AA3F100
:101450002802904201D000B901210846704770B5BA
:101460000446002C2BD0624D2868844227D000F01F
:10147000F4FE2046FFF7E4FFE8B1201D00F0ABFECC
:10148000E06A01212A698140114329615A4900EB30
:10149000800001EB8000211D00F079FEE06A2968E0
:1014A000C96A884207D353494FF080500860BFF3A0
:1014B0004F8FBFF36F8FBDE8704000F0DABE70BD94
:1014C0002DE9F041044600268020EFF3118580F3DA
:1014D0001188BFF34F8FBFF36F8F2046FFF7B0FF28
:1014E00040B1434F386B48B1434804F118018C3088
:1014F00000F04DFE85F311883046A9E5E06A3968B1
:10150000C96A884200D30126201D00F064FEE06A0B
:1015100001213A69814011433961374900EB80006C
:1015200001EB8000211D00F032FEE3E770B5324E82
:101530002F4DA0361CE0FFF763FE306820B1002479
:10154000FFF7CFFDA4B901E00124F9E700F085FE23
:10155000F068C468201D00F03EFEA868401EA86028
:101560006868401E686000F084FE2046FFF713FDA7
:1015700068680028DFD170BD1F4E4FF080541D4DAC
:10158000FFF7D4FF30680128FAD92C60BFF34F8FE2
:10159000BFF36F8FF4E71CB5154800242C30CDE95C
:1015A00000402346802215A11648FFF7B5FC01280C
:1015B00011D1802080F31188BFF34F8FBFF36F8F5D
:1015C0000B484FF0FF31816201214161C460BDE8E9
:1015D0001C4000F02EBE1CBD802080F31188BFF39C
:1015E0004F8FBFF36F8F02490020486100F034BE77
:1015F0004C07002004ED00E0B00A002049444C45AF
:101600000000000079150000FC48C0687047FB48E6
:10161000C0687047F94880687047002801D1F748D2
:1016200000683430704710B50C46F4490968183129
:1016300000F0B9FD2046BDE810400121A5E570B5D8
:10164000154641F00043ED490C68A3610968183163
:1016500000F09DFD2846BDE87040012195E52DE98B
:10166000F041C068C46804F11800074600F0B3FDFB
:10167000E24D2A6B01265AB13946E14800F087FD58
:10168000E06A2968C96A884215D90120EE61DFE461
:10169000201D00F0A0FDE06A2A6906FA00F111435E
:1016A0002961D74900EB80008C3901EB8000211DB6
:1016B00000F06DFDE4E70020CAE470B541F00041A0
:1016C0000160C46800F087FD201D00F084FDCB4D53
:1016D000E06A01262A6906FA00F111432961C84926
:1016E00000EB80008C3901EB8000211D00F04FFDE4
:1016F000E06A2968C96A884202D90120EE6170BD9A
:10170000002070BDBD490A6A0260C9684160704727
:1017100070B504460D4600F0A0FDB849C8682A68B7
:10172000531C08D02368096A8B4206D06168814245
:1017300003D801240DE000240BE06168401A9042B8
:1017400006D2101A28602046FFF7DCFF002400E0D4
:10175000012400F08EFD204670BDA8490120C8611B
:101760007047A6480068704770B5044600283AD014
:10177000A24DE06A2968C96A884234D2A06900286B
:1017800004DB2868C06AC0F10500A061E06A9C4ED5
:1017900000EB80008C3E616906EB800081421FD126
:1017A000201D00F018FD012150B9E06A00EB800215
:1017B00056F8222022B92A6901FA00F082432A61F0
:1017C0002868C06AE0622A6981401143296100EB00
:1017D000800006EB8000211DBDE8704000F0D7BC02
:1017E0002868C06AE06270BD70B504460020002C15
:1017F0002DD0A16C491EA164636CE26A9A4226D086
:10180000002924D1201D00F0E6FC7D4A7B498C3A5A
:10181000012350B9E06A00EB800552F8255025B944
:101820000D6903FA00F085430D61606CE062C0F160
:101830000500A061E06A0D6983402B430B6100EB5A
:10184000800002EB8000211D00F0A1FC012070BD92
:101850006A49086880690A680968D26AC2F10502A3
:101860008A61704765490868002803D00868826C5F
:10187000521C82640868704770B506460C4600F03A
:10188000ECFC5E4D2868C06C80B92A68012082F8A3
:1018900050005CB101212046FFF777FC59494FF019
:1018A00080500860BFF34F8FBFF36F8F00F0E1FCF3
:1018B00000F0D3FC2868C46C002034B116B129684C
:1018C000C86402E02A68611ED164296881F850006A
:1018D00000F0CFFC204670BD2DE9F04781460F4651
:1018E0001646984600F0B9FC444D286890F8500020
:1018F000022817D02C68E06C20EA0900E06429680F
:10190000012081F85000B8F1000F0BD001214046B2
:10191000FFF73BFC3B494FF080500860BFF34F8F0F
:10192000BFF36F8F00F0A5FC00F097FC16B128689C
:10193000C06C3060286890F8500001280DD02868ED
:10194000C16CB943C16401242968002081F85000AA
:1019500000F08FFC2046BDE8F0870024F4E72DE975
:10196000F04104460D4690461F46012600F075FCE6
:101970000FB1E06C386094F85000022184F85010E8
:10198000B8F1050F13D2DFE808F01203070B0D00C2
:10199000E16C2943E1640AE0E16C491CE16406E082
:1019A000E56404E0022801D0E56400E00026012897
:1019B0001FD1201D00F00FFC104DE06A01212A69A3
:1019C0008140114329610E4900EB80008C3901EB05
:1019D0008000211D00F0DBFBE06A2968C96A8842AB
:1019E00007D908494FF080500860BFF34F8FBFF30D
:1019F0006F8F00F03EFC30467FE500004C07002072
:101A00003C0B002004ED00E02DE9F0470446089F60
:101A100001268020EFF3118580F31188BFF34F8FEB
:101A2000BFF36F8F002B01D0E06C186094F850006A
:101A3000022384F85030052A13D2DFE802F01203A3
:101A4000070B0D00E26C0A43E2640AE0E16C491CFA
:101A5000E16406E0E16404E0022801D0E16400E012
:101A6000002601282CD1DFF81481D8F830004FF07F
:101A7000010970B104F11801414800F088FBE06AE7
:101A8000D8F80010C96A88421AD9BFB1C7F80090C7
:101A900016E0201D00F09FFBE06AD8F8102009FA3C
:101AA00000F11143C8F8101000EB800134488C3865
:101AB00000EB8100211D00F06AFBE0E7C8F81C90F4
:101AC00085F31188304646E72DE9F0410446884603
:101AD0008020EFF3118780F31188BFF34F8FBFF39E
:101AE0006F8F94F85010022084F85000E06C401C76
:101AF000E064012927D1214D286B012678B104F13A
:101B000018011F4800F043FBE06A2968C96A88424F
:101B100019D9B8F1000F15D0C8F8006013E0201DE6
:101B200000F059FBE06A2A6906FA00F111432961C5
:101B3000134900EB80008C3901EB8000211D00F07F
:101B400026FBE1E7EE6187F31188D6E410B50028A3
:101B50000BD0044600F081FB94F85000022807D017
:101B6000002400F086FB204610BD04480468F1E71D
:101B7000002084F850000124F3E700004C07002007
:101B80003C0B002070B504460D4600F066FBD4E91E
:101B90000F12206801FB020060600020A063206833
:101BA000A060E06B226C2168401E00FB0210E06028
:101BB0004FF0FF3084F8440084F8450004F1100031
:101BC0004DB100F0D6FA04F1240000F0D2FA00F092
:101BD00050FB012070BD21690029F8D0FFF73FFDBF
:101BE0000028F4D0FC494FF080500860BFF34F8FBD
:101BF000BFF36F8FEBE703460098002904D0026023
:101C0000C36301640121BDE70060F9E7F8B506464A
:101C10000D461746002D10D006FB05F0483000F0A9
:101C200096FB04463CB104F148023B462946304647
:101C30000094FFF7E0FF2046F8BD0020EEE72DE915
:101C4000F041044600F009FB94F9455004F12406E4
:101C500009E0606A48B13046FFF701FD08B1FFF7BF
:101C60007CFD6D1E6DB2002DF3DC4FF0FF3684F865
:101C7000456000F0FEFA00F0F0FA94F9445004F1E7
:101C8000100709E0206948B13846FFF7E8FC08B1C1
:101C9000FFF763FD6D1E6DB2002DF3DC84F8446028
:101CA000BDE8F04100F0E5BA10B5044600F0D5FA01
:101CB000A06BE16B884201D1012400E0002400F018
:101CC000D8FA204610BD2DE9F041044617460026FB
:101CD000A56B226C002A10D0C7B1E06801F0D6FADB
:101CE000E168206C091AE1602268914202D26168C1
:101CF000081AE060022F16D017E02068A8B96068C3
:101D0000FFF772FD0646002060600EE0A06801F05B
:101D1000BDFA216CA0680844A0606168884204D3C1
:101D20002068A06001E005B16D1E6D1CA563304602
:101D3000BDE8F0812DE9FF4782B004468A46994606
:101D40000025A8464FF08056A34F00F086FAA06BFE
:101D5000E16B884206D3B9F1020F03D00498F8B1C1
:101D600015B325E04A4651462046FFF7ACFF616AAD
:101D700051B104F12400FFF772FC58B13E60BFF38B
:101D80004F8FBFF36F8F05E020B13E60BFF34F8FE1
:101D9000BFF36F8F00F06DFA012006B0BDE8F08749
:101DA00000F067FA0020F8E76846FFF7ABFC012572
:101DB00000F05FFAFFF724FA00F04FFA94F94400BC
:101DC000401C01D184F8448094F94500401C01D1A5
:101DD00084F8458000F04DFA04A96846FFF798FCA6
:101DE00030B12046FFF72BFFFFF77BF90020D4E747
:101DF0002046FFF759FF88B104F110000499FFF75E
:101E000012FC2046FFF71BFFFFF76BF900289CD15F
:101E10003E60BFF34F8FBFF36F8F96E72046FFF70B
:101E20000EFFFFF75EF990E7002807D00021416020
:101E30000160C16000231A4619467BE7704710B560
:101E4000024600210120FFF7E1FE04462046FFF78D
:101E5000EBFF204610BD2DE9F041174604461A4617
:101E60008020EFF3118680F31188BFF34F8FBFF30B
:101E70006F8FA06BE36B984205D3022A03D000203A
:101E800086F3118854E794F945502046FFF71BFF6D
:101E9000681C04D06D1C84F845500120F0E7606A8E
:101EA0000028FAD004F12400FFF7D9FB0028F4D071
:101EB000002FF2D001203860EFE770B50D46802189
:101EC000EFF3118481F31188BFF34F8FBFF36F8F4E
:101ED000836BC16B994217D990F945205B1C8363D2
:101EE000511C04D0521C80F8452001200DE0416AAD
:101EF0000029FAD02430FFF7B2FB0028F5D0002DDE
:101F0000F3D001202860F0E7002084F3118870BD31
:101F100010B5044600F0A1F9A06B20B1002400F038
:101F2000A8F9204610BD0124F9E730B40B46026C35
:101F3000002A0CD0C1681144C1604468A14201D399
:101F40000168C160C16830BC184601F09FB930BC5F
:101F500070472DE9FF4F83B004468B469A46002612
:101F6000B1464FF08057DFF8708000F076F9A56B2E
:101F7000A5B3E66859462046FFF7D7FFBAF1000F30
:101F800013D0E660606A50B104F12400FFF767FBEC
:101F900028B1C8F80070BFF34F8FBFF36F8F00F008
:101FA00068F9012007B0BDE8F08F6D1EA5632068B9
:101FB00010B9FFF757FC606020690028EFD004F1EA
:101FC0001000FFF74CFB0028E9D0C8F80070BFF301
:101FD0004F8FBFF36F8FE2E704ED00E0FFE7059856
:101FE00008B126B107E000F044F90020DAE701A8C3
:101FF000FFF788FB012600F03CF9FFF701F900F03C
:102000002CF994F94400401C01D184F8449094F9CF
:102010004500401C01D184F8459000F02AF905A93B
:1020200001A8FFF775FB58B12046FFF708FEFFF740
:1020300058F82046FFF76CFF002896D00020B1E743
:102040002046FFF765FFE0B1206830B900F005F9E0
:102050006068FFF789FB00F00CF904F12400059992
:10206000FFF7E1FA2046FFF7EAFDFFF73AF800280C
:102070007FF47BAFC8F80070BFF34F8FBFF36F8F53
:1020800073E72046FFF7DBFDFFF72BF86DE72DE93F
:10209000F041044690468020EFF3118780F31188C9
:1020A000BFF34F8FBFF36F8FA66B002E1DD094F937
:1020B00044502046FFF739FF761EA663681C04D003
:1020C0006D1C84F84450012010E020690028FAD0EB
:1020D00004F11000FFF7C3FA0028F4D0B8F1000FA4
:1020E000F1D00120C8F80000EDE7002087F3118847
:1020F0001EE670B504468020EFF3118580F3118849
:10210000BFF34F8FBFF36F8FA06B002806D0E66838
:102110002046FFF70AFFE660012000E0002085F37B
:10212000118870BD10B5044600F097F8A46B00F05C
:10213000A0F8204610BD10B5044600F08EF8D4E992
:102140000E10441A00F095F8204610BD806B7047C1
:1021500000F047B9806B002801D0002070470120B3
:102160007047816BC06B814201D101207047002014
:10217000704700F1080141604FF0FF328260C1609A
:1021800001610021016070470021016170474268D0
:102190004A6093688B609368596091600861016838
:1021A000491C0160704730B50C68621C02D000F118
:1021B000080202E0026904E01A4653681D68A5425D
:1021C000FAD953684B6099608A6051600861016870
:1021D000491C016030BD0169D0E901329A60D0E943
:1021E00001235A604A68824201D182684A60002213
:1021F00002610868401E086070470000802080F37C
:102200001188BFF34F8FBFF36F8FFEE720384FF079
:102210008073C36121F0010181612449416140F86B
:10222000202970474FF0E0202149416107210161D9
:10223000704710B51F48016841F47F0101600168D3
:1022400041F07F410160FFF7EDFF1B49002008606E
:10225000FDF798FF002010BD7047802080F31188A3
:10226000BFF34F8FBFF36F8F13480168491C0160A4
:10227000704711490868401E0860002801D180F3AA
:102280001188704710B5802080F31188BFF34F8FFD
:10229000BFF36F8FFEF7CEFE20B106494FF080509E
:1022A0001C390860002080F3118810BDFD2100005A
:1022B000FFAF010020ED00E08807002030B55C4949
:1022C00000E011460A688242FBD34B685C188442E6
:1022D00003D140681844486008460D6844682318D4
:1022E000AB420DD1524B103B1B689A4206D052684C
:1022F000224442600A681268026002E0036000E063
:102300000260814200D0086030BD4FF4B4314948CA
:10231000420706D0C01D20F007004649411AC1F50A
:10232000B431434A1060002353600144083921F05E
:102330000701103A11604B600B600B1A436001609B
:102340004068906050604FF00040D06070472DE9C9
:10235000F04105460026FEF753FF354F103F386821
:1023600008B9FFF7D2FFF868054235D13DB108350D
:10237000680704D005F00700C0F1080005445DB30C
:102380007868854228D82A490846046801E0214631
:1023900004466068A84202D220680028F7D1386855
:1023A000844219D00E680836206808606068411BB6
:1023B000102904D9601941606560FFF77FFF6168EB
:1023C0007868401A7860BA68904200D2B860F868BD
:1023D0000143616000202060FEF783FE3046BDE8C7
:1023E000F08170B5002819D008380446104D606897
:1023F000103DE968084211D02268002A0ED18843B6
:102400006060FEF7FDFE6068696808446860204609
:10241000FFF754FFBDE87040FEF763BE70BD04488F
:10242000103840687047024810388068704770471D
:102430009C070020780B0020426901238B409A43BF
:102440004261704770B504460E4615463146204637
:10245000FFF7F2FFEA064FF0010000FA06F00CD594
:10246000A1680143A160E90703D02169014321610B
:1024700018E021698143216114E0A1688143A160D2
:10248000A90703D5E1680143E1600BE0E1688143FE
:10249000E160E90703D021690143216102E021697C
:1024A00081432161206270BD426901238B401A4340
:1024B00042617047C069C84000F001007047806900
:1024C000C84000F00100704701228A400262704754
:1024D0002DE9F0471646DDF820801F46DFF8AC9264
:1024E0000124AB4D8C40A0EB09034FF4805C4FF00E
:1024F0008042484576D01FDCA64BC01838D06045D6
:1025000058D0B0F5005F15D1906840F0040090609D
:1025100001230022022000F08BF99F48012E6CD08D
:102520004168A1434160012F6BD0D5F81002A04350
:10253000C5F81002BDE8F08763457DD0B3F5405F74
:10254000F8D1906840F4001090600123002205202B
:1025500000F06EF99148012E6FD04168A1434160AF
:10256000012F6BD0D5F83002A043C5F83002E1E767
:10257000906840F00100906000220123104600F0B6
:1025800057F984484042012E0AD04168A143416076
:10259000012F09D0D5F80002A043C5F80002C9E711
:1025A000416821434160F3E7D5F800022043C5F8B4
:1025B0000002BFE7906840F0020090600123002213
:1025C000184600F035F97648012E0CD04168A14339
:1025D0004160B8F1010F0AD0D5F80003A043C5F857
:1025E0000003A7E713E0416821434160F1E7D5F814
:1025F00000032043C5F800039CE741682143416084
:1026000091E7D5F810022043C5F8100292E79068D0
:1026100040F01000906001230022032000F008F930
:10262000012E10D0D9F80400A043C9F80400012FEE
:102630000FD0D5F8200202E011E032E035E0A043EF
:10264000C5F8200276E7D9F804002043C9F8040051
:10265000EDE7D5F820022043C5F820026AE790682C
:1026600040F02000906001230022042000F0E0F8F8
:102670004C48012E0BD04168A1434160B8F1010FD5
:1026800009D0D5F82003A043C5F8200352E74168DC
:1026900021434160F2E7D5F820032043C5F8200329
:1026A00048E74168214341605AE7D5F830022043AA
:1026B000C5F830023EE70122400100EB810000F145
:1026C0008440026070470022400100EB810000F16D
:1026D000844002607047400100EB810000F18440BB
:1026E0000168C1F10101016070470068C84000F055
:1026F00001007047C2F118036FF07F42DA400368AF
:102700008A40134303607047C2F118036FF07F42A1
:10271000DA4003688A40934303607047C2F11803AC
:102720006FF07F42DA4003688A405340036070478D
:10273000C2F118036FF07F42DA400068C8401040D1
:102740007047C2F118036FF07F42DA4072B6036837
:102750008A401343036062B67047C2F118036FF0FA
:102760007F42DA4072B603688A409343036062B6E0
:102770007047C2F118036FF07F42DA4072B6036807
:102780008A405340036062B6704700000050014029
:102790000000014000F0FEBF003001400080014019
:1027A000002001400060014010B572B6000B1B4CC8
:1027B000A16888472068804762B610BD10B503073E
:1027C00001D0022010BD930701D0022010BD72B6C7
:1027D0009208124CE36898472068804762B6002050
:1027E00010BD10B572B60D4940F289431E284A68E3
:1027F00008D028280AD050280CD00949581C9047E6
:1028000062B610BD074918469047F9E706491846D1
:102810009047F5E7054918469047F1E7A4070020DF
:102820006E7AFCAB251FF4AB2929F4AB4D52F8AB03
:102830002DE9F04F86B001EB81074FF01F0BA2F19D
:10284000640A0BFA07F60AFA07F48D1F05EB850CEC
:102850000BFA0CF70AFA0CF54FF001084FEA4109A0
:102860004FF0030CA1F10C0E0CFA09FC08FA01F868
:102870000EEB8E0E8B40CDF800E00BFA0EFECDF87D
:1028800014E0DDF800E00AFA0EFECDF810E0A1F148
:10289000120E0EEB8E0E0BFA0EFB0AFA0EFACDE9B3
:1028A00002ABA1F1100A4FEA4A0A4FF0030B0BFAF0
:1028B0000AFBCDF804A0DFF89CA3062837D2DFE896
:1028C00000F003396EA3F0EF632A18D906290AD263
:1028D000DAF80001B043CAF80001DAF80001204339
:1028E000CAF800010BE00C2909D2DAF80401B84358
:1028F000CAF80401DAF804012843CAF80401DAF836
:10290000000020EA0C00CAF80000632A00D9012266
:10291000DAF8000002FA09F20243CAF80020CE48B1
:10292000016821EA0801016001681943016006B0ED
:10293000BDE8F08F632A18D906290AD2DAF8100107
:10294000B043CAF81001DAF810012043CAF81001A8
:102950000BE00C2909D2DAF81401B843CAF81401C3
:10296000DAF814012843CAF81401DAF8040020EA5E
:102970000C00CAF80400632A00D90122DAF8040026
:1029800002FA09F20243CAF80420B3481030016881
:1029900021EA08010160016819430160C7E7632A61
:1029A00018D906290AD2DAF82001B043CAF8200162
:1029B000DAF820012043CAF820010BE00C2909D2E3
:1029C000DAF82401B843CAF82401DAF824012843CC
:1029D000CAF82401DAF8080020EA0C00CAF8080056
:1029E000632A00D90122DAF8080002FA09F2024348
:1029F000CAF8082098482030016821EA08010160DF
:102A000001681943016092E7632A36D906290AD280
:102A1000DAF86001B043CAF86001DAF860012043D7
:102A2000CAF8600129E00C290AD2DAF86401B84337
:102A3000CAF86401DAF864012843CAF864011CE0AA
:102A400012290CD2DAF86801059CA043CAF8680183
:102A5000DAF86801049C2043CAF868010DE01829DF
:102A60000BD2DAF86C01039CA043CAF86C01DAF8C7
:102A70006C01029C2043CAF86C01102912D2DAF8CA
:102A8000200020EA0C00CAF82000632A00D90122A5
:102A9000DAF8200002FA09F20243CAF8202011E015
:102AA00071E019E0DAF8240020EA0B00CAF82400EB
:102AB000632A00D9012201988240DAF824000243F7
:102AC000CAF8242064484030016821EA0801016006
:102AD0000168194301602AE7632A27D906290AD227
:102AE000DAF87001B043CAF87001DAF870012043D7
:102AF000CAF870011AE00C290AD2DAF87401B84356
:102B0000CAF87401DAF874012843CAF874010DE0B8
:102B100012290BD2DAF87801059CA043CAF8780193
:102B2000DAF8784104980443CAF87841102910D2A1
:102B3000DAF8300020EA0C00CAF83000632A00D925
:102B40000122DAF8300002FA09F20243CAF8302012
:102B50000FE0DAF8340020EA0B00CAF83400632AE8
:102B600000D9012201988240DAF834000243CAF801
:102B7000342039485030016821EA080101600168B9
:102B800019430160D3E6632A36D906290AD2DAF856
:102B90008001B043CAF88001DAF880012043CAF806
:102BA000800129E00C290AD2DAF88401B843CAF876
:102BB0008401DAF884012843CAF884011CE0122950
:102BC0000CD2DAF88801059CA043CAF88801DAF82B
:102BD000884104980443CAF888410DE018290BD2B3
:102BE000DAF88C4103988443CAF88C41DAF88C01F6
:102BF000029C2043CAF88C01102910D2DAF8400058
:102C000020EA0C00CAF84000632A00D90122DAF851
:102C1000400002FA09F20243CAF840200FE0DAF855
:102C2000440020EA0B00CAF84400632A00D90122BC
:102C300001988240DAF844000243CAF8442006486A
:102C40006030016821EA08010160016819430160F0
:102C50006DE600000000014000060140416821F4DB
:102C60000071416070472DE9F04704460D46D54894
:102C70004FF4805726184FF080404FF400584FF41F
:102C8000405973D0BE4276D0464579D04E4503D1E7
:102C9000816841F4804181602046FFF7DFFF606872
:102CA00040F400506060A0686FF30D00A060C6485B
:102CB000296800680009B0FBF1F0A168401E0843D4
:102CC000A060606820F47C00606060682979AA795F
:102CD00040EA81406979C90441EA82510843606051
:102CE000F6B3BE4255D0464557D04E4502D12A20B4
:102CF00000F05CF9E06880B2E060E879697A401C35
:102D0000000440EA0160E1680843E060606820F088
:102D10007F4060606068E97A40EA016060606068F6
:102D200044F21401884360606068297A2A7B40EA93
:102D30000110A97A890041EA82310843606086B3B4
:102D4000BE423FD046454DD04E4560D1287AA97A43
:102D50000843297B084355D0BDE8F0472A2003E00B
:102D600013E003E007E00BE000F015B9816841F4DF
:102D70000061816090E7816841F4805181608BE758
:102D8000816841F40051816086E7272000F00EF948
:102D9000B0E7282000F00AF9ACE7292000F006F996
:102DA000A8E7FFE7287AA97A0843297B084304D0DB
:102DB000BDE8F047272000F0EEB8BDE8F047272037
:102DC00000F0F4B8287AA97A0843297B084304D094
:102DD000BDE8F047282000F0DEB8BDE8F047282025
:102DE00000F0E4B8287AA97A0843297B084304D084
:102DF000BDE8F047292000F0CEB8BDE8F047292013
:102E000000F0D4B8BDE8F0472A2000F0CFB8BDE804
:102E1000F087416841F4007141607047016070477C
:102E20000068C0F308020A60400501D5022070471F
:102E300000207047406840F30000401C7047406825
:102E400040F3C000401C70474068C0F3400070472A
:102E500082686FF30D0282605B4A12681209B2FB4E
:102E6000F1F18268491E11438160704756498068BC
:102E700009680909C0F30D00401CB1FBF0F0704770
:102E8000436923F005034361436941EA82010B432F
:102E9000436170474069C0F3C010704710B5446982
:102EA00024F07A0444614469D20044EA410142EAD0
:102EB00003121143416110BD4069C0F30020704707
:102EC000036923F005030361036941EA82010B43AF
:102ED00003617047016941F01001016170470069A9
:102EE000C0F3400070470069C0F3C0007047002283
:102EF000FF2918D0A1F58073FF3B14D0FE290DD017
:102F0000B1F5FF7F0AD0F8290AD0B1F5FC7F07D0D0
:102F1000802907D0B1F5C07F04D0FEE7012202E08E
:102F2000022200E00322816821F0607181608168E3
:102F30004FF4000343EA02621143816070478168E5
:102F4000090201D5002070478068400101D50220A8
:102F500070470120704742680A43426070474268E8
:102F60008A4342607047CA0602D5826852020ED474
:102F70004A0402D58268920209D44A0702D58268BF
:102F8000920304D4490604D58068000101D50120CC
:102F900070470020704700F01F0201219140400956
:102FA000800000F1E020C0F80011704700F01F021F
:102FB000012191404009800000F1E020C0F880111B
:102FC000704700000000FEBFB407002030B54FF08E
:102FD000804108687B4A45077B4C7C4B7C480CD57C
:102FE0000D68AD0701D502601CE02268D20702D04F
:102FF000784A026016E0036014E00D68ED070ED019
:10300000646AA40701D5036000E00260026805233A
:10301000B2FBF3F2C8235A43D208026002E04FF435
:10302000FA4202604968C90702D001684908016094
:10303000694A0168B1FBF2F1416030BD4FF0804058
:103040000168490702D40068C00707D0002044F691
:10305000206100BF401C8842FBD37047002000BFA6
:10306000401C1428FBD3704710B5574C0120206238
:10307000FFF7E4FFFFF7E2FF606A20F00200606202
:10308000A06A56490840A062A06A55490843A06258
:10309000606A20F004006062206B0028FCD010BD44
:1030A00010B5FFF7E1FF4848416A41F00101416274
:1030B0008004016841F001010160016821F0040110
:1030C000016010BD10B5404901200862FFF7B6FF4E
:1030D000FFF7B4FF4FF08040016841F0020101604A
:1030E000016841F00401016010BD10B54FF080444B
:1030F000A06840F08070A0603A48016A21F00101A8
:103100000162FFF79BFF206820F00100206020682B
:1031100020F00400206010BD10B52B49012008608C
:10312000FFF78CFF4FF08040016821F00201016041
:10313000016841F00401016010BD10B52249002072
:103140000860FFF77BFF4FF08040016821F002012B
:103150000160016841F00401016010BD10B54FF03D
:103160008044A06840F48000A0607820FFF739FB1D
:10317000FFF796FF606820F00100606060686060A3
:10318000FFF724FF124818490068884204D9BDE8B7
:1031900010407820FFF725BB0E49884204D9BDE8CE
:1031A00010405020FFF71DBB1049884204D9BDE8EC
:1031B00010402820FFF715BBBDE810401E20FFF788
:1031C00010BB00000080510100100340002D3101B0
:1031D000B4070020005A620240420F0000FEE0FCEB
:1031E0003200050000E0014000B4C40480C3C901FE
:1031F00025480047FEE7FEE7FEE7FEE7FEE7FEE7BD
:10320000FEE7FEE7FEE7FEE7FEE7FEE7FEE7FEE796
:10321000FEE7FEE7FEE7FEE7FEE7FEE7FEE7FEE786
:10322000FEE7FEE7FEE7FEE7FEE7FEE7FEE7FEE776
:10323000FEE7FEE7FEE7FEE7FEE7FEE7FEE7FEE766
:10324000FEE7FEE7FEE7FEE7FEE7FEE7FEE7FEE756
:10325000FEE7FEE7FEE7FEE7FEE7FEE7FEE7FEE746
:10326000FEE7FEE7FEE7FEE7FEE7FEE7FEE7FEE736
:10327000FEE7FEE7FEE7FEE7FEE7FEE7FEE7FEE726
:10328000FEE7FEE7FEE7FEE74901000040EA010332
:103290009B0703D009E008C9121F08C0042AFAD20C
:1032A00003E011F8013B00F8013B521EF9D27047D0
:1032B000D2B201E000F8012B491EFBD27047002278
:1032C000F6E710B513460A4604461946FFF7F0FF25
:1032D000204610BDCAB2401E10F8011F8A4202D01B
:1032E0000029F9D10020704710B5002200E0521CDF
:1032F000835C8C5CA34201D1002BF8D1D8B2E1B23F
:10330000401A10BD2DE9F05F0546002092469B460D
:1033100088460646814640241BE0284641464746EB
:10332000224600F042F853465A46C01A914110D343
:1033300011461846224600F029F82D1A67EB0108BD
:103340004F4622460120002100F020F817EB00092B
:103350004E41201EA4F10104DFDC484631462A46D6
:103360004346BDE8F09F0000064C074D06E0E068CC
:1033700040F0010394E8070098471034AC42F6D3BC
:10338000FCF7E6FEDC3A0000FC3A0000202A04DBF1
:10339000203A00FA02F1002070479140C2F1200368
:1033A00020FA03F3194390407047202A04DB203AA7
:1033B00021FA02F00021704721FA02F3D040C2F155
:1033C0002002914008431946704770B58C1810F8D8
:1033D000015B15F0070301D110F8013B2A1106D15A
:1033E00010F8012B03E010F8016B01F8016B5B1E74
:1033F000F9D12B0705D40023521E0DD401F8013B4F
:10340000FAE710F8013BCB1A921C03E013F8015BBA
:1034100001F8015B521EF9D5A142D8D3002070BD3E
:103420000FB4054B10B503A9044A029800F018F830
:1034300010BC5DF814FB00001D060000BC07002056
:1034400002E008C8121F08C1002AFAD1704770476D
:10345000002001E001C1121F002AFBD170470000CB
:103460002DE9FF4F8DB00F460546002606E02528C2
:103470000BD0DDE90F1290476D1C761C28780028D0
:10348000F5D111B03046BDE8F08F0024A246A14628
:103490000122E94900E0044315F8013F203B02FA0C
:1034A00003F00842F7D128782A2810D06FF02F02B5
:1034B0002878A0F13001092914D80AEB8A0102EB1F
:1034C000410144F0020400EB010A6D1CF0E701CF5A
:1034D0005FEA000A03D544F40054CAF1000A44F03C
:1034E00002046D1C28782E2817D115F8010F44F01E
:1034F00004042A280ED06FF02F022878A0F13001A2
:1035000009290AD809EB890102EB410100EB010905
:103510006D1CF2E757F8049B6D1C28786C280FD0BF
:1035200006DC4C2817D068280DD06A2814D104E096
:10353000742810D07A280FD10DE044F400140AE06A
:1035400044F4801401E044F440146978814202D1CB
:1035500004F580146D1C6D1C28786E281ED00CDCC0
:10356000632830D004DC00288BD0582811D19FE08C
:10357000642867D069280CD164E073282DD004DC5E
:103580006F2872D0702804D194E075286ED0782806
:103590006DD0DDE90F129047761C4BE1C4F3025069
:1035A000022806D0032809D0042801CF09D00660DC
:1035B00040E101CFF117C0E900613BE101CF068096
:1035C00038E1067036E117F8040B8DF80000002092
:1035D0008DF80100EB46012003E057F804BB4FF0E3
:1035E000FF3061074FF0000102D40DE008F1010146
:1035F000884649450FDA8045F8DB1BF8081000299A
:10360000F4D108E008F1010188468142FADB1BF899
:1036100008100029F6D1DDE90F23AAEB0800814646
:10362000214600F031F9304400EB080604E0DDE902
:103630000F121BF8010B9047B8F10108F7D2214691
:103640004846F2E00A21C4F302524FF0000B089101
:10365000022A04D001CFC117032A09D00AE0FF1DB6
:1036600027F00707F7E8020108E02CE01EE01FE062
:1036700000B2C117042A01D140B2C117021E71F174
:10368000000206DA0023D0EB030063EB01012D22D8
:1036900002E0220504D52B228DF82420012203E02C
:1036A000E20701D02022F7E7904653E00A210BE021
:1036B000102109E010214FF0000B44F004044FF0FA
:1036C0000809089103E008214FF0000B0891C4F3AA
:1036D0000252022A04D001CF0021032A06D006E0BC
:1036E000FF1D27F00707F7E8020103E080B2042A74
:1036F00000D1C0B24FF0000822072BD52A78702ADB
:1037000007D0DDF820C08CF0100C5CEA0B0C05D063
:103710000EE040228DF82420012208E050EA010347
:1037200006D030238DF824308DF8252002229046D3
:10373000089B83F0080353EA0B030BD150EA010204
:1037400001D1620706D530228DF824204FF0010800
:10375000A9F101092A78582A04D038A20B9208AAA4
:103760000A920BE03AA2F9E75B46089AFFF7CAFD16
:103770000B9B9B5C0A9A521E0A92137050EA01023C
:10378000F2D10A98ADEB000000F1200B600702D5E2
:1037900024F4803401E04FF00109D94502DDA9EBA2
:1037A0000B0000E0002000EB0B0141440890AAEB65
:1037B000010AE00306D4DDE90F232146504600F05C
:1037C00063F806444FF0000908E009A911F8090060
:1037D000DDE90F12904709F10109761CC145F4DBC0
:1037E000E0030CD5DDE90F232146504600F04CF8EC
:1037F000064404E0DDE90F1230209047761C08995A
:10380000481E08900029F5DC08E00A980A9900781B
:10381000491C0A91DDE90F129047761CBBF10001AB
:10382000ABF1010BF1DC21465046DDE90F2300F03E
:1038300019F806446D1C21E60928010030313233A5
:1038400034353637383961626364656600000000DC
:1038500030313233343536373839414243444546C6
:10386000000000002DE9F041044600251E461746E1
:10387000880404D405E039462020B0476D1C641E3E
:10388000F9D52846BDE8F0812DE9F0410446002530
:103890001E469046C80301D5302700E02027880443
:1038A00004D505E041463846B0476D1C641EF9D585
:1038B0002846BDE8F08100007C39000003000000CC
:1038C0000200000000000000005001400000000065
:1038D00084390000010000000C000000000000001E
:1038E00000200140000000008C39000002000000B0
:1038F0000400000000000000003001400000000053
:103900009C390000040000000700000000000000D7
:103910000060014000000000943900000200000037
:103920000200000000000000003001400100000023
:10393000CC390000A7060000BC390000CF0600000B
:10394000B4390000DB060000C439000003070000A2
:10395000A439000021070000D43900007F070000CF
:10396000B039000013080000A83900001D0800004D
:10397000636D645F7465737400000000454C4330F0
:1039800020200000454C433120200000534C45448A
:103990002020000066757365302000004E6574526B
:1039A000737400006C656400696E666F000000004F
:1039B000696F000068656C7000000000636C6561F1
:1039C000720000007265626F6F740000746573743A
:1039D0000000000072656C61790000004131300028
:1039E0004E31300050313000413000004230000094
:1039F0004D3000004E3000004341503000000000C8
:103A0000503000004131310050313100413100006F
:103A10004D3100004E3100004341503100000000A4
:103A20005031000041313200423132005031320019
:103A300041320000433200004D3200004E3200009F
:103A4000434150320000000050320000503133003A
:103A500041330000433300004D3300004E3300007B
:103A6000503300003356330041340000433400002B
:103A70004D3400004E340000503400004135000049
:103A8000433500004D3500004E3500005035000034
:103A9000433600004D3600004E3600005036000020
:103AA000433700004D3700004E370000503700000C
:103AB00050380000413900004E39000050390000F4
:103AC000474E440058490000584F000052455345A6
:103AD000540000004E6F6E6500000000FC3A0000CC
:103AE00000000020C0070000CA330000343D000081
:103AF000C0070020B87B01005034000001180316F5
:103B0000D43A32010A15641C32020316F839320322
:103B10002A2838352001400CB2340A1904540A19F5
:103B2000051C32060A15C01C32070A15401C320853
:103B30002AB81C3560014009B23729102AE0C4199F
:103B40001CDA0A1C29100A1518540A190B8C29F0C2
:103B50000916C4320D5A3C8CDA0270320E5A141C0B
:103B6000DA011C320F5AF4A841A91C0A191070324C
:103B7000112A6C1C3530014004B23532125A801CB7
:103B8000DA051C32135A901CDA061C32145AA01C97
:103B9000DA071C32155A341C29E0A91C32165A5473
:103BA0001CDA031C32170A15C4C432180A15C81CC3
:103BB00032190A15CC1C321A2A381C4A508CB236DB
:103BC000321B5A581C298CA91C321C5A701CDA044E
:103BD0001C321D5A841CDA051C321E5A941CDA064B
:103BE0001C321F5AA41CDA071C32200A15C0C4322A
:103BF000215A1038DA013832224BF0391C41A91C05
:103C0000422329384A801CB2382A2474591C29546A
:103C1000A91C32255A481CDA021C32265A601CDACA
:103C2000031C32275A781CDA041C32285A8C1CDAFE
:103C3000051C32295A9C1CDA061C322A5AAC1CDAA2
:103C4000071C322B5AB01CDA081C322C5ABC1CDA66
:103C5000091C322D4BE4391CDA0A1C322E5A083862
:103C6000DA0B1C2A2F58591CDA0C1C32305A4C1C07
:103C7000DA0D1C32312AEC7044200140B234323269
:103C80002AE81C4A101CB233290C2A0C54191CDADD
:103C9000011C29445A301CDA021C32355A501CDAF5
:103CA000031C32365A681CDA041C32375A7C1CDA80
:103CB000051C29D02AA81C5D600140072C8129BF62
:103CC0005A981CDA061C29175A881C2954A91C3238
:103CD0003B5A741C298CA91C323C5A5C1C29C4A96F
:103CE0001C323D5AB4A8DA09A8323E2ADC91191CCC
:103CF000DA0A1C323F5A0438DA0B1C32405A241CB0
:103D0000DA0C1C1A3D2D1A55041A7D041AB7041A30
:103D1000D1041AE904133007023C201AAA01011841
:103D20001301062B118104120714110108121175D9
:043D30002D3101141C
:0400000500000149AD
:00000001FF
