:020000040000FA
:10000000401100200D15000011150000131500000F
:10001000151500001715000019150000000000005C
:100020000000000000000000000000001B150000A0
:100030001D150000000000001F15000099040000BD
:1000400023150000251500002715000029150000C4
:100050002B1500002D1500002F1500003115000094
:100060003315000035150000371500003915000064
:100070003B1500003D1500003F1500004115000034
:100080004315000045150000471500004915000004
:100090004B1500004D1500004F15000051150000D4
:1000A00053150000551500005715000059150000A4
:1000B0005B1500005D1500005F1500006115000074
:1000C0006315000065150000671500006915000044
:1000D0006B1500006D1500006F1500000F05000086
:1000E0007315000075150000771500000000000072
:1000F000791500007B1500007D1500007F150000BC
:10010000811500008315000085150000871500008B
:10011000891500008B1500008D1500008F1500005B
:10012000911500009315000095150000971500002B
:10013000991500009B1500009D1500009F150000FB
:10014000A1150000A3150000DFF810D001F05EFA41
:100150000048004761010000AFF30080401100201B
:1001600001F08AF900F00EF91B4C4FF47A71206807
:10017000B0FBF1F0401EB0F1807F09D24FF0E021DA
:100180004861164AE020107000208861072008614D
:100190004FF4E13000F08AF911A001F069FA11A0E2
:1001A00001F066FA1AA001F063FA24A0216801F0B8
:1001B0005FFA28A001F05CFA32A001F059FA3BA0E6
:1001C00001F056FA43A001F053FA48A001F050FAAA
:1001D00000F040FAFCE700001C00002023ED00E0E6
:1001E0000D0A00003D3D3D3D3D3D3D3D3D3D3D3D1C
:1001F0003D3D3D3D3D3D3D3D3D3D3D3D3D3D3D3D2F
:100200003D3D3D3D3D3D3D3D3D3D3D3D0D0A0000FB
:1002100020205374657020363A20554152542049AD
:100220005251202B2052696E6742756666657220B6
:100230002B204672616D650D0A000000202043509E
:100240005520436C6F636B3A20256420487A0D0A71
:100250000000000020204672616D652020203A20B9
:10026000313242205B307841355D5B434D445D5B0C
:1002700038425D5B53554D5D5B307835415D0D0A0D
:10028000000000002020436F6D6D616E64733A20A2
:10029000307830313D4C45445F4F4E20203078302F
:1002A000323D4C45445F4F46460D0A002020202039
:1002B0002020202020202020307830333D454C4322
:1002C0003020202020307830343D454C43310D0A19
:1002D000000000002020202020202020202020209E
:1002E000307841413D50494E470D0A003D3D3D3D6E
:1002F0003D3D3D3D3D3D3D3D3D3D3D3D3D3D3D3D2E
:100300003D3D3D3D3D3D3D3D3D3D3D3D3D3D3D3D1D
:100310003D3D3D3D0D0A0D0A000000000021C0F8E2
:100320000011C0F80411704710B5D0F800315A1C04
:10033000D2B2D0F80441944201D1002010BDC15482
:10034000C0F80021012010BDD0F80031D0F8042100
:10035000934201D100207047825C0A7090F804112A
:10036000491CC9B2C0F8041101207047D0F800112F
:10037000D0F80401814201D3081A7047401AC0F531
:1003800080707047F8B5052126A001F071F90025AD
:100390002A4F002605EB450007EBC00460690128E1
:1003A0001AD00023201D07C800F0D0FB6069012887
:1003B00014D0009600230122A168206900F016FAEB
:1003C000A168206900F00DFB1DA0216801F050F923
:1003D0006D1C052DDED3F8BD0123E3E70096012354
:1003E0000022A168206900F001FA1DA0216801F037
:1003F0003FF9EDE770B50024104E04EB440506EB21
:10040000C5008168006900F0FEFA08B11BA200E097
:100410001CA256F835101DA001F02AF9641C052C09
:10042000EBD370BD5B494F20494E49545D20256494
:100430002070696E733A0D0A00000000081B00006E
:100440002020257320202D3E204F555450555420F8
:1004500028696E6974204C4F57290D0A000000006E
:100460002020257320202D3E20494E505554202811
:1004700070756C6C2D7570290D0A0000484947484D
:10048000000000004C4F5720000000002020257382
:10049000203A2025730D0A0003480168491C0160B9
:1004A0007047014800687047000000201FB50446EF
:1004B0003448FFF733FF012364220221002000F0BB
:1004C00045FB002364220321184600F03FFB009403
:1004D00000208DF804008DF805008DF80600072136
:1004E0008DF8071001218DF808108DF809008DF89E
:1004F0000A00FF208DF80B008DF80C10224C694685
:10050000204600F03EFD204600F011FE1FBD38B52C
:100510001D4C1021204600F0B4FE48B90DE069469C
:1005200000F00CFE20B90098C1B21648FFF7FCFE9F
:10053000E1682046C9B20129F1D84FF48041204634
:1005400000F09FFE50B938BD6946204600F0F6FD28
:1005500020B90098C1B20B48FFF7E6FE204600F034
:10056000FCFD0028F0D038BD70B50546064C294684
:10057000204600F0E1FD204600F0EAFD0028FAD117
:10058000284670BD28000020000002400022012102
:10059000435C1A44491C0929FADDD0B2704770B592
:1005A00005466C784BA0214601F062F8032C22D05E
:1005B00005DC504D012C0CD0022C04D112E0042C8F
:1005C0002ED0AA2C41D02146BDE870404AA001F0AF
:1005D0004FB850A001F04CF82846BDE87040042107
:1005E00000F0F7B94FA001F043F82846BDE870408D
:1005F000042100F0F6B9A9784E4C41B14EA001F0AB
:1006000037F82046BDE87040022100F0E2B94EA064
:1006100001F02EF82046BDE87040022100F0E1B95B
:10062000A9784D4C41B14DA001F022F82046BDE81B
:1006300070400C2100F0CDB94CA001F019F8204613
:10064000BDE870400C2100F0CCB9BDE870404BA073
:1006500001F00EB8F8B54C4E00254C4C05E0206872
:1006600050B1012811D02560656069464848FFF700
:100670006BFE0128F3D0F8BD9DF80000A528F4D149
:100680003070012060602060EFE761689DF8002015
:10069000481C606072540C28E7DBF17A5A2905D0B7
:1006A0003CA000F0E5FF25606560DEE73648FFF717
:1006B0006DFF0146B27A8A4205D040A000F0D8FF13
:1006C00025606560D1E73048FFF769FF2560656008
:1006D000CBE700005B434D445D2076616C6964208C
:1006E0006672616D652C20434D443D307825303273
:1006F000580D0A000030014020202D3E20756E6B01
:100700006E6F776E20434D44203078253032580D7F
:100710000A00000020202D3E20534C4544204F4E1F
:100720000D0A000020202D3E20534C4544204F460A
:10073000460D0A000050014020202D3E20454C432C
:1007400030204F4E0D0A000020202D3E20454C4306
:1007500030204F46460D0A000020014020202D3E4B
:1007600020454C4331204F4E0D0A000020202D3EE5
:1007700020454C4331204F46460D0A0020202D3E97
:1007800020504F4E470D0A00300100200400002089
:10079000280000205B4552525D2062616420746134
:1007A000696C3A2065787020307835412C20676F6D
:1007B00074203078253032580D0A00005B455252C3
:1007C0005D2062616420636865636B73756D3A20B8
:1007D000657870203078253032582C20676F74206F
:1007E0003078253032580D0A000000002DE9F0471E
:1007F0001646DDF820801F46DFF8AC920124AB4D91
:100800008C40A0EB09034FF4805C4FF080424845D8
:1008100076D01FDCA64BC01838D0604558D0B0F554
:10082000005F15D1906840F0040090600123002221
:10083000022000F08BF99F48012E6CD04168A14343
:100840004160012F6BD0D5F81002A043C5F810020B
:10085000BDE8F08763457DD0B3F5405FF8D190687F
:1008600040F40010906001230022052000F06EF992
:100870009148012E6FD04168A1434160012F6BD098
:10088000D5F83002A043C5F83002E1E7906840F0A7
:100890000100906000220123104600F057F98448BF
:1008A0004042012E0AD04168A1434160012F09D086
:1008B000D5F80002A043C5F80002C9E7416821430A
:1008C0004160F3E7D5F800022043C5F80002BFE716
:1008D000906840F00200906001230022184600F06A
:1008E00035F97648012E0CD04168A1434160B8F13A
:1008F000010F0AD0D5F80003A043C5F80003A7E70D
:1009000013E0416821434160F1E7D5F8000320433B
:10091000C5F800039CE741682143416091E7D5F8A1
:1009200010022043C5F8100292E7906840F01000D2
:10093000906001230022032000F008F9012E10D05E
:10094000D9F80400A043C9F80400012F0FD0D5F84E
:10095000200202E011E032E035E0A043C5F82002B9
:1009600076E7D9F804002043C9F80400EDE7D5F88C
:1009700020022043C5F820026AE7906840F020007A
:10098000906001230022042000F0E0F84C48012E82
:100990000BD04168A1434160B8F1010F09D0D5F8EF
:1009A0002003A043C5F8200352E74168214341607A
:1009B000F2E7D5F820032043C5F8200348E7416853
:1009C000214341605AE7D5F830022043C5F8300290
:1009D0003EE70122400100EB810000F1844002600B
:1009E00070470022400100EB810000F1844002606A
:1009F0007047400100EB810000F184400168C1F1C3
:100A00000101016070470068C84000F001007047B4
:100A1000C2F118036FF07F42DA4003688A40134343
:100A200003607047C2F118036FF07F42DA40036839
:100A30008A40934303607047C2F118036FF07F420E
:100A4000DA4003688A40534003607047C2F11803DC
:100A50006FF07F42DA400068C84010407047C2F132
:100A600018036FF07F42DA4072B603688A4013437E
:100A7000036062B67047C2F118036FF07F42DA403C
:100A800072B603688A409343036062B67047C2F14E
:100A900018036FF07F42DA4072B603688A40534011
:100AA000036062B670470000005001400000014042
:100AB00000F0FEBF003001400080014000200140F6
:100AC0000060014010B572B6000B1B4CA16888474E
:100AD0002068804762B610BD10B5030701D0022020
:100AE00010BD930701D0022010BD72B69208124CBF
:100AF000E36898472068804762B6002010BD10B5B3
:100B000072B60D4940F289431E284A6808D0282849
:100B10000AD050280CD00949581C904762B610BD25
:100B2000074918469047F9E7064918469047F5E700
:100B3000054918469047F1E70C0000206E7AFCAB9F
:100B4000251FF4AB2929F4AB4D52F8AB2DE9F04F3A
:100B500086B001EB81074FF01F0BA2F1640A0BFA7C
:100B600007F60AFA07F48D1F05EB850C0BFA0CF754
:100B70000AFA0CF54FF001084FEA41094FF0030C57
:100B8000A1F10C0E0CFA09FC08FA01F80EEB8E0E1E
:100B90008B40CDF800E00BFA0EFECDF814E0DDF846
:100BA00000E00AFA0EFECDF810E0A1F1120E0EEBF5
:100BB0008E0E0BFA0EFB0AFA0EFACDE902ABA1F18A
:100BC000100A4FEA4A0A4FF0030B0BFA0AFBCDF862
:100BD00004A0DFF89CA3062837D2DFE800F0033931
:100BE0006EA3F0EF632A18D906290AD2DAF80001B9
:100BF000B043CAF80001DAF800012043CAF8000146
:100C00000BE00C2909D2DAF80401B843CAF8040150
:100C1000DAF804012843CAF80401DAF8000020EAEF
:100C20000C00CAF80000632A00D90122DAF800009B
:100C300002FA09F20243CAF80020CE48016821EA0C
:100C40000801016001681943016006B0BDE8F08F3A
:100C5000632A18D906290AD2DAF81001B043CAF873
:100C60001001DAF810012043CAF810010BE00C293A
:100C700009D2DAF81401B843CAF81401DAF81401F9
:100C80002843CAF81401DAF8040020EA0C00CAF874
:100C90000400632A00D90122DAF8040002FA09F2FA
:100CA0000243CAF80420B3481030016821EA080161
:100CB0000160016819430160C7E7632A18D9062952
:100CC0000AD2DAF82001B043CAF82001DAF820018C
:100CD0002043CAF820010BE00C2909D2DAF82401DC
:100CE000B843CAF82401DAF824012843CAF82401D9
:100CF000DAF8080020EA0C00CAF80800632A00D9D4
:100D00000122DAF8080002FA09F20243CAF80820C0
:100D100098482030016821EA080101600168194300
:100D2000016092E7632A36D906290AD2DAF860010F
:100D3000B043CAF86001DAF860012043CAF86001E4
:100D400029E00C290AD2DAF86401B843CAF8640130
:100D5000DAF864012843CAF864011CE012290CD2B5
:100D6000DAF86801059CA043CAF86801DAF868015E
:100D7000049C2043CAF868010DE018290BD2DAF868
:100D80006C01039CA043CAF86C01DAF86C01029C68
:100D90002043CAF86C01102912D2DAF8200020EAA8
:100DA0000C00CAF82000632A00D90122DAF82000DA
:100DB00002FA09F20243CAF8202011E071E019E0BA
:100DC000DAF8240020EA0B00CAF82400632A00D9CC
:100DD000012201988240DAF824000243CAF8242054
:100DE00064484030016821EA080101600168194344
:100DF00001602AE7632A27D906290AD2DAF87001A6
:100E0000B043CAF87001DAF870012043CAF87001E3
:100E10001AE00C290AD2DAF87401B843CAF874014E
:100E2000DAF874012843CAF874010DE012290BD2D4
:100E3000DAF87801059CA043CAF87801DAF878411D
:100E400004980443CAF87841102910D2DAF8300027
:100E500020EA0C00CAF83000632A00D90122DAF82F
:100E6000300002FA09F20243CAF830200FE0DAF843
:100E7000340020EA0B00CAF83400632A00D90122AA
:100E800001988240DAF834000243CAF83420394825
:100E90005030016821EA08010160016819430160CE
:100EA000D3E6632A36D906290AD2DAF88001B0439C
:100EB000CAF88001DAF880012043CAF8800129E0ED
:100EC0000C290AD2DAF88401B843CAF88401DAF8A6
:100ED00084012843CAF884011CE012290CD2DAF8F4
:100EE0008801059CA043CAF88801DAF88841049873
:100EF0000443CAF888410DE018290BD2DAF88C4176
:100F000003988443CAF88C41DAF88C01029C204390
:100F1000CAF88C01102910D2DAF8400020EA0C003F
:100F2000CAF84000632A00D90122DAF8400002FA28
:100F300009F20243CAF840200FE0DAF8440020EA40
:100F40000B00CAF84400632A00D9012201988240AC
:100F5000DAF844000243CAF84420064860300168C9
:100F600021EA080101600168194301606DE6000093
:100F70000000014000060140416821F40071416019
:100F800070472DE9F04704460D46D5484FF4805789
:100F900026184FF080404FF400584FF4405973D05A
:100FA000BE4276D0464579D04E4503D1816841F4A2
:100FB000804181602046FFF7DFFF606840F4005009
:100FC0006060A0686FF30D00A060C64829680068E3
:100FD0000009B0FBF1F0A168401E0843A060606802
:100FE00020F47C00606060682979AA7940EA814039
:100FF0006979C90441EA825108436060F6B3BE4290
:1010000055D0464557D04E4502D12A2000F05CF914
:10101000E06880B2E060E879697A401C000440EA48
:101020000160E1680843E060606820F07F40606034
:101030006068E97A40EA01606060606844F2140127
:10104000884360606068297A2A7B40EA0110A97AA7
:10105000890041EA82310843606086B3BE423FD0D6
:1010600046454DD04E4560D1287AA97A0843297B60
:10107000084355D0BDE8F0472A2003E013E003E021
:1010800007E00BE000F015B9816841F40061816070
:1010900090E7816841F4805181608BE7816841F479
:1010A0000051816086E7272000F00EF9B0E7282084
:1010B00000F00AF9ACE7292000F006F9A8E7FFE7FD
:1010C000287AA97A0843297B084304D0BDE8F04771
:1010D000272000F0EEB8BDE8F047272000F0F4B874
:1010E000287AA97A0843297B084304D0BDE8F04751
:1010F000282000F0DEB8BDE8F047282000F0E4B872
:10110000287AA97A0843297B084304D0BDE8F04730
:10111000292000F0CEB8BDE8F047292000F0D4B86F
:10112000BDE8F0472A2000F0CFB8BDE8F08741685D
:1011300041F4007141607047016070470068C0F37E
:1011400008020A60400501D5022070470020704760
:10115000406840F30000401C7047406840F3C00006
:10116000401C70474068C0F34000704782686FF3CE
:101170000D0282605B4A12681209B2FBF1F18268CB
:10118000491E114381607047564980680968090902
:10119000C0F30D00401CB1FBF0F07047436923F031
:1011A00005034361436941EA82010B434361704790
:1011B0004069C0F3C010704710B5446924F07A0448
:1011C00044614469D20044EA410142EA03121143F6
:1011D000416110BD4069C0F300207047036923F0EE
:1011E00005030361036941EA82010B430361704710
:1011F000016941F01001016170470069C0F34000CE
:1012000070470069C0F3C00070470022FF2918D062
:10121000A1F58073FF3B14D0FE290DD0B1F5FF7FFF
:101220000AD0F8290AD0B1F5FC7F07D0802907D071
:10123000B1F5C07F04D0FEE7012202E0022200E007
:101240000322816821F06071816081684FF400039E
:1012500043EA02621143816070478168090201D547
:10126000002070478068400101D5022070470120AE
:10127000704742680A434260704742688A4342604E
:101280007047CA0602D5826852020ED44A0402D5BB
:101290008268920209D44A0702D58268920304D474
:1012A000490604D58068000101D50120704700205F
:1012B000704700F01F02012191404009800000F1B9
:1012C000E020C0F80011704700F01F02012191409A
:1012D0004009800000F1E020C0F880117047000054
:1012E0000000FEBF1C00002030B54FF080410868B0
:1012F0007B4A45077B4C7C4B7C480CD50D68AD0781
:1013000001D502601CE02268D20702D0784A026050
:1013100016E0036014E00D68ED070ED0646AA407C0
:1013200001D5036000E0026002680523B2FBF3F21E
:10133000C8235A43D208026002E04FF4FA42026026
:101340004968C90702D0016849080160694A016813
:10135000B1FBF2F1416030BD4FF0804001684907B8
:1013600002D40068C00707D0002044F6206100BF07
:10137000401C8842FBD37047002000BF401C14284B
:10138000FBD3704710B5574C01202062FFF7E4FFF4
:10139000FFF7E2FF606A20F002006062A06A56492F
:1013A0000840A062A06A55490843A062606A20F024
:1013B00004006062206B0028FCD010BD10B5FFF760
:1013C000E1FF4848416A41F001014162800401683F
:1013D00041F001010160016821F00401016010BDCC
:1013E00010B5404901200862FFF7B6FFFFF7B4FFD0
:1013F0004FF08040016841F002010160016841F056
:101400000401016010BD10B54FF08044A06840F0A9
:101410008070A0603A48016A21F001010162FFF783
:101420009BFF206820F001002060206820F004006D
:10143000206010BD10B52B4901200860FFF78CFF1C
:101440004FF08040016821F002010160016841F025
:101450000401016010BD10B5224900200860FFF7AB
:101460007BFF4FF08040016821F0020101600168BC
:1014700041F00401016010BD10B54FF08044A06838
:1014800040F48000A0607820FFF739FBFFF796FF5B
:10149000606820F00100606060686060FFF724FF12
:1014A000124818490068884204D9BDE810407820E5
:1014B000FFF725BB0E49884204D9BDE810405020F3
:1014C000FFF71DBB1049884204D9BDE81040282011
:1014D000FFF715BBBDE810401E20FFF710BB000052
:1014E0000080510100100340002D31011C0000203C
:1014F000005A620240420F0000FEE0FC320005008C
:1015000000E0014000B4C40480C3C901254800477D
:10151000FEE7FEE7FEE7FEE7FEE7FEE7FEE7FEE7A3
:10152000FEE7FEE7FEE7FEE7FEE7FEE7FEE7FEE793
:10153000FEE7FEE7FEE7FEE7FEE7FEE7FEE7FEE783
:10154000FEE7FEE7FEE7FEE7FEE7FEE7FEE7FEE773
:10155000FEE7FEE7FEE7FEE7FEE7FEE7FEE7FEE763
:10156000FEE7FEE7FEE7FEE7FEE7FEE7FEE7FEE753
:10157000FEE7FEE7FEE7FEE7FEE7FEE7FEE7FEE743
:10158000FEE7FEE7FEE7FEE7FEE7FEE7FEE7FEE733
:10159000FEE7FEE7FEE7FEE7FEE7FEE7FEE7FEE723
:1015A000FEE7FEE7490100002DE9F05F0546002057
:1015B00092469B4688460646814640241BE02846C4
:1015C00041464746224600F042F853465A46C01A62
:1015D000914110D311461846224600F029F82D1AE1
:1015E00067EB01084F4622460120002100F020F859
:1015F00017EB00094E41201EA4F10104DFDC484630
:1016000031462A464346BDE8F09F0000064C074D90
:1016100006E0E06840F0010394E8070098471034C2
:10162000AC42F6D3FEF794FDA81B0000C81B0000D7
:10163000202A04DB203A00FA02F100207047914092
:10164000C2F1200320FA03F3194390407047202A87
:1016500004DB203A21FA02F00021704721FA02F35C
:10166000D040C2F120029140084319467047000063
:101670000FB4054B10B503A9044A029800F018F8FE
:1016800010BC5DF814FB0000690500002400002078
:1016900002E008C8121F08C1002AFAD1704770473B
:1016A000002001E001C1121F002AFBD17047000099
:1016B0002DE9FF4F8DB00F460546002606E0252890
:1016C0000BD0DDE90F1290476D1C761C287800289E
:1016D000F5D111B03046BDE8F08F0024A246A146F6
:1016E0000122E94900E0044315F8013F203B02FADA
:1016F00003F00842F7D128782A2810D06FF02F0283
:101700002878A0F13001092914D80AEB8A0102EBEC
:10171000410144F0020400EB010A6D1CF0E701CF27
:101720005FEA000A03D544F40054CAF1000A44F009
:1017300002046D1C28782E2817D115F8010F44F0EB
:1017400004042A280ED06FF02F022878A0F130016F
:1017500009290AD809EB890102EB410100EB0109D3
:101760006D1CF2E757F8049B6D1C28786C280FD08D
:1017700006DC4C2817D068280DD06A2814D104E064
:10178000742810D07A280FD10DE044F400140AE038
:1017900044F4801401E044F440146978814202D199
:1017A00004F580146D1C6D1C28786E281ED00CDC8E
:1017B000632830D004DC00288BD0582811D19FE05A
:1017C000642867D069280CD164E073282DD004DC2C
:1017D0006F2872D0702804D194E075286ED07828D4
:1017E0006DD0DDE90F129047761C4BE1C4F3025037
:1017F000022806D0032809D0042801CF09D00660AA
:1018000040E101CFF117C0E900613BE101CF068063
:1018100038E1067036E117F8040B8DF8000000205F
:101820008DF80100EB46012003E057F804BB4FF0B0
:10183000FF3061074FF0000102D40DE008F1010113
:10184000884649450FDA8045F8DB1BF80810002967
:10185000F4D108E008F1010188468142FADB1BF867
:1018600008100029F6D1DDE90F23AAEB0800814614
:10187000214600F031F9304400EB080604E0DDE9D0
:101880000F121BF8010B9047B8F10108F7D221465F
:101890004846F2E00A21C4F302524FF0000B0891CF
:1018A000022A04D001CFC117032A09D00AE0FF1D84
:1018B00027F00707F7E8020108E02CE01EE01FE030
:1018C00000B2C117042A01D140B2C117021E71F142
:1018D000000206DA0023D0EB030063EB01012D22A6
:1018E00002E0220504D52B228DF82420012203E0FA
:1018F000E20701D02022F7E7904653E00A210BE0EF
:10190000102109E010214FF0000B44F004044FF0C7
:101910000809089103E008214FF0000B0891C4F377
:101920000252022A04D001CF0021032A06D006E089
:10193000FF1D27F00707F7E8020103E080B2042A41
:1019400000D1C0B24FF0000822072BD52A78702AA8
:1019500007D0DDF820C08CF0100C5CEA0B0C05D031
:101960000EE040228DF82420012208E050EA010315
:1019700006D030238DF824308DF8252002229046A1
:10198000089B83F0080353EA0B030BD150EA0102D2
:1019900001D1620706D530228DF824204FF00108CE
:1019A000A9F101092A78582A04D038A20B9208AA72
:1019B0000A920BE03AA2F9E75B46089AFFF7F4FDBA
:1019C0000B9B9B5C0A9A521E0A92137050EA01020A
:1019D000F2D10A98ADEB000000F1200B600702D5B0
:1019E00024F4803401E04FF00109D94502DDA9EB70
:1019F0000B0000E0002000EB0B0141440890AAEB33
:101A0000010AE00306D4DDE90F232146504600F029
:101A100063F806444FF0000908E009A911F809002D
:101A2000DDE90F12904709F10109761CC145F4DB8D
:101A3000E0030CD5DDE90F232146504600F04CF8B9
:101A4000064404E0DDE90F1230209047761C089927
:101A5000481E08900029F5DC08E00A980A990078E9
:101A6000491C0A91DDE90F129047761CBBF1000179
:101A7000ABF1010BF1DC21465046DDE90F2300F00C
:101A800019F806446D1C21E6092801003031323373
:101A900034353637383961626364656600000000AA
:101AA0003031323334353637383941424344454694
:101AB000000000002DE9F041044600251E461746AF
:101AC000880404D405E039462020B0476D1C641E0C
:101AD000F9D52846BDE8F0812DE9F04104460025FE
:101AE0001E469046C80301D5302700E02027880411
:101AF00004D505E041463846B0476D1C641EF9D553
:101B00002846BDE8F0810000801B000003000000B3
:101B10000200000000000000005001400000000032
:101B2000881B0000010000000C0000000000000005
:101B30000020014000000000901B00000200000097
:101B40000400000000000000003001400000000020
:101B5000A01B0000040000000700000000000000BF
:101B60000060014000000000981B0000020000001F
:101B700002000000000000000030014001000000F1
:101B8000454C433020200000454C433120200000CC
:101B9000534C4544202000006675736530200000DA
:101BA0004E65745273740000C81B000000000020D2
:101BB0002800000090160000F01B00002800002004
:101BC00018110000A0160000000000000000000036
:101BD00000000000010600118106001181070011BC
:101BE00001080011002D3101140000000000000068
:0400000500000149AD
:00000001FF
