:020000040000FA
:1000000088860120D53F0000D93F0000DB3F00007B
:10001000DD3F0000DF3F0000E13F00000000000086
:10002000000000000000000000000000610100006E
:10003000E53F000000000000A5010000693000005D
:10004000EB3F0000ED3F0000EF3F0000F13F0000FC
:10005000F33F0000F53F0000F73F0000F93F0000CC
:10006000FB3F0000FD3F0000FF3F0000014000009B
:100070000340000005400000074000000940000068
:100080000B4000000D4000000F4000001140000038
:100090001340000015400000174000001940000008
:1000A0001B4000001D4000001F40000021400000D8
:1000B00023400000254000002740000029400000A8
:1000C0002B4000002D4000002F4000003140000078
:1000D000334000003540000037400000BD190000EB
:1000E0001B1B00003D4000003F40000000000000DE
:1000F00041400000434000004540000047400000F0
:10010000494000004B4000004D400000C518000071
:10011000C9180000CD180000D1180000D518000043
:10012000D91800005B4000005D4000005F40000007
:10013000614000006340000065400000674000002F
:10014000694000006B400000DFF810D005F04AF96C
:1001500000480047F9010000AFF3008088860120C5
:10016000224B19680868B0E8F00F80F30988BFF3E4
:100170006F8F4FF0000080F311884EF00D0E704726
:100180000000000006480068006880F3088862B636
:1001900061B6BFF34F8FBFF36F8F00DF00BF00BFAB
:1001A00008ED00E0EFF30980BFF36F8F0F4B1A6883
:1001B00020E9F00F106008B54FF0800080F311883F
:1001C000BFF34F8FBFF36F8F01F0C6FF4FF00000FA
:1001D00080F31188BDE8084019680868B0E8F00F9E
:1001E00080F30988BFF36F8F704700BF800A00203B
:1001F000EFF305807047000003F0A2FE04480021E1
:10020000006842690846904702F0B7F8FEE7000030
:1002100054000020F8B5072126A005F011FA0025AA
:100220002A4F002605EB450007EBC0046069012852
:100230001AD00023201D07C803F0ECF960690128DB
:1002400014D0009600230122A168206903F032F83F
:10025000A168206903F029F91DA0216805F0F0F9D3
:100260006D1C072DDED3F8BD0123E3E700960123C3
:100270000022A168206903F01DF81DA0216805F087
:10028000DFF9EDE770B50024104E04EB440506EBF2
:10029000C5008168006903F01AF908B11BA200E0EB
:1002A0001CA256F835101DA005F0CAF9641C072CD5
:1002B000EBD370BD5B494F20494E49545D20256406
:1002C0002070696E733A0D0A000000005C5F000048
:1002D0002020257320202D3E204F5554505554206A
:1002E00028696E6974204C4F57290D0A00000000E0
:1002F0002020257320202D3E20494E505554202883
:1003000070756C6C2D7570290D0A000048494748BE
:10031000000000004C4F57200000000020202573F3
:10032000203A2025730D0A002DE9F04106460C46BF
:1003300017469846002500E0641C217801B340462A
:1003400004F0DAFD0028F7D11AE028466D1C47F8C2
:10035000204000E0641C217821B1404604F0CCFD2F
:100360000028F7D0207820B1002004F8010B00E02D
:10037000641C217821B1404604F0BEFD0028F7D16D
:10038000207808B1B542E0DB2846BDE8F08170B5C1
:1003900006460D46A749A8A005F052F9002406E03C
:1003A00055F824202146A6A005F04AF9641CB44261
:1003B000F6DB002070BD10B5A6A005F041F90020C5
:1003C00010BD70B5A6A005F03BF90024994D403D45
:1003D000A9A055F8341005F033F9641C082CF7D3A4
:1003E0009EA005F02DF9002070BDA5A005F028F90C
:1003F000BFF34F8FA6480168A64A01F4E06111439C
:100400000160BFF34F8FFEE770B50C464FF0FF362B
:10041000022804DAA0A005F013F9304670BDA3A1AC
:10042000606804F07AFDA24D50B1A2A1606804F0AA
:1004300074FD70B1A0A0616805F002F9304670BD8E
:1004400028680121426811209047A3A005F0F8F820
:1004500007E028680021426811209047A1A005F01C
:10046000EFF8002070BD2DE9F0410C464FF0FF374A
:10047000032804DA9EA005F0E3F8384685E7A3A137
:10048000606804F04AFD50B1A1A1606804F045FD28
:1004900040B1A0A0616805F0D3F8384675E71A2589
:1004A000A5A601E00325A6A680A1A06804F035FD5D
:1004B000DFF8FC8150B17FA1A06804F02EFD80B16F
:1004C0007DA0A16805F0BCF838465EE7D8F80000CA
:1004D000012142682846904731469BA005F0B0F8BC
:1004E00009E0D8F8000000214268284690473146CC
:1004F00097A005F0A5F8002047E710B5FFF7C2FE6A
:10050000002010BD10B595A005F09AF89948016833
:1005100099A005F095F801F069FF01469CA005F04F
:100520008FF8A1A005F08CF84CA005F089F8002008
:1005300010BD2DE9F043ABB0A34F0026786800282A
:1005400005D001280ED07E602BB0BDE8F0839FA0BF
:1005500005F076F880219E4804F0B1FC3E60012051
:100560007860F1E79B480121006842682AA890471B
:100570000028E9D03A68802A01DB7E60E4E79DF834
:10058000A81093480A291AD004DC08290DD009299B
:1005900004D1D9E70D2916D07F2906D0531C3B6022
:1005A00081548DA005F04CF8CEE7002A02DD521EE2
:1005B0003A608654864989A005F042F8C4E7002ACB
:1005C000C2D17E60C0E78654FAB1521C80496846A9
:1005D00004F05CFC83A320AA69460A20FFF7A4FE6E
:1005E00081465FEA090012D000250024DFF844802C
:1005F000A8F14008209858F8341004F08EFC40B15F
:10060000641C082CF6DB7DB112E07E609CE77E6006
:100610009AE712A005F014F808EBC40020A942687C
:10062000484690470125EEE770A0209905F008F8AC
:100630007E6089E74460000025730D0A0000000019
:100640002020617267765B25645D3A2025730D0A70
:10065000000000000D0A0D0A0D0A0D0A0D0A000027
:100660000D0A3D3D3D20436F6D6D616E6473203D0D
:100670003D3D0D0A00000000202025730D0A0000FA
:100680005265626F6F74696E672E2E2E0D0A000020
:100690000CED00E00400FA0555736167653A206CC3
:1006A0006564206F6E7C6F66660D0A006F6E0000D9
:1006B000280100206F666600496E76616C69643AB5
:1006C0002025732028657870656374206F6E7C6FB9
:1006D0006666290D0A0000004C4544204F4E0D0A65
:1006E000000000004C4544204F46460D0A00000023
:1006F00055736167653A2072656C617920307C3191
:10070000206F6E7C6F66660D0A00000030000000EE
:1007100031000000496E76616C69642072656C611D
:10072000793A20257320286578706563742030201D
:100730006F722031290D0A00454C43300000000043
:10074000454C4331000000002573204F4E0D0A0038
:100750002573204F46460D0A000000000D0A3D3D5E
:100760003D2053797374656D20496E666F203D3D61
:100770003D0D0A00E80A0020202043505520436C1C
:100780006F636B203A20256420487A0D0A00000030
:1007900020205469636B2020202020203A202564EB
:1007A000206D730D0A000000202055415254202076
:1007B000202020203A203131353230302D382D4E56
:1007C0002D310D0A00000000000000200D0A3E003F
:1007D000680B00200C010020256300000D0A3E2557
:1007E0007300000020090A0D000000000D0A2020FF
:1007F000756E6B6E6F776E20636F6D6D616E643AB0
:100800002025730D0A00000010B5082802DB4FF008
:10081000010201E04FF0000201DBA0F108005D4B96
:100820004FF0010431B1995C04FA00F421EA0401AB
:10083000995410BD995C04FA00F441EA04019954FA
:1008400010BD10B5544C02225249206843685348E9
:10085000984720688168BDE810405048084710B5A7
:100860004E48242101602321416025218160FF221F
:100870000221484804F01CFB46490020891C0870EE
:100880004870891C08704870091F886042480068D9
:10089000016842488847BDE81040D2E710B50146DC
:1008A0000020FFF7B1FFBDE81040CAE710B50146D0
:1008B0000F20FFF7A9FFBDE81040C2E770B506465C
:1008C000022E23D23348801C8155354AC6EBC60020
:1008D000851861B1022919D100240121285DFFF793
:1008E00093FF641C072CF8DBBDE87040A9E70024E7
:1008F0000021285DFFF788FF641C072CF8DB2549E1
:100900000020091D8855BDE870409AE770BD2DE9AB
:10091000F04700201F4FB968491CB9600024DFF878
:10092000809007F1020A07F104081AF8041001295F
:1009300025D1397AC90722D00025C4EBC40000EBC9
:1009400009060021705DFFF75FFF6D1C072DF8DBC6
:10095000002504E0705D0121FFF756FF6D1C18F8BB
:100960000400A842F6DA18F80400401CC0B208F8E7
:100970000400072802D3002008F804000120641CAA
:10098000022CD2DB002802D0BDE8F04759E7BDE8D1
:10099000F0870000200000204C010020E80B002020
:1009A0004D60000010B572A004F04AFE71A004F082
:1009B00047FE7BA004F044FE8448016884A004F054
:1009C0003FFE89A004F03CFE92A004F039FE9DA0F9
:1009D00004F036FE67A004F033FEBDE8104064A0CA
:1009E00004F02EBE86B0A3484FF4E13600680168DB
:1009F00030468847A04D286800688047FFF70AFC0A
:100A00009E4C0021206842681A20904720680021EF
:100A100042680320904720680021426811209047D7
:100A200020680121426838209047954F3868006857
:100A300080479448006800688047934800680068D1
:100A400080479248006800688047914C20680168A0
:100A5000304688478F4E30680168206888478E4C42
:100A6000206018B1286801698CA088473868012186
:100A7000C2680020904738680121C2680846904744
:100A80003868416801208847286801698DA0884737
:100A9000FFF788FF964800210068426908469047A2
:100AA0009448002100684269084690479248002116
:100AB000006842690846904742F210792068002891
:100AC00043D0286801698DA088472068016988475C
:100AD0000146286802698EA0904730680169206845
:100AE00088474FF4FA68404601F0ABFA286801697C
:100AF0008CA0884700278DF8007020681022694676
:100B000043699847014628686A4603698AA098475E
:100B10003068016920688847404601F092FA2868E9
:100B200001698DA0884705970497206804AA05A944
:100B30008369984701462868DDE9043207698BA07C
:100B4000B8473068016920688847484601F079FA5B
:100B5000B4E71CB58F480023006802680169CDE93D
:100B6000001281898AB241688B4801F0C7F81CBD28
:100B70000D0A00003D3D3D3D3D3D3D3D3D3D3D3D82
:100B80003D3D3D3D3D3D3D3D3D3D3D3D3D3D3D3D95
:100B90003D3D3D3D3D3D3D3D3D3D3D3D0D0A000062
:100BA0002020537465702032303A203447204D6F36
:100BB00064756C65204D616E61676572202861699E
:100BC000725F6D616E290D0A00000000E80A0020C6
:100BD000202043505520436C6F636B203A202564DE
:100BE00020487A0D0A000000202055415254302040
:100BF000202020203A20313135323030206270738D
:100C00002028646562756720636F6E736F6C652959
:100C10000D0A000020205541525431202020202070
:100C20003A2031313532303020627073202841490A
:100C300052373234203447206D6F64756C65290D4E
:100C40000A00000020204C6179657273202020206A
:100C50003A206169725F6D616E20E2869220617454
:100C60005F64657620E286922075617274310D0AA8
:100C7000000000000C010020140B002028010020BF
:100C80001C00002064010020B4010020280B00207B
:100C9000D8010020580B00205C0B00205B746173AE
:100CA0006B5F73746172745D204149523732342036
:100CB00064657669636520637265617465640D0AB5
:100CC000000000005B6C65645F626F6172645D20B0
:100CD0006368617267696E6720616E696D617469CE
:100CE0006F6E20737461727465640D0A00000000F9
:100CF00084000020E4000020B40000205B616972E1
:100D00005F6D616E5D2041542E2E2E0D0A00000095
:100D10005B6169725F6D616E5D204154203D2025ED
:100D2000640D0A005B6169725F6D616E5D20435006
:100D3000494E2E2E2E0D0A005B6169725F6D616E49
:100D40005D204350494E203D2025642C2053494DC1
:100D50003A2025730D0A00005B6169725F6D616E58
:100D60005D204353512E2E2E0D0A00005B616972E7
:100D70005F6D616E5D20435351203D2025642C2022
:100D8000727373693D25642C206265723D25640D84
:100D90000A00000050000020E5090000002401F0D6
:100DA00025FB05464FF4FA78174E184F01F01EFB4D
:100DB000411B41450DD305461CB100241CB1012146
:100DC00002E00124FAE7002111480068426811207E
:100DD0009047FFF7AEFB306840688047386800698D
:100DE0008047022001F02DF9E0E71CB509480023F7
:100DF000006802680169CDE9001281898AB2416800
:100E0000054800F07BFF1CBD140B00201C000020D7
:100E100028010020800000209D0D00000B48006884
:100E200001690BA08847642001F00BF9FBE71CB5B2
:100E30000F480023006802680169CDE9001281892A
:100E40008AB241680B4800F059FF1CBD140B00200A
:100E50005B6374726C5D2072756E6E696E672028BC
:100E6000706C616365686F6C646572290D0A0000BF
:100E7000B00000201D0E000015480068016915A093
:100E800088471F4C1F4D204E2068406880472868C7
:100E90004068804720688068804738B1002031680A
:100EA00089688847052001F0CCF8EDE70120F6E7D6
:100EB0001CB516480023006802680169CDE90012DC
:100EC00081898AB24168124800F018FF1CBD0000F9
:100ED000140B00205B6C697374656E5D206675731E
:100EE00065202B20484C5738303132206D657465B1
:100EF00072696E672072756E6E696E670D0A00000A
:100F0000B4010020640100201C000020E00000204B
:100F1000790E0000434A014643481268006852684F
:100F2000104710B53F4A404C01461268606813688C
:100F300001229847002801DD012010BD0020A0609B
:100F400010BD38B5384CA068002810D135480122B2
:100F500069460068036860689847002807DD01203B
:100F6000A06032480068C1699DF80000884738BD1C
:100F700070B505462B4E3068C06880472A4C20600B
:100F80003068C068804760602168A1B198B10020D6
:100F9000A060264C206841692548884720688169FF
:100FA00024488847206801682846884720684068A8
:100FB000BDE870400047FEE7CAB21A4909680B68ED
:100FC00001461948006818472DE9F04105460E46CC
:100FD0000024144FDFF8508006E03868295D42682D
:100FE000D8F804009047641CB442F6DBBDE8F04139
:100FF000A7E710B50B4A01460B48126840685268D3
:101000009047BDE810409CE70648006881680648A4
:101010000068084710B50446E0B2FFF7EAFF204633
:1010200010BD00003C010020EC000020480A002018
:10103000150F0000230F00000D49096809680847D3
:101040000B4A126852681047094A126892681047A2
:1010500030B4074C2468E468A44630BC60470449B7
:10106000096809690847024A126852691047000076
:10107000140A002070B50346002003F108050BE0B8
:10108000D3E90064B44209D0645D0C549C88641CAC
:10109000C4F309045C60401C9042F1DB70BD10B5E4
:1010A00002684468531CC3F30903A34207D000F14C
:1010B0000803D1540188491CC1F30901016010BD26
:1010C000002101604160704710B54FF4816002F06B
:1010D00030F8002802D000210160416010BD0000FE
:1010E00008B50021009102E00099491C0091009987
:1010F0008142F9DB08BD2DE9F04105460E4600248A
:10110000314FF10928683A68526890477006060E18
:10111000396868684A68002190471420FFF7E0FFAB
:10112000396868684A68012190471420FFF7D8FFA2
:10113000641C082CE5DBBDE8F08170B50446224D47
:10114000206829688A6800219047296860688A6851
:10115000002190472968A0688A6800219047296883
:1011600020684A6800219047296860684A68012120
:1011700090472968A0684A68BDE87040012110477F
:1011800070B506460D46002A09D0541E002C06DB19
:10119000295D3046FFF7AFFF641E002CF8DA70BD02
:1011A00070B50446084DA06829684A680021904738
:1011B0003220FFF795FF2968A0684A68012190470F
:1011C000BDE8704032208BE72801002010B504688C
:1011D000022C0BD2594850F82410491C40F8241016
:1011E00001F007F95549083141F8240010BD2DE9F7
:1011F000F05F0024DFF844B1DFF844A1514DA04670
:101200000BF110095AF824604BF824804B48083041
:1012100040F8248049F8244028680221826830463A
:101220009047286809EB8403474AC7680121304684
:10123000B84728680121426930469047641C022C57
:10124000E0DB424800680169BDE8F05F40A0084764
:101250002DE9F04701F0CAF881460024374E3B4D96
:1012600040F6B837083656F8240060B156F8240026
:10127000A9EB0000B84206D32868214602693FA0C6
:10128000904746F82490641C022CECDB2B4E41F274
:101290008831103E4FF00008306806F10807A9EBCE
:1012A0000000884218D3C6F800900024DFF88C9024
:1012B00059F8242049F8248057F82400104447F8AE
:1012C00024002868214603693CA09847641C022C2E
:1012D000EEDB7068401C706070680C280ED3002430
:1012E000286857F82420214603693DA0984747F80D
:1012F0002480641C022CF3DBC6F80480BDE8F08770
:10130000022801D3002070470C4A52F82010002315
:1013100042F8203008467047022801D30020704769
:10132000064951F820007047022801D30020704779
:101330000249083151F82000704700007801002070
:101340005C60000028010020CD110000140B00207B
:101350005B686C77383031325D20696E6974206467
:101360006F6E652C203220726F61647320636F6E24
:10137000666967757265640D0A0000005B686C77CA
:10138000383031325D20726F61642025643A206EFE
:101390006F2070756C736520666F722033732C201C
:1013A000736F636B6574206D617920626520756E63
:1013B000706C75676765640D0A0000005B686C7788
:1013C000383031325D20726F61642025643A202507
:1013D0006C752070756C7365732F35730D0A000082
:1013E0005B686C77383031325D20726F6164202524
:1013F000643A20256C752070756C7365732F6D6968
:101400006E0D0A0010B52F48022100688268152071
:1014100090472D48002141608160C1603222026105
:10142000017001214161294800680169BDE810404F
:1014300027A0084770B500F0D9FF0446224D68691F
:1014400000283BD0B4F5FA6F38D3A868201A0528D5
:1014500034D3AC601B4800680168152088472978A0
:101460000122002679B1012911D02E70E868201AD6
:10147000B0F57A7F22D3EC60296914480A2913D287
:101480006B685BB118E00028F0D12A70EEE7012804
:10149000ECD12E702869401C2861E7E76A6000687B
:1014A000026913A0904707E06A68012A04D16E60C0
:1014B0000068026917A090472E612E7070BD024827
:1014C000406870472801002090010020140B002084
:1014D0005B667573655D20696E697420646F6E6507
:1014E0002C2070696E3D4332283231290D0A0000EC
:1014F0005B667573655D2042524F4B454E212070EF
:10150000756C73653D256C752F736563203C2031C8
:10151000300D0A005B667573655D207265636F76DA
:10152000657265642C2070756C73653D256C752F34
:101530007365630D0A0000003F4A01463F48126888
:1015400000685268104710B53B4A3C4C014612688F
:101550006068136801229847002801DD012010BD52
:101560000020A06010BD38B5344CA068002810D110
:10157000314801226946006803686068984700287E
:1015800007DD0120A0602E480068C1699DF80000B9
:10159000884738BD70B50546274E3068C06880471B
:1015A000264C20603068C068804760602168A1B127
:1015B00098B10020A060224C2068416921488847EA
:1015C0002068816920488847206801682846884744
:1015D00020684068BDE870400047FEE7CAB216497F
:1015E00009680B6801461548006818472DE9F04165
:1015F00005460E460024104FDFF8408006E03868AC
:10160000295D4268D8F804009047641CB442F6DBB8
:10161000BDE8F041A7E710B5074A01460748126840
:10162000406852689047BDE810409CE70248006857
:1016300081680248006808473C010020B80100208A
:101640007C0A00203915000047150000412801D30D
:1016500000207047A14901EB401081680029F8D1B2
:101660000020704710B5FFF7F1FF28B1C16880680E
:10167000BDE8104001F02BBF002010BD10B50C4696
:10168000FFF7E4FF00280CD02CB1C1688068BDE8EA
:10169000104001F002BFC1688068BDE8104001F051
:1016A00004BF10BD38B50D46FFF7D0FF0022002360
:1016B0000024002812D0052D10D2DFE805F0030A1F
:1016C00005070900012204E0012302E0012400E0F3
:1016D00001220094C168806801F0ECFD38BD70B54E
:1016E0000E4614461D46FFF7B1FF20B18461C56167
:1016F0004661002070BD4FF0FF3070BD10B5FFF7A0
:10170000A5FF20B100218161C161002010BD4FF013
:10171000FF3010BDF8B50E46FFF798FF04462000D5
:101720004FF0FF3213D00125012E12D094F9100092
:1017300000F01F018D404009800000F1E020C0F85A
:101740008051D4E9020101F069FD0020F8BD104686
:10175000F8BD61690020052954D2DFE801F00310CB
:101760001D2A37000095D4E9020100231A4601F032
:10177000A1FDD4E90201012201F056FD32E0009002
:10178000D4E902010123002201F094FDD4E9020111
:10179000002201F049FD25E00095D4E90201012372
:1017A000002201F087FDD4E90201022201F03CFD94
:1017B00018E00095D4E9020100231A4601F07AFDF1
:1017C000D4E90201112201F02FFD0BE00090D4E9D1
:1017D00002010123002201F06DFDD4E90201102273
:1017E00001F022FD94F9100000F01F018D40400926
:1017F000800000F1E020C0F80051D4E9020101F0BE
:1018000045FDA2E71046F8BD2DE9F0413449884274
:1018100001D1002117E03349884201D1012112E0B2
:101820003149884201D102210DE03049884201D17D
:10183000032108E02E49884201D1042103E02D490B
:1018400088423DD105212C4AA2F5A87652F82130D4
:10185000CBB9012342F821300022204FC1EBC10453
:1018600006EBC40507EB4314D4F808C0844507D140
:10187000D4F800C01446521C45F824C00E2A02DADF
:101880005B1C412BEEDB0025C1EBC10006EBC00663
:1018900056F8250088B1FFF7D9FE044620000CD089
:1018A000D4E9020101F0F8FC38B1D4E9020101F0F9
:1018B000FDFCA16909B1E06988476D1C0E2DE7DBCD
:1018C000BDE8F08106489FE706489DE706489BE78C
:1018D000064899E7064897E7064895E7DC010020A7
:1018E0000010014000200140003001400050014044
:1018F0000060014000800140440D00201FB50446F7
:10190000012364220221002001F084FE00236422CE
:101910000321184601F07EFE009400208DF804009B
:101920008DF805008DF8060007218DF807100121BC
:101930008DF808108DF809008DF80A00FF208DF849
:101940000B008DF80C106946404802F07EF81FBD70
:101950003E4802F050B93D4802F072B810B53B4C19
:101960000146204602F04CF9204602F055F90028C5
:10197000FAD110BD354802F04FB9354908607047BB
:1019800033494860704710B5304C0146204602F09C
:1019900037F9606840F00400606010BD2B48416872
:1019A00021F004014160704780212A4A002802D0BA
:1019B000C2F800117047C2F8801170477CB5234D02
:1019C0001021284602F0C1F9214C48B90DE001A9C7
:1019D00002F018F920B9216811B10198C0B2884706
:1019E000E9682846C9B20129F1D84FF48041284658
:1019F00002F0ABF950B90EE001A9284602F002F955
:101A000020B9216811B10198C0B28847284602F078
:101A100008F90028F0D00421284602F096F90028A1
:101A200001D0606848B97CBD61686846884750B19C
:101A30009DF80010284602F0E3F8284602F0F6F878
:101A40000028F1D07CBDFFF7A9FF7CBD000002405B
:101A5000180A002004E000E01FB5044601236522B7
:101A60000421002001F0D6FD00236522052118463F
:101A700001F0D0FD009400208DF804008DF80500E1
:101A80008DF8060007218DF8071001218DF8081048
:101A90008DF809008DF80A00FF208DF80B008DF8F5
:101AA0000C106946414801F0D0FF1FBD3F4802F0CD
:101AB000A2B83E4801F0C4BF10B53C4C01462046D8
:101AC00002F09EF8204602F0A7F80028FAD110BDD7
:101AD000364802F0A1B8364908607047344948607A
:101AE000704710B5314C0146204602F089F8606815
:101AF00040F00400606010BD2C48416821F00401F2
:101B0000416070472B4A4FF48071002802D0C2F820
:101B100000117047C2F8801170477CB5234D102129
:101B2000284602F012F9224C48B90DE001A902F052
:101B300069F820B9216811B10198C0B28847E968F5
:101B40002846C9B20129F1D84FF48041284602F055
:101B5000FCF850B90EE001A9284602F053F820B96C
:101B6000216811B10198C0B28847284602F059F89F
:101B70000028F0D00421284602F0E7F8002801D020
:101B8000606848B97CBD61686846884750B19DF877
:101B90000010284602F034F8284602F047F80028E2
:101BA000F1D07CBDFFF7A8FF7CBD00000010024013
:101BB0004C0A002004E000E070B50024FE4D04EB68
:101BC000840005EB800001F0C6F9641C052CF6D3F7
:101BD000F948643001F0BFF9F748783001F0BBF9FB
:101BE000F5488C3001F0B7F9F348A03001F0B3F9B3
:101BF000F148B43001F0AFF9EF49F0486431416386
:101C00001431816370BD70B5044601F018FAEB4DD4
:101C1000A868401CA860286810B1686938B10CE059
:101C20002C60A868012808D1FFF7C6FF05E02868E6
:101C3000E16AC06A884200D82C60686A401C686209
:101C4000E06A01212A69814011432961DA4900EBE8
:101C5000800001EB8000211D01F08BF901F0FBF900
:101C6000686900280CD02868E16AC06A884207D2F7
:101C7000D3494FF080500860BFF34F8FBFF36F8F91
:101C800070BD2DE9F0478146DDE908560A9C98466B
:101C9000521E206B00EB820020F007070020231863
:101CA0000A5C83F834200A5C12B1401C1028F6D379
:101CB0004FF0000A84F843A0052D00D30425E56207
:101CC0006564C4F848A0201D01F050F904F1180023
:101CD00001F04CF92461C5F10500A0616462C4F80B
:101CE0004CA084F850A042464946384601F080F99D
:101CF0002060002E00D03460BDE8F0872DE9FF5F42
:101D00008146DDE90E788A4616469B46B00001F012
:101D100010FA054628000AD0542001F00AFA0446B9
:101D20000CB1256304E0284601F04DFA00E00024E0
:101D30008CB10020CDE90240CDE900785B46324607
:101D400051464846FFF79DFF2046FFF75CFF012004
:101D500004B0BDE8F09F4FF0FF30F9E79748416BC2
:101D60000968002905D0416BC968C9684968816262
:101D700070474FF0FF318162704710B50446206B09
:101D800001F021FA2046BDE8104001F01CBA70B500
:101D9000044601F054F9894D04B92C68201D01F066
:101DA0000CF958B9E06A844A00EB800152F821101E
:101DB00021B901218140286988432861A06A18B1AE
:101DC00004F1180001F0F9F8686A401C686228689C
:101DD000844208D17848211DA03001F0CAF8686813
:101DE000401C686007E0A868401EA8602046FFF716
:101DF000C4FFFFF7B3FF01F02EF9686900280AD08D
:101E00002868844207D16E494FF080500860BFF3C4
:101E10004F8FBFF36F8F70BD2DE9F0410026674FE4
:101E2000386B002808D0B869401CB861F86900B167
:101E300001263046BDE8F081FD686D1CFD6045B9A6
:101E4000786BB96B7963B863386A401C3862FFF706
:101E500085FFB86ADFF8608185420DD3786B006832
:101E600038B1786BC068C468606885420ED2B862C9
:101E700002E04FF0FF30B8623868C06A00EB8000C3
:101E800058F820000128D1D90126CFE7201D01F004
:101E900094F8A06A18B104F1180001F08EF8E06A15
:101EA00001213A6981401143396100EB800008EB60
:101EB0008000211D01F05DF8E06A3968C96A884236
:101EC000CCD30126CAE72DE9F0410024002701F018
:101ED000B6F83A4D286B401E2863286BF0BBA86803
:101EE000E0B3DFF8D480012608F18C081DE0D8F8B3
:101EF0000C00C46804F1180001F05FF8201D01F027
:101F00005CF8E06A2A6906FA00F1114329612A495E
:101F100000EB800001EB8000211D01F02AF8E06A4F
:101F20002968C96A884200D3EE61D8F80000002809
:101F3000DDD10CB1FFF712FFAC6944B1FFF76CFFC4
:101F400000B1EE61641E002CF8D10020A861E869A0
:101F500020B101271A493807086000E003E0BFF309
:101F60004F8FBFF36F8F01F076F8384662E72DE9A7
:101F7000F04104460F46114EF5683068001D01F02F
:101F80001CF838B9306890F82C100120884031696D
:101F900081433161601C08D13FB13168BDE8F04137
:101FA0000548091DB43000F0E4BF2C44306844609B
:101FB000AC420DD2316805E05C0D0020800A0020A3
:101FC00004ED00E0B06B091DBDE8F04100F0DDBF9D
:101FD0003168706B091D00F0D8FFB06A844200D2EE
:101FE000B46227E7FB48016B491C0163704770B579
:101FF00005460E460023FFF7F5FFF648C2682C6839
:10200000A119944205D98C4208D9914206D90123DD
:1020100004E08C4201D8914200D9012329601BB110
:10202000881A0021FFF7A3FFFFF74DFF002807D113
:10203000E9494FF080500860BFF34F8FBFF36F8FB7
:1020400070BD10B502460020002A07D0FFF7CAFF76
:1020500000211046FFF78BFFFFF735FF002807D15F
:10206000DD494FF080500860BFF34F8FBFF36F8F93
:1020700010BD10B5044600F0E2FF0CB9D548046865
:10208000E46A00F0E8FF204610BD8022EFF31181E2
:1020900082F31188BFF34F8FBFF36F8F002801D1F8
:1020A000CC480068C06A81F3118870472DE9F0417F
:1020B00004460D460026052D00D3042500F0BFFF81
:1020C000C44F04B93C68606CA84241D0854208D92D
:1020D00039688C4209D03968C96AA94205D80126F5
:1020E00003E039688C4200D10126D4F82C804045A9
:1020F00000D1E5626564A069002802DBC5F1050036
:10210000A061B64D08EB8801606905EB810188424A
:1021100015D1201D00F051FF012120B93A6901FAC3
:1021200008F082433A61E06A3A69814011433961BB
:1021300000EB800005EB8000211D00F01AFF3EB18E
:10214000A5494FF080500860BFF34F8FBFF36F8FEA
:10215000BDE8F04100F07FBF9E4A106B002802D01E
:102160000120D06170470020D0611069B0FA80F082
:10217000C0F11F00994900EB800001EB800041682D
:102180004968416000F10803994201D14968416002
:102190004068C0681060704770B5044600F04FFF9B
:1021A0008C4D04B92C68201D00F007FF58B9E06A77
:1021B0008A4A00EB800152F8211021B901218140A7
:1021C000286988432861A06A18B104F1180000F05A
:1021D000F4FE8248211DB43000F0CBFE00F03BFF3E
:1021E000686928B100F02BFFFFF7B8FD00F033FF5E
:1021F0002868844209D1686940B177494FF080501E
:102200000860BFF34F8FBFF36F8F70BD7348A9682D
:10221000B4300068884202D10020286070BDBDE85B
:10222000704099E700216D4B4269B4339A4206D160
:10223000806AA3F12802904201D000B9012108462A
:10224000704770B50446002C2BD0624D286884423C
:1022500027D000F0F4FE2046FFF7E4FFE8B1201D90
:1022600000F0ABFEE06A01212A6981401143296137
:102270005A4900EB800001EB8000211D00F079FE3F
:10228000E06A2968C96A884207D353494FF08050F1
:102290000860BFF34F8FBFF36F8FBDE8704000F051
:1022A000DABE70BD2DE9F041044600268020EFF330
:1022B000118580F31188BFF34F8FBFF36F8F2046D6
:1022C000FFF7B0FF40B1434F386B48B1434804F1CA
:1022D00018018C3000F04DFE85F311883046A9E5D9
:1022E000E06A3968C96A884200D30126201D00F0DF
:1022F00064FEE06A01213A6981401143396137493E
:1023000000EB800001EB8000211D00F032FEE3E7CE
:1023100070B5324E2F4DA0361CE0FFF763FE3068DB
:1023200020B10024FFF7CFFDA4B901E00124F9E7B3
:1023300000F085FEF068C468201D00F03EFEA8682D
:10234000401EA8606868401E686000F084FE204659
:10235000FFF713FD68680028DFD170BD1F4E4FF0F6
:1023600080541D4DFFF7D4FF30680128FAD92C6046
:10237000BFF34F8FBFF36F8FF4E71CB515480024F0
:102380002C30CDE900402346802215A11648FFF7E6
:10239000B5FC012811D1802080F31188BFF34F8F45
:1023A000BFF36F8F0B484FF0FF3181620121416114
:1023B000C460BDE81C4000F02EBE1CBD802080F330
:1023C0001188BFF34F8FBFF36F8F02490020486120
:1023D00000F034BE800A002004ED00E05C0D002017
:1023E00049444C45000000005D230000FC48C068E3
:1023F0007047FB48C0687047F948806870470028FC
:1024000001D1F74800683430704710B50C46F449E4
:102410000968183100F0B9FD2046BDE810400121DF
:10242000A5E570B5154641F00043ED490C68A36180
:102430000968183100F09DFD2846BDE87040012173
:1024400095E52DE9F041C068C46804F1180007461D
:1024500000F0B3FDE24D2A6B01265AB13946E1483E
:1024600000F087FDE06A2968C96A884215D9012011
:10247000EE61DFE4201D00F0A0FDE06A2A6906FAA3
:1024800000F111432961D74900EB80008C3901EB41
:102490008000211D00F06DFDE4E70020CAE470B566
:1024A00041F000410160C46800F087FD201D00F08C
:1024B00084FDCB4DE06A01262A6906FA00F111433A
:1024C0002961C84900EB80008C3901EB8000211D97
:1024D00000F04FFDE06A2968C96A884202D90120EC
:1024E000EE6170BD002070BDBD490A6A0260C96816
:1024F0004160704770B504460D4600F0A0FDB84934
:10250000C8682A68531C08D02368096A8B4206D021
:102510006168814203D801240DE000240BE061686A
:10252000401A904206D2101A28602046FFF7DCFFBE
:10253000002400E0012400F08EFD204670BDA84973
:102540000120C8617047A6480068704770B504460E
:1025500000283AD0A24DE06A2968C96A884234D27C
:10256000A069002804DB2868C06AC0F10500A061EA
:10257000E06A9C4E00EB80008C3E616906EB8000B7
:1025800081421FD1201D00F018FD012150B9E06AE1
:1025900000EB800256F8222022B92A6901FA00F0E5
:1025A00082432A612868C06AE0622A698140114337
:1025B000296100EB800006EB8000211DBDE8704022
:1025C00000F0D7BC2868C06AE06270BD70B50446F0
:1025D0000020002C2DD0A16C491EA164636CE26A1E
:1025E0009A4226D0002924D1201D00F0E6FC7D4A25
:1025F0007B498C3A012350B9E06A00EB800552F820
:10260000255025B90D6903FA00F085430D61606C12
:10261000E062C0F10500A061E06A0D6983402B43D0
:102620000B6100EB800002EB8000211D00F0A1FC9B
:10263000012070BD6A49086880690A680968D26A21
:10264000C2F105028A61704765490868002803D015
:102650000868826C521C82640868704770B5064630
:102660000C4600F0ECFC5E4D2868C06C80B92A680E
:10267000012082F850005CB101212046FFF777FC71
:1026800059494FF080500860BFF34F8FBFF36F8FF1
:1026900000F0E1FC00F0D3FC2868C46C002034B1E9
:1026A00016B12968C86402E02A68611ED1642968ED
:1026B00081F8500000F0CFFC204670BD2DE9F047B6
:1026C00081460F461646984600F0B9FC444D2868EE
:1026D00090F85000022817D02C68E06C20EA09001E
:1026E000E0642968012081F85000B8F1000F0BD098
:1026F00001214046FFF73BFC3B494FF0805008600A
:10270000BFF34F8FBFF36F8F00F0A5FC00F097FC75
:1027100016B12868C06C3060286890F85000012815
:102720000DD02868C16CB943C16401242968002018
:1027300081F8500000F08FFC2046BDE8F0870024AF
:10274000F4E72DE9F04104460D4690461F46012668
:1027500000F075FC0FB1E06C386094F85000022175
:1027600084F85010B8F1050F13D2DFE808F0120317
:10277000070B0D00E16C2943E1640AE0E16C491CA0
:10278000E16406E0E56404E0022801D0E56400E0CD
:10279000002601281FD1201D00F00FFC104DE06A1B
:1027A00001212A698140114329610E4900EB800013
:1027B0008C3901EB8000211D00F0DBFBE06A296809
:1027C000C96A884207D908494FF080500860BFF3B2
:1027D0004F8FBFF36F8F00F03EFC30467FE5000067
:1027E000800A0020E80D002004ED00E02DE9F0470C
:1027F0000446089F01268020EFF3118580F311889D
:10280000BFF34F8FBFF36F8F002B01D0E06C1860C8
:1028100094F85000022384F85030052A13D2DFE8E0
:1028200002F01203070B0D00E26C0A43E2640AE0B7
:10283000E16C491CE16406E0E16404E0022801D097
:10284000E16400E0002601282CD1DFF81481D8F8DB
:1028500030004FF0010970B104F11801414800F057
:1028600088FBE06AD8F80010C96A88421AD9BFB15B
:10287000C7F8009016E0201D00F09FFBE06AD8F832
:10288000102009FA00F11143C8F8101000EB800184
:1028900034488C3800EB8100211D00F06AFBE0E732
:1028A000C8F81C9085F31188304646E72DE9F041C1
:1028B000044688468020EFF3118780F31188BFF328
:1028C0004F8FBFF36F8F94F85010022084F85000A0
:1028D000E06C401CE064012927D1214D286B0126C2
:1028E00078B104F118011F4800F043FBE06A296841
:1028F000C96A884219D9B8F1000F15D0C8F800602C
:1029000013E0201D00F059FBE06A2A6906FA00F185
:1029100011432961134900EB80008C3901EB8000E1
:10292000211D00F026FBE1E7EE6187F31188D6E474
:1029300010B500280BD0044600F081FB94F850003D
:10294000022807D0002400F086FB204610BD044872
:102950000468F1E7002084F850000124F3E7000048
:10296000800A0020E80D002070B504460D4600F0F6
:1029700066FBD4E90F12206801FB020060600020B2
:10298000A0632068A060E06B226C2168401E00FB01
:102990000210E0604FF0FF3084F8440084F84500F6
:1029A00004F110004DB100F0D6FA04F1240000F05B
:1029B000D2FA00F050FB012070BD21690029F8D047
:1029C000FFF73FFD0028F4D0FC494FF0805008602D
:1029D000BFF34F8FBFF36F8FEBE7034600980029DB
:1029E00004D00260C36301640121BDE70060F9E720
:1029F000F8B506460D461746002D10D006FB05F02B
:102A0000483000F096FB04463CB104F148023B46D6
:102A1000294630460094FFF7E0FF2046F8BD00202D
:102A2000EEE72DE9F041044600F009FB94F945502A
:102A300004F1240609E0606A48B13046FFF701FD61
:102A400008B1FFF77CFD6D1E6DB2002DF3DC4FF079
:102A5000FF3684F8456000F0FEFA00F0F0FA94F9D1
:102A6000445004F1100709E0206948B13846FFF7E7
:102A7000E8FC08B1FFF763FD6D1E6DB2002DF3DCBD
:102A800084F84460BDE8F04100F0E5BA10B50446B2
:102A900000F0D5FAA06BE16B884201D1012400E07F
:102AA000002400F0D8FA204610BD2DE9F04104467C
:102AB00017460026A56B226C002A10D0C7B1E0682B
:102AC00002F0E4F9E168206C091AE16022689142A1
:102AD00002D26168081AE060022F16D017E0206861
:102AE000A8B96068FFF772FD0646002060600EE03E
:102AF000A06802F0CBF9216CA0680844A06061686E
:102B0000884204D32068A06001E005B16D1E6D1CF1
:102B1000A5633046BDE8F0812DE9FF4782B0044649
:102B20008A4699460025A8464FF08056A34F00F0EC
:102B300086FAA06BE16B884206D3B9F1020F03D08D
:102B40000498F8B115B325E04A4651462046FFF7F0
:102B5000ACFF616A51B104F12400FFF772FC58B177
:102B60003E60BFF34F8FBFF36F8F05E020B13E6033
:102B7000BFF34F8FBFF36F8F00F06DFA012006B0E7
:102B8000BDE8F08700F067FA0020F8E76846FFF735
:102B9000ABFC012500F05FFAFFF724FA00F04FFAD2
:102BA00094F94400401C01D184F8448094F9450014
:102BB000401C01D184F8458000F04DFA04A9684614
:102BC000FFF798FC30B12046FFF72BFFFFF77BF9AA
:102BD0000020D4E72046FFF759FF88B104F1100028
:102BE0000499FFF712FC2046FFF71BFFFFF76BF974
:102BF00000289CD13E60BFF34F8FBFF36F8F96E7E5
:102C00002046FFF70EFFFFF75EF990E7002807D098
:102C1000002141600160C16000231A4619467BE72C
:102C2000704710B5024600210120FFF7E1FE04467F
:102C30002046FFF7EBFF204610BD2DE9F041174677
:102C400004461A468020EFF3118680F31188BFF303
:102C50004F8FBFF36F8FA06BE36B984205D3022AAF
:102C600003D0002086F3118854E794F9455020469C
:102C7000FFF71BFF681C04D06D1C84F84550012031
:102C8000F0E7606A0028FAD004F12400FFF7D9FBCE
:102C90000028F4D0002FF2D001203860EFE770B5A3
:102CA0000D468021EFF3118481F31188BFF34F8F1C
:102CB000BFF36F8F836BC16B994217D990F9452091
:102CC0005B1C8363511C04D0521C80F845200120FA
:102CD0000DE0416A0029FAD02430FFF7B2FB00284A
:102CE000F5D0002DF3D001202860F0E7002084F318
:102CF000118870BD10B5044600F0A1F9A06B20B199
:102D0000002400F0A8F9204610BD0124F9E730B4F2
:102D10000B46026C002A0CD0C1681144C1604468A3
:102D2000A14201D30168C160C16830BC184602F0FD
:102D3000ADB830BC70472DE9FF4F83B004468B46D9
:102D40009A460026B1464FF08057DFF8708000F0B9
:102D500076F9A56BA5B3E66859462046FFF7D7FF7D
:102D6000BAF1000F13D0E660606A50B104F124009C
:102D7000FFF767FB28B1C8F80070BFF34F8FBFF3B0
:102D80006F8F00F068F9012007B0BDE8F08F6D1E6D
:102D9000A563206810B9FFF757FC60602069002820
:102DA000EFD004F11000FFF74CFB0028E9D0C8F881
:102DB0000070BFF34F8FBFF36F8FE2E704ED00E0C9
:102DC000FFE7059808B126B107E000F044F90020BC
:102DD000DAE701A8FFF788FB012600F03CF9FFF7CE
:102DE00001F900F02CF994F94400401C01D184F859
:102DF000449094F94500401C01D184F8459000F0BE
:102E00002AF905A901A8FFF775FB58B12046FFF77D
:102E100008FEFFF758F82046FFF76CFF002896D011
:102E20000020B1E72046FFF765FFE0B1206830B928
:102E300000F005F96068FFF789FB00F00CF904F178
:102E400024000599FFF7E1FA2046FFF7EAFDFFF7B6
:102E50003AF800287FF47BAFC8F80070BFF34F8FBB
:102E6000BFF36F8F73E72046FFF7DBFDFFF72BF80B
:102E70006DE72DE9F041044690468020EFF311877D
:102E800080F31188BFF34F8FBFF36F8FA66B002EB7
:102E90001DD094F944502046FFF739FF761EA663F3
:102EA000681C04D06D1C84F84450012010E0206997
:102EB0000028FAD004F11000FFF7C3FA0028F4D07C
:102EC000B8F1000FF1D00120C8F80000EDE70020B4
:102ED00087F311881EE670B504468020EFF3118554
:102EE00080F31188BFF34F8FBFF36F8FA06B002863
:102EF00006D0E6682046FFF70AFFE660012000E002
:102F0000002085F3118870BD10B5044600F097F8D5
:102F1000A46B00F0A0F8204610BD10B5044600F0E8
:102F20008EF8D4E90E10441A00F095F8204610BD32
:102F3000806B704700F047B9806B002801D00020FB
:102F4000704701207047816BC06B814201D1012025
:102F500070470020704700F1080141604FF0FF32D8
:102F60008260C16001610021016070470021016140
:102F7000704742684A6093688B60936859609160BB
:102F800008610168491C0160704730B50C68621C1B
:102F900002D000F1080202E0026904E01A46536818
:102FA0001D68A542FAD953684B6099608A605160E8
:102FB00008610168491C016030BD0169D0E9013236
:102FC0009A60D0E901235A604A68824201D182683E
:102FD0004A60002202610868401E086070470000D5
:102FE000802080F31188BFF34F8FBFF36F8FFEE710
:102FF00020384FF08073C36121F0010181612449C1
:10300000416140F8202970474FF0E020214941619B
:1030100007210161704710B51F48016841F47F0125
:103020000160016841F07F410160FFF7EDFF1B493E
:1030300000200860FDF7A6F8002010BD7047802032
:1030400080F31188BFF34F8FBFF36F8F1348016870
:10305000491C0160704711490868401E086000283B
:1030600001D180F31188704710B5802080F311885A
:10307000BFF34F8FBFF36F8FFEF7CEFE20B106492F
:103080004FF080501C390860002080F3118810BD7B
:10309000E12F0000FFAF010020ED00E0BC0A00209E
:1030A00030B55C4900E011460A688242FBD34B68A8
:1030B0005C18844203D140681844486008460D6893
:1030C00044682318AB420DD1524B103B1B689A4207
:1030D00006D05268224442600A681268026002E028
:1030E000036000E00260814200D0086030BD4FF410
:1030F000B4314948420706D0C01D20F007004649B8
:10310000411AC1F5B431434A1060002353600144B1
:10311000083921F00701103A11604B600B600B1A5F
:10312000436001604068906050604FF00040D060A4
:1031300070472DE9F04105460026FEF753FF354F55
:10314000103F386808B9FFF7D2FFF868054235D15B
:103150003DB10835680704D005F00700C0F108004C
:1031600005445DB37868854228D82A490846046832
:1031700001E0214604466068A84202D22068002887
:10318000F7D13868844219D00E6808362068086084
:103190006068411B102904D9601941606560FFF720
:1031A0007FFF61687868401A7860BA68904200D200
:1031B000B860F8680143616000202060FEF783FE7C
:1031C0003046BDE8F08170B5002819D008380446B3
:1031D000104D6068103DE968084211D02268002A4D
:1031E0000ED188436060FEF7FDFE606869680844A0
:1031F00068602046FFF754FFBDE87040FEF763BEED
:1032000070BD044810384068704702481038806824
:1032100070477047D00A0020240E00204269012325
:103220008B409A434261704770B504460E4615467E
:1032300031462046FFF7F2FFEA064FF0010000FAA0
:1032400006F00CD5A1680143A160E90703D021690C
:103250000143216118E021698143216114E0A168E3
:103260008143A160A90703D5E1680143E1600BE058
:10327000E1688143E160E90703D0216901432161ED
:1032800002E0216981432161206270BD426901230E
:103290008B401A4342617047C069C84000F001008A
:1032A00070478069C84000F00100704701228A40E1
:1032B000026270472DE9F0471646DDF820801F4670
:1032C000DFF8AC920124AB4D8C40A0EB09034FF426
:1032D000805C4FF08042484576D01FDCA64BC0187A
:1032E00038D0604558D0B0F5005F15D1906840F0F7
:1032F0000400906001230022022000F08BF99F4817
:10330000012E6CD04168A1434160012F6BD0D5F8EC
:103310001002A043C5F81002BDE8F08763457DD0D8
:10332000B3F5405FF8D1906840F40010906001233D
:103330000022052000F06EF99148012E6FD04168FF
:10334000A1434160012F6BD0D5F83002A043C5F8EE
:103350003002E1E7906840F0010090600022012314
:10336000104600F057F984484042012E0AD04168C7
:10337000A1434160012F09D0D5F80002A043C5F850
:103380000002C9E7416821434160F3E7D5F8000234
:103390002043C5F80002BFE7906840F0020090604B
:1033A00001230022184600F035F97648012E0CD092
:1033B0004168A1434160B8F1010F0AD0D5F800037C
:1033C000A043C5F80003A7E713E04168214341602B
:1033D000F1E7D5F800032043C5F800039CE74168F6
:1033E0002143416091E7D5F810022043C5F810024F
:1033F00092E7906840F010009060012300220320C3
:1034000000F008F9012E10D0D9F80400A043C9F843
:103410000400012F0FD0D5F8200202E011E032E0C5
:1034200035E0A043C5F8200276E7D9F80400204330
:10343000C9F80400EDE7D5F820022043C5F82002C2
:103440006AE7906840F02000906001230022042089
:1034500000F0E0F84C48012E0BD04168A1434160D8
:10346000B8F1010F09D0D5F82003A043C5F8200317
:1034700052E7416821434160F2E7D5F82003204339
:10348000C5F8200348E74168214341605AE7D5F871
:1034900030022043C5F830023EE70122400100EB34
:1034A000810000F18440026070470022400100EB7F
:1034B000810000F1844002607047400100EB810010
:1034C00000F184400168C1F10101016070470068AA
:1034D000C84000F001007047C2F118036FF07F424E
:1034E000DA4003688A40134303607047C2F118034F
:1034F0006FF07F42DA4003688A409343036070476D
:10350000C2F118036FF07F42DA4003688A405340EB
:1035100003607047C2F118036FF07F42DA40006821
:10352000C84010407047C2F118036FF07F42DA4084
:1035300072B603688A401343036062B67047C2F1F3
:1035400018036FF07F42DA4072B603688A409343F3
:10355000036062B67047C2F118036FF07F42DA4031
:1035600072B603688A405340036062B67047000039
:10357000005001400000014000F0FEBF003001405B
:1035800000800140002001400060014010B572B68B
:10359000000B1B4CA16888472068804762B610BDAD
:1035A00010B5030701D0022010BD930701D00220FF
:1035B00010BD72B69208124CE368984720688047A5
:1035C00062B6002010BD10B572B60D4940F28943B5
:1035D0001E284A6808D028280AD050280CD009494B
:1035E000581C904762B610BD074918469047F9E746
:1035F000064918469047F5E7054918469047F1E710
:10360000D80A00206E7AFCAB251FF4AB2929F4AB55
:103610004D52F8AB2DE9F04F86B001EB81074FF02A
:103620001F0BA2F1640A0BFA07F60AFA07F48D1FC2
:1036300005EB850C0BFA0CF70AFA0CF54FF00108B4
:103640004FEA41094FF0030CA1F10C0E0CFA09FCF2
:1036500008FA01F80EEB8E0E8B40CDF800E00BFA65
:103660000EFECDF814E0DDF800E00AFA0EFECDF80B
:1036700010E0A1F1120E0EEB8E0E0BFA0EFB0AFA01
:103680000EFACDE902ABA1F1100A4FEA4A0A4FF057
:10369000030B0BFA0AFBCDF804A0DFF89CA3062865
:1036A00037D2DFE800F003396EA3F0EF632A18D9B0
:1036B00006290AD2DAF80001B043CAF80001DAF8A4
:1036C00000012043CAF800010BE00C2909D2DAF806
:1036D0000401B843CAF80401DAF804012843CAF81F
:1036E0000401DAF8000020EA0C00CAF80000632A9E
:1036F00000D90122DAF8000002FA09F20243CAF8FE
:103700000020CE48016821EA0801016001681943E0
:10371000016006B0BDE8F08F632A18D906290AD2E5
:10372000DAF81001B043CAF81001DAF810012043AA
:10373000CAF810010BE00C2909D2DAF81401B843D9
:10374000CAF81401DAF814012843CAF81401DAF8A7
:10375000040020EA0C00CAF80400632A00D9012200
:10376000DAF8040002FA09F20243CAF80420B34866
:103770001030016821EA0801016001681943016005
:10378000C7E7632A18D906290AD2DAF82001B0431C
:10379000CAF82001DAF820012043CAF820010BE022
:1037A0000C2909D2DAF82401B843CAF82401DAF85E
:1037B00024012843CAF82401DAF8080020EA0C00A2
:1037C000CAF80800632A00D90122DAF8080002FAD0
:1037D00009F20243CAF8082098482030016821EA1B
:1037E0000801016001681943016092E7632A36D934
:1037F00006290AD2DAF86001B043CAF86001DAF8A3
:1038000060012043CAF8600129E00C290AD2DAF8E5
:103810006401B843CAF86401DAF864012843CAF8BD
:1038200064011CE012290CD2DAF86801059CA0435F
:10383000CAF86801DAF86801049C2043CAF86801F4
:103840000DE018290BD2DAF86C01039CA043CAF8EA
:103850006C01DAF86C01029C2043CAF86C01102953
:1038600012D2DAF8200020EA0C00CAF82000632AFD
:1038700000D90122DAF8200002FA09F20243CAF85C
:10388000202011E071E019E0DAF8240020EA0B00B2
:10389000CAF82400632A00D9012201988240DAF88C
:1038A00024000243CAF8242064484030016821EA19
:1038B000080101600168194301602AE7632A27D9DA
:1038C00006290AD2DAF87001B043CAF87001DAF8B2
:1038D00070012043CAF870011AE00C290AD2DAF804
:1038E0007401B843CAF87401DAF874012843CAF8BD
:1038F00074010DE012290BD2DAF87801059CA0437F
:10390000CAF87801DAF8784104980443CAF8784193
:10391000102910D2DAF8300020EA0C00CAF8300082
:10392000632A00D90122DAF8300002FA09F20243D0
:10393000CAF830200FE0DAF8340020EA0B00CAF8A9
:103940003400632A00D9012201988240DAF8340059
:103950000243CAF8342039485030016821EA08018E
:103960000160016819430160D3E6632A36D906294C
:103970000AD2DAF88001B043CAF88001DAF880018F
:103980002043CAF8800129E00C290AD2DAF8840120
:10399000B843CAF88401DAF884012843CAF88401DC
:1039A0001CE012290CD2DAF88801059CA043CAF861
:1039B0008801DAF8884104980443CAF888410DE088
:1039C00018290BD2DAF88C4103988443CAF88C4149
:1039D000DAF88C01029C2043CAF88C01102910D21D
:1039E000DAF8400020EA0C00CAF84000632A00D947
:1039F0000122DAF8400002FA09F20243CAF8402034
:103A00000FE0DAF8440020EA0B00CAF84400632A09
:103A100000D9012201988240DAF844000243CAF832
:103A2000442006486030016821EA0801016001680D
:103A3000194301606DE600000000014000060140EE
:103A4000416821F40071416070472DE9F047044658
:103A50000D46D5484FF4805726184FF080404FF45C
:103A600000584FF4405973D0BE4276D0464579D0C5
:103A70004E4503D1816841F4804181602046FFF7C3
:103A8000DFFF606840F400506060A0686FF30D00D5
:103A9000A060C648296800680009B0FBF1F0A16881
:103AA000401E0843A060606820F47C00606060688D
:103AB0002979AA7940EA81406979C90441EA8251A9
:103AC00008436060F6B3BE4255D0464557D04E45D8
:103AD00002D12A2000F05CF9E06880B2E060E87969
:103AE000697A401C000440EA0160E1680843E06034
:103AF000606820F07F4060606068E97A40EA0160B9
:103B00006060606844F21401884360606068297AEC
:103B10002A7B40EA0110A97A890041EA82310843F0
:103B2000606086B3BE423FD046454DD04E4560D121
:103B3000287AA97A0843297B084355D0BDE8F04785
:103B40002A2003E013E003E007E00BE000F015B9E2
:103B5000816841F40061816090E7816841F480519F
:103B600081608BE7816841F40051816086E72720FE
:103B700000F00EF9B0E7282000F00AF9ACE72920A0
:103B800000F006F9A8E7FFE7287AA97A0843297B1D
:103B9000084304D0BDE8F047272000F0EEB8BDE8A8
:103BA000F047272000F0F4B8287AA97A0843297B47
:103BB000084304D0BDE8F047282000F0DEB8BDE897
:103BC000F047282000F0E4B8287AA97A0843297B36
:103BD000084304D0BDE8F047292000F0CEB8BDE886
:103BE000F047292000F0D4B8BDE8F0472A2000F0C3
:103BF000CFB8BDE8F087416841F40071416070477B
:103C0000016070470068C0F308020A60400501D5F2
:103C10000220704700207047406840F30000401CBD
:103C20007047406840F3C000401C70474068C0F3D4
:103C30004000704782686FF30D0282605B4A126831
:103C40001209B2FBF1F18268491E1143816070478D
:103C50005649806809680909C0F30D00401CB1FB92
:103C6000F0F07047436923F005034361436941EA7B
:103C700082010B43436170474069C0F3C010704735
:103C800010B5446924F07A0444614469D20044EADE
:103C9000410142EA03121143416110BD4069C0F382
:103CA00000207047036923F005030361036941EABB
:103CB00082010B4303617047016941F0100101610A
:103CC00070470069C0F3400070470069C0F3C0004E
:103CD00070470022FF2918D0A1F58073FF3B14D054
:103CE000FE290DD0B1F5FF7F0AD0F8290AD0B1F531
:103CF000FC7F07D0802907D0B1F5C07F04D0FEE754
:103D0000012202E0022200E00322816821F06071BA
:103D1000816081684FF4000343EA026211438160CD
:103D200070478168090201D5002070478068400112
:103D300001D5022070470120704742680A43426063
:103D4000704742688A4342607047CA0602D582685B
:103D500052020ED44A0402D58268920209D44A075C
:103D600002D58268920304D4490604D58068000114
:103D700001D5012070470020704700F01F0201218B
:103D800091404009800000F1E020C0F80011704728
:103D900000F01F02012191404009800000F1E02065
:103DA000C0F88011704700000000FEBFE80A002044
:103DB00030B54FF0804108687B4A45077B4C7C4B0F
:103DC0007C480CD50D68AD0701D502601CE0226867
:103DD000D20702D0784A026016E0036014E00D6852
:103DE000ED070ED0646AA40701D5036000E002600D
:103DF00002680523B2FBF3F2C8235A43D2080260DB
:103E000002E04FF4FA4202604968C90702D0016833
:103E100049080160694A0168B1FBF2F1416030BDB7
:103E20004FF080400168490702D40068C00707D0FE
:103E3000002044F6206100BF401C8842FBD370473D
:103E4000002000BF401C1428FBD3704710B5574C0E
:103E500001202062FFF7E4FFFFF7E2FF606A20F035
:103E600002006062A06A56490840A062A06A5549F3
:103E70000843A062606A20F004006062206B0028A2
:103E8000FCD010BD10B5FFF7E1FF4848416A41F092
:103E9000010141628004016841F001010160016893
:103EA00021F00401016010BD10B5404901200862F5
:103EB000FFF7B6FFFFF7B4FF4FF08040016841F015
:103EC00002010160016841F00401016010BD10B5FC
:103ED0004FF08044A06840F08070A0603A48016ACA
:103EE00021F001010162FFF79BFF206820F0010033
:103EF0002060206820F00400206010BD10B52B4920
:103F000001200860FFF78CFF4FF08040016821F02E
:103F100002010160016841F00401016010BD10B5AB
:103F2000224900200860FFF77BFF4FF080400168C6
:103F300021F002010160016841F00401016010BD3F
:103F400010B54FF08044A06840F48000A060782055
:103F5000FFF739FBFFF796FF606820F00100606013
:103F600060686060FFF724FF1248184900688842C3
:103F700004D9BDE810407820FFF725BB0E498842E0
:103F800004D9BDE810405020FFF71DBB10498842FE
:103F900004D9BDE810402820FFF715BBBDE810404C
:103FA0001E20FFF710BB00000080510100100340ED
:103FB000002D3101E80A0020005A620240420F0041
:103FC00000FEE0FC3200050000E0014000B4C40443
:103FD00080C3C90125480047FEE7FEE7FEE7FEE78C
:103FE000FEE7FEE7FEE7FEE7FEE7FEE7FEE7FEE7A9
:103FF000FEE7FEE7FEE7FEE7FEE7FEE7FEE7FEE799
:10400000FEE7FEE7FEE7FEE7FEE7FEE7FEE7FEE788
:10401000FEE7FEE7FEE7FEE7FEE7FEE7FEE7FEE778
:10402000FEE7FEE7FEE7FEE7FEE7FEE7FEE7FEE768
:10403000FEE7FEE7FEE7FEE7FEE7FEE7FEE7FEE758
:10404000FEE7FEE7FEE7FEE7FEE7FEE7FEE7FEE748
:10405000FEE7FEE7FEE7FEE7FEE7FEE7FEE7FEE738
:10406000FEE7FEE7FEE7FEE7FEE7FEE749010000A8
:104070003FB5A1B05E4C2368002B13D08DF8000033
:104080008DF801100025ADF80250802101A8249B75
:1040900001F0E6FA8DF8835000231A46694620683D
:1040A000FEF73AFD25B030BD37B5A2B0002400942C
:1040B0004F4D2B68002BF5D08DF804008DF805408E
:1040C000ADF806400A46802102A8249B01F0C8FAF8
:1040D0008DF8874000236A4601A92868FEF7ADFDE8
:1040E00000980028DED043494FF080500860BFF3AD
:1040F0004F8FBFF36F8FD5E70FB410B503AB00211F
:104100000846029AFFF7B4FF10BC5DF814FB0FB429
:1041100010B503AB00210120029AFFF7A9FFF3E7D6
:104120000FB410B503AB00210220029AFFF7A0FFE5
:10413000EAE70FB410B503AB00210320029AFFF7A2
:1041400097FFE1E70FB410B503AB00210420029AFA
:10415000FFF78EFFD8E70FB410B503AA002002992D
:10416000FFF7A2FFD0E710B5214C2068002808D146
:10417000002284216420FEF73BFC2060002800D14F
:10418000FEE710BD70B5A2B01BA519480068002855
:104190001ED000231A4601A9FEF7CDFD012817D134
:1041A0009DF80400012815D0022817D0032813D049
:1041B000042811D010A49DF8050001AE80B1FEF7CF
:1041C00015F90246331D21460CA0009501F038FA7E
:1041D00022B070BD08A4EEE707A4ECE706A4EAE766
:1041E0002B46321D214608A001F02AFAF0E7000014
:1041F000F00A002004ED00E00000000025735B25BC
:10420000645D2025732573002573257325730000D5
:1042100010B5024600201823002103E052F8214087
:104220006040491C9942F9D310BD70B57820FFF762
:10423000CAF93F4C2068806880473E4D68B12868C5
:1042400001693DA0884760224649474800F01EFEAC
:1042500020684068BDE8704000474348006900F0AE
:1042600077FE2A680B4614690246A446BDE87040F2
:104270003EA0604770B59AB04FF4F8263A48FFF771
:10428000C7FF04466821684600F019FE42480090C6
:104290006022354901A800F0F9FD19941C25254C30
:1042A0003146206802693DA090473046FFF76EF91D
:1042B00020682946026943A090472A46694630464D
:1042C000FFF76EF938B12068816947A088474FF041
:1042D000FF301AB070BD206801694AA088470020ED
:1042E000F7E770B54FF4F82421682B48114E851775
:1042F000814205D03068026948A09047284670BDC9
:1043000060224F49184800F0C1FD646E1648FFF75F
:104310007FFF0246944206D030682146036949A0D7
:104320009847284670BD002070BD0F4870470000B8
:10433000280B0020140B00205B666C6173686462BC
:104340005D20666C61736820696E76616C69642CAF
:104350002077726974696E672064656661756C7434
:10436000730D0A0064600000247601205B666C61B6
:10437000736864625D206C6F616465642066726F4F
:104380006D20666C6173682C206B5B305D3D252E63
:1043900034660D0A00000000FCDBFCDB5B666C6130
:1043A000736864625D2065726173696E672073650E
:1043B00063746F72206174203078253038582E2E47
:1043C0002E0D0A005B666C61736864625D20777213
:1043D0006974696E6720256C7520776F7264732E1F
:1043E0002E2E0D0A000000005B666C61736864622B
:1043F0005D207772697465204641494C4544210D22
:104400000A0000005B666C61736864625D20736122
:10441000766564204F4B0D0A000000005B666C61FE
:10442000736864625D206D61676963206D69736D97
:10443000617463683A203078253038580D0A0000DE
:1044400004C007005B666C61736864625D2063682A
:1044500065636B73756D206D69736D617463683A24
:104460002073746F7265643D30782530385820634E
:10447000616C633D3078253038580D0A000000002B
:104480002DE9F04106461020FEF753FE0446BE4DCE
:10449000C4B1002020606060A060E0604FF400675D
:1044A0003846FEF746FE606090B1394600F007FDE1
:1044B000A7602660286839460269B4A09047204664
:1044C000BDE8F08128688169BBA088470020F7E734
:1044D00028688169C2A088472046FEF774FE002044
:1044E000EEE710B50446002C0DD0606808B1FEF769
:1044F0006AFE2046FEF767FEA34800680169BDE832
:104500001040C1A0084710BD70B504460D462846AE
:1045100000F0FCFC0146206882682846BDE8704037
:10452000104710B50446206800698047D4E90101AE
:1045300000F0C5FC0020E06010BD2DE9F047044606
:104540000F461646984600256FF0010A002C20D031
:104550002068F0B12046FFF7E4FF39462046FFF718
:10456000D3FFA8A12046FFF7CFFF3220FDF769FD5A
:10457000FDF73CFF0746DFF81092D4E90210491E10
:10458000884209D26168084421684A68012190473D
:1045900003E05046BDE8F0870020002807DDE16811
:1045A0000844E0606268002111540025E5E795A108
:1045B000606800F08FFC68B19AA1606800F08AFC26
:1045C00008B10120E6E798A1606800F083FC08B11B
:1045D0000020DFE7E06828B16168084410F8010CAA
:1045E0003E2811D096B1701C10D06D1C0120FDF733
:1045F00028FDB5420DD9D9F80000E16802698CA008
:1046000090474FF0FF30C5E70320C3E70A20FDF7CE
:1046100018FDFDF7EBFEC01B4045AED9D9F80000F0
:10462000E268414603698BA098475046B2E72DE9FE
:10463000F04104460F46544E39463068026992A054
:10464000904720680168384688476420FDF7F9FCE8
:104650002046FFF766FF94A12046FFF755FF4FF471
:104660009670FDF7EEFC0025A0682268411B60688B
:104670005268491E2844904708B10544F4E7616830
:1046800000204855E5608AA1606800F023FC20B94D
:1046900064A1606800F01EFC30B1306839460269E0
:1046A00084A0904700200BE73068394602698AA051
:1046B00090474FF0FF3003E770B5064600248F4D5A
:1046C000304655F82410FFF7B2FF50B1641C052C9A
:1046D000F6D32D480068816989A088474FF0FF30E4
:1046E00070BD002070BD70B50546274E002D3068A6
:1046F000026909D0E96839B18DA090473068016935
:1047000095A08847002415E0BDE8704096A01047AA
:104710006868015DA1F120005F2803D298A000F035
:104720008FFF06E00D2911D00A2913D095A000F0C3
:1047300087FF641CE868A042EAD832A000F080FF3E
:104740003068016990A08847002413E092A000F02F
:1047500077FFEEE791A000F073FFEAE76868015D7C
:104760008FA000F06DFF601CC00602D18EA000F08B
:1047700067FF641CE868A04201D9802CEED3BDE835
:10478000704020A000F05CBF140B00205B61745FE0
:104790006465765D20646576696365206372656132
:1047A0007465642C2072786275663D257520627987
:1047B0007465730D0A0000005B61745F6465765D6B
:1047C000206372656174653A206D616C6C6F632063
:1047D000646576206661696C65640D0A00000000FE
:1047E0005B61745F6465765D206372656174653AD0
:1047F000206D616C6C6F63207278627566206661F3
:10480000696C65640D0A00005B61745F6465765DC8
:10481000206465766963652064656C657465640D04
:104820000A0000004F4B00004552524F520000005A
:104830005B61745F6465765D206461746120746996
:104840006D656F75742C2072786C656E3D256C7586
:104850000D0A00005B61745F6465765D20636F6DB7
:104860006D616E642074696D656F75742C2063745E
:104870006F3D256C756D732C2072786C656E3D25CF
:104880006C750D0A000000005B61745F6465765D05
:1048900020747279696E6720256C75206270732EA2
:1048A0002E2E0D0A0000000041540D0A00000000E9
:1048B000415400005B61745F6465765D20617574CE
:1048C0006F2062617564204F4B20617420256C75E8
:1048D000206270730D0A00005B61745F6465765D31
:1048E000206E6F20726573706F6E73652061742027
:1048F000256C75206270730D0A000000C460000012
:104900005B61745F6465765D206175746F206261C0
:104910007564204641494C45442C20616C6C2072E2
:10492000617465732074726965640D0A000000008B
:104930005B61745F6465765D202D2D2D2072786239
:1049400075662028256C7520627974657329202D81
:104950002D2D0D0A000000005B61745F6465765DBB
:1049600020746578743A20005B61745F6465765DDD
:1049700020727862756620656D7074790D0A00008A
:10498000256300002E0000005B61745F6465765D46
:10499000206865783A2000005C7200005C6E0000C0
:1049A00025303258200000000D0A20202020202031
:1049B0000000000010B504462068C268002A0CD030
:1049C000E1688A4209D24168606800F05FFA2068B5
:1049D000C068A06062680021115410BD70B50D461A
:1049E000294600F077FA044624B1284600F08EFAF2
:1049F000204402E0002070BD401C01782029FBD03B
:104A00003A29F9D070BD70B50446C249206840F615
:104A1000B83309684FF4FA728D68BFA1A8470546FC
:104A20002046FFF7C7FF284670BD2DE9F041044638
:104A30000D461646B749206840F6B83309684FF46A
:104A4000FA728F68B5A1B84707462046FFF7B2FF54
:104A5000012F02D03846BDE8F081B3A16068FFF7AE
:104A6000BDFF88B185B1002E0EDD0023761E01E06A
:104A7000EC545B1CC45C2CB10D2C03D00A2C01D06F
:104A8000B342F5DB0020E8540120E4E72DE9F041D2
:104A900004460E4615469F49206840F6B83309681B
:104AA0004FF4FA728F68A2A1B84707462046FFF775
:104AB00081FF012F01D03846CDE79FA16068FFF745
:104AC0008DFF044674B11EB1204600F034FA306008
:104AD0002C21204600F010FA20B11DB1401C00F03E
:104AE0002AFA28600120B6E770B504460D468949C8
:104AF000206840F6B83309684FF4FA728E6890A1C6
:104B0000B04706462046FFF755FF012E01D030463C
:104B100070BD8EA16068FFF761FF40B12C2100F0ED
:104B2000EBF920B11DB1401C00F005FA286001200E
:104B300070BD70B504460D467649206841F2883351
:104B400009684FF4FA728E6882A1B0470646204683
:104B5000FFF730FF012E01D0304670BD80A16068A4
:104B6000FFF73CFF18B115B100F0E5F9286001200E
:104B700070BD2DE9F041674F3968096888470546DF
:104B8000794E35B32420FEF7D4FA0446200026D00F
:104B9000242100F094F94FF400684046FEF7C9FA6A
:104BA0006060002825D0414600F089F9C4F80C80E7
:104BB00025606E4820616E4860616E48A0616E4855
:104BC000E0616E482062306801696DA08847204628
:104BD00041E73068816973A0884700203BE730686F
:104BE000816979A08847386841682846884700204D
:104BF00031E7306881697DA088472046FEF7E3FAF7
:104C00003868416828468847002024E710B50446E4
:104C1000002C13D0206818B13E49096849688847BC
:104C2000606808B1FEF7CFFA2046FEF7CCFA4E488E
:104C300000680169BDE8104074A0084710BD70B558
:104C400004460D46002C13D02068002810D02846BA
:104C500000F05CF9014620680068826828469047A9
:104C60002068022100688268BDE870406DA010478E
:104C700070BD70B50446002C13D0206818B10068D0
:104C800008B1006980472068002528B18168406824
:104C900000F015F92068C560E168606800F00FF960
:104CA000A56070BD70B505462F4C002D20680269C7
:104CB00009D0A96839B15CA090472068016964A057
:104CC0008847002415E0BDE8704066A0104768687A
:104CD000015DA1F120005F2803D268A000F0B0FCC4
:104CE00006E00D290DD00A290FD065A000F0A8FC20
:104CF000641CA868A042EAD8BDE8704049A000F052
:104D00009FBC60A000F09CFCF2E75FA000F098FC64
:104D1000EEE70000400B00204154000041542B43BB
:104D200050494E3F000000002B4350494E3A0000CE
:104D300041542B43535100002B4353513A00000080
:104D400041542B435245473F000000002B4352453E
:104D5000473A000041542B43474154543F00000060
:104D60002B43474154543A00140B0020074A0000DB
:104D70002B4A00008D4A0000E94A0000334B000036
:104D80005B6169725F6D616E5D20414952373234FB
:104D90002064657669636520637265617465640D7E
:104DA0000A0000005B6169725F6D616E5D20637275
:104DB000656174652061745F646576206661696C05
:104DC00065640D0A000000005B6169725F6D616ED1
:104DD0005D206D616C6C6F63206169725F646576E4
:104DE000206661696C65640D0A0000005B61697290
:104DF0005F6D616E5D206D616C6C6F6320727862B7
:104E00007566206661696C65640D0A005B61697294
:104E10005F6D616E5D206465766963652064656CB5
:104E2000657465640D0A00005B6169725F6D616E97
:104E30005D202D2D2D2072786275662028256C75D9
:104E400020627974657329202D2D2D0D0A00000034
:104E50005B6169725F6D616E5D20746578743A2084
:104E6000000000005B6169725F6D616E5D207278A9
:104E700062756620656D7074790D0A002563000007
:104E80002E0000005C7200005C6E000040EA01032E
:104E90009B0703D009E008C9121F08C0042AFAD2F0
:104EA00003E011F8013B00F8013B521EF9D27047B4
:104EB000D2B201E000F8012B491EFBD2704700225C
:104EC000F6E710B513460A4604461946FFF7F0FF09
:104ED000204610BD30B505462A460B4612F8010B98
:104EE00013F8014B08B1A042F8D01CB1002802D041
:104EF0006D1CF1E7284630BDCAB2401E10F8011FF4
:104F00008A4202D00029F9D100207047421C10F8D3
:104F1000011B0029FBD1801A704710B5002200E068
:104F2000521C835C8C5CA34201D1002BF8D1D8B217
:104F3000E1B2401A10BD70B5064600F0ABFB046844
:104F400005460A220021304600F05CF82C6070BD56
:104F500000F0004230F000400AD0C10D01F5607150
:104F6000C0F3160042EA0151C208400711437047DE
:104F700000200146704730B50B4601460020202234
:104F8000012409E021FA02F59D4205D303FA02F556
:104F9000491B04FA02F52844151EA2F10102F1DCB6
:104FA00030BD2DE9F05F0546002092469B468846BD
:104FB0000646814640241BE0284641464746224695
:104FC00000F031FA53465A46C01A914110D31146A7
:104FD0001846224600F018FA2D1A67EB01084F46D2
:104FE00022460120002100F00FFA17EB00094E4184
:104FF000201EA4F10104DFDC484631462A46434620
:10500000BDE8F09F2DE9F04791460F4680460446E3
:10501000002614F8015B2DB100F028FA0068405D0D
:10502000C007F6D12B2D02D02D2D18D0641E4A4674
:105030003946204600F01EFA27B13968A14201D155
:10504000C7F8008071054FF002040BD540420028DC
:1050500003DD00F01FFB0460A007BDE8F08746F405
:105060008066E4E70028F8DA00F014FB04606FF0D3
:105070000040F2E72DE9FE4F804681EA0300C00FB1
:105080000C46009021F0004123F00045B8EB0200EF
:10509000A94105D24046214690461C460B46024691
:1050A00023F00040104347D0270DC7F30A00C3F395
:1050B0000A510290401A019040286BDAC3F31300A2
:1050C00040F4801B0098924620B10023D2EB030AE3
:1050D00063EB0B0B01985946C0F14002504600F0BB
:1050E00093F906460D4650465946019A00F0ABF931
:1050F00010EB08006141002487EA115284EAE7734B
:105100001A4340D0009A62B3019A012A4FEA07522B
:1051100015DC001B61EB02014FF0004202EA07526E
:10512000CDE90042001C41F5801132462B4600F0CB
:10513000FFF903B0BDE8F08F40462146F9E7001BB8
:1051400061EB0201001C41F5801300185B4120183F
:10515000A2F5001747EB030140EAD570B6196D417F
:1051600011E06D084FEA360645EAC0754FEA07526E
:10517000001B61EB0201001C41F5801149084FEA58
:1051800030000019514132462B4603B0BDE8F04FC4
:1051900000F0BFB90098012240000023D0EB0202CA
:1051A00063EBE073009821464FEAE074B8EB00002F
:1051B00061EB0401E9E783F000435BE781F0004124
:1051C00058E72DE9FE4F81EA030404F0004421F082
:1051D000004100944FF0000B23F0004350EA01041B
:1051E0005ED052EA03045BD0C3F30A54C1F30A55FC
:1051F0002C44A4F2F3340194A0FB0254C1F3130134
:1052000041F48011C3F3130343F4801301FB024400
:1052100000FB034E840A970A44EA815447EA835705
:10522000A4FB076802958D0A05FB07854FEA932CBE
:1052300004FB0C542705029D4FEA065847EA16372F
:10524000B5EB08056EEB070C870E920E47EA811747
:1052500042EA8312A7FB0201B6EB0B0164EB0004E8
:105260002B0D43EA0C335E1844EB1C50DA465146D2
:10527000E7FB0201C5F313044FEA0B3343EA14536F
:105280004FEA0432019C43EA0603A4F10C040294A1
:10529000009CCDE900B400F04BF903B0BDE8F08FFD
:1052A00000200146F9E72DE9F04D81EA030404F0FE
:1052B000004B21F0004514464FF0000A23F0004156
:1052C00050EA050220D054EA01021DD0C5F30A5766
:1052D0000246C5F31303C1F31300C1F30A5640F4A9
:1052E000801543F48013A7EB0608101BD64608F27E
:1052F000FD3873EB050002D308F1010801E09218B4
:105300005B41B8F1000F03DA00200146BDE8F08DE3
:1053100000204FF48011064684460EE0171B73EB05
:10532000050705D3121B63EB050306434CEA010C8A
:1053300049084FEA300092185B4150EA0107EDD16D
:1053400052EA030012D082EA040083EA050108430E
:1053500005D0101BAB4106D20122002306E000223B
:105360004FF0004302E06FF0010253101AEB060009
:105370004CEB085110EB0A0041EB0B01BDE8F04D7E
:1053800000F0C7B8C1F30A52C1F3130140F2FF3372
:1053900041F480119A4202DA00200146704740F23F
:1053A00033439A42A2F2334202DC524200F03BB84D
:1053B00000F02AB830B5041E71F1000404DB4FF090
:1053C0000044404264EB0101141E73F1000405DB4C
:1053D0001C464FF00043524263EB0403994208BF5E
:1053E000904230BD064C074D06E0E06840F00103F6
:1053F00094E8070098471034AC42F6D3FAF7A8FEB9
:105400004063000060630000202A04DB203A00FAB9
:1054100002F1002070479140C2F1200320FA03F30B
:10542000194390407047202A04DB203A21FA02F009
:105430000021704721FA02F3D040C2F120029140CE
:10544000084319467047202A06DBCB17203A41FA59
:1054500002F043EAE07306E041FA02F3D040C2F101
:1054600020029140084319467047000000487047E9
:105470005C6100002DE9F05F824600780027154648
:105480008B460AF10104B946302801D09DB113E0E2
:1054900014F8010B0127782803D0582801D045B112
:1054A0000AE00DB1102D07D10027102514F8010BCB
:1054B00002E0082500E00A250026B0460EE005FBC4
:1054C000080005FB06F1012701EB10461FFA80F8E2
:1054D000B6F5803F00D3B94614F8010B294600F019
:1054E00075F80028EBDABBF1000F05D00FB1641E90
:1054F00000E05446CBF80040B9F1000F06D000F0B0
:10550000C9F802210160C81EBDE8F09F48EA0640C4
:10551000FAE710B5141E73F1000408DA401C41F1DB
:10552000000192185B411A4301D120F0010010BD27
:105530002DE9F04D92469B4611B1B1FA81F202E09D
:10554000B0FA80F220329046FFF75EFF04460F4625
:1055500040EA0A0041EA0B0153465A46084313D079
:10556000114653EA010019D0C8F140025046FFF736
:105570005AFF05460E46504659464246FFF744FF3D
:10558000084305D0012004E020463946BDE8F08DEF
:105590000020054346EAE0762C4337430A9863052A
:1055A000E40AA0EB08000022FD0A44EA47540A304E
:1055B00002D500200146E9E7010510196941DDE93E
:1055C000084500196941BDE8F04DA2E73A2800D22C
:1055D000303820F02002412A01D3A2F1370088425E
:1055E00001D34FF0FF30704770B58C1810F8015B95
:1055F00015F0070301D110F8013B2A1106D110F86C
:10560000012B03E010F8016B01F8016B5B1EF9D16F
:105610002B0705D40023521E0DD401F8013BFAE7F5
:1056200010F8013BCB1A921C03E013F8015B01F860
:10563000015B521EF9D5A142D8D3002070BD0000F5
:105640000FB4054B10B503A9044A029800F0F8F80E
:1056500010BC5DF814FB000015100000600B00206A
:105660007CB50C001D461646014601D0601E00E0C8
:105670000020CDE90010064B6A462946304600F06E
:10568000DFF8002C02D0009A002111707CBD0000D0
:10569000475F000000487047640B002002E008C824
:1056A000121F08C1002AFAD170477047002001E09C
:1056B00001C1121F002AFBD1704700002DE9FF5FD6
:1056C00082B00021DDE90430020DDDF840B0034373
:1056D00018D044F61050A2F2FF324243151411982C
:1056E00001281FD0A5EB0B00401C5FEA000A4FF019
:1056F00000064E4FDFF83891B046504615D5CAF136
:10570000000413E0119801244AA3012801D16FEA93
:105710000B010298119AC0E90031C0E9024206B0BB
:10572000BDE8F09FCBF10000DFE704460021404ACE
:10573000491842EB0450CDE9001012E0E00707D011
:1057400032463B4640464946FFF73BFD8046894688
:1057500032463B4610461946FFF733FD06460F46D4
:105760006410002CEAD1DDE90401DDE90023BAF17F
:10577000000F06DAFFF725FD42464B46FFF721FDF5
:1057800005E0FFF790FD42464B46FFF78CFD0446CF
:105790000E460022284BFFF70DFE03D84FF0FF30D6
:1057A000014607E00022254B20463146FFF762FC08
:1057B000FFF7E8FD102409E0002C0ADB0A22002391
:1057C000FFF7EFFB039B30321A55641E50EA0102CB
:1057D000F2D1641C039AC4F111031444119A012AF2
:1057E00003D0012208430DD10AE0084304D0002071
:1057F0004FF0110B119072E7A3EB0B056D1E0DE03E
:105800005B4504DD4FF0000205F1010504E003DA19
:105810004FF00002A5F10105002AECD00298119981
:10582000C0E90231C0E9004579E7000000001440FA
:105830000000F03F300000000000F0430000E03FB7
:105840002DE9FF4F95B09A46884606460025EEE1C1
:10585000252877D100242746F94A0121039400E046
:10586000044316F8013F203B01FA03F01042F7D140
:1058700030782A2811D06FF02F033078A0F1300251
:10588000092A16D8039A44F0020402EB820203EBC1
:1058900042021044761C0390EFE758F8042B039261
:1058A000002A03DA504244F40054039044F0020406
:1058B000761C30782E2816D116F8010F44F0040417
:1058C0002A280DD06FF02F023078A0F13003092B79
:1058D00009D807EB870302EB4303C718761CF3E7ED
:1058E00058F8047B761C30786C280FD006DC4C28E6
:1058F00017D068280DD06A2814D104E0742810D07D
:105900007A280FD10DE044F400140AE044F4801426
:1059100001E044F440147278824202D104F580140C
:10592000761C761C307866280BD013DC582877D08C
:1059300009DC002875D04528F6D04628F4D0472841
:105940001AD193E118E0632835D0642879D065280E
:1059500012D18BE1702873D008DC6728F1D0692858
:105960006FD06E280DD06F2806D1ACE073282CD0F4
:10597000752874D0782853D05246179990476D1CDB
:1059800054E1C4F30250022809D003280DD0D8F8FE
:10599000001004280DD00D6008F1040846E1D8F885
:1059A0000010EA17C1E90052F6E7D8F800100D80A0
:1059B000F2E70D70F0E718F8041B8DF800100020D6
:1059C0008DF80100EB46012003E058F804BB4FF0CE
:1059D000FF3061074FF0000102D40DE009F1010131
:1059E0008946B9420FDA8145F8DB1BF80910002916
:1059F000F4D108E009F1010189468142FADB1BF884
:105A000009100029F6D103985346A0EB0907214657
:105A10003846179A00F080FA284400EB090507E0A1
:105A200044E008E10DE01BF8010B5246179990473E
:105A3000B9F10109F7D2534621463846179AF2E0E8
:105A400039E00A21C4F302524FF0000B0091022A00
:105A500006D058F8040BC117032A09D00AE023E046
:105A600008F1070020F00702F2E80201904605E085
:105A700000B2C117042A01D140B2C117002906DAC9
:105A80000A460021404261EB02012D2202E022057C
:105A900004D52B228DF80420012203E0E20701D077
:105AA0002022F7E7914657E00A2100E010214FF04D
:105AB000000B00910BE010214FF0000B44F00404A8
:105AC0000827009103E008204FF0000B0090C4F37A
:105AD0000252022A05D058F8040B0021032A08D0EC
