:020000040000FA
:1000000028100020691300006D1300006F1300001A
:10001000711300007313000075130000000000004E
:100020000000000000000000000000007713000046
:1000300079130000000000007B130000650400003D
:100040007F1300008113000083130000851300005C
:1000500087130000891300008B1300008D1300002C
:100060008F130000911300009313000095130000FC
:1000700097130000991300009B1300009D130000CC
:100080009F130000A1130000A3130000A51300009C
:10009000A7130000A9130000AB130000AD1300006C
:1000A000AF130000B1130000B3130000B51300003C
:1000B000B7130000B9130000BB130000BD1300000C
:1000C000BF130000C1130000C3130000C5130000DC
:1000D000C7130000C9130000CB130000CD130000AC
:1000E000CF130000D1130000D31300000000000064
:1000F000D5130000D7130000D9130000DB13000054
:10010000DD130000DF130000E1130000E313000023
:10011000E5130000E7130000E9130000EB130000F3
:10012000ED130000EF130000F1130000F3130000C3
:10013000F5130000F7130000F9130000FB13000093
:10014000FD130000FF130000DFF810D001F070F97C
:100150000048004761010000AFF300802810002034
:1001600001F0B8F800F0B2F818A001F073F918A087
:1001700001F070F921A001F06DF92B4C2BA0216842
:1001800001F068F92FA001F065F935A001F062F9DE
:1001900000F0DAF820684FF47A71B0FBF1F0401EFD
:1001A000B0F1807F09D24FF0E0214861384AE02069
:1001B0001070002088610720086100F05DF935A00B
:1001C00001F048F900F05DF9FCE700000D0A0000BD
:1001D0003D3D3D3D3D3D3D3D3D3D3D3D3D3D3D3D4F
:1001E0003D3D3D3D3D3D3D3D3D3D3D3D3D3D3D3D3F
:1001F0003D3D3D3D3D3D3D3D0D0A000020205374F9
:10020000657020343A205379735469636B20E5AEEE
:100210009AE697B6E599A8202B20E78AB6E6808172
:10022000E69CBA0D0A0000001C000020202043506C
:100230005520436C6F636B3A20256420487A0D0A81
:100240000000000020205379735469636B20203A2A
:1002500020316D7320706572207469636B0D0A0024
:100260003D3D3D3D3D3D3D3D3D3D3D3D3D3D3D3DBE
:100270003D3D3D3D3D3D3D3D3D3D3D3D3D3D3D3DAE
:100280003D3D3D3D3D3D3D3D0D0A0D0A0000000058
:1002900023ED00E05B4D41494E5D20E8BF9BE585C5
:1002A000A5E4B8BBE5BEAAE78EAFEFBC8C5379736B
:1002B0005469636B20E9A9B1E58AA8E78AB6E680AC
:1002C00081E69CBA2E2E2E0D0A0D0A001FB50123C1
:1002D00064220221002000F067FB00236422032136
:1002E000184600F061FB4FF4E130009000208DF8DB
:1002F00004008DF805008DF8060003218DF8071025
:100300008DF808008DF809108DF80A000A218DF883
:100310000B108DF80C000B4C6946204600F05FFD79
:10032000204600F032FE1FBD70B50546054C29463B
:10033000204600F02FFE204600F038FE0028FAD1BB
:10034000284670BD00000240F8B5052126A001F046
:1003500081F800252C4F002605EB450007EBC00473
:10036000606901281AD00023201D07C800F01CFB7B
:100370006069012814D0009600230122A168206939
:1003800000F062F9A168206900F059FA1FA0216805
:1003900001F060F86D1C052DDED3F8BD0123E3E705
:1003A000009601230022A168206900F04DF91FA0EA
:1003B000216801F04FF8EDE770B50024124E04EB10
:1003C000440506EBC5008168006900F04AFA08B1EF
:1003D0001DA200E01EA256F835101FA001F03AF849
:1003E000641C052CEBD370BD5B494F20494E49542A
:1003F0005D20E585B120256420E4B8AAE5BC95E838
:10040000849A3A0D0A0000004C1600002020257343
:100410002020E2869220E8BE93E587BA2028E5886E
:100420009DE5A78B204C4F57290D0A0020202573EE
:100430002020E2869220E8BE93E585A52028E4B836
:100440008AE68B89290D0A004849474800000000C8
:100450004C4F57200000000020202573203A202513
:10046000730D0A0003480168491C01607047014888
:10047000006870470000002000213E480160416094
:1004800070472DE9F041FFF7F2FF0446394D012690
:10049000394F2968DFF8E48041F288304FF4FA627E
:1004A000092963D2DFE801F005142027333A464DCD
:1004B000590033A000F0CEFF0221384600F0BFF90A
:1004C0000C21404600F0BBF96C602E60BDE8F08165
:1004D000214635A000F0BEFF0221384600F0A7F902
:1004E0006C6002202860F1E76968611A8142EDD3EF
:1004F00003202860EAE7214633A000F0ABFF022189
:10050000384600F09CF96C6004202860DEE76868DB
:10051000201A9042DAD305202860D7E7214632A07E
:1005200000F098FF0C21404600F081F96C60062035
:100530002860CBE76968611A8142C7D30720286029
:10054000C4E7214630A000F085FF0C21404600F0B2
:1005500076F96C6008202860B8E76868201A904235
:10056000B4D331A000F076FF2E60AFE70020286002
:10057000ACE70000040000200050014000200140D2
:100580005B534D5D20E78AB6E68081E69CBAE59034
:10059000AFE58AA8EFBC8CE585A8E983A8E696AD0F
:1005A000E5BC800D0A0000005B534D5D20454C43C7
:1005B0003020E590B8E590882028743D2564206DB2
:1005C00073290D0A000000005B534D5D20454C432C
:1005D0003020E696ADE5BC802028743D2564206D72
:1005E00073290D0A000000005B534D5D20454C430C
:1005F0003120E590B8E590882028743D2564206D71
:1006000073290D0A000000005B534D5D20454C43EB
:100610003120E696ADE5BC802028743D2564206D30
:1006200073290D0A000000003D3D3D3D3D20E4B82A
:1006300080E8BDAEE5AE8CE68890203D3D3D3D3D79
:100640000D0A0D0A000000002DE9F0471646DDF8FE
:1006500020801F46DFF8AC920124AB4D8C40A0EB0C
:1006600009034FF4805C4FF08042484576D01FDC90
:10067000A64BC01838D0604558D0B0F5005F15D1F2
:10068000906840F00400906001230022022000F0F6
:100690008BF99F48012E6CD04168A1434160012F26
:1006A0006BD0D5F81002A043C5F81002BDE8F08762
:1006B00063457DD0B3F5405FF8D1906840F40010F9
:1006C000906001230022052000F06EF99148012E70
:1006D0006FD04168A1434160012F6BD0D5F8300243
:1006E000A043C5F83002E1E7906840F00100906057
:1006F00000220123104600F057F984484042012EA1
:100700000AD04168A1434160012F09D0D5F8000209
:10071000A043C5F80002C9E7416821434160F3E7FF
:10072000D5F800022043C5F80002BFE7906840F00A
:100730000200906001230022184600F035F9764847
:10074000012E0CD04168A1434160B8F1010F0AD0DD
:10075000D5F80003A043C5F80003A7E713E04168FC
:1007600021434160F1E7D5F800032043C5F80003B9
:100770009CE741682143416091E7D5F8100220438E
:10078000C5F8100292E7906840F0100090600123D5
:100790000022032000F008F9012E10D0D9F804003F
:1007A000A043C9F80400012F0FD0D5F8200202E0C1
:1007B00011E032E035E0A043C5F8200276E7D9F831
:1007C00004002043C9F80400EDE7D5F820022043D7
:1007D000C5F820026AE7906840F02000906001238D
:1007E0000022042000F0E0F84C48012E0BD04168B4
:1007F000A1434160B8F1010F09D0D5F82003A0430F
:10080000C5F8200352E7416821434160F2E7D5F87B
:1008100020032043C5F8200348E741682143416095
:100820005AE7D5F830022043C5F830023EE70122EE
:10083000400100EB810000F184400260704700221B
:10084000400100EB810000F18440026070474001EC
:1008500000EB810000F184400168C1F101010160F9
:1008600070470068C84000F001007047C2F11803EB
:100870006FF07F42DA4003688A4013430360704799
:10088000C2F118036FF07F42DA4003688A40934355
:1008900003607047C2F118036FF07F42DA400368CB
:1008A0008A40534003607047C2F118036FF07F42E3
:1008B000DA400068C84010407047C2F118036FF07A
:1008C0007F42DA4072B603688A401343036062B61F
:1008D0007047C2F118036FF07F42DA4072B60368C6
:1008E0008A409343036062B67047C2F118036FF009
:1008F0007F42DA4072B603688A405340036062B6B2
:1009000070470000005001400000014000F0FEBFB1
:1009100000300140008001400020014000600140A3
:1009200010B572B6000B1B4CA16888472068804741
:1009300062B610BD10B5030701D0022010BD9307A9
:1009400001D0022010BD72B69208124CE36898479D
:100950002068804762B6002010BD10B572B60D4900
:1009600040F289431E284A6808D028280AD0502817
:100970000CD00949581C904762B610BD074918466B
:100980009047F9E7064918469047F5E705491846A4
:100990009047F1E70C0000206E7AFCAB251FF4AB0A
:1009A0002929F4AB4D52F8AB2DE9F04F86B001EB9D
:1009B00081074FF01F0BA2F1640A0BFA07F60AFA3F
:1009C00007F48D1F05EB850C0BFA0CF70AFA0CF5F2
:1009D0004FF001084FEA41094FF0030CA1F10C0E52
:1009E0000CFA09FC08FA01F80EEB8E0E8B40CDF8DC
:1009F00000E00BFA0EFECDF814E0DDF800E00AFA94
:100A00000EFECDF810E0A1F1120E0EEB8E0E0BFAD9
:100A10000EFB0AFA0EFACDE902ABA1F1100A4FEA79
:100A20004A0A4FF0030B0BFA0AFBCDF804A0DFF8DB
:100A30009CA3062837D2DFE800F003396EA3F0EF5D
:100A4000632A18D906290AD2DAF80001B043CAF895
:100A50000001DAF800012043CAF800010BE00C297C
:100A600009D2DAF80401B843CAF80401DAF804013B
:100A70002843CAF80401DAF8000020EA0C00CAF89A
:100A80000000632A00D90122DAF8000002FA09F214
:100A90000243CAF80020CE48016821EA080101603B
:100AA00001681943016006B0BDE8F08F632A18D9C8
:100AB00006290AD2DAF81001B043CAF81001DAF8B0
:100AC00010012043CAF810010BE00C2909D2DAF812
:100AD0001401B843CAF81401DAF814012843CAF81B
:100AE0001401DAF8040020EA0C00CAF80400632AB2
:100AF00000D90122DAF8040002FA09F20243CAF826
:100B00000420B3481030016821EA0801016001683F
:100B100019430160C7E7632A18D906290AD2DAF80F
:100B20002001B043CAF82001DAF820012043CAF8B6
:100B300020010BE00C2909D2DAF82401B843CAF8E5
:100B40002401DAF824012843CAF82401DAF808005D
:100B500020EA0C00CAF80800632A00D90122DAF85A
:100B6000080002FA09F20243CAF808209848203027
:100B7000016821EA0801016001681943016092E7F8
:100B8000632A36D906290AD2DAF86001B043CAF8D6
:100B90006001DAF860012043CAF8600129E00C29FD
:100BA0000AD2DAF86401B843CAF86401DAF86401D9
:100BB0002843CAF864011CE012290CD2DAF8680153
:100BC000059CA043CAF86801DAF86801049C204338
:100BD000CAF868010DE018290BD2DAF86C01039C01
:100BE000A043CAF86C01DAF86C01029C2043CAF8F1
:100BF0006C01102912D2DAF8200020EA0C00CAF8A1
:100C00002000632A00D90122DAF8200002FA09F252
:100C10000243CAF8202011E071E019E0DAF824005C
:100C200020EA0B00CAF82400632A00D901220198A7
:100C30008240DAF824000243CAF824206448403095
:100C4000016821EA080101600168194301602AE78F
:100C5000632A27D906290AD2DAF87001B043CAF804
:100C60007001DAF870012043CAF870011AE00C290B
:100C70000AD2DAF87401B843CAF87401DAF87401D8
:100C80002843CAF874010DE012290BD2DAF8780172
:100C9000059CA043CAF87801DAF878410498044327
:100CA000CAF87841102910D2DAF8300020EA0C0096
:100CB000CAF83000632A00D90122DAF8300002FABB
:100CC00009F20243CAF830200FE0DAF8340020EAD3
:100CD0000B00CAF83400632A00D90122019882402F
:100CE000DAF834000243CAF8342039485030016839
:100CF00021EA08010160016819430160D3E6632A13
:100D000036D906290AD2DAF88001B043CAF8800140
:100D1000DAF880012043CAF8800129E00C290AD2C0
:100D2000DAF88401B843CAF88401DAF88401284368
:100D3000CAF884011CE012290CD2DAF88801059C5B
:100D4000A043CAF88801DAF8884104980443CAF835
:100D500088410DE018290BD2DAF88C4103988443BE
:100D6000CAF88C41DAF88C01029C2043CAF88C0145
:100D7000102910D2DAF8400020EA0C00CAF840002E
:100D8000632A00D90122DAF8400002FA09F202438C
:100D9000CAF840200FE0DAF8440020EA0B00CAF855
:100DA0004400632A00D9012201988240DAF8440005
:100DB0000243CAF8442006486030016821EA08016D
:100DC00001600168194301606DE600000000014008
:100DD00000060140416821F40071416070472DE92F
:100DE000F04704460D46D5484FF4805726184FF07B
:100DF00080404FF400584FF4405973D0BE4276D033
:100E0000464579D04E4503D1816841F480418160E7
:100E10002046FFF7DFFF606840F400506060A06884
:100E20006FF30D00A060C648296800680009B0FB98
:100E3000F1F0A168401E0843A060606820F47C00C7
:100E4000606060682979AA7940EA81406979C904BB
:100E500041EA825108436060F6B3BE4255D0464530
:100E600057D04E4502D12A2000F05CF9E06880B2EC
:100E7000E060E879697A401C000440EA0160E168BA
:100E80000843E060606820F07F4060606068E97A55
:100E900040EA01606060606844F214018843606069
:100EA0006068297A2A7B40EA0110A97A890041EA20
:100EB00082310843606086B3BE423FD046454DD084
:100EC0004E4560D1287AA97A0843297B084355D03A
:100ED000BDE8F0472A2003E013E003E007E00BE061
:100EE00000F015B9816841F40061816090E7816884
:100EF00041F4805181608BE7816841F40051816049
:100F000086E7272000F00EF9B0E7282000F00AF964
:100F1000ACE7292000F006F9A8E7FFE7287AA97ACC
:100F20000843297B084304D0BDE8F047272000F0A0
:100F3000EEB8BDE8F047272000F0F4B8287AA97A87
:100F40000843297B084304D0BDE8F047282000F07F
:100F5000DEB8BDE8F047282000F0E4B8287AA97A86
:100F60000843297B084304D0BDE8F047292000F05E
:100F7000CEB8BDE8F047292000F0D4B8BDE8F0476E
:100F80002A2000F0CFB8BDE8F087416841F4007135
:100F900041607047016070470068C0F308020A6052
:100FA000400501D50220704700207047406840F39B
:100FB0000000401C7047406840F3C000401C704770
:100FC0004068C0F34000704782686FF30D02826092
:100FD0005B4A12681209B2FBF1F18268491E1143A3
:100FE000816070475649806809680909C0F30D009F
:100FF000401CB1FBF0F07047436923F005034361E7
:10100000436941EA82010B43436170474069C0F381
:10101000C010704710B5446924F07A0444614469F3
:10102000D20044EA410142EA03121143416110BD7A
:101030004069C0F300207047036923F00503036192
:10104000036941EA82010B4303617047016941F082
:101050001001016170470069C0F3400070470069EA
:10106000C0F3C00070470022FF2918D0A1F580739B
:10107000FF3B14D0FE290DD0B1F5FF7F0AD0F8292F
:101080000AD0B1F5FC7F07D0802907D0B1F5C07F29
:1010900004D0FEE7012202E0022200E00322816880
:1010A00021F06071816081684FF4000343EA0262BD
:1010B0001143816070478168090201D500207047A3
:1010C0008068400101D502207047012070474268C6
:1010D0000A434260704742688A4342607047CA06CA
:1010E00002D5826852020ED44A0402D58268920266
:1010F00009D44A0702D58268920304D4490604D56C
:101100008068000101D5012070470020704700F081
:101110001F02012191404009800000F1E020C0F849
:101120000011704700F01F0201219140400980002A
:1011300000F1E020C0F88011704700000000FEBF01
:101140001C00002030B54FF0804108687B4A4507FD
:101150007B4C7C4B7C480CD50D68AD0701D50260FB
:101160001CE02268D20702D0784A026016E00360D1
:1011700014E00D68ED070ED0646AA40701D5036082
:1011800000E0026002680523B2FBF3F2C8235A4371
:10119000D208026002E04FF4FA4202604968C907CF
:1011A00002D0016849080160694A0168B1FBF2F1A7
:1011B000416030BD4FF080400168490702D40068AB
:1011C000C00707D0002044F6206100BF401C8842C1
:1011D000FBD37047002000BF401C1428FBD370478E
:1011E00010B5574C01202062FFF7E4FFFFF7E2FF44
:1011F000606A20F002006062A06A56490840A0625E
:10120000A06A55490843A062606A20F00400606249
:10121000206B0028FCD010BD10B5FFF7E1FF484857
:10122000416A41F0010141628004016841F001011D
:101230000160016821F00401016010BD10B5404952
:1012400001200862FFF7B6FFFFF7B4FF4FF08040C0
:10125000016841F002010160016841F00401016090
:1012600010BD10B54FF08044A06840F08070A060C1
:101270003A48016A21F001010162FFF79BFF2068F3
:1012800020F001002060206820F00400206010BDE4
:1012900010B52B4901200860FFF78CFF4FF080400C
:1012A000016821F002010160016841F00401016060
:1012B00010BD10B5224900200860FFF77BFF4FF0FA
:1012C0008040016821F002010160016841F00401E1
:1012D000016010BD10B54FF08044A06840F480005C
:1012E000A0607820FFF739FBFFF796FF606820F0D9
:1012F0000100606060686060FFF724FF12481849D1
:101300000068884204D9BDE810407820FFF725BB6B
:101310000E49884204D9BDE810405020FFF71DBB9C
:101320001049884204D9BDE810402820FFF715BBBA
:10133000BDE810401E20FFF710BB000000805101E7
:1013400000100340002D31011C000020005A6202F1
:1013500040420F0000FEE0FC3200050000E00140CA
:1013600000B4C40480C3C90125480047FEE7FEE776
:10137000FEE7FEE7FEE7FEE7FEE7FEE7FEE7FEE745
:10138000FEE7FEE7FEE7FEE7FEE7FEE7FEE7FEE735
:10139000FEE7FEE7FEE7FEE7FEE7FEE7FEE7FEE725
:1013A000FEE7FEE7FEE7FEE7FEE7FEE7FEE7FEE715
:1013B000FEE7FEE7FEE7FEE7FEE7FEE7FEE7FEE705
:1013C000FEE7FEE7FEE7FEE7FEE7FEE7FEE7FEE7F5
:1013D000FEE7FEE7FEE7FEE7FEE7FEE7FEE7FEE7E5
:1013E000FEE7FEE7FEE7FEE7FEE7FEE7FEE7FEE7D5
:1013F000FEE7FEE7FEE7FEE7FEE7FEE7FEE7FEE7C5
:101400004901000030B50B4601460020202201248E
:1014100009E021FA02F59D4205D303FA02F5491BC2
:1014200004FA02F52844151EA2F10102F1DC30BDD8
:10143000064C074D06E0E06840F0010394E8070021
:1014400098471034AC42F6D3FEF782FEEC1600004B
:101450000C1700000FB4054B10B503A9044A0298FD
:1014600000F018F810BC5DF814FB00002903000020
:101470002400002002E008C8121F08C1002AFAD187
:1014800070477047002001E001C1121F002AFBD104
:10149000704700002DE9FF4F8BB09A460F46054676
:1014A000002606E025280BD052460D9990476D1C6A
:1014B000761C28780028F5D10FB03046BDE8F08FB3
:1014C0000024A0460122604900E0044315F8013FD2
:1014D000203B02FA03F00842F7D128782E2817D1D2
:1014E00015F8010F44F004042A280ED06FF02F02E3
:1014F0002878A0F1300109290AD808EB880102EB0D
:10150000410100EB01086D1CF2E757F8048B6D1CDC
:10151000287869283ED006DC0028CDD063280BD07F
:10152000642804D136E0732810D075284BD0524679
:101530000D999047761C85E017F8040B8DF8000094
:1015400000208DF80100E946012003E057F8049BD4
:101550004FF0FF3061074FF0000401D40AE0641C33
:1015600044450DDA8442FADB19F804100029F6D15B
:1015700006E0641C8442FCDB19F804100029F8D151
:10158000264404E019F8010B52460D999047641E59
:10159000F8D257E001CF4FF00A0B002802DA4042A0
:1015A0002D2102E0210504D52B218DF824100121E5
:1015B00003E0E10705D02021F7E70DF120090891AC
:1015C0000CE00021F9E701CF4FF00A0BF9E759468B
:1015D000FFF718FF01F1300209F8012D0028F6D1BC
:1015E000ADEB090000F1200B600701D44FF00108BA
:1015F000D84502DDA8EB0B0000E000208046002467
:1016000006E009A85246005D0D999047641C761CBF
:1016100008988442F5DB04E0302052460D9990474B
:10162000761CB8F10001A8F10108F5DC05E019F815
:10163000010B52460D999047761CBBF10001ABF1AE
:10164000010BF4DC6D1C34E709280100C41600000E
:1016500003000000020000000000000000500140F4
:1016600000000000CC160000010000000C0000008B
:10167000000000000020014000000000D41600001F
:1016800002000000040000000000000000300140E3
:1016900000000000E4160000040000000700000045
:1016A000000000000060014000000000DC160000A7
:1016B00002000000020000000000000000300140B5
:1016C00001000000454C433020200000454C4331D0
:1016D00020200000534C45442020000066757365AF
:1016E000302000004E657452737400000C17000027
:1016F00000000020280000007414000034170000CF
:1017000028000020001000008414000000000000E9
:101710000000000000000000010600118106001119
:101720008107001101080011002D31011400000093
:0417300000000000B5
:0400000500000149AD
:00000001FF
