:020000040000FA
:10000000A88601201D400000214000002340000080
:1000100025400000274000002940000000000000AB
:10002000000000000000000000000000610100006E
:100030002D40000000000000A5010000B1300000CC
:1000400033400000354000003740000039400000D8
:100050003B4000003D4000003F40000041400000A8
:100060004340000045400000474000004940000078
:100070004B4000004D4000004F4000005140000048
:100080005340000055400000574000005940000018
:100090005B4000005D4000005F40000061400000E8
:1000A00063400000654000006740000069400000B8
:1000B0006B4000006D4000006F4000007140000088
:1000C0007340000075400000774000007940000058
:1000D0007B4000007D4000007F400000051A0000CA
:1000E000631B000085400000874000000000000006
:1000F000894000008B4000008D4000008F400000D0
:100100009140000093400000954000000D19000050
:100110001119000015190000191900001D1900001F
:1001200021190000A3400000A5400000A7400000E6
:10013000A9400000AB400000AD400000AF4000000F
:10014000B1400000B3400000DFF810D006F0C6FA5E
:1001500000480047F9010000AFF30080A8860120A5
:10016000224B19680868B0E8F00F80F30988BFF3E4
:100170006F8F4FF0000080F311884EF00D0E704726
:100180000000000006480068006880F3088862B636
:1001900061B6BFF34F8FBFF36F8F00DF00BF00BFAB
:1001A00008ED00E0EFF30980BFF36F8F0F4B1A6883
:1001B00020E9F00F106008B54FF0800080F311883F
:1001C000BFF34F8FBFF36F8F01F0EAFF4FF00000D6
:1001D00080F31188BDE8084019680868B0E8F00F9E
:1001E00080F30988BFF36F8F704700BF800A00203B
:1001F000EFF305807047000003F0C6FE04480021BD
:10020000006842690846904702F0DBF8FEE700000C
:1002100054000020F8B5072126A006F08DFB00252C
:100220002A4F002605EB450007EBC0046069012852
:100230001AD00023201D07C803F010FA60690128B6
:1002400014D0009600230122A168206903F056F81B
:10025000A168206903F04DF91DA0216806F06CFB30
:100260006D1C072DDED3F8BD0123E3E700960123C3
:100270000022A168206903F041F81DA0216806F062
:100280005BFBEDE770B50024104E04EB440506EB74
:10029000C5008168006903F03EF908B11BA200E0C7
:1002A0001CA256F835101DA006F046FB641C072C56
:1002B000EBD370BD5B494F20494E49545D20256406
:1002C0002070696E733A0D0A000000008872000009
:1002D0002020257320202D3E204F5554505554206A
:1002E00028696E6974204C4F57290D0A00000000E0
:1002F0002020257320202D3E20494E505554202883
:1003000070756C6C2D7570290D0A000048494748BE
:10031000000000004C4F57200000000020202573F3
:10032000203A2025730D0A002DE9F04106460C46BF
:1003300017469846002500E0641C217801B340462A
:1003400005F056FF0028F7D11AE028466D1C47F843
:10035000204000E0641C217821B1404605F048FFB0
:100360000028F7D0207820B1002004F8010B00E02D
:10037000641C217821B1404605F03AFF0028F7D1EE
:10038000207808B1B542E0DB2846BDE8F08170B5C1
:1003900006460D46A749A8A006F0CEFA002406E0BE
:1003A00055F824202146A6A006F0C6FA641CB442E3
:1003B000F6DB002070BD10B5A6A006F0BDFA002047
:1003C00010BD70B5A6A006F0B7FA0024994D403DC7
:1003D000A9A055F8341006F0AFFA641C082CF7D326
:1003E0009EA006F0A9FA002070BDA5A006F0A4FA10
:1003F000BFF34F8FA6480168A64A01F4E06111439C
:100400000160BFF34F8FFEE770B50C464FF0FF362B
:10041000022804DAA0A006F08FFA304670BDA3A12E
:10042000606805F0F6FEA24D50B1A2A1606805F02B
:10043000F0FE70B1A0A0616806F07EFA304670BD93
:1004400028680121426811209047A3A006F074FAA1
:1004500007E028680021426811209047A1A006F01B
:100460006BFA002070BD2DE9F0410C464FF0FF37CC
:10047000032804DA9EA006F05FFA384685E7A3A1B8
:10048000606805F0C6FE50B1A1A1606805F0C1FE2C
:1004900040B1A0A0616806F04FFA384675E71A250A
:1004A000A5A601E00325A6A680A1A06805F0B1FEDF
:1004B000DFF8FC8150B17FA1A06805F0AAFE80B1F1
:1004C0007DA0A16806F038FA38465EE7D8F800004B
:1004D000012142682846904731469BA006F02CFA3D
:1004E00009E0D8F8000000214268284690473146CC
:1004F00097A006F021FA002047E710B5FFF7C2FEEB
:10050000002010BD10B595A006F016FA99480168B4
:1005100099A006F011FA01F08DFF01469CA006F0AB
:100520000BFAA1A006F008FA4CA006F005FA00208C
:1005300010BD2DE9F043ABB0A34F0026786800282A
:1005400005D001280ED07E602BB0BDE8F0839FA0BF
:1005500006F0F2F980219E4805F02DFE3E60012054
:100560007860F1E79B480121006842682AA890471B
:100570000028E9D03A68802A01DB7E60E4E79DF834
:10058000A81093480A291AD004DC08290DD009299B
:1005900004D1D9E70D2916D07F2906D0531C3B6022
:1005A00081548DA006F0C8F9CEE7002A02DD521E64
:1005B0003A608654864989A006F0BEF9C4E7002A4D
:1005C000C2D17E60C0E78654FAB1521C80496846A9
:1005D00005F0D8FD83A320AA69460A20FFF7A4FEF0
:1005E00081465FEA090012D000250024DFF844802C
:1005F000A8F14008209858F8341005F00AFE40B1E0
:10060000641C082CF6DB7DB112E07E609CE77E6006
:100610009AE712A006F090F908EBC40020A94268FE
:10062000484690470125EEE770A0209906F084F92E
:100630007E6089E77073000025730D0A00000000DA
:100640002020617267765B25645D3A2025730D0A70
:10065000000000000D0A0D0A0D0A0D0A0D0A000027
:100660000D0A3D3D3D20436F6D6D616E6473203D0D
:100670003D3D0D0A00000000202025730D0A0000FA
:100680005265626F6F74696E672E2E2E0D0A000020
:100690000CED00E00400FA0555736167653A206CC3
:1006A0006564206F6E7C6F66660D0A006F6E0000D9
:1006B000280100206F666600496E76616C69643AB5
:1006C0002025732028657870656374206F6E7C6FB9
:1006D0006666290D0A0000004C4544204F4E0D0A65
:1006E000000000004C4544204F46460D0A00000023
:1006F00055736167653A2072656C617920307C3191
:10070000206F6E7C6F66660D0A00000030000000EE
:1007100031000000496E76616C69642072656C611D
:10072000793A20257320286578706563742030201D
:100730006F722031290D0A00454C43300000000043
:10074000454C4331000000002573204F4E0D0A0038
:100750002573204F46460D0A000000000D0A3D3D5E
:100760003D2053797374656D20496E666F203D3D61
:100770003D0D0A00E80A0020202043505520436C1C
:100780006F636B203A20256420487A0D0A00000030
:1007900020205469636B2020202020203A202564EB
:1007A000206D730D0A000000202055415254202076
:1007B000202020203A203131353230302D382D4E56
:1007C0002D310D0A00000000000000200D0A3E003F
:1007D0008C0B00200C010020256300000D0A3E2533
:1007E0007300000020090A0D000000000D0A2020FF
:1007F000756E6B6E6F776E20636F6D6D616E643AB0
:100800002025730D0A00000010B5082802DB4FF008
:10081000010201E04FF0000201DBA0F108005D4B96
:100820004FF0010431B1995C04FA00F421EA0401AB
:10083000995410BD995C04FA00F441EA04019954FA
:1008400010BD10B5544C02225249206843685348E9
:10085000984720688168BDE810405048084710B5A7
:100860004E48242101602321416025218160FF221F
:100870000221484805F098FC46490020891C087070
:100880004870891C08704870091F886042480068D9
:10089000016842488847BDE81040D2E710B50146DC
:1008A0000020FFF7B1FFBDE81040CAE710B50146D0
:1008B0000F20FFF7A9FFBDE81040C2E770B506465C
:1008C000022E23D23348801C8155354AC6EBC60020
:1008D000851861B1022919D100240121285DFFF793
:1008E00093FF641C072CF8DBBDE87040A9E70024E7
:1008F0000021285DFFF788FF641C072CF8DB2549E1
:100900000020091D8855BDE870409AE770BD2DE9AB
:10091000F04700201F4FB968491CB9600024DFF878
:10092000809007F1020A07F104081AF8041001295F
:1009300025D1397AC90722D00025C4EBC40000EBC9
:1009400009060021705DFFF75FFF6D1C072DF8DBC6
:10095000002504E0705D0121FFF756FF6D1C18F8BB
:100960000400A842F6DA18F80400401CC0B208F8E7
:100970000400072802D3002008F804000120641CAA
:10098000022CD2DB002802D0BDE8F04759E7BDE8D1
:10099000F0870000200000204C0100200C0C0020FB
:1009A0007973000010B572A005F0C6FF71A005F0C4
:1009B000C3FF7BA005F0C0FF8548016885A005F056
:1009C000BBFF8AA005F0B8FF93A005F0B5FF9EA07D
:1009D00005F0B2FFABA005F0AFFF66A005F0ACFFDD
:1009E000BDE8104062A005F0A7BF0EB5AE484FF4B9
:1009F000E1370068016838468847AC4C20680068D9
:100A00008047FFF707FCAA4D0021286842681A209A
:100A100090472868002142680320904728680021F9
:100A20004268112090472868012142683820904789
:100A3000A04E3068006880479F4800680068804783
:100A40009E480068006880479D48006800688047AD
:100A5000DFF87082D8F80000016838468847DFF870
:100A60006892D9F800000168D8F800008847DFF8DC
:100A70005CA2CAF8000018B12068016994A08847F8
:100A80009D4F38680068804730680121C2680020A7
:100A9000904730680121C268084690473068416835
:100AA000002088472068016994A08847FFF77AFFF3
:100AB0009D48002100684269084690479B480021F4
:100AC00000684269084690479948002100684269D9
:100AD00008469047DAF80000002829D038684068B6
:100AE00080473868806880470028F3D038686A46B5
:100AF00001A9C36802A89847306841680120884767
:100B0000206801698BA088472068016994A0884704
:100B10002068DDE90032056999A00299A84720689C
:100B2000016984A088474FF47A7001F0AEFAD1E7EA
:100B3000206881699DA08847D9F800000168D8F82D
:100B400000008847CAF8000041F2883001F09DFAA1
:100B5000C0E71CB5A1480023006802680169CDE91F
:100B6000001281898AB241689D4801F0EBF81CBDF2
:100B70000D0A00003D3D3D3D3D3D3D3D3D3D3D3D82
:100B80003D3D3D3D3D3D3D3D3D3D3D3D3D3D3D3D95
:100B90003D3D3D3D3D3D3D3D3D3D3D3D0D0A000062
:100BA0002020537465702032313A204E6574776F7F
:100BB000726B205374617465204D616368696E6562
:100BC00020286E65745F6D616E290D0A00000000BB
:100BD000E80A0020202043505520436C6F636B20AF
:100BE0003A20256420487A0D0A0000002020554153
:100BF00052543020202020203A20313135323030FC
:100C0000206270732028646562756720636F6E735D
:100C10006F6C65290D0A0000202055415254312087
:100C2000202020203A20313135323030206270735C
:100C30002028414952373234203447206D6F647583
:100C40006C65290D0A0000002020537461636B203D
:100C5000202020203A206E65745F6D616E20E28650
:100C600092206169725F6D616E20E28692206174EC
:100C70005F64657620E286922075617274310D0A98
:100C8000000000002020536572766572202020202D
:100C90003A207777772E61726D736F632E636E3AA9
:100CA000393030320D0A00000C010020140B0020F6
:100CB000280100201C00002064010020B401002055
:100CC000280B0020D8010020580B00205C0B0020CE
:100CD0005B7461736B5F73746172745D2041495220
:100CE00037323420646576696365206372656174A8
:100CF00065640D0A00000000800B00205B6C6564D9
:100D00005F626F6172645D206368617267696E67BC
:100D100020616E696D6174696F6E207374617274A5
:100D200065640D0A0000000084000020E40000203B
:100D3000B40000205B7461736B5F73746172745DE7
:100D4000203D3D3D3D3D3D3D3D3D3D3D3D3D3D3DF0
:100D50003D3D3D3D3D3D3D3D3D3D3D3D0D0A0000A0
:100D60005B7461736B5F73746172745D204E657444
:100D7000776F726B205245414459210D0A000000E3
:100D80005B7461736B5F73746172745D2050686132
:100D900073653D256420537465703D25642052655C
:100DA000636F6E6E3D25640D0A0000005B74617315
:100DB0006B5F73746172745D2061697237323420C5
:100DC0006973204E554C4C2C2072657472792063E7
:100DD00072656174652E2E2E0D0A000050000020F1
:100DE000EB090000002401F025FB05464FF4FA78DA
:100DF000174E184F01F01EFB411B41450DD3054610
:100E00001CB100241CB1012102E00124FAE70021F9
:100E100011480068426811209047FFF78AFB30684C
:100E200040688047386800698047022001F02DF94A
:100E3000E0E71CB509480023006802680169CDE9B4
:100E4000001281898AB24168054800F07BFF1CBD11
:100E5000140B00201C00002028010020800000202E
:100E6000E50D00000B48006801690BA0884764206D
:100E700001F00BF9FBE71CB50F480023006802687E
:100E80000169CDE9001281898AB241680B4800F0FE
:100E900059FF1CBD140B00205B6374726C5D2072E3
:100EA000756E6E696E672028706C616365686F6C23
:100EB000646572290D0A0000B0000020650E000074
:100EC00015480068016915A088471F4C1F4D204E2A
:100ED00020684068804728684068804720688068AC
:100EE000804738B10020316889688847052001F0C3
:100EF000CCF8EDE70120F6E71CB5164800230068A2
:100F000002680169CDE9001281898AB241681248FC
:100F100000F018FF1CBD0000140B00205B6C69730F
:100F200074656E5D2066757365202B20484C5738BC
:100F3000303132206D65746572696E672072756E2E
:100F40006E696E670D0A0000B40100206401002084
:100F50001C000020E0000020C10E0000434A0146B2
:100F60004348126800685268104710B53F4A404C29
:100F7000014612686068136801229847002801DD65
:100F8000012010BD0020A06010BD38B5384CA0680D
:100F9000002810D13548012269460068036860685E
:100FA0009847002807DD0120A06032480068C16929
:100FB0009DF80000884738BD70B505462B4E306857
:100FC000C06880472A4C20603068C06880476060F5
:100FD0002168A1B198B10020A060264C2068416929
:100FE0002548884720688169244888472068016827
:100FF0002846884720684068BDE870400047FEE703
:10100000CAB21A4909680B680146194800681847AE
:101010002DE9F04105460E460024144FDFF85080BC
:1010200006E03868295D4268D8F804009047641CDF
:10103000B442F6DBBDE8F041A7E710B50B4A014624
:101040000B481268406852689047BDE810409CE722
:1010500006480068816806480068084710B50446DD
:10106000E0B2FFF7EAFF204610BD00003C0100207F
:10107000EC000020480A00205D0F00006B0F00000C
:101080000D490968096808470B4A126852681047F9
:10109000094A12689268104730B4074C2468E46823
:1010A000A44630BC60470449096809690847024AF8
:1010B0001268526910470000140A002070B50346F8
:1010C000002003F108050BE0D3E90064B44209D025
:1010D000645D0C549C88641CC4F309045C60401C6F
:1010E0009042F1DB70BD10B502684468531CC3F335
:1010F0000903A34207D000F10803D1540188491C19
:10110000C1F30901016010BD002101604160704719
:1011100010B54FF4816002F030F8002802D00021B1
:101120000160416010BD000008B50021009102E09F
:101130000099491C009100998142F9DB08BD2DE915
:10114000F04105460E460024314FF10928683A68FF
:10115000526890477006060E396868684A68002130
:1011600090471420FFF7E0FF396868684A6801215A
:1011700090471420FFF7D8FF641C082CE5DBBDE87E
:10118000F08170B50446224D206829688A680021E4
:101190009047296860688A68002190472968A0689C
:1011A0008A6800219047296820684A680021904792
:1011B000296860684A68012190472968A0684A68E0
:1011C000BDE870400121104770B506460D46002A63
:1011D00009D0541E002C06DB295D3046FFF7AFFF17
:1011E000641E002CF8DA70BD70B50446084DA06886
:1011F00029684A68002190473220FFF795FF296847
:10120000A0684A6801219047BDE8704032208BE712
:101210002801002010B50468022C0BD2594850F860
:101220002410491C40F8241001F007F955490831F1
:1012300041F8240010BD2DE9F05F0024DFF844B12F
:10124000DFF844A1514DA0460BF110095AF8246073
:101250004BF824804B48083040F8248049F824405B
:1012600028680221826830469047286809EB840389
:10127000474AC76801213046B847286801214269BA
:1012800030469047641C022CE0DB4248006801694C
:10129000BDE8F05F40A008472DE9F04701F0CAF82B
:1012A00081460024374E3B4D40F6B837083656F895
:1012B000240060B156F82400A9EB0000B84206D320
:1012C0002868214602693FA0904746F82490641C94
:1012D000022CECDB2B4E41F28831103E4FF000081F
:1012E000306806F10807A9EB0000884218D3C6F859
:1012F00000900024DFF88C9059F8242049F82480CD
:1013000057F82400104447F8240028682146036950
:101310003CA09847641C022CEEDB7068401C706097
:1013200070680C280ED30024286857F82420214622
:1013300003693DA0984747F82480641C022CF3DB26
:10134000C6F80480BDE8F087022801D3002070476A
:101350000C4A52F82010002342F82030084670470B
:10136000022801D300207047064951F82000704739
:10137000022801D3002070470249083151F82000AB
:1013800070470000780100208873000028010020C9
:1013900015120000140B00205B686C773830313276
:1013A0005D20696E697420646F6E652C2032207236
:1013B0006F61647320636F6E666967757265640D33
:1013C0000A0000005B686C77383031325D20726F44
:1013D00061642025643A206E6F2070756C736520FF
:1013E000666F722033732C20736F636B6574206D8E
:1013F000617920626520756E706C75676765640D34
:101400000A0000005B686C77383031325D20726F03
:1014100061642025643A20256C752070756C7365B5
:10142000732F35730D0A00005B686C7738303132EA
:101430005D20726F61642025643A20256C752070F0
:10144000756C7365732F6D696E0D0A0010B52F48AA
:10145000022100688268152090472D4800214160D4
:101460008160C1603222026101700121416129481D
:1014700000680169BDE8104027A0084770B500F07A
:10148000D9FF0446224D686900283BD0B4F5FA6FB5
:1014900038D3A868201A052834D3AC601B480068EC
:1014A00001681520884729780122002679B1012991
:1014B00011D02E70E868201AB0F57A7F22D3EC6044
:1014C000296914480A2913D26B685BB118E0002817
:1014D000F0D12A70EEE70128ECD12E702869401C6B
:1014E0002861E7E76A600068026913A0904707E097
:1014F0006A68012A04D16E600068026917A09047EB
:101500002E612E7070BD024840687047280100208F
:1015100090010020140B00205B667573655D2069E7
:101520006E697420646F6E652C2070696E3D433265
:10153000283231290D0A00005B667573655D204213
:10154000524F4B454E212070756C73653D256C756F
:101550002F736563203C2031300D0A005B66757384
:10156000655D207265636F76657265642C207075A9
:101570006C73653D256C752F7365630D0A00000063
:101580003F4A01463F48126800685268104710B54C
:101590003B4A3C4C01461268606813680122984738
:1015A000002801DD012010BD0020A06010BD38B56D
:1015B000344CA068002810D13148012269460068E7
:1015C000036860689847002807DD0120A0602E4866
:1015D0000068C1699DF80000884738BD70B50546B0
:1015E000274E3068C0688047264C20603068C0684D
:1015F000804760602168A1B198B10020A060224CB2
:1016000020684169214888472068816920488847C7
:10161000206801682846884720684068BDE8704017
:101620000047FEE7CAB2164909680B68014615482B
:10163000006818472DE9F04105460E460024104F7A
:10164000DFF8408006E03868295D4268D8F8040079
:101650009047641CB442F6DBBDE8F041A7E710B543
:10166000074A014607481268406852689047BDE83B
:1016700010409CE7024800688168024800680847FB
:101680003C010020B80100207C0A002081150000E8
:101690008F150000412801D300207047A14901EBBC
:1016A000401081680029F8D10020704710B5FFF77D
:1016B000F1FF28B1C1688068BDE8104001F02BBF80
:1016C000002010BD10B50C46FFF7E4FF00280CD039
:1016D0002CB1C1688068BDE8104001F002BFC1684C
:1016E0008068BDE8104001F004BF10BD38B50D465C
:1016F000FFF7D0FF002200230024002812D0052D80
:1017000010D2DFE805F0030A05070900012204E012
:10171000012302E0012400E001220094C1688068F6
:1017200001F0ECFD38BD70B50E4614461D46FFF7BE
:10173000B1FF20B18461C5614661002070BD4FF0EA
:10174000FF3070BD10B5FFF7A5FF20B1002181610A
:10175000C161002010BD4FF0FF3010BDF8B50E463E
:10176000FFF798FF044620004FF0FF3213D0012509
:10177000012E12D094F9100000F01F018D40400995
:10178000800000F1E020C0F88051D4E9020101F0AE
:1017900069FD0020F8BD1046F8BD616900200529EB
:1017A00054D2DFE801F003101D2A37000095D4E978
:1017B000020100231A4601F0A1FDD4E90201012231
:1017C00001F056FD32E00090D4E90201012300222D
:1017D00001F094FDD4E90201002201F049FD25E069
:1017E0000095D4E902010123002201F087FDD4E92C
:1017F0000201022201F03CFD18E00095D4E902014B
:1018000000231A4601F07AFDD4E90201112201F009
:101810002FFD0BE00090D4E902010123002201F02A
:101820006DFDD4E90201102201F022FD94F91000AF
:1018300000F01F018D404009800000F1E020C0F859
:101840000051D4E9020101F045FDA2E71046F8BDC0
:101850002DE9F0413449884201D1002117E0334994
:10186000884201D1012112E03149884201D102218F
:101870000DE03049884201D1032108E02E49884219
:1018800001D1042103E02D4988423DD105212C4A94
:10189000A2F5A87652F82130CBB9012342F82130C5
:1018A0000022204FC1EBC10406EBC40507EB431433
:1018B000D4F808C0844507D1D4F800C01446521C9F
:1018C00045F824C00E2A02DA5B1C412BEEDB002512
:1018D000C1EBC10006EBC00656F8250088B1FFF742
:1018E000D9FE044620000CD0D4E9020101F0F8FC36
:1018F00038B1D4E9020101F0FDFCA16909B1E06948
:1019000088476D1C0E2DE7DBBDE8F08106489FE798
:1019100006489DE706489BE7064899E7064897E78B
:10192000064895E7DC01002000100140002001403E
:101930000030014000500140006001400080014043
:10194000680D00201FB504460123642202210020F7
:1019500001F084FE002364220321184601F07EFE7C
:10196000009400208DF804008DF805008DF8060025
:1019700007218DF8071001218DF808108DF8090056
:101980008DF80A00FF208DF80B008DF80C106946C9
:10199000404802F07EF81FBD3E4802F050B93D4875
:1019A00002F072B810B53B4C0146204602F04CF9EB
:1019B000204602F055F90028FAD110BD354802F052
:1019C0004FB935490860704733494860704710B5D2
:1019D000304C0146204602F037F9606840F00400C0
:1019E000606010BD2B48416821F0040141607047E0
:1019F00080212A4A002802D0C2F800117047C2F89C
:101A0000801170477CB5234D1021284602F0C1F9A2
:101A1000214C48B90DE001A902F018F920B921685C
:101A200011B10198C0B28847E9682846C9B20129B6
:101A3000F1D84FF48041284602F0ABF950B90EE0DE
:101A400001A9284602F002F920B9216811B10198D4
:101A5000C0B28847284602F008F90028F0D00421D7
:101A6000284602F096F9002801D0606848B97CBD8C
:101A700061686846884750B19DF80010284602F01A
:101A8000E3F8284602F0F6F80028F1D07CBDFFF715
:101A9000A9FF7CBD00000240180A002004E000E01D
:101AA0001FB50446012365220421002001F0D6FD64
:101AB000002365220521184601F0D0FD0094002086
:101AC0008DF804008DF805008DF8060007218DF8CB
:101AD000071001218DF808108DF809008DF80A0013
:101AE000FF208DF80B008DF80C106946414801F07D
:101AF000D0FF1FBD3F4802F0A2B83E4801F0C4BF6E
:101B000010B53C4C0146204602F09EF8204602F0FB
:101B1000A7F80028FAD110BD364802F0A1B836491E
:101B20000860704734494860704710B5314C014631
:101B3000204602F089F8606840F00400606010BD43
:101B40002C48416821F00401416070472B4A4FF452
:101B50008071002802D0C2F800117047C2F88011CD
:101B600070477CB5234D1021284602F012F9224C13
:101B700048B90DE001A902F069F820B9216811B156
:101B80000198C0B28847E9682846C9B20129F1D84E
:101B90004FF48041284602F0FCF850B90EE001A94C
:101BA000284602F053F820B9216811B10198C0B25B
:101BB0008847284602F059F80028F0D0042128462A
:101BC00002F0E7F8002801D0606848B97CBD616880
:101BD0006846884750B19DF80010284602F034F856
:101BE000284602F047F80028F1D07CBDFFF7A8FF97
:101BF0007CBD0000001002404C0A002004E000E020
:101C000070B50024FE4D04EB840005EB800001F06C
:101C1000C6F9641C052CF6D3F948643001F0BFF90D
:101C2000F748783001F0BBF9F5488C3001F0B7F98E
:101C3000F348A03001F0B3F9F148B43001F0AFF946
:101C4000EF49F048643141631431816370BD70B570
:101C5000044601F018FAEB4DA868401CA8602868FB
:101C600010B1686938B10CE02C60A868012808D16F
:101C7000FFF7C6FF05E02868E16AC06A884200D81D
:101C80002C60686A401C6862E06A01212A69814010
:101C900011432961DA4900EB800001EB8000211D2E
:101CA00001F08BF901F0FBF9686900280CD0286875
:101CB000E16AC06A884207D2D3494FF08050086079
:101CC000BFF34F8FBFF36F8F70BD2DE9F047814693
:101CD000DDE908560A9C9846521E206B00EB8200F4
:101CE00020F00707002023180A5C83F834200A5CE0
:101CF00012B1401C1028F6D34FF0000A84F843A01C
:101D0000052D00D30425E5626564C4F848A0201DB4
:101D100001F050F904F1180001F04CF92461C5F10B
:101D20000500A0616462C4F84CA084F850A042464B
:101D30004946384601F080F92060002E00D034601A
:101D4000BDE8F0872DE9FF5F8146DDE90E788A4620
:101D500016469B46B00001F010FA054628000AD04E
:101D6000542001F00AFA04460CB1256304E0284629
:101D700001F04DFA00E000248CB10020CDE90240D2
:101D8000CDE900785B46324651464846FFF79DFF55
:101D90002046FFF75CFF012004B0BDE8F09F4FF044
:101DA000FF30F9E79748416B0968002905D0416B7E
:101DB000C968C9684968816270474FF0FF31816224
:101DC000704710B50446206B01F021FA2046BDE8AB
:101DD000104001F01CBA70B5044601F054F9894D69
:101DE00004B92C68201D01F00CF958B9E06A844A46
:101DF00000EB800152F8211021B9012181402869AE
:101E000088432861A06A18B104F1180001F0F9F8BC
:101E1000686A401C68622868844208D17848211D9D
:101E2000A03001F0CAF86868401C686007E0A86844
:101E3000401EA8602046FFF7C4FFFFF7B3FF01F084
:101E40002EF9686900280AD02868844207D16E49B3
:101E50004FF080500860BFF34F8FBFF36F8F70BD9E
:101E60002DE9F0410026674F386B002808D0B8698B
:101E7000401CB861F86900B101263046BDE8F08128
:101E8000FD686D1CFD6045B9786BB96B7963B8630B
:101E9000386A401C3862FFF785FFB86ADFF8608156
:101EA00085420DD3786B006838B1786BC068C46820
:101EB000606885420ED2B86202E04FF0FF30B8622F
:101EC0003868C06A00EB800058F820000128D1D99A
:101ED0000126CFE7201D01F094F8A06A18B104F1A3
:101EE000180001F08EF8E06A01213A69814011433F
:101EF000396100EB800008EB8000211D01F05DF8E6
:101F0000E06A3968C96A8842CCD30126CAE72DE95C
:101F1000F0410024002701F0B6F83A4D286B401E2E
:101F20002863286BF0BBA868E0B3DFF8D4800126F3
:101F300008F18C081DE0D8F80C00C46804F1180002
:101F400001F05FF8201D01F05CF8E06A2A6906FAEA
:101F500000F1114329612A4900EB800001EB800068
:101F6000211D01F02AF8E06A2968C96A884200D375
:101F7000EE61D8F800000028DDD10CB1FFF712FFA8
:101F8000AC6944B1FFF76CFF00B1EE61641E002C38
:101F9000F8D10020A861E86920B101271A49380763
:101FA000086000E003E0BFF34F8FBFF36F8F01F0D5
:101FB00076F8384662E72DE9F04104460F46114EA7
:101FC000F5683068001D01F01CF838B9306890F8E9
:101FD0002C1001208840316981433161601C08D197
:101FE0003FB13168BDE8F0410548091DB43000F04B
:101FF000E4BF2C4430684460AC420DD2316805E047
:10200000800D0020800A002004ED00E0B06B091D67
:10201000BDE8F04100F0DDBF3168706B091D00F0D4
:10202000D8FFB06A844200D2B46227E7FB48016B54
:10203000491C0163704770B505460E460023FFF743
:10204000F5FFF648C2682C68A119944205D98C4264
:1020500008D9914206D9012304E08C4201D891426B
:1020600000D9012329601BB1881A0021FFF7A3FFC3
:10207000FFF74DFF002807D1E9494FF08050086075
:10208000BFF34F8FBFF36F8F70BD10B502460020B6
:10209000002A07D0FFF7CAFF00211046FFF78BFF89
:1020A000FFF735FF002807D1DD494FF08050086069
:1020B000BFF34F8FBFF36F8F10BD10B5044600F014
:1020C000E2FF0CB9D5480468E46A00F0E8FF204656
:1020D00010BD8022EFF3118182F31188BFF34F8F7F
:1020E000BFF36F8F002801D1CC480068C06A81F32C
:1020F000118870472DE9F04104460D460026052D54
:1021000000D3042500F0BFFFC44F04B93C68606CE5
:10211000A84241D0854208D939688C4209D0396833
:10212000C96AA94205D8012603E039688C4200D16A
:102130000126D4F82C80404500D1E5626564A06991
:10214000002802DBC5F10500A061B64D08EB88014F
:10215000606905EB8101884215D1201D00F051FF17
:10216000012120B93A6901FA08F082433A61E06A34
:102170003A6981401143396100EB800005EB800032
:10218000211D00F01AFF3EB1A5494FF080500860B4
:10219000BFF34F8FBFF36F8FBDE8F04100F07FBFFB
:1021A0009E4A106B002802D00120D06170470020A9
:1021B000D0611069B0FA80F0C0F11F00994900EBBE
:1021C000800001EB800041684968416000F108032C
:1021D000994201D1496841604068C0681060704709
:1021E00070B5044600F04FFF8C4D04B92C68201DDB
:1021F00000F007FF58B9E06A8A4A00EB800152F804
:10220000211021B901218140286988432861A06AF1
:1022100018B104F1180000F0F4FE8248211DB4301A
:1022200000F0CBFE00F03BFF686928B100F02BFF07
:10223000FFF7B8FD00F033FF2868844209D16869D0
:1022400040B177494FF080500860BFF34F8FBFF324
:102250006F8F70BD7348A968B4300068884202D19E
:102260000020286070BDBDE8704099E700216D4BEB
:102270004269B4339A4206D1806AA3F1280290429F
:1022800001D000B901210846704770B50446002C02
:102290002BD0624D2868844227D000F0F4FE2046FF
:1022A000FFF7E4FFE8B1201D00F0ABFEE06A01217A
:1022B0002A698140114329615A4900EB800001EBF2
:1022C0008000211D00F079FEE06A2968C96A884211
:1022D00007D353494FF080500860BFF34F8FBFF3CF
:1022E0006F8FBDE8704000F0DABE70BD2DE9F0419F
:1022F000044600268020EFF3118580F31188BFF398
:102300004F8FBFF36F8F2046FFF7B0FF40B1434FB1
:10231000386B48B1434804F118018C3000F04DFE91
:1023200085F311883046A9E5E06A3968C96A8842B0
:1023300000D30126201D00F064FEE06A01213A6905
:10234000814011433961374900EB800001EB800087
:10235000211D00F032FEE3E770B5324E2F4DA0365E
:102360001CE0FFF763FE306820B10024FFF7CFFDCB
:10237000A4B901E00124F9E700F085FEF068C46823
:10238000201D00F03EFEA868401EA8606868401E40
:10239000686000F084FE2046FFF713FD686800289F
:1023A000DFD170BD1F4E4FF080541D4DFFF7D4FF9D
:1023B00030680128FAD92C60BFF34F8FBFF36F8FBD
:1023C000F4E71CB5154800242C30CDE90040234625
:1023D000802215A11648FFF7B5FC012811D18020F5
:1023E00080F31188BFF34F8FBFF36F8F0B484FF00F
:1023F000FF31816201214161C460BDE81C4000F0F1
:102400002EBE1CBD802080F31188BFF34F8FBFF319
:102410006F8F02490020486100F034BE800A00201E
:1024200004ED00E0800D002049444C450000000010
:10243000A5230000FC48C0687047FB48C06870478F
:10244000F94880687047002801D1F74800683430A7
:10245000704710B50C46F4490968183100F0B9FD11
:102460002046BDE810400121A5E570B5154641F0B4
:102470000043ED490C68A3610968183100F09DFD27
:102480002846BDE87040012195E52DE9F041C0687E
:10249000C46804F11800074600F0B3FDE24D2A6B52
:1024A00001265AB13946E14800F087FDE06A296803
:1024B000C96A884215D90120EE61DFE4201D00F0D1
:1024C000A0FDE06A2A6906FA00F111432961D749A3
:1024D00000EB80008C3901EB8000211D00F06DFDC8
:1024E000E4E70020CAE470B541F000410160C4682F
:1024F00000F087FD201D00F084FDCB4DE06A012631
:102500002A6906FA00F111432961C84900EB8000ED
:102510008C3901EB8000211D00F04FFDE06A296835
:10252000C96A884202D90120EE6170BD002070BDE9
:10253000BD490A6A0260C9684160704770B50446C7
:102540000D4600F0A0FDB849C8682A68531C08D0A1
:102550002368096A8B4206D06168814203D801244E
:102560000DE000240BE06168401A904206D2101A78
:1025700028602046FFF7DCFF002400E0012400F083
:102580008EFD204670BDA8490120C8617047A6484D
:102590000068704770B5044600283AD0A24DE06A42
:1025A0002968C96A884234D2A069002804DB2868F7
:1025B000C06AC0F10500A061E06A9C4E00EB80009B
:1025C0008C3E616906EB800081421FD1201D00F026
:1025D00018FD012150B9E06A00EB800256F8222074
:1025E00022B92A6901FA00F082432A612868C06A88
:1025F000E0622A6981401143296100EB800006EB0B
:102600008000211DBDE8704000F0D7BC2868C06A7A
:10261000E06270BD70B504460020002C2DD0A16C86
:10262000491EA164636CE26A9A4226D0002924D133
:10263000201D00F0E6FC7D4A7B498C3A012350B90D
:10264000E06A00EB800552F8255025B90D6903FAC0
:1026500000F085430D61606CE062C0F10500A0618F
:10266000E06A0D6983402B430B6100EB800002EBB5
:102670008000211D00F0A1FC012070BD6A4908689E
:1026800080690A680968D26AC2F105028A617047E6
:1026900065490868002803D00868826C521C82646F
:1026A0000868704770B506460C4600F0ECFC5E4DBD
:1026B0002868C06C80B92A68012082F850005CB19B
:1026C00001212046FFF777FC59494FF08050086000
:1026D000BFF34F8FBFF36F8F00F0E1FC00F0D3FC2E
:1026E0002868C46C002034B116B12968C86402E0BF
:1026F0002A68611ED164296881F8500000F0CFFC7F
:10270000204670BD2DE9F04781460F461646984693
:1027100000F0B9FC444D286890F85000022817D00A
:102720002C68E06C20EA0900E0642968012081F847
:102730005000B8F1000F0BD001214046FFF73BFCE1
:102740003B494FF080500860BFF34F8FBFF36F8F4E
:1027500000F0A5FC00F097FC16B12868C06C306052
:10276000286890F8500001280DD02868C16CB94342
:10277000C16401242968002081F8500000F08FFC1A
:102780002046BDE8F0870024F4E72DE9F041044637
:102790000D4690461F46012600F075FC0FB1E06C17
:1027A000386094F85000022184F85010B8F1050FF9
:1027B00013D2DFE808F01203070B0D00E16C294388
:1027C000E1640AE0E16C491CE16406E0E56404E0D0
:1027D000022801D0E56400E0002601281FD1201D59
:1027E00000F00FFC104DE06A01212A69814011437D
:1027F00029610E4900EB80008C3901EB8000211D1E
:1028000000F0DBFBE06A2968C96A884207D90849F9
:102810004FF080500860BFF34F8FBFF36F8F00F011
:102820003EFC30467FE50000800A00200C0E0020B0
:1028300004ED00E02DE9F0470446089F01268020C2
:10284000EFF3118580F31188BFF34F8FBFF36F8FC4
:10285000002B01D0E06C186094F85000022384F83B
:102860005030052A13D2DFE802F01203070B0D00E7
:10287000E26C0A43E2640AE0E16C491CE16406E0B0
:10288000E16404E0022801D0E16400E000260128B0
:102890002CD1DFF81481D8F830004FF0010970B165
:1028A00004F11801414800F088FBE06AD8F80010F4
:1028B000C96A88421AD9BFB1C7F8009016E0201D36
:1028C00000F09FFBE06AD8F8102009FA00F11143EC
:1028D000C8F8101000EB800134488C3800EB810000
:1028E000211D00F06AFBE0E7C8F81C9085F3118811
:1028F000304646E72DE9F041044688468020EFF354
:10290000118780F31188BFF34F8FBFF36F8F94F857
:102910005010022084F85000E06C401CE064012953
:1029200027D1214D286B012678B104F118011F48E9
:1029300000F043FBE06A2968C96A884219D9B8F1F6
:10294000000F15D0C8F8006013E0201D00F059FBFF
:10295000E06A2A6906FA00F111432961134900EB84
:1029600080008C3901EB8000211D00F026FBE1E79F
:10297000EE6187F31188D6E410B500280BD0044629
:1029800000F081FB94F85000022807D0002400F0EA
:1029900086FB204610BD04480468F1E7002084F857
:1029A00050000124F3E70000800A00200C0E0020F4
:1029B00070B504460D4600F066FBD4E90F1220689E
:1029C00001FB020060600020A0632068A060E06B53
:1029D000226C2168401E00FB0210E0604FF0FF30C7
:1029E00084F8440084F8450004F110004DB100F073
:1029F000D6FA04F1240000F0D2FA00F050FB0120D6
:102A000070BD21690029F8D0FFF73FFD0028F4D000
:102A1000FC494FF080500860BFF34F8FBFF36F8FBA
:102A2000EBE703460098002904D00260C363016409
:102A30000121BDE70060F9E7F8B506460D461746E7
:102A4000002D10D006FB05F0483000F096FB044640
:102A50003CB104F148023B46294630460094FFF75A
:102A6000E0FF2046F8BD0020EEE72DE9F0410446E6
:102A700000F009FB94F9455004F1240609E0606A6E
:102A800048B13046FFF701FD08B1FFF77CFD6D1E30
:102A90006DB2002DF3DC4FF0FF3684F8456000F096
:102AA000FEFA00F0F0FA94F9445004F1100709E03E
:102AB000206948B13846FFF7E8FC08B1FFF763FD2D
:102AC0006D1E6DB2002DF3DC84F84460BDE8F0416A
:102AD00000F0E5BA10B5044600F0D5FAA06BE16B42
:102AE000884201D1012400E0002400F0D8FA2046F9
:102AF00010BD2DE9F041044617460026A56B226C57
:102B0000002A10D0C7B1E06803F03CFBE168206CFC
:102B1000091AE1602268914202D26168081AE060F5
:102B2000022F16D017E02068A8B96068FFF772FD81
:102B30000646002060600EE0A06803F023FB216CD5
:102B4000A0680844A0606168884204D32068A0603F
:102B500001E005B16D1E6D1CA5633046BDE8F08136
:102B60002DE9FF4782B004468A4699460025A846CB
:102B70004FF08056A34F00F086FAA06BE16B8842BD
:102B800006D3B9F1020F03D00498F8B115B325E0CC
:102B90004A4651462046FFF7ACFF616A51B104F145
:102BA0002400FFF772FC58B13E60BFF34F8FBFF3B4
:102BB0006F8F05E020B13E60BFF34F8FBFF36F8F83
:102BC00000F06DFA012006B0BDE8F08700F067FA6A
:102BD0000020F8E76846FFF7ABFC012500F05FFA3C
:102BE000FFF724FA00F04FFA94F94400401C01D199
:102BF00084F8448094F94500401C01D184F8458054
:102C000000F04DFA04A96846FFF798FC30B1204661
:102C1000FFF72BFFFFF77BF90020D4E72046FFF7F3
:102C200059FF88B104F110000499FFF712FC204607
:102C3000FFF71BFFFFF76BF900289CD13E60BFF345
:102C40004F8FBFF36F8F96E72046FFF70EFFFFF71A
:102C50005EF990E7002807D0002141600160C16063
:102C600000231A4619467BE7704710B5024600213B
:102C70000120FFF7E1FE04462046FFF7EBFF204668
:102C800010BD2DE9F041174604461A468020EFF3A7
:102C9000118680F31188BFF34F8FBFF36F8FA06B46
:102CA000E36B984205D3022A03D0002086F31188F3
:102CB00054E794F945502046FFF71BFF681C04D0E9
:102CC0006D1C84F845500120F0E7606A0028FAD0B6
:102CD00004F12400FFF7D9FB0028F4D0002FF2D034
:102CE00001203860EFE770B50D468021EFF31184C5
:102CF00081F31188BFF34F8FBFF36F8F836BC16B6D
:102D0000994217D990F945205B1C8363511C04D06C
:102D1000521C80F8452001200DE0416A0029FAD0BC
:102D20002430FFF7B2FB0028F5D0002DF3D00120AE
:102D30002860F0E7002084F3118870BD10B50446C8
:102D400000F0A1F9A06B20B1002400F0A8F9204602
:102D500010BD0124F9E730B40B46026C002A0CD0F8
:102D6000C1681144C1604468A14201D30168C160D7
:102D7000C16830BC184603F005BA30BC70472DE975
:102D8000FF4F83B004468B469A460026B1464FF06B
:102D90008057DFF8708000F076F9A56BA5B3E66880
:102DA00059462046FFF7D7FFBAF1000F13D0E6606F
:102DB000606A50B104F12400FFF767FB28B1C8F83E
:102DC0000070BFF34F8FBFF36F8F00F068F90120E1
:102DD00007B0BDE8F08F6D1EA563206810B9FFF73E
:102DE00057FC606020690028EFD004F11000FFF765
:102DF0004CFB0028E9D0C8F80070BFF34F8FBFF339
:102E00006F8FE2E704ED00E0FFE7059808B126B117
:102E100007E000F044F90020DAE701A8FFF788FB9B
:102E2000012600F03CF9FFF701F900F02CF994F9C4
:102E30004400401C01D184F8449094F94500401CA2
:102E400001D184F8459000F02AF905A901A8FFF7FF
:102E500075FB58B12046FFF708FEFFF758F82046EB
:102E6000FFF76CFF002896D00020B1E72046FFF75F
:102E700065FFE0B1206830B900F005F96068FFF740
:102E800089FB00F00CF904F124000599FFF7E1FA41
:102E90002046FFF7EAFDFFF73AF800287FF47BAF02
:102EA000C8F80070BFF34F8FBFF36F8F73E72046F2
:102EB000FFF7DBFDFFF72BF86DE72DE9F041044646
:102EC00090468020EFF3118780F31188BFF34F8F76
:102ED000BFF36F8FA66B002E1DD094F9445020468F
:102EE000FFF739FF761EA663681C04D06D1C84F8BA
:102EF0004450012010E020690028FAD004F11000AD
:102F0000FFF7C3FA0028F4D0B8F1000FF1D0012088
:102F1000C8F80000EDE7002087F311881EE670B5C1
:102F200004468020EFF3118580F31188BFF34F8FA3
:102F3000BFF36F8FA06B002806D0E6682046FFF72E
:102F40000AFFE660012000E0002085F3118870BDD3
:102F500010B5044600F097F8A46B00F0A0F82046E6
:102F600010BD10B5044600F08EF8D4E90E10441AD6
:102F700000F095F8204610BD806B704700F047B90F
:102F8000806B002801D00020704701207047816BC2
:102F9000C06B814201D1012070470020704700F1D1
:102FA000080141604FF0FF328260C1600161002181
:102FB0000160704700210161704742684A60936870
:102FC0008B6093685960916008610168491C0160D9
:102FD000704730B50C68621C02D000F1080202E0B4
:102FE000026904E01A4653681D68A542FAD953687D
:102FF0004B6099608A60516008610168491C0160FA
:1030000030BD0169D0E901329A60D0E901235A60EC
:103010004A68824201D182684A60002202610868DF
:10302000401E086070470000802080F31188BFF3C5
:103030004F8FBFF36F8FFEE720384FF08073C3616F
:1030400021F0010181612449416140F82029704744
:103050004FF0E0202149416107210161704710B51F
:103060001F48016841F47F010160016841F07F4120
:103070000160FFF7EDFF1B4900200860FDF782F8B3
:10308000002010BD7047802080F31188BFF34F8F60
:10309000BFF36F8F13480168491C016070471149E5
:1030A0000868401E0860002801D180F3118870472D
:1030B00010B5802080F31188BFF34F8FBFF36F8F5F
:1030C000FEF7CEFE20B106494FF080501C39086053
:1030D000002080F3118810BD29300000FFAF0100EF
:1030E00020ED00E0BC0A002030B55C4900E011464C
:1030F0000A688242FBD34B685C18844203D1406863
:103100001844486008460D6844682318AB420DD146
:10311000524B103B1B689A4206D0526822444260D0
:103120000A681268026002E0036000E00260814207
:1031300000D0086030BD4FF4B4314948420706D092
:10314000C01D20F007004649411AC1F5B431434A79
:103150001060002353600144083921F00701103A40
:1031600011604B600B600B1A436001604068906017
:1031700050604FF00040D06070472DE9F0410546A7
:103180000026FEF753FF354F103F386808B9FFF7A8
:10319000D2FFF868054235D13DB10835680704D043
:1031A00005F00700C0F1080005445DB3786885426A
:1031B00028D82A490846046801E021460446606888
:1031C000A84202D220680028F7D13868844219D07A
:1031D0000E680836206808606068411B102904D911
:1031E000601941606560FFF77FFF61687868401A89
:1031F0007860BA68904200D2B860F86801436160B4
:1032000000202060FEF783FE3046BDE8F08170B5F7
:10321000002819D008380446104D6068103DE96850
:10322000084211D02268002A0ED188436060FEF760
:10323000FDFE60686968084468602046FFF754FF37
:10324000BDE87040FEF763BE70BD044810384068AA
:10325000704702481038806870477047D00A0020D5
:10326000480E0020426901238B409A434261704717
:1032700070B504460E46154631462046FFF7F2FF6C
:10328000EA064FF0010000FA06F00CD5A1680143F0
:10329000A160E90703D021690143216118E0216998
:1032A0008143216114E0A1688143A160A90703D58E
:1032B000E1680143E1600BE0E1688143E160E90717
:1032C00003D021690143216102E021698143216129
:1032D000206270BD426901238B401A4342617047EE
:1032E000C069C84000F0010070478069C84000F024
:1032F0000100704701228A40026270472DE9F047C1
:103300001646DDF820801F46DFF8AC920124AB4D55
:103310008C40A0EB09034FF4805C4FF0804248459D
:1033200076D01FDCA64BC01838D0604558D0B0F519
:10333000005F15D1906840F00400906001230022E6
:10334000022000F08BF99F48012E6CD04168A14308
:103350004160012F6BD0D5F81002A043C5F81002D0
:10336000BDE8F08763457DD0B3F5405FF8D1906844
:1033700040F40010906001230022052000F06EF957
:103380009148012E6FD04168A1434160012F6BD05D
:10339000D5F83002A043C5F83002E1E7906840F06C
:1033A0000100906000220123104600F057F9844884
:1033B0004042012E0AD04168A1434160012F09D04B
:1033C000D5F80002A043C5F80002C9E741682143CF
:1033D0004160F3E7D5F800022043C5F80002BFE7DB
:1033E000906840F00200906001230022184600F02F
:1033F00035F97648012E0CD04168A1434160B8F1FF
:10340000010F0AD0D5F80003A043C5F80003A7E7D1
:1034100013E0416821434160F1E7D5F80003204300
:10342000C5F800039CE741682143416091E7D5F866
:1034300010022043C5F8100292E7906840F0100097
:10344000906001230022032000F008F9012E10D023
:10345000D9F80400A043C9F80400012F0FD0D5F813
:10346000200202E011E032E035E0A043C5F820027E
:1034700076E7D9F804002043C9F80400EDE7D5F851
:1034800020022043C5F820026AE7906840F020003F
:10349000906001230022042000F0E0F84C48012E47
:1034A0000BD04168A1434160B8F1010F09D0D5F8B4
:1034B0002003A043C5F8200352E74168214341603F
:1034C000F2E7D5F820032043C5F8200348E7416818
:1034D000214341605AE7D5F830022043C5F8300255
:1034E0003EE70122400100EB810000F184400260D0
:1034F00070470022400100EB810000F1844002602F
:103500007047400100EB810000F184400168C1F187
:103510000101016070470068C84000F00100704779
:10352000C2F118036FF07F42DA4003688A40134308
:1035300003607047C2F118036FF07F42DA400368FE
:103540008A40934303607047C2F118036FF07F42D3
:10355000DA4003688A40534003607047C2F11803A1
:103560006FF07F42DA400068C84010407047C2F1F7
:1035700018036FF07F42DA4072B603688A40134343
:10358000036062B67047C2F118036FF07F42DA4001
:1035900072B603688A409343036062B67047C2F113
:1035A00018036FF07F42DA4072B603688A405340D6
:1035B000036062B670470000005001400000014007
:1035C00000F0FEBF003001400080014000200140BB
:1035D0000060014010B572B6000B1B4CA168884713
:1035E0002068804762B610BD10B5030701D00220E5
:1035F00010BD930701D0022010BD72B69208124C84
:10360000E36898472068804762B6002010BD10B577
:1036100072B60D4940F289431E284A6808D028280E
:103620000AD050280CD00949581C904762B610BDEA
:10363000074918469047F9E7064918469047F5E7C5
:10364000054918469047F1E7D80A00206E7AFCAB8E
:10365000251FF4AB2929F4AB4D52F8AB2DE9F04FFF
:1036600086B001EB81074FF01F0BA2F1640A0BFA41
:1036700007F60AFA07F48D1F05EB850C0BFA0CF719
:103680000AFA0CF54FF001084FEA41094FF0030C1C
:10369000A1F10C0E0CFA09FC08FA01F80EEB8E0EE3
:1036A0008B40CDF800E00BFA0EFECDF814E0DDF80B
:1036B00000E00AFA0EFECDF810E0A1F1120E0EEBBA
:1036C0008E0E0BFA0EFB0AFA0EFACDE902ABA1F14F
:1036D000100A4FEA4A0A4FF0030B0BFA0AFBCDF827
:1036E00004A0DFF89CA3062837D2DFE800F00339F6
:1036F0006EA3F0EF632A18D906290AD2DAF800017E
:10370000B043CAF80001DAF800012043CAF800010A
:103710000BE00C2909D2DAF80401B843CAF8040115
:10372000DAF804012843CAF80401DAF8000020EAB4
:103730000C00CAF80000632A00D90122DAF8000060
:1037400002FA09F20243CAF80020CE48016821EAD1
:103750000801016001681943016006B0BDE8F08FFF
:10376000632A18D906290AD2DAF81001B043CAF838
:103770001001DAF810012043CAF810010BE00C29FF
:1037800009D2DAF81401B843CAF81401DAF81401BE
:103790002843CAF81401DAF8040020EA0C00CAF839
:1037A0000400632A00D90122DAF8040002FA09F2BF
:1037B0000243CAF80420B3481030016821EA080126
:1037C0000160016819430160C7E7632A18D9062917
:1037D0000AD2DAF82001B043CAF82001DAF8200151
:1037E0002043CAF820010BE00C2909D2DAF82401A1
:1037F000B843CAF82401DAF824012843CAF824019E
:10380000DAF8080020EA0C00CAF80800632A00D998
:103810000122DAF8080002FA09F20243CAF8082085
:1038200098482030016821EA0801016001681943C5
:10383000016092E7632A36D906290AD2DAF86001D4
:10384000B043CAF86001DAF860012043CAF86001A9
:1038500029E00C290AD2DAF86401B843CAF86401F5
:10386000DAF864012843CAF864011CE012290CD27A
:10387000DAF86801059CA043CAF86801DAF8680123
:10388000049C2043CAF868010DE018290BD2DAF82D
:103890006C01039CA043CAF86C01DAF86C01029C2D
:1038A0002043CAF86C01102912D2DAF8200020EA6D
:1038B0000C00CAF82000632A00D90122DAF820009F
:1038C00002FA09F20243CAF8202011E071E019E07F
:1038D000DAF8240020EA0B00CAF82400632A00D991
:1038E000012201988240DAF824000243CAF8242019
:1038F00064484030016821EA080101600168194309
:1039000001602AE7632A27D906290AD2DAF870016A
:10391000B043CAF87001DAF870012043CAF87001A8
:103920001AE00C290AD2DAF87401B843CAF8740113
:10393000DAF874012843CAF874010DE012290BD299
:10394000DAF87801059CA043CAF87801DAF87841E2
:1039500004980443CAF87841102910D2DAF83000EC
:1039600020EA0C00CAF83000632A00D90122DAF8F4
:10397000300002FA09F20243CAF830200FE0DAF808
:10398000340020EA0B00CAF83400632A00D901226F
:1039900001988240DAF834000243CAF834203948EA
:1039A0005030016821EA0801016001681943016093
:1039B000D3E6632A36D906290AD2DAF88001B04361
:1039C000CAF88001DAF880012043CAF8800129E0B2
:1039D0000C290AD2DAF88401B843CAF88401DAF86B
:1039E00084012843CAF884011CE012290CD2DAF8B9
:1039F0008801059CA043CAF88801DAF88841049838
:103A00000443CAF888410DE018290BD2DAF88C413A
:103A100003988443CAF88C41DAF88C01029C204355
:103A2000CAF88C01102910D2DAF8400020EA0C0004
:103A3000CAF84000632A00D90122DAF8400002FAED
:103A400009F20243CAF840200FE0DAF8440020EA05
:103A50000B00CAF84400632A00D901220198824071
:103A6000DAF844000243CAF844200648603001688E
:103A700021EA080101600168194301606DE6000058
:103A80000000014000060140416821F400714160DE
:103A900070472DE9F04704460D46D5484FF480574E
:103AA00026184FF080404FF400584FF4405973D01F
:103AB000BE4276D0464579D04E4503D1816841F467
:103AC000804181602046FFF7DFFF606840F40050CE
:103AD0006060A0686FF30D00A060C64829680068A8
:103AE0000009B0FBF1F0A168401E0843A0606068C7
:103AF00020F47C00606060682979AA7940EA8140FE
:103B00006979C90441EA825108436060F6B3BE4254
:103B100055D0464557D04E4502D12A2000F05CF9D9
:103B2000E06880B2E060E879697A401C000440EA0D
:103B30000160E1680843E060606820F07F406060F9
:103B40006068E97A40EA01606060606844F21401EC
:103B5000884360606068297A2A7B40EA0110A97A6C
:103B6000890041EA82310843606086B3BE423FD09B
:103B700046454DD04E4560D1287AA97A0843297B25
:103B8000084355D0BDE8F0472A2003E013E003E0E6
:103B900007E00BE000F015B9816841F40061816035
:103BA00090E7816841F4805181608BE7816841F43E
:103BB0000051816086E7272000F00EF9B0E7282049
:103BC00000F00AF9ACE7292000F006F9A8E7FFE7C2
:103BD000287AA97A0843297B084304D0BDE8F04736
:103BE000272000F0EEB8BDE8F047272000F0F4B839
:103BF000287AA97A0843297B084304D0BDE8F04716
:103C0000282000F0DEB8BDE8F047282000F0E4B836
:103C1000287AA97A0843297B084304D0BDE8F047F5
:103C2000292000F0CEB8BDE8F047292000F0D4B834
:103C3000BDE8F0472A2000F0CFB8BDE8F087416822
:103C400041F4007141607047016070470068C0F343
:103C500008020A60400501D5022070470020704725
:103C6000406840F30000401C7047406840F3C000CB
:103C7000401C70474068C0F34000704782686FF393
:103C80000D0282605B4A12681209B2FBF1F1826890
:103C9000491E1143816070475649806809680909C7
:103CA000C0F30D00401CB1FBF0F07047436923F0F6
:103CB00005034361436941EA82010B434361704755
:103CC0004069C0F3C010704710B5446924F07A040D
:103CD00044614469D20044EA410142EA03121143BB
:103CE000416110BD4069C0F300207047036923F0B3
:103CF00005030361036941EA82010B4303617047D5
:103D0000016941F01001016170470069C0F3400092
:103D100070470069C0F3C00070470022FF2918D027
:103D2000A1F58073FF3B14D0FE290DD0B1F5FF7FC4
:103D30000AD0F8290AD0B1F5FC7F07D0802907D036
:103D4000B1F5C07F04D0FEE7012202E0022200E0CC
:103D50000322816821F06071816081684FF4000363
:103D600043EA02621143816070478168090201D50C
:103D7000002070478068400101D502207047012073
:103D8000704742680A434260704742688A43426013
:103D90007047CA0602D5826852020ED44A0402D580
:103DA0008268920209D44A0702D58268920304D439
:103DB000490604D58068000101D501207047002024
:103DC000704700F01F02012191404009800000F17E
:103DD000E020C0F80011704700F01F02012191405F
:103DE0004009800000F1E020C0F880117047000019
:103DF0000000FEBFE80A002030B54FF0804108689F
:103E00007B4A45077B4C7C4B7C480CD50D68AD0745
:103E100001D502601CE02268D20702D0784A026015
:103E200016E0036014E00D68ED070ED0646AA40785
:103E300001D5036000E0026002680523B2FBF3F2E3
:103E4000C8235A43D208026002E04FF4FA420260EB
:103E50004968C90702D0016849080160694A0168D8
:103E6000B1FBF2F1416030BD4FF08040016849077D
:103E700002D40068C00707D0002044F6206100BFCC
:103E8000401C8842FBD37047002000BF401C142810
:103E9000FBD3704710B5574C01202062FFF7E4FFB9
:103EA000FFF7E2FF606A20F002006062A06A5649F4
:103EB0000840A062A06A55490843A062606A20F0E9
:103EC00004006062206B0028FCD010BD10B5FFF725
:103ED000E1FF4848416A41F0010141628004016804
:103EE00041F001010160016821F00401016010BD91
:103EF00010B5404901200862FFF7B6FFFFF7B4FF95
:103F00004FF08040016841F002010160016841F01A
:103F10000401016010BD10B54FF08044A06840F06E
:103F20008070A0603A48016A21F001010162FFF748
:103F30009BFF206820F001002060206820F0040032
:103F4000206010BD10B52B4901200860FFF78CFFE1
:103F50004FF08040016821F002010160016841F0EA
:103F60000401016010BD10B5224900200860FFF770
:103F70007BFF4FF08040016821F002010160016881
:103F800041F00401016010BD10B54FF08044A068FD
:103F900040F48000A0607820FFF739FBFFF796FF20
:103FA000606820F00100606060686060FFF724FFD7
:103FB000124818490068884204D9BDE810407820AA
:103FC000FFF725BB0E49884204D9BDE810405020B8
:103FD000FFF71DBB1049884204D9BDE810402820D6
:103FE000FFF715BBBDE810401E20FFF710BB000017
:103FF0000080510100100340002D3101E80A00202B
:10400000005A620240420F0000FEE0FC3200050050
:1040100000E0014000B4C40480C3C9012548004742
:10402000FEE7FEE7FEE7FEE7FEE7FEE7FEE7FEE768
:10403000FEE7FEE7FEE7FEE7FEE7FEE7FEE7FEE758
:10404000FEE7FEE7FEE7FEE7FEE7FEE7FEE7FEE748
:10405000FEE7FEE7FEE7FEE7FEE7FEE7FEE7FEE738
:10406000FEE7FEE7FEE7FEE7FEE7FEE7FEE7FEE728
:10407000FEE7FEE7FEE7FEE7FEE7FEE7FEE7FEE718
:10408000FEE7FEE7FEE7FEE7FEE7FEE7FEE7FEE708
:10409000FEE7FEE7FEE7FEE7FEE7FEE7FEE7FEE7F8
:1040A000FEE7FEE7FEE7FEE7FEE7FEE7FEE7FEE7E8
:1040B000FEE7FEE7490100003FB5A1B05E4C236872
:1040C000002B13D08DF800008DF801100025ADF8FD
:1040D0000250802101A8249B02F058FC8DF88350E7
:1040E00000231A4669462068FEF73AFD25B030BD28
:1040F00037B5A2B0002400944F4D2B68002BF5D0AB
:104100008DF804008DF80540ADF806400A46802180
:1041100002A8249B02F03AFC8DF8874000236A46EF
:1041200001A92868FEF7ADFD00980028DED04349BC
:104130004FF080500860BFF34F8FBFF36F8FD5E70C
:104140000FB410B503AB00210846029AFFF7B4FF85
:1041500010BC5DF814FB0FB410B503AB00210120B7
:10416000029AFFF7A9FFF3E70FB410B503AB0021E4
:104170000220029AFFF7A0FFEAE70FB410B503ABE5
:1041800000210320029AFFF797FFE1E70FB410B573
:1041900003AB00210420029AFFF78EFFD8E70FB48B
:1041A00010B503AA00200299FFF7A2FFD0E710B5CF
:1041B000214C2068002808D1002284216420FEF7C9
:1041C0003BFC2060002800D1FEE710BD70B5A2B016
:1041D0001BA51948006800281ED000231A4601A913
:1041E000FEF7CDFD012817D19DF80400012815D058
:1041F000022817D0032813D0042811D010A49DF84A
:10420000050001AE80B1FEF715F90246331D2146C7
:104210000CA0009502F090FB22B070BD08A4EEE760
:1042200007A4ECE706A4EAE72B46321D214608A0C6
:1042300002F082FBF0E70000F00A002004ED00E04D
:104240000000000025735B25645D20257325730045
:10425000257325732573000010B50246002018232E
:10426000002103E052F821406040491C9942F9D3F3
:1042700010BD70B57820FFF7CAF93F4C2068806800
:1042800080473E4D68B1286801693DA0884760229B
:104290004649474801F076FF20684068BDE8704015
:1042A00000474348006901F0CFFF2A680B461469B4
:1042B0000246A446BDE870403EA0604770B59AB083
:1042C0004FF4F8263A48FFF7C7FF044668216846CE
:1042D00001F071FF424800906022354901A801F0C9
:1042E00051FF19941C25254C3146206802693DA0D8
:1042F00090473046FFF76EF920682946026943A0CF
:1043000090472A4669463046FFF76EF938B1206873
:10431000816947A088474FF0FF301AB070BD206810
:1043200001694AA088470020F7E770B54FF4F824E8
:1043300021682B48114E8517814205D030680269EB
:1043400048A09047284670BD60224F49184801F0A8
:1043500019FF646E1648FFF77FFF0246944206D0AD
:1043600030682146036949A09847284670BD00205F
:1043700070BD0F4870470000280B0020140B002070
:104380005B666C61736864625D20666C6173682053
:10439000696E76616C69642C2077726974696E67E6
:1043A0002064656661756C74730D0A00907300007B
:1043B000487601205B666C61736864625D206C6F97
:1043C000616465642066726F6D20666C6173682C31
:1043D000206B5B305D3D252E34660D0A0000000029
:1043E000FCDBFCDB5B666C61736864625D2065729C
:1043F0006173696E6720736563746F7220617420E6
:104400003078253038582E2E2E0D0A005B666C61F0
:10441000736864625D2077726974696E6720256CC9
:104420007520776F7264732E2E2E0D0A0000000027
:104430005B666C61736864625D2077726974652085
:104440004641494C4544210D0A0000005B666C6101
:10445000736864625D207361766564204F4B0D0A5A
:10446000000000005B666C61736864625D206D61D2
:10447000676963206D69736D617463683A20307891
:10448000253038580D0A000004C007005B666C61D7
:10449000736864625D20636865636B73756D206D1E
:1044A00069736D617463683A2073746F7265643DFB
:1044B0003078253038582063616C633D3078253082
:1044C00038580D0A000000002DE9F0410646102082
:1044D000FEF753FE0446BE4DC4B10020206060606C
:1044E000A060E0604FF400673846FEF746FE60606B
:1044F00090B1394601F05FFEA76026602868394612
:104500000269B4A090472046BDE8F081286881691F
:10451000BBA088470020F7E728688169C2A08847C8
:104520002046FEF774FE0020EEE710B50446002C8E
:104530000DD0606808B1FEF76AFE2046FEF767FE00
:10454000A34800680169BDE81040C1A0084710BD3C
:1045500070B504460D46284601F054FE0146206819
:1045600082682846BDE87040104710B504462068B0
:1045700000698047D4E9010101F01DFE0020E060E0
:1045800010BD2DE9F04704460F4616469846002513
:104590006FF0010A002C20D02068F0B12046FFF710
:1045A000E4FF39462046FFF7D3FFA8A12046FFF7D6
:1045B000CFFF3220FDF769FDFDF73CFF0746DFF82E
:1045C0001092D4E90210491E884209D26168084459
:1045D00021684A680121904703E05046BDE8F08712
:1045E0000020002807DDE1680844E06062680021DF
:1045F00011540025E5E795A1606801F0E7FD68B179
:104600009AA1606801F0E2FD08B10120E6E798A1F7
:10461000606801F0DBFD08B10020DFE7E06828B149
:104620006168084410F8010C3E2811D096B1701C46
:1046300010D06D1C0120FDF728FDB5420DD9D9F829
:104640000000E16802698CA090474FF0FF30C5E799
:104650000320C3E70A20FDF718FDFDF7EBFEC01BA2
:104660004045AED9D9F80000E268414603698BA005
:1046700098475046B2E72DE9F04104460F46544EA4
:1046800039463068026992A0904720680168384630
:1046900088476420FDF7F9FC2046FFF766FF94A1E8
:1046A0002046FFF755FF4FF49670FDF7EEFC00250E
:1046B000A0682268411B60685268491E28449047E0
:1046C00008B10544F4E7616800204855E5608AA117
:1046D000606801F07BFD20B964A1606801F076FD9F
:1046E00030B130683946026984A0904700200BE75A
:1046F0003068394602698AA090474FF0FF3003E7DF
:1047000070B5064600248F4D304655F82410FFF74B
:10471000B2FF50B1641C052CF6D32D4800688169A6
:1047200089A088474FF0FF3070BD002070BD70B584
:104730000546274E002D3068026909D0E96839B175
:104740008DA090473068016995A08847002415E046
:10475000BDE8704096A010476868015DA1F1200097
:104760005F2803D298A002F0E7F806E00D2911D0E7
:104770000A2913D095A002F0DFF8641CE868A04273
:10478000EAD832A002F0D8F83068016990A08847D2
:10479000002413E092A002F0CFF8EEE791A002F01F
:1047A000CBF8EAE76868015D8FA002F0C5F8601CED
:1047B000C00602D18EA002F0BFF8641CE868A042D7
:1047C00001D9802CEED3BDE8704020A002F0B4B82F
:1047D000140B00205B61745F6465765D2064657610
:1047E00069636520637265617465642C2072786208
:1047F00075663D25752062797465730D0A000000A9
:104800005B61745F6465765D206372656174653AAF
:10481000206D616C6C6F6320646576206661696CE5
:1048200065640D0A000000005B61745F6465765D7D
:10483000206372656174653A206D616C6C6F6320F2
:104840007278627566206661696C65640D0A0000A5
:104850005B61745F6465765D20646576696365207D
:1048600064656C657465640D0A0000004F4B0000C0
:104870004552524F520000005B61745F6465765D83
:1048800020646174612074696D656F75742C207289
:10489000786C656E3D256C750D0A00005B61745F78
:1048A0006465765D20636F6D6D616E642074696D03
:1048B000656F75742C2063746F3D256C756D732C5A
:1048C0002072786C656E3D256C750D0A0000000045
:1048D0005B61745F6465765D20747279696E6720D0
:1048E000256C75206270732E2E2E0D0A00000000BC
:1048F00041540D0A00000000415400005B61745FE8
:104900006465765D206175746F2062617564204F07
:104910004B20617420256C75206270730D0A0000B5
:104920005B61745F6465765D206E6F207265737085
:104930006F6E736520617420256C75206270730D35
:104940000A000000F07300005B61745F6465765DCF
:10495000206175746F2062617564204641494C4541
:10496000442C20616C6C20726174657320747269D0
:1049700065640D0A000000005B61745F6465765D2C
:10498000202D2D2D2072786275662028256C7520CB
:10499000627974657329202D2D2D0D0A0000000009
:1049A0005B61745F6465765D20746578743A20009D
:1049B0005B61745F6465765D207278627566206500
:1049C0006D7074790D0A0000256300002E00000050
:1049D0005B61745F6465765D206865783A200000ED
:1049E0005C7200005C6E0000253032582000000030
:1049F0000D0A2020202020200000000010B50446D1
:104A00002068C268002A0CD0E1688A4209D2416855
:104A1000606801F0B7FB2068C068A0606268002190
:104A2000115410BD70B50D46294601F0CFFB044668
:104A300024B1284601F0E6FB204402E0002070BDCE
:104A4000401C01782029FBD03A29F9D070BD70B5FF
:104A50000446FE49206840F6B83309684FF4FA72FC
:104A60008D68FBA1A84705462046FFF7C7FF2846EB
:104A700070BD2DE9F04104460D461646F349206805
:104A800040F6B83309684FF4FA728F68F1A1B8475D
:104A900007462046FFF7B2FF012F02D03846BDE897
:104AA000F081EFA16068FFF7BDFF88B185B1002EEE
:104AB0000EDD0023761E01E0EC545B1CC45C2CB1BF
:104AC0000D2C03D00A2C01D0B342F5DB0020E854B2
:104AD0000120E4E72DE9F04104460E461546DB4986
:104AE000206840F6B83309684FF4FA728F68DEA187
:104AF000B84707462046FFF781FF012F01D038460F
:104B0000CDE7DBA16068FFF78DFF044674B11EB1ED
:104B1000204601F08CFB30602C21204601F068FB20
:104B200020B11DB1401C01F082FB28600120B6E7D6
:104B300070B504460D46C549206840F6B83309688B
:104B40004FF4FA728E68CCA1B04706462046FFF7B4
:104B500055FF012E01D0304670BDCAA16068FFF735
:104B600061FF40B12C2101F043FB20B11DB1401C7D
:104B700001F05DFB2860012070BD70B504460D4654
:104B8000B249206841F2883309684FF4FA728E689E
:104B9000BEA1B04706462046FFF730FF012E01D0E8
:104BA000304670BDBCA16068FFF73CFF18B115B17D
:104BB00001F03DFB2860012070BD2DE9F041044665
:104BC0000D461646A149206840F6B83309684FF4EF
:104BD000FA728F68B2A1B84707462046FFF70EFF6A
:104BE000012F01D038465AE70DB1002E01DC01201B
:104BF00055E7636800E05B1C18780D28FBD00A2895
:104C0000F9D00020761E01E02C54401C1C5C2CB115
:104C10000D2C03D00A2C01D0B042F5DB0021295421
:104C200001203CE72DE9F04104460D461646874930
:104C3000206840F6B83309684FF4FA728F689AA179
:104C4000B84707462046FFF7D9FE012F01D0384666
:104C500025E70DB1002E01DC012020E7636800E0AC
:104C60005B1C18780D28FBD00A28F9D00020761E8E
:104C700001E02C54401C1C5C2CB10D2C03D00A2CE0
:104C800001D0B042F5DB00212954012007E730B5FF
:104C900089B004460B4686A2202101A801F05CFEE3
:104CA0006A49206841F2883309684FF47A728D6846
:104CB00001A9A84705462046FFF7A0FE284609B0EF
:104CC00030BD30B589B004460B467DA2202101A835
:104CD00001F042FE5D49206841F2883309684FF4D3
:104CE0007A728D6801A9A84705462046FFF786FE1F
:104CF0002846E4E730B5A3B0044600290ED0087872
:104D000060B103B955A302B954A2CDE900230B4603
:104D10006FA2802103A801F01FFE04E072A280218F
:104D200003A801F019FE4949206842F2107309688E
:104D30004FF47A728D6803A9A84705462046FFF70D
:104D40005DFE23B0284630BD70B504463F4920685B
:104D50004EF66023096800228D6865A1A8470546C4
:104D60002046FFF74BFE284670BD2DE9F041044672
:104D70000D4616463549206841F2883309684FF4DC
:104D8000FA728F685DA1B84707462046FFF736FEE6
:104D9000012F01D0384682E60DB1002E01DC012042
:104DA0007DE6636800E05B1C187810B130380A2893
:104DB000F9D2187880B10020761E01E02C54401CF6
:104DC0001C5C3CB1A4F13001092901D92E2C01D180
:104DD000B042F3DB00212954012060E630B5C3B0B6
:104DE0000446CDE900230B4647A24FF4807103A887
:104DF00001F0B2FD1549206847F2305309680022DE
:104E00008D6803A9A84705462046FFF7F7FD012D49
:104E100002D0284643B030BD42A1606801F0D6F907
:104E200008B10120F6E70120F4E730B589B0044667
:104E30000B463EA2202101A801F08EFD0349206807
:104E400042F2107309684FF47A7277E0400B002049
:104E50004154000041542B4350494E3F0000000094
:104E60002B4350494E3A000041542B43535100000C
:104E70002B4353513A00000041542B435245473FC6
:104E8000000000002B435245473A000041542B4399
:104E9000474154543F0000002B43474154543A00CB
:104EA00041542B43474D490041542B43474D520039
:104EB00041542B4349504D4F44453D25640000006B
:104EC00041542B4349504D55583D25640000000086
:104ED00041542B435354543D222573222C222573D5
:104EE000222C22257322000041542B43535454009A
:104EF00041542B43494943520000000041542B4385
:104F0000494653520000000041542B43495053542A
:104F10004152543D222573222C222573222C222516
:104F200073220000434F4E4E4543540041542B43DF
:104F30004950434C4F53453D256400008D6801A9FD
:104F4000A84705462046FFF759FD2846B7E62DE954
:104F5000F041704F39680968884705466E4E002D4C
:104F600038D04820FEF709F90446200038D04821FF
:104F700001F021F94FF400684046FEF7FEF860604A
:104F8000002837D0414601F016F9C4F80C8025609E
:104F900062482061624860616248A0616248E061E5
:104FA00062482062624860626248A0626248E062D1
:104FB00062482063624860636248A0636248E063BD
:104FC00062482064624860643068016961A0884773
:104FD000204664E53068816967A0884700205EE567
:104FE000306881696DA088473868416828468847DD
:104FF000002054E53068816971A088472046FEF79B
:1050000006F93868416828468847002047E510B50A
:105010000446002C13D0206818B13E49096849683D
:105020008847606808B1FEF7F2F82046FEF7EFF80F
:10503000394800680169BDE8104069A0084710BD03
:1050400070B504460D46002C13D02068002810D0FF
:10505000284601F0D7F80146206800688268284693
:1050600090472068022100688268BDE8704062A015
:10507000104770BD70B50446002C13D0206818B1DD
:10508000006808B1006980472068002528B1816860
:10509000406801F090F82068C560E168606801F040
:1050A0008AF8A56070BD70B505461B4C002D2068C0
:1050B000026909D0A96839B150A0904720680169F8
:1050C00058A08847002415E0BDE870405AA010475A
:1050D0006868015DA1F120005F2803D25CA001F0A7
:1050E0002BFC06E00D290DD00A290FD059A001F0A4
:1050F00023FC641CA868A042EAD8BDE870403EA02A
:1051000001F01ABC54A001F017FCF2E753A001F023
:1051100013FCEEE7400B0020140B00204F4A000068
:10512000734A0000D54A0000314B00007B4B000061
:10513000BB4B0000254C00008F4C0000C34C00000E
:10514000F54C0000494D00006B4D0000DD4D0000A6
:105150002B4E00005B6169725F6D616E5D2041499D
:105160005237323420646576696365206372656105
:105170007465640D0A0000005B6169725F6D616EA9
:105180005D206372656174652061745F646576207B
:105190006661696C65640D0A000000005B616972FC
:1051A0005F6D616E5D206D616C6C6F632061697213
:1051B0005F646576206661696C65640D0A000000B5
:1051C0005B6169725F6D616E5D206D616C6C6F63B8
:1051D000207278627566206661696C65640D0A00EC
:1051E0005B6169725F6D616E5D20646576696365A0
:1051F0002064656C657465640D0A00005B6169720A
:105200005F6D616E5D202D2D2D2072786275662098
:1052100028256C7520627974657329202D2D2D0D3C
:105220000A0000005B6169725F6D616E5D207465EC
:1052300078743A20000000005B6169725F6D616EF6
:105240005D20727862756620656D7074790D0A0054
:10525000256300002E0000005C7200005C6E000000
:105260000020EC49086048608860EB4800680169EC
:10527000EAA00847E7480068032801D000207047EB
:105280000120704710B5E34B002801D01C68046072
:1052900009B158680860002A01D09868106010BDF4
:1052A000DC490020086048608860DB4800680169CC
:1052B000E4A008472DE9F04FC1B0DFF8A483D64D34
:1052C000D8F800102868002918D0DFF84893DFF8D4
:1052D00094A34FF47A74D9F8001041F2883B002669
:1052E00091B101297ED002297DD003297CD0C9F853
:1052F0000060C9F8046041B0BDE8F08F816941B039
:10530000D9A0BDE8F04F0847D9F8041041B10129F0
:1053100013D002292CD0032942D0C9F80460EAE74F
:105320000169D9A0884728680169E1A08847D9F8B0
:105330000400401CC9F80400DDE70169E3A08847C8
:10534000EF4E002130684268382090472046FCF735
:105350009CFE306801214268382090472868016926
:10536000E8A08847D9F80400401CC9F80400C2E747
:105370000169F1A0884700245846FCF786FE28689A
:105380000169F9A08847641C092CF5DB28680169CC
:10539000E8A08847D9F80400401CC9F80400AAE72F
:1053A0000169F2A088470024D8F800000169884705
:1053B0000746DAF800000169D8F800008847012F95
:1053C00013D0286806223B46D0F810C0611CEEA01E
:1053D000E0474FF4FA60FCF758FE641C062CE3DB50
:1053E000B6239FE20BE0D4E3FEE328680169EEA058
:1053F00088470120C9F80000C9F804607BE7D9F8A4
:10540000041079B9D9F80810491CC9F808100269C4
:10541000F1A09047D9F80800052803DD28688169C4
:10542000FAA08847D9F804000B287DD2DFE800F005
:1054300006366698CBEFEEEDECEBEA0028680169E2
:10544000FEA088470024D8F80000202239A9436A2A
:1054500098470746DAF800000169D8F80000884745
:10546000012F10D0286803223B46D0F810C0611CE1
:10547000C5A0E0474FF4FA60FCF707FE641C032C5C
:10548000E1DBDC23ADE7286839A90269F0A0904789
:10549000D9F80400401CC9F804002CE72868016909
:1054A000F3A088470024D8F80000402231A9836A7D
:1054B00098470746DAF800000169D8F800008847E5
:1054C000012F10D0286803223B46D0F810C0611C81
:1054D000ADA0E0474FF4FA60FCF7D7FD641C032C45
:1054E000E1DBE7237DE7286831A90269E5A0904761
:1054F000D9F80400401CC9F80400FCE628680169DA
:10550000E7A088470024D8F8000010223DA943698D
:1055100098470746DAF800000169D8F80000884784
:10552000012F12D0286800E030E30322D0F810C029
:105530003B46611C94A0E0474FF4FA60FCF7A5FDE0
:10554000641C032CDFDBF2234BE728683DA90269CA
:10555000D8A09047D9F80400401CC9F80400CAE656
:1055600028680169D8A0884740963F960024D8F85B
:1055700000003FAA40A9836998470746DAF800006F
:105580000169D8F800008847012F10D0286803224D
:105590003B46D0F810C0611C7BA0E0474FF4FA6096
:1055A000FCF773FD641C032CE1DBFD2319E728687D
:1055B000DDE93F210369C9A09847D9F80400401CE0
:1055C000C9F8040097E628680169CDA0884740968D
:1055D0000024D8F8000040A9C26990470746DAF8CD
:1055E00000000169D8F800008847012F10D0286812
:1055F00003223B46D0F810C0611C63A0E04740F690
:10560000B83087E18CE25CE22AE2F9E1C8E195E199
:1056100089E10000600B0020140B00205B6E6574B4
:105620005F6D616E5D207374617465206D61636888
:10563000696E6520696E697469616C697A65640D6B
:105640000A0000005B6E65745F6D616E5D20666FC1
:10565000726365642072657365740D0A0000000052
:105660005C0B0020580B00205B6E65745F6D616EF3
:105670005D20616972373234206E6F742063726509
:1056800061746564210D0A000D0A5B6E65745F6DBF
:10569000616E5D203D3D3D20506861736520303A6C
:1056A000205245534554203D3D3D0D0A0000000069
:1056B0005B6E65745F6D616E5D20646576696365C0
:1056C00020636865636B2E2E2E0D0A005B6E657479
:1056D0005F6D616E5D2068617264776172652072D2
:1056E0006573657420284E6574527374206C6F77EF
:1056F000E2869268696768292E2E2E0D0A00000046
:10570000280100205B6E65745F6D616E5D207265BF
:105710007365742072656C65617365642C207761B4
:105720006974696E67206D6F64756C6520626F6F58
:10573000742E2E2E0D0A00005B6E65745F6D616E17
:105740005D2077616974696E672034357320666FF8
:1057500072206D6F64756C6520746F20626F6F745A
:105760002E2E2E0D0A0000002E0000005B6E6574C8
:105770005F6D616E5D2041542068616E6473686185
:105780006B652E2E2E0D0A005B6E65745F6D616E6B
:105790005D2072657472792025642F25642C207237
:1057A00065743D25640D0A005B6E65745F6D616E06
:1057B0005D206D6F64756C65206F6E6C696E652C15
:1057C00020656E746572696E6720494E4954207079
:1057D000686173650D0A00000D0A5B6E65745F6D8C
:1057E000616E5D203D3D3D20506861736520313A1A
:1057F00020494E495420287265636F6E6E6563744C
:105800002023256429203D3D3D0D0A005B6E657413
:105810005F6D616E5D207265636F6E6E656374208F
:105820003E20352C20636865636B2053494D2F6DF6
:105830006F64756C65210D0A000000005B6E657475
:105840005F6D616E5D2043474D492E2E2E0D0A007F
:105850005B6E65745F6D616E5D204D616E75666136
:105860006374757265723A2025730D0A000000009A
:105870005B6E65745F6D616E5D2043474D522E2EE9
:105880002E0D0A005B6E65745F6D616E5D2046696A
:10589000726D776172653A2025730D0A0000000071
:1058A0005B6E65745F6D616E5D204350494E2E2EB8
:1058B0002E0D0A005B6E65745F6D616E5D2053494D
:1058C0004D3A2025730D0A005B6E65745F6D616E45
:1058D0005D204353512E2E2E0D0A00005B6E657421
:1058E0005F6D616E5D205369676E616C3A20727303
:1058F00073693D25642C206265723D25640D0A00A4
:105900005B6E65745F6D616E5D20435245472E2E60
:105910002E0D0A00FCF7B9FB641C032CFFF659AEF0
:105920004FF48473C1E3286840990269F6A0904758
:10593000D9F80400401CC9F80400DCE428680169B7
:10594000FAA0884740960024D8F8000040A9026ACF
:1059500090470746DAF800000169D8F80000884748
:10596000012F12D0286803223B46D0F810C0611CDA
:10597000AFF2EC10E04740F6B830FCF786FB641C51
:10598000032CE1DB40F213138FE32868409902698E
:10599000ECA09047D9F80400401CC9F80400AAE420
:1059A00028680169F0A088470024D8F80000012188
:1059B000C26A90470746DAF800000169D8F800008B
:1059C0008847012F12D0286803223B46D0F810C028
:1059D000611CAFF24C20E04740F6B830FCF755FBB5
:1059E000641C032CE1DB4FF48E735EE328680169CD
:1059F000E4A08847D9F80400401CC9F804007AE400
:105A000028680169E8A088470024D8F80000002130
:105A1000026B90470746DAF800000169D8F80000E9
:105A20008847012F12D0286803223B46D0F810C0C7
:105A3000611CAFF2AC20E04740F6B830FCF725FB24
:105A4000641C032CE1DB4FF492732EE32868016998
:105A5000DBA08847D9F80400401CC9F804004AE4D8
:105A600028680169E0A088470024D8F800000023D6
:105A70001A46476B1946B8470746DAF8000001692D
:105A8000D8F800008847012F11D0286803223B4630
:105A9000D0F810C0611CAFF21030E0475846FCF758
:105AA000F4FA641C032CE0DB4FF49673FDE22868E3
:105AB0000169D5A08847D9F80400401CC9F8040042
:105AC00019E428680169D5A088470024D8F80000A7
:105AD000816B88470746DAF800000169D8F80000B2
