:020000040000FA
:1000000020100020C9100000CD100000CF1000000B
:10001000D1100000D3100000D51000000000000037
:10002000000000000000000000000000D7100000E9
:10003000D910000000000000DB100000DD100000FF
:10004000DF100000E1100000E3100000E5100000E8
:10005000E7100000E9100000EB100000ED100000B8
:10006000EF100000F1100000F3100000F510000088
:10007000F7100000F9100000FB100000FD10000058
:10008000FF10000001110000031100000511000025
:1000900007110000091100000B1100000D110000F4
:1000A0000F110000111100001311000015110000C4
:1000B00017110000191100001B1100001D11000094
:1000C0001F11000021110000231100002511000064
:1000D00027110000291100002B1100002D11000034
:1000E0002F1100003111000033110000000000004A
:1000F0003511000037110000391100003B110000DC
:100100003D1100003F1100004111000043110000AB
:100110004511000047110000491100004B1100007B
:100120004D1100004F11000051110000531100004B
:100130005511000057110000591100005B1100001B
:100140005D1100005F110000DFF810D001F03CF8F5
:100150000048004717030000AFF300802010002084
:1001600008B5A44800900098411E0091FBD208BD3C
:1001700008B5A14800900098411E0091FBD208BD2F
:1001800010B54FF080418A6842F012028A609B49A4
:100190004A6822F040724A600A6A22F030020A621B
:1001A00097494A6842F480524A60964A536843F03D
:1001B00004035360944B1C6824F480541C60924BDD
:1001C00030331C6824F004041C60002808D0086840
:1001D00040F480500860106840F00400106010BDCA
:1001E000086820F480500860106820F00400106057
:1001F00010BD042809D0B0F5805F05D1804881B1D9
:10020000016841F48051016070477E4821B1016866
:1002100041F0040101607047016821F004010160B0
:100220007047016821F4805101607047042804D0B0
:10023000B0F5805F06D00020704772480068C0F3B8
:10024000800070476E480068C0F3003070471FB5EB
:10025000012364220221002000F056FA00236422C8
:100260000321184600F050FA4FF4E13000900020CE
:100270008DF804008DF805008DF8060003218DF837
:1002800007108DF808008DF809108DF80A000A2172
:100290008DF80B108DF80C005C4C6946204600F080
:1002A0004EFC204600F021FD1FBD70B50546574CA1
:1002B0002946204600F01EFD204600F027FD0028BC
:1002C000FAD1284670BD10B504460846FFF7AEFFC8
:1002D00008B14FA300E050A30846FFF7A7FF08B1FD
:1002E0004FA200E050A22146BDE8104050A000F00F
:1002F0009DBF10B553A000F099FF042158A0FFF74F
:10030000E2FF4FF4805159A0FFF7DDFFBDE8104038
:1003100059A000F08BBF00F08DFEFFF798FF5BA0A7
:1003200000F084FF5AA000F081FF64A000F07EFF7F
:100330006F4801686FA000F079FF74A000F076FFAD
:100340007EA000F073FF2E4983A000F06FFF2D49BF
:1003500087A000F06BFF29498BA000F067FF4FF0EA
:10036000804081688EA000F061FF48A000F05EFF31
:1003700092A000F05BFF0020FFF702FFFFF7B9FF3C
:100380004FF4805436A195A000F050FF01210420C5
:10039000FFF72FFFFFF7ADFFFFF7EAFE30A196A0B2
:1003A00000F044FF00210420FFF723FFFFF7A1FF27
:1003B000FFF7DEFE2DA197A000F038FF01212046B7
:1003C000FFF717FFFFF795FFFFF7D2FE27A198A0D1
:1003D00000F02CFF00212046FFF70BFFFFF789FFFD
:1003E000FFF7C6FE99A000F021FFFFF7C1FEFFF75F
:1003F000BFFEC7E780841E00808D5B0000000140C7
:100400000020014000500140100601400000024061
:10041000E590B8E590880000E696ADE5BC80000068
:1004200048494748000000004C4F5720000000009A
:100430002020252D313273203A2025732028257362
:10044000290D0A002D2D2D20E7BBA7E794B5E599CE
:10045000A8E78AB6E68081202D2D2D0D0A00000028
:10046000454C4330284D322900000000454C4331B3
:1004700028423132290000002D2D2D2D2D2D2D2D1E
:100480002D2D2D2D2D2D2D2D2D2D0D0A0D0A00007C
:100490003D3D3D3D3D3D3D3D3D3D3D3D3D3D3D3D8C
:1004A0003D3D3D3D3D3D3D3D3D3D3D3D3D3D3D3D7C
:1004B0003D3D3D3D3D3D3D3D0D0A00002020537436
:1004C000657020323A20E5AF84E5AD98E599A8E75C
:1004D000BAA7204750494F20E2809420E7BBA7E706
:1004E00094B5E599A8E68EA7E588B65C720A000087
:1004F00010000020202043505520436C6F636B3A5E
:1005000020256420487A0D0A000000003D3D3D3D55
:100510003D3D3D3D3D3D3D3D3D3D3D3D3D3D3D3D0B
:100520003D3D3D3D3D3D3D3D3D3D3D3D3D3D3D3DFB
:100530003D3D3D3D0D0A0D0A000000005B494E4661
:100540004F5D20E5AF84E5AD98E599A8E698A0E574
:10055000B0843A0D0A00000020204750494F425F06
:1005600042415345203D203078253038580D0A004F
:1005700020204750494F4D5F42415345203D203098
:1005800078253038580D0A002020504F52545F42D1
:1005900041534520203D203078253038580D0A0041
:1005A0002020535953434F4E5F434C4B454E203D03
:1005B000203078253038580D0A0000005B494E493C
:1005C000545D20E5889DE5A78BE58C96E7BBA7E702
:1005D00094B5E599A82E2E2E0D0A00003E3E3E2031
:1005E000E6B58BE8AF9520312F343A20257320E50E
:1005F00090B8E590880D0A003E3E3E20E6B58BE8B7
:10060000AF9520322F343A20257320E696ADE5BC15
:10061000800D0A003E3E3E20E6B58BE8AF952033C4
:100620002F343A20257320E590B8E590880D0A0014
:100630003E3E3E20E6B58BE8AF9520342F343A207D
:10064000257320E696ADE5BC800D0A003D3D3D3D9D
:100650003D20E4B880E8BDAEE6B58BE8AF95E5AEE9
:100660008CE68890EFBC8C337320E5908EE9878D03
:10067000E5A48D203D3D3D3D3D0D0A0D0A000000E5
:1006800010B572B6000B1B4CA168884720688047E4
:1006900062B610BD10B5030701D0022010BD93074C
:1006A00001D0022010BD72B69208124CE368984740
:1006B0002068804762B6002010BD10B572B60D49A3
:1006C00040F289431E284A6808D028280AD05028BA
:1006D0000CD00949581C904762B610BD074918460E
:1006E0009047F9E7064918469047F5E70549184647
:1006F0009047F1E7000000206E7AFCAB251FF4ABB9
:100700002929F4AB4D52F8AB2DE9F04F86B001EB3F
:1007100081074FF01F0BA2F1640A0BFA07F60AFAE1
:1007200007F48D1F05EB850C0BFA0CF70AFA0CF594
:100730004FF001084FEA41094FF0030CA1F10C0EF4
:100740000CFA09FC08FA01F80EEB8E0E8B40CDF87E
:1007500000E00BFA0EFECDF814E0DDF800E00AFA36
:100760000EFECDF810E0A1F1120E0EEB8E0E0BFA7C
:100770000EFB0AFA0EFACDE902ABA1F1100A4FEA1C
:100780004A0A4FF0030B0BFA0AFBCDF804A0DFF87E
:100790009CA3062837D2DFE800F003396EA3F0EF00
:1007A000632A18D906290AD2DAF80001B043CAF838
:1007B0000001DAF800012043CAF800010BE00C291F
:1007C00009D2DAF80401B843CAF80401DAF80401DE
:1007D0002843CAF80401DAF8000020EA0C00CAF83D
:1007E0000000632A00D90122DAF8000002FA09F2B7
:1007F0000243CAF80020CE48016821EA08010160DE
:1008000001681943016006B0BDE8F08F632A18D96A
:1008100006290AD2DAF81001B043CAF81001DAF852
:1008200010012043CAF810010BE00C2909D2DAF8B4
:100830001401B843CAF81401DAF814012843CAF8BD
:100840001401DAF8040020EA0C00CAF80400632A54
:1008500000D90122DAF8040002FA09F20243CAF8C8
:100860000420B3481030016821EA080101600168E2
:1008700019430160C7E7632A18D906290AD2DAF8B2
:100880002001B043CAF82001DAF820012043CAF859
:1008900020010BE00C2909D2DAF82401B843CAF888
:1008A0002401DAF824012843CAF82401DAF8080000
:1008B00020EA0C00CAF80800632A00D90122DAF8FD
:1008C000080002FA09F20243CAF8082098482030CA
:1008D000016821EA0801016001681943016092E79B
:1008E000632A36D906290AD2DAF86001B043CAF879
:1008F0006001DAF860012043CAF8600129E00C29A0
:100900000AD2DAF86401B843CAF86401DAF864017B
:100910002843CAF864011CE012290CD2DAF86801F5
:10092000059CA043CAF86801DAF86801049C2043DA
:10093000CAF868010DE018290BD2DAF86C01039CA3
:10094000A043CAF86C01DAF86C01029C2043CAF893
:100950006C01102912D2DAF8200020EA0C00CAF843
:100960002000632A00D90122DAF8200002FA09F2F5
:100970000243CAF8202011E071E019E0DAF82400FF
:1009800020EA0B00CAF82400632A00D9012201984A
:100990008240DAF824000243CAF824206448403038
:1009A000016821EA080101600168194301602AE732
:1009B000632A27D906290AD2DAF87001B043CAF8A7
:1009C0007001DAF870012043CAF870011AE00C29AE
:1009D0000AD2DAF87401B843CAF87401DAF874017B
:1009E0002843CAF874010DE012290BD2DAF8780115
:1009F000059CA043CAF87801DAF8784104980443CA
:100A0000CAF87841102910D2DAF8300020EA0C0038
:100A1000CAF83000632A00D90122DAF8300002FA5D
:100A200009F20243CAF830200FE0DAF8340020EA75
:100A30000B00CAF83400632A00D9012201988240D1
:100A4000DAF834000243CAF83420394850300168DB
:100A500021EA08010160016819430160D3E6632AB5
:100A600036D906290AD2DAF88001B043CAF88001E3
:100A7000DAF880012043CAF8800129E00C290AD263
:100A8000DAF88401B843CAF88401DAF8840128430B
:100A9000CAF884011CE012290CD2DAF88801059CFE
:100AA000A043CAF88801DAF8884104980443CAF8D8
:100AB00088410DE018290BD2DAF88C410398844361
:100AC000CAF88C41DAF88C01029C2043CAF88C01E8
:100AD000102910D2DAF8400020EA0C00CAF84000D1
:100AE000632A00D90122DAF8400002FA09F202432F
:100AF000CAF840200FE0DAF8440020EA0B00CAF8F8
:100B00004400632A00D9012201988240DAF84400A7
:100B10000243CAF8442006486030016821EA08010F
:100B200001600168194301606DE6000000000140AA
:100B300000060140416821F40071416070472DE9D1
:100B4000F04704460D46D5484FF4805726184FF01D
:100B500080404FF400584FF4405973D0BE4276D0D5
:100B6000464579D04E4503D1816841F4804181608A
:100B70002046FFF7DFFF606840F400506060A06827
:100B80006FF30D00A060C648296800680009B0FB3B
:100B9000F1F0A168401E0843A060606820F47C006A
:100BA000606060682979AA7940EA81406979C9045E
:100BB00041EA825108436060F6B3BE4255D04645D3
:100BC00057D04E4502D12A2000F05CF9E06880B28F
:100BD000E060E879697A401C000440EA0160E1685D
:100BE0000843E060606820F07F4060606068E97AF8
:100BF00040EA01606060606844F21401884360600C
:100C00006068297A2A7B40EA0110A97A890041EAC2
:100C100082310843606086B3BE423FD046454DD026
:100C20004E4560D1287AA97A0843297B084355D0DC
:100C3000BDE8F0472A2003E013E003E007E00BE003
:100C400000F015B9816841F40061816090E7816826
:100C500041F4805181608BE7816841F400518160EB
:100C600086E7272000F00EF9B0E7282000F00AF907
:100C7000ACE7292000F006F9A8E7FFE7287AA97A6F
:100C80000843297B084304D0BDE8F047272000F043
:100C9000EEB8BDE8F047272000F0F4B8287AA97A2A
:100CA0000843297B084304D0BDE8F047282000F022
:100CB000DEB8BDE8F047282000F0E4B8287AA97A29
:100CC0000843297B084304D0BDE8F047292000F001
:100CD000CEB8BDE8F047292000F0D4B8BDE8F04711
:100CE0002A2000F0CFB8BDE8F087416841F40071D8
:100CF00041607047016070470068C0F308020A60F5
:100D0000400501D50220704700207047406840F33D
:100D10000000401C7047406840F3C000401C704712
:100D20004068C0F34000704782686FF30D02826034
:100D30005B4A12681209B2FBF1F18268491E114345
:100D4000816070475649806809680909C0F30D0041
:100D5000401CB1FBF0F07047436923F00503436189
:100D6000436941EA82010B43436170474069C0F324
:100D7000C010704710B5446924F07A044461446996
:100D8000D20044EA410142EA03121143416110BD1D
:100D90004069C0F300207047036923F00503036135
:100DA000036941EA82010B4303617047016941F025
:100DB0001001016170470069C0F34000704700698D
:100DC000C0F3C00070470022FF2918D0A1F580733E
:100DD000FF3B14D0FE290DD0B1F5FF7F0AD0F829D2
:100DE0000AD0B1F5FC7F07D0802907D0B1F5C07FCC
:100DF00004D0FEE7012202E0022200E00322816823
:100E000021F06071816081684FF4000343EA02625F
:100E10001143816070478168090201D50020704745
:100E20008068400101D50220704701207047426868
:100E30000A434260704742688A4342607047CA066C
:100E400002D5826852020ED44A0402D58268920208
:100E500009D44A0702D58268920304D4490604D50E
:100E60008068000101D5012070470020704700F024
:100E70001F02012191404009800000F1E020C0F8EC
:100E80000011704700F01F020121914040098000CD
:100E900000F1E020C0F88011704700000000FEBFA4
:100EA0001000002030B54FF0804108687B4A4507AC
:100EB0007B4C7C4B7C480CD50D68AD0701D502609E
:100EC0001CE02268D20702D0784A026016E0036074
:100ED00014E00D68ED070ED0646AA40701D5036025
:100EE00000E0026002680523B2FBF3F2C8235A4314
:100EF000D208026002E04FF4FA4202604968C90772
:100F000002D0016849080160694A0168B1FBF2F149
:100F1000416030BD4FF080400168490702D400684D
:100F2000C00707D0002044F6206100BF401C884263
:100F3000FBD37047002000BF401C1428FBD3704730
:100F400010B5574C01202062FFF7E4FFFFF7E2FFE6
:100F5000606A20F002006062A06A56490840A06200
:100F6000A06A55490843A062606A20F004006062EC
:100F7000206B0028FCD010BD10B5FFF7E1FF4848FA
:100F8000416A41F0010141628004016841F00101C0
:100F90000160016821F00401016010BD10B54049F5
:100FA00001200862FFF7B6FFFFF7B4FF4FF0804063
:100FB000016841F002010160016841F00401016033
:100FC00010BD10B54FF08044A06840F08070A06064
:100FD0003A48016A21F001010162FFF79BFF206896
:100FE00020F001002060206820F00400206010BD87
:100FF00010B52B4901200860FFF78CFF4FF08040AF
:10100000016821F002010160016841F00401016002
:1010100010BD10B5224900200860FFF77BFF4FF09C
:101020008040016821F002010160016841F0040183
:10103000016010BD10B54FF08044A06840F48000FE
:10104000A0607820FFF739FBFFF796FF606820F07B
:101050000100606060686060FFF724FF1248184973
:101060000068884204D9BDE810407820FFF725BB0E
:101070000E49884204D9BDE810405020FFF71DBB3F
:101080001049884204D9BDE810402820FFF715BB5D
:10109000BDE810401E20FFF710BB0000008051018A
:1010A00000100340002D310110000020005A6202A0
:1010B00040420F0000FEE0FC3200050000E001406D
:1010C00000B4C40480C3C90125480047FEE7FEE719
:1010D000FEE7FEE7FEE7FEE7FEE7FEE7FEE7FEE7E8
:1010E000FEE7FEE7FEE7FEE7FEE7FEE7FEE7FEE7D8
:1010F000FEE7FEE7FEE7FEE7FEE7FEE7FEE7FEE7C8
:10110000FEE7FEE7FEE7FEE7FEE7FEE7FEE7FEE7B7
:10111000FEE7FEE7FEE7FEE7FEE7FEE7FEE7FEE7A7
:10112000FEE7FEE7FEE7FEE7FEE7FEE7FEE7FEE797
:10113000FEE7FEE7FEE7FEE7FEE7FEE7FEE7FEE787
:10114000FEE7FEE7FEE7FEE7FEE7FEE7FEE7FEE777
:10115000FEE7FEE7FEE7FEE7FEE7FEE7FEE7FEE767
:10116000490100002DE9F05F0546002092469B46AC
:1011700088460646814640241BE0284641464746AD
:10118000224600F042F853465A46C01A914110D305
:1011900011461846224600F029F82D1A67EB01087F
:1011A0004F4622460120002100F020F817EB0009ED
:1011B0004E41201EA4F10104DFDC484631462A4698
:1011C0004346BDE8F09F0000064C074D06E0E0688E
:1011D00040F0010394E8070098471034AC42F6D37E
:1011E000FEF7B6FFC4160000E4160000202A04DB58
:1011F000203A00FA02F1002070479140C2F120032A
:1012000020FA03F3194390407047202A04DB203A68
:1012100021FA02F00021704721FA02F3D040C2F116
:101220002002914008431946704700000FB4054B57
:1012300010B503A9044A029800F018F810BC5DF834
:1012400014FB0000AB0200001800002002E008C8F8
:10125000121F08C1002AFAD170477047002001E030
:1012600001C1121F002AFBD1704700002DE9FF4F7A
:101270008DB00F460546002606E025280BD0DDE997
:101280000F1290476D1C761C28780028F5D111B0FC
:101290003046BDE8F08F0024A246A1460122E9496C
:1012A00000E0044315F8013F203B02FA03F0084236
:1012B000F7D128782A2810D06FF02F022878A0F1D3
:1012C0003001092914D80AEB8A0102EB410144F0EC
:1012D000020400EB010A6D1CF0E701CF5FEA000A8F
:1012E00003D544F40054CAF1000A44F002046D1C12
:1012F00028782E2817D115F8010F44F004042A2865
:101300000ED06FF02F022878A0F1300109290AD8F9
:1013100009EB890102EB410100EB01096D1CF2E7C9
:1013200057F8049B6D1C28786C280FD006DC4C28DD
:1013300017D068280DD06A2814D104E0742810D082
:101340007A280FD10DE044F400140AE044F480142C
:1013500001E044F440146978814202D104F580141C
:101360006D1C6D1C28786E281ED00CDC632830D0D4
:1013700004DC00288BD0582811D19FE0642867D066
:1013800069280CD164E073282DD004DC6F2872D05A
:10139000702804D194E075286ED078286DD0DDE9EE
:1013A0000F129047761C4BE1C4F30250022806D07E
:1013B000032809D0042801CF09D0066040E101CFFD
:1013C000F117C0E900613BE101CF068038E106700A
:1013D00036E117F8040B8DF8000000208DF80100AD
:1013E000EB46012003E057F804BB4FF0FF306107E4
:1013F0004FF0000102D40DE008F101018846494593
:101400000FDA8045F8DB1BF808100029F4D108E05A
:1014100008F1010188468142FADB1BF80810002917
:10142000F6D1DDE90F23AAEB08008146214600F042
:1014300031F9304400EB080604E0DDE90F121BF837
:10144000010B9047B8F10108F7D221464846F2E077
:101450000A21C4F302524FF0000B0891022A04D073
:1014600001CFC117032A09D00AE0FF1D27F00707A3
:10147000F7E8020108E02CE01EE01FE000B2C1170F
:10148000042A01D140B2C117021E71F1000206DA2E
:101490000023D0EB030063EB01012D2202E02205C3
:1014A00004D52B228DF82420012203E0E20701D08D
:1014B0002022F7E7904653E00A210BE0102109E0D3
:1014C00010214FF0000B44F004044FF0080908917C
:1014D00003E008214FF0000B0891C4F30252022AE6
:1014E00004D001CF0021032A06D006E0FF1D27F01B
:1014F0000707F7E8020103E080B2042A00D1C0B276
:101500004FF0000822072BD52A78702A07D0DDF883
:1015100020C08CF0100C5CEA0B0C05D00EE04022D1
:101520008DF82420012208E050EA010306D0302380
:101530008DF824308DF8252002229046089B83F0F8
:10154000080353EA0B030BD150EA010201D16207F1
:1015500006D530228DF824204FF00108A9F10109A9
:101560002A78582A04D038A20B9208AA0A920BE0D3
:101570003AA2F9E75B46089AFFF7F4FD0B9B9B5CE8
:101580000A9A521E0A92137050EA0102F2D10A9886
:10159000ADEB000000F1200B600702D524F480348D
:1015A00001E04FF00109D94502DDA9EB0B0000E095
:1015B000002000EB0B0141440890AAEB010AE00374
:1015C00006D4DDE90F232146504600F063F80644B7
:1015D0004FF0000908E009A911F80900DDE90F1230
:1015E000904709F10109761CC145F4DBE0030CD5F5
:1015F000DDE90F232146504600F04CF8064404E094
:10160000DDE90F1230209047761C0899481E08909B
:101610000029F5DC08E00A980A990078491C0A912B
:10162000DDE90F129047761CBBF10001ABF1010B15
:10163000F1DC21465046DDE90F2300F019F806449D
:101640006D1C21E60928010030313233343536373C
:1016500038396162636465660000000030313233FE
:10166000343536373839414243444546000000009E
:101670002DE9F041044600251E461746880404D48F
:1016800005E039462020B0476D1C641EF9D5284678
:10169000BDE8F0812DE9F041044600251E46904644
:1016A000C80301D5302700E02027880404D505E0D1
:1016B00041463846B0476D1C641EF9D52846BDE842
:1016C000F0810000E4160000000000201C00000073
:1016D0004C120000001700001C0000200410000045
:1016E0005C12000001060011810600118107001143
:1016F00001080011002D310114000000000000005D
:0400000500000149AD
:00000001FF
