:020000040000FA
:10000000008701208D4200009142000093420000D1
:100010009542000097420000994200000000000055
:10002000000000000000000000000000610100006E
:100030009D42000000000000A501000021330000E7
:10004000A3420000A5420000A7420000A942000010
:10005000AB420000AD420000AF420000B1420000E0
:10006000B3420000B5420000B7420000B9420000B0
:10007000BB420000BD420000BF420000C142000080
:10008000C3420000C5420000C7420000C942000050
:10009000CB420000CD420000CF420000D142000020
:1000A000D3420000D5420000D7420000D9420000F0
:1000B000DB420000DD420000DF420000E1420000C0
:1000C000E3420000E5420000E7420000E942000090
:1000D000EB420000ED420000EF420000751C000002
:1000E000D31D0000F5420000F742000000000000B0
:1000F000F9420000FB420000FD420000FF42000008
:100100000143000003430000054300007D1B000085
:10011000811B0000851B0000891B00008D1B000057
:10012000911B00001343000015430000174300001B
:10013000194300001B4300001D4300001F43000043
:100140002143000023430000DFF810D005F020FB1E
:100150000048004775020000AFF3008000870120CF
:10016000224B19680868B0E8F00F80F30988BFF3E4
:100170006F8F4FF0000080F311884EF00D0E704726
:100180000000000006480068006880F3088862B636
:1001900061B6BFF34F8FBFF36F8F00DF00BF00BFAB
:1001A00008ED00E0EFF30980BFF36F8F0F4B1A6883
:1001B00020E9F00F106008B54FF0800080F311883F
:1001C000BFF34F8FBFF36F8F02F022F94FF00000A3
:1001D00080F31188BDE8084019680868B0E8F00F9E
:1001E00080F30988BFF36F8F704700BF7809002044
:1001F000EFF305807047000070B504463E4D284679
:1002000003F05EFA0028FAD1E1B2284603F042FA80
:10021000204670BD72B601684268384B186081F3A1
:100220000888904700BFFDE71FB501236422022123
:10023000002003F073FC002364220321184603F01E
:100240006DFC4FF4E130009000208DF804008DF833
:1002500005008DF806008DF808008DF80A008DF86D
:100260000C00254C6946204603F039F9204603F07E
:100270000CFA1FBD03F0C0FFFFF7D6FF20A005F06A
:10028000B5FB20A005F0B2FB28A005F0AFFB30A223
:1002900032A135A005F0AAFB1AA005F0A7FB4FF488
:1002A00080356C68291D224633A005F09FFB286825
:1002B000A52800D1A4B12868A52819D0354805F093
:1002C00095FB4FF0E0200021016181610A4803F0B5
:1002D00001F93149802008604FF48C30FFF79AFF14
:1002E0002EA005F083FB00F0E8F902F0A2F9FEE78A
:1002F00037A005F07BFBE4E70000024008ED00E0DA
:100300000D0A00003D3D3D3D3D3D3D3D3D3D3D3DFA
:100310003D3D3D3D3D3D3D3D3D3D3D3D3D3D3D3D0D
:100320003D3D3D3D3D3D0D0A00000000426F6F74B4
:100330004C6F616465722076322E302028467265DB
:100340006552544F53202B204F5441290D0A000071
:1003500030393A32323A3530000000004A756E20AA
:1003600032372032303236004275696C643A2025CB
:10037000732025730D0A0000626F6F745F617070E7
:100380002040307825303858203D20256C750D0AE6
:10039000000000008064000084E100E04F54412030
:1003A0006D6F6465207265717565737465642C206A
:1003B000696E697469616C697A696E6720467265F5
:1003C0006552544F532E2E2E0D0A0D0A00000000C8
:1003D000626F6F745F617070203D205F4150505FAD
:1003E0004641432C206A756D70696E6720746F20DA
:1003F0004150502E2E2E0D0A0D0A000010B54FF060
:10040000FF3300280DD04FF480321168016054682A
:10041000446094688460D268C260A52903D01846FD
:1004200010BD184610BD002010BD4FF4803040684C
:1004300070474FF480300068A52801D00020704735
:10044000012070477FB504464FF0FF35002C18D0CF
:10045000782003F096FD2068009060680190A06805
:100460000290E06803904FF48034204603F06CFD66
:1004700004226946204603F071FD20B1284604B0ED
:1004800070BD2846FBE70020F9E71FB50446684623
:10049000FFF7B4FF38B1A52000900194002002902E
:1004A0000120039000E001946846FFF7CBFF04B001
:1004B00010BD0000F8B5072126A005F097FA002529
:1004C0002A4F002605EB450007EBC00460690128B0
:1004D0001AD00023201D07C803F020FB6069012803
:1004E00014D0009600230122A168206903F0AAF924
:1004F000A168206903F0A1FA1DA0216805F076FA31
:100500006D1C072DDED3F8BD0123E3E70096012320
:100510000022A168206903F095F91DA0216805F06B
:1005200065FAEDE770B50024104E04EB440506EBC8
:10053000C5008168006903F092FA08B11BA200E0CF
:100540001CA256F835101DA005F050FA641C072CAB
:10055000EBD370BD5B494F20494E49545D20256463
:100560002070696E733A0D0A000000003C630000C1
:100570002020257320202D3E204F555450555420C7
:1005800028696E6974204C4F57290D0A000000003D
:100590002020257320202D3E20494E5055542028E0
:1005A00070756C6C2D7570290D0A0000484947481C
:1005B000000000004C4F5720000000002020257351
:1005C000203A2025730D0A0086B045484FF4E136E5
:1005D0000068016830468847424C206800688047C0
:1005E0002068016940A088472068016947A08847C2
:1005F000206801693CA0884702A8FFF7FFFE002899
:1006000048D0206801694AA08847FFF753FF534D3F
:100610000021286842681A20904728680021426813
:1006200003209047286800214268112090472868DD
:100630000121426838209047494D286801683046BA
:1006400088472068016947A088474F4800680168CB
:10065000286888474D494860002824D020680169EF
:100660004BA0884700F0DCF841F2883500F024FD0B
:1006700000280BDA00F04BFD0146206882694CA08F
:100680009047284601F039FE00F0CAF8322001F008
:1006900034FEEBE70598009002A920680EC90569B1
:1006A0004C48A847B1E7206881694BA088474FF4C0
:1006B0007A74204601F021FEFBE71CB53348022185
:1006C000CDE900108A0200234BA14D4801F072FCD5
:1006D00004480068016902B04AA0BDE8104008471C
:1006E0007C0000200C0A00205B626C5D203D3D3DDB
:1006F0003D3D3D3D3D3D3D3D3D3D3D3D3D3D3D3D2A
:100700003D3D3D3D3D3D3D3D0D0A00005B626C5D64
:1007100020426F6F744C6F616465722076322E30A8
:1007200020284F5441206D6F6465290D0A00000098
:100730005B626C5D20434F4E46206E6F7420696E85
:10074000697469616C697A65642C207573696E6778
:100750002064656661756C74730D0A00BC0000202E
:10076000A00000205B626C5D20554152543120692D
:100770006E697469616C697A65642028313135323B
:100780003030290D0A0000003C0A00200000002043
:100790005B626C5D20616972373234206465766912
:1007A000636520637265617465640D0A0000000072
:1007B0005B626C5D204F544120464154414C2045C2
:1007C00052524F522C2070686173653D25640D0AAA
:1007D00000000000046500005B626C5D20616972CE
:1007E00037323420637265617465204641494C4557
:1007F00044210D0A0000000073746172740000004F
:10080000C90500005B626C5D207461736B5F73747B
:1008100061727420637265617465640D0A00000082
:100820000020CC490870487048608860C860086142
:10083000C9490860C94800680169C9A0084738B5B6
:10084000C44DC64C68782168002807D0012818D00C
:100850000021022844D06970002038BD0969C9A070
:100860008847D049BC4842F21073096800684FF4C9
:100870007A728C680068CCA1A047012068700020C3
:1008800038BD0969CBA088470120FFF7FEFD40B1C4
:1008900020688169D1A08847072028704FF0FF3079
:1008A00038BD20680169D5A0884720680169DAA0B1
:1008B000884720680169E3A0884700F028FE0146C8
:1008C00020680269E5A0904720680169EAA088478E
:1008D00020680169D0A0884702206870002038BDD8
:1008E0000091EC4803E000BF0099491C0091009979
:1008F0008142F8D372B600BFFDE72DE9FE43954C67
:10090000DFF89483944D60780026944F002807D038
:10091000012830D0022852D066700020BDE8FE8346
:10092000D4E90110884208D338680169DBA0884700
:100930000620207066700020F0E76061DEA2CDE93D
:10094000002000F18101E04B0291E0A24FF48071A0
:10095000A3F5807005F05AF8D8F80000E8498268DD
:1009600028689047E6488221823804F092FC0120F2
:1009700060700020D2E7286800684768C668822E49
:1009800001DA0020CAE7DFA1384604F08DFC30B15F
:10099000011DC81B8230B04203D90020BEE70020F1
:1009A000BCE7D7488222823804F05AFCD8F800000D
:1009B000C16828688847022060700020AEE7D048F0
:1009C000823800F0BEFD28B3CD488021823800F087
:1009D00054FD40B138688169CCA088470720207059
:1009E0004FF0FF309AE7A2688232A260E66064208E
:1009F00063685043B0FBF3F5A0690A30854201D229
:100A0000642D05D1386829460769C7A0B847A56194
:100A100066702DE0BA488021823800F07BFD0146E7
:100A2000B748801E0278407842EA00223868E368BE
:100A3000D0F818C05B1CC5A0E047E068401CE0602F
:100A4000032814D938688169CFA08847E6605549E2
:100A5000286842F21073096800684FF47A728D6852
:100A600051A1A847032020706670002056E76670E9
:100A7000002053E72DE9FF41364C384E364D607863
:100A80000027002808D0012823D0022861D06770F1
:100A9000002004B0BDE8F08130680169C6A0884735
:100AA00085A00090884BCEA24FF48071944804F04A
:100AB000ADFF306892490269D5A0904776489049C9
:100AC000006882682868904701206070A760002055
:100AD000DFE7286801684868C968002901DC002050
:100AE000D7E7D0A104F0E0FB18B100F10A010846F5
:100AF00002E00020CDE7401C0278303A092AFAD9FA
:100B0000884206D130688169C9A088476770002093
:100B1000BFE7451A102D00D30F252A46684604F07A
:100B20009FFB0DF80570684604F0EEFB014660601F
:100B300010B1B1F53A3F06D930688269C5A0904737
:100B400067700020A5E78220B1FBF0F230680369EE
:100B500090E195E108000020040000200C0A00202C
:100B60005B6F74615D207374617465206D6163688F
:100B7000696E6520696E697469616C697A65640D76
:100B80000A0000005B6F74615D203D3D3D205068B0
:100B900061736520363A2046494E495348203D3D11
:100BA0003D0D0A00240A002041542B434950434C78
:100BB0004F5345005B6F74615D2073657474696E9B
:100BC0006720626F6F745F617070203D205F4150DD
:100BD000505F4641432E2E2E0D0A00005B6F74615C
:100BE0005D20777269746520626F6F745F617070E9
:100BF000204641494C4544210D0A00005B6F746159
:100C00005D20626F6F745F617070207772697474B9
:100C1000656E204F4B0D0A005B6F74615D203D3D9A
:100C20003D3D3D3D3D3D3D3D3D3D3D3D3D3D3D3DF4
:100C30003D3D3D3D3D3D3D3D3D3D3D3D3D3D3D3DE4
:100C40003D0D0A005B6F74615D204F544120535588
:100C50004343455353210D0A000000005B6F74614C
:100C60005D20546F74616C3A20256C752062797434
:100C700065730D0A000000005B6F74615D205265B2
:100C8000626F6F74696E6720696E2031732E2E2E2D
:100C90000D0A000080778E063C0A00205B6F7461AD
:100CA0005D20646F776E6C6F616420636F6D706C34
:100CB000657465210D0A00007777772E61726D7378
:100CC0006F632E636E000000CA0B0020474554205E
:100CD000257320485454502F312E310D0A486F731C
:100CE000743A25730D0A52616E67653A62797465CC
:100CF000733D256C752D256C750D0A0D0A000000DD
:100D0000CA0A00200D0A0D0A000000005B6F746122
:100D10005D20666C61736820777269746520464156
:100D2000494C45440D0A00005B6F74615D20707290
:100D30006F67726573733A20256C75252520282509
:100D40006C752F256C75290D0A0000005B6F7461AE
:100D50005D20435243206D69736D61746368212087
:100D600063616C633D3078253034582073746F7242
:100D700065643D3078253034582028726574727966
:100D800020256C75290D0A005B6F74615D206D6113
:100D9000782072657472696573206578636565642F
:100DA00065642C207265636F6E6E656374696E672F
:100DB0002E2E2E0D0A0000005B6F74615D203D3DFC
:100DC0003D20506861736520343A204745542046E1
:100DD000494C452053495A45203D3D3D0D0A0000F0
:100DE00047455420257320485454502F312E310D3F
:100DF0000A486F73743A25730D0A52616E67653A3B
:100E000062797465733D302D300D0A0D0A000000C3
:100E10005B6F74615D2073656E64696E673A20254F
:100E200073000000627974657320302D302F00004C
:100E30005B6F74615D206661696C656420746F200E
:100E400070617273652066696C652073697A650DDF
:100E50000A0000005B6F74615D20696E76616C69E9
:100E6000642066696C652073697A653A20256C7523
:100E70000D0A0000AAA0984702206070002008E632
:100E800000F0C4FA40B130688169B0A088470720FB
:100E900020704FF0FF30FCE500F0E4FA30680169A3
:100EA000B1A08847052020706770A760E760002028
:100EB000EFE570B5A2B0B84D50222868AFF2082116
:100EC0000369B6A098475020AFF214230090BEA249
:100ED000802102A804F09AFDC449C34847F2305368
:100EE0000968006800228C68006802A9A047C04C0D
:100EF000002680B1286821698269BEA090472069D8
:100F0000401C2061032803D90120207066702661EF
:100F1000002022B070BD28685022AFF2642103691E
:100F2000BEA0984704202070667026610020F0E77C
:100F30002DE9F041AE4C984F6078002803D1386815
:100F40000169BEA08847DFF8A882002608F11C08C6
:100F500026E038680369C2A098476078A34A41F246
:100F6000883358F82010A0481268006895684FF43C
:100F7000FA720068A84778B1386861788269BEA0C3
:100F800090472069401C2061032803D9012020706C
:100F90006670266100207DE56078401C60702661E7
:100FA000617858F82120002AD3D138680169B9A0A6
:100FB0008847032020706670266100206AE5F8B536
:100FC0008B4C754E884F61783068002905D000251C
:100FD000012924D065700020F8BD0169B5A08847BB
:100FE000BC480068016800208847386038B1306824
:100FF0000169B9A08847012060700020F8BD306801
:101000008169C0A088472069401C2061032804D959
:10101000072020704FF0FF30F8BD0020F8BD0269B6
:101020002D21BFA0904700957049386840F6B8332D
:10103000096800684FF4FA728F68C2A1B84770B1AE
:10104000306821698269C0A090472069401C2061F6
:10105000032801D92570256165700020F8BD30682E
:101060000169C3A0884702202070657025610020B7
:10107000F8BD10B58021C44804F00BF9C3A3CDA27C
:101080007F21C14804F0C2FC4348BF49006802699F
:10109000BDE81040C8A0104710B53F48006801697E
:1010A000CBA08847FFF7E5FF5148012101700021DF
:1010B00041700161002010BD10B54D4C2178072909
:1010C0001BD2DFE801F004070A0D10131600BDE87B
:1010D0001040E1E7BDE8104071E7BDE8104027E7A8
:1010E000BDE81040E5E6BDE81040C3E4BDE81040AF
:1010F00003E4BDE81040FFF7A2BB274800688269FF
:10110000BBA09047072020704FF0FF3010BD38483B
:1011100000787047364840687047354880687047A7
:101120005B6F74615D2066696C652073697A653AEE
:1011300020256C7520627974657320287E256C7576
:10114000206368756E6B73290D0A00005B6F746114
:101150005D20415050206572617365204641494CC5
:1011600045440D0A000000005B6F74615D20415032
:101170005020706172746974696F6E20657261735A
:1011800065642C20726561647920746F20646F77C8
:101190006E6C6F61640D0A000C0A00205B6F746155
:1011A0005D203D3D3D20506861736520333A20430A
:1011B0004F4E4E45435420746F2025733A256420CA
:1011C0003D3D3D0D0A00000041542B43495053540E
:1011D0004152543D22544350222C222573222C226A
:1011E0002564220D0A00000004000020240A0020CB
:1011F000080000205B6F74615D2054435020636FD2
:101200006E6E656374204641494C454420287265E2
:1012100074727920256C75290D0A00005B6F74616A
:101220005D2054435020636F6E6E65637465642067
:10123000746F2025733A25640D0A00005B6F74619A
:101240005D203D3D3D20506861736520323A204964
:101250004E49545F444556203D3D3D0D0A00000077
:101260005B6F74615D20415420636D64205B256475
:101270005D3A2025730000005B6F74615D2041546E
:1012800020636D64205B25645D204641494C4544E4
:101290000D0A00005B6F74615D20616C6C2041542D
:1012A00020696E697420636F6D6D616E6473204F89
:1012B0004B0D0A005B6F74615D203D3D3D20506821
:1012C00061736520313A205245534554203D3D3DE0
:1012D0000D0A00003C0A00205B6F74615D206169AB
:1012E00072373234206465766963652063726561A4
:1012F0007465642C20726573657474696E672E2E34
:101300002E0D0A005B6F74615D2063726561746508
:101310005F646576204641494C45440D0A00000053
:101320005B6F74615D2077616974696E6720666FB9
:1013300072206D6F64756C652028256473292E2ECC
:101340002E0D0A00415400005B6F74615D20415412
:101350002068616E647368616B65204641494C4545
:10136000442028726574727920256C75290D0A0055
:101370005B6F74615D2041542068616E64736861C5
:101380006B65204F4B0D0A00CA0B00202F7A78782E
:101390002F6F74612F6170705F6368617267655F42
:1013A000696E6E65725F686C77383031322E6269B3
:1013B0006E000000257300005B6F74615D2066693C
:1013C0006C652055524C3A2025730D0A0000000030
:1013D0005B6F74615D203D3D3D2050686173652009
:1013E000303A20494E4954203D3D3D0D0A00000051
:1013F0005B6F74615D20756E6B6E6F776E207068C9
:101400006173652025640D0A000000002DE9F0419C
:10141000782002F0B6FD2F26544F4FF48C354FF450
:10142000802338682A46314604695148A047002481
:1014300004E005EB043002F087FD641CB442F8D3ED
:1014400029460A68501C07D03868836949A0984724
:101450004FF0FF30BDE8F0813868016952A088473D
:101460000020F7E75A484FF48C31016000214160B9
:10147000FF228021574803F005BF2DE9F0470646BB
:101480000D464FF0FF3A002E01D0802D02D050467D
:10149000BDE8F087DFF83881DFF8D090D8F8001089
:1014A00001F18000B0F5802F07D9D9F800002A4655
:1014B000836949A098475046EAE7782002F061FD29
:1014C0002027002415E0D8F8000006EB840100EB8B
:1014D0008400042202F042FD50B1D8F8000000EB75
:1014E0008401D9F80000826948A090475046CFE7B0
:1014F000241DBC42E7D3D8F800002844C8F80000F7
:10150000D8F804002844C8F804000020C0E7304898
:101510004068704770B50546002000234AF2010478
:101520000CE0EA5C50400022C60702D084EA50007A
:1015300000E04008521C082AF6DB5B1C8B42F0D30B
:1015400070BD10B50446002C0CD080212046FFF75A
:10155000E1FF14F8801F627841EA0221884203D13A
:10156000012010BD002010BD002010BD0C0A00207D
:10157000D86500005B6F74615F666C6173685D20A5
:1015800065726173652076657269667920464149A6
:101590004C4544206174203078253038583A20304A
:1015A00078253038580D0A005B6F74615F666C6196
:1015B00073685D2041505020706172746974696F66
:1015C0006E20657261736564204F4B0D0A00000048
:1015D000540000204A0C00205B6F74615F666C61F0
:1015E00073685D207772697465206F766572666CCA
:1015F0006F772120616464723D307825303858203F
:101600006C656E3D256C750D0A0000005B6F7461A2
:101610005F666C6173685D2077726974652046410E
:10162000494C4544206174203078253038580D0AE3
:10163000000000003F4A01463F48126800685268B7
:10164000104710B53B4A3C4C01461268606813686D
:1016500001229847002801DD012010BD0020A06074
:1016600010BD38B5344CA068002810D13148012293
:1016700069460068036860689847002807DD012014
:10168000A0602E480068C1699DF80000884738BDF9
:1016900070B50546274E3068C0688047264C2060EC
:1016A0003068C068804760602168A1B198B10020AF
:1016B000A060224C206841692148884720688169E0
:1016C0002048884720680168284688472068406885
:1016D000BDE870400047FEE7CAB2164909680B68CA
:1016E00001461548006818472DE9F04105460E46A9
:1016F0000024104FDFF8408006E03868295D42681A
:10170000D8F804009047641CB442F6DBBDE8F04111
:10171000A7E710B5074A01460748126840685268B3
:101720009047BDE810409CE7024800688168024885
:1017300000680847D00000205C000020400900201D
:1017400035160000431600003F4A01463F48126824
:1017500000685268104710B53B4A3C4C014612687D
:101760006068136801229847002801DD012010BD40
:101770000020A06010BD38B5344CA068002810D1FE
:10178000314801226946006803686068984700286C
:1017900007DD0120A0602E480068C1699DF80000A7
:1017A000884738BD70B50546274E3068C068804709
:1017B000264C20603068C068804760602168A1B115
:1017C00098B10020A060224C2068416921488847D8
:1017D0002068816920488847206801682846884732
:1017E00020684068BDE870400047FEE7CAB216496D
:1017F00009680B6801461548006818472DE9F04153
:1018000005460E460024104FDFF8408006E0386899
:10181000295D4268D8F804009047641CB442F6DBA6
:10182000BDE8F041A7E710B5074A0146074812682E
:10183000406852689047BDE810409CE70248006845
:101840008168024800680847D0000020800000201E
:101850007409002049170000571700000D49096856
:10186000096808470B4A126852681047094A12680B
:101870009268104730B4074C2468E468A44630BC32
:1018800060470449096809690847024A12685269B1
:10189000104700000C09002070B50346002003F13A
:1018A00008050BE0D3E90064B44209D0645D0C5430
:1018B0009C88641CC4F309045C60401C9042F1DB0A
:1018C00070BD10B502684468531CC3F30903A342FA
:1018D00007D000F10803D1540188491CC1F3090164
:1018E000016010BD002101604160704710B54FF4E8
:1018F000816001F07AFD002802D000210160416082
:1019000010BD0000412801D300207047A14901EB20
:10191000401081680029F8D10020704710B5FFF70A
:10192000F1FF28B1C1688068BDE8104002F097B8A7
:10193000002010BD10B50C46FFF7E4FF00280CD0C6
:101940002CB1C1688068BDE8104002F06EB8C16873
:101950008068BDE8104002F070B810BD38B50D4683
:10196000FFF7D0FF002200230024002812D0052D0D
:1019700010D2DFE805F0030A05070900012204E0A0
:10198000012302E0012400E001220094C168806884
:1019900001F058FF38BD70B50E4614461D46FFF7DE
:1019A000B1FF20B18461C5614661002070BD4FF078
:1019B000FF3070BD10B5FFF7A5FF20B10021816198
:1019C000C161002010BD4FF0FF3010BDF8B50E46CC
:1019D000FFF798FF044620004FF0FF3213D0012597
:1019E000012E12D094F9100000F01F018D40400923
:1019F000800000F1E020C0F88051D4E9020102F03B
:101A0000E7FA0020F8BD1046F8BD616900200529FD
:101A100054D2DFE801F003101D2A37000095D4E905
:101A2000020100231A4601F00DFFD4E90201012250
:101A300002F0D4FA32E00090D4E90201012300223E
:101A400001F000FFD4E90201002202F0C7FA25E00C
:101A50000095D4E902010123002201F0F3FED4E94C
:101A60000201022202F0BAFA18E00095D4E902015C
:101A700000231A4601F0E6FED4E90201112202F029
:101A8000ADFA0BE00090D4E902010123002201F03D
:101A9000D9FED4E90201102202F0A0FA94F9100054
:101AA00000F01F018D404009800000F1E020C0F8E7
:101AB0000051D4E9020102F0C3FAA2E71046F8BDD2
:101AC0002DE9F0413449884201D1002117E0334922
:101AD000884201D1012112E03149884201D102211D
:101AE0000DE03049884201D1032108E02E498842A7
:101AF00001D1042103E02D4988423DD105212C4A22
:101B0000A2F5A87652F82130CBB9012342F8213052
:101B10000022204FC1EBC10406EBC40507EB4314C0
:101B2000D4F808C0844507D1D4F800C01446521C2C
:101B300045F824C00E2A02DA5B1C412BEEDB00259F
:101B4000C1EBC10006EBC00656F8250088B1FFF7CF
:101B5000D9FE044620000CD0D4E9020102F076FA46
:101B600038B1D4E9020102F07BFAA16909B1E06958
:101B700088476D1C0E2DE7DBBDE8F08106489FE726
:101B800006489DE706489BE7064899E7064897E719
:101B9000064895E7D40000200010014000200140D5
:101BA00000300140005001400060014000800140D1
:101BB0001C0E00201FB504460123642202210020D0
:101BC00001F0ACFF002364220321184601F0A6FFB8
:101BD000009400208DF804008DF805008DF80600B3
:101BE00007218DF8071001218DF808108DF80900E4
:101BF0008DF80A00FF208DF80B008DF80C10694657
:101C0000404801F06CFC1FBD3E4801F03EBD3D4820
:101C100001F060BC10B53B4C0146204601F03AFD96
:101C2000204601F043FD0028FAD110BD354801F0EF
:101C30003DBD35490860704733494860704710B56D
:101C4000304C0146204601F025FD606840F004005C
:101C5000606010BD2B48416821F00401416070476D
:101C600080212A4A002802D0C2F800117047C2F829
:101C7000801170477CB5234D1021284601F0AFFD3F
:101C8000214C48B90DE001A901F006FD20B92168F9
:101C900011B10198C0B28847E9682846C9B2012944
:101CA000F1D84FF48041284601F099FD50B90EE07B
:101CB00001A9284601F0F0FC20B9216811B1019872
:101CC000C0B28847284601F0F6FC0028F0D0042175
:101CD000284601F084FD002801D0606848B97CBD29
:101CE00061686846884750B19DF80010284601F0A9
:101CF000D1FC284601F0E4FC0028F1D07CBDFFF7C0
:101D0000A9FF7CBD000002401009002004E000E0B3
:101D10001FB50446012365220421002001F0FEFEC8
:101D2000002365220521184601F0F8FE00940020EA
:101D30008DF804008DF805008DF8060007218DF858
:101D4000071001218DF808108DF809008DF80A00A0
:101D5000FF208DF80B008DF80C106946414801F00A
:101D6000BEFB1FBD3F4801F090BC3E4801F0B2BB36
:101D700010B53C4C0146204601F08CFC204601F099
:101D800095FC0028FAD110BD364801F08FBC3649C9
:101D90000860704734494860704710B5314C0146BF
:101DA000204601F077FC606840F00400606010BDE0
:101DB0002C48416821F00401416070472B4A4FF4E0
:101DC0008071002802D0C2F800117047C2F880115B
:101DD00070477CB5234D1021284601F000FD224CB0
:101DE00048B90DE001A901F057FC20B9216811B1F3
:101DF0000198C0B28847E9682846C9B20129F1D8DC
:101E00004FF48041284601F0EAFC50B90EE001A9E8
:101E1000284601F041FC20B9216811B10198C0B2F7
:101E20008847284601F047FC0028F0D004212846C6
:101E300001F0D5FC002801D0606848B97CBD61681C
:101E40006846884750B19DF80010284601F022FCF2
:101E5000284601F035FC0028F1D07CBDFFF7A8FF33
:101E60007CBD0000001002404409002004E000E0B6
:101E700070B50024FE4D04EB840005EB800001F0FA
:101E8000C6F9641C052CF6D3F948643001F0BFF99B
:101E9000F748783001F0BBF9F5488C3001F0B7F91C
:101EA000F348A03001F0B3F9F148B43001F0AFF9D4
:101EB000EF49F048643141631431816370BD70B5FE
:101EC000044601F018FAEB4DA868401CA860286889
:101ED00010B1686938B10CE02C60A868012808D1FD
:101EE000FFF7C6FF05E02868E16AC06A884200D8AB
:101EF0002C60686A401C6862E06A01212A6981409E
:101F000011432961DA4900EB800001EB8000211DBB
:101F100001F08BF901F0FBF9686900280CD0286802
:101F2000E16AC06A884207D2D3494FF08050086006
:101F3000BFF34F8FBFF36F8F70BD2DE9F047814620
:101F4000DDE908560A9C9846521E206B00EB820081
:101F500020F00707002023180A5C83F834200A5C6D
:101F600012B1401C1028F6D34FF0000A84F843A0A9
:101F7000052D00D30425E5626564C4F848A0201D42
:101F800001F050F904F1180001F04CF92461C5F199
:101F90000500A0616462C4F84CA084F850A04246D9
:101FA0004946384601F080F92060002E00D03460A8
:101FB000BDE8F0872DE9FF5F8146DDE90E788A46AE
:101FC00016469B46B00001F010FA054628000AD0DC
:101FD000542001F00AFA04460CB1256304E02846B7
:101FE00001F04DFA00E000248CB10020CDE9024060
:101FF000CDE900785B46324651464846FFF79DFFE3
:102000002046FFF75CFF012004B0BDE8F09F4FF0D1
:10201000FF30F9E79748416B0968002905D0416B0B
:10202000C968C9684968816270474FF0FF318162B1
:10203000704710B50446206B01F021FA2046BDE838
:10204000104001F01CBA70B5044601F054F9894DF6
:1020500004B92C68201D01F00CF958B9E06A844AD3
:1020600000EB800152F8211021B90121814028693B
:1020700088432861A06A18B104F1180001F0F9F84A
:10208000686A401C68622868844208D17848211D2B
:10209000A03001F0CAF86868401C686007E0A868D2
:1020A000401EA8602046FFF7C4FFFFF7B3FF01F012
:1020B0002EF9686900280AD02868844207D16E4941
:1020C0004FF080500860BFF34F8FBFF36F8F70BD2C
:1020D0002DE9F0410026674F386B002808D0B86919
:1020E000401CB861F86900B101263046BDE8F081B6
:1020F000FD686D1CFD6045B9786BB96B7963B86399
:10210000386A401C3862FFF785FFB86ADFF86081E3
:1021100085420DD3786B006838B1786BC068C468AD
:10212000606885420ED2B86202E04FF0FF30B862BC
:102130003868C06A00EB800058F820000128D1D927
:102140000126CFE7201D01F094F8A06A18B104F130
:10215000180001F08EF8E06A01213A6981401143CC
:10216000396100EB800008EB8000211D01F05DF873
:10217000E06A3968C96A8842CCD30126CAE72DE9EA
:10218000F0410024002701F0B6F83A4D286B401EBC
:102190002863286BF0BBA868E0B3DFF8D480012681
:1021A00008F18C081DE0D8F80C00C46804F1180090
:1021B00001F05FF8201D01F05CF8E06A2A6906FA78
:1021C00000F1114329612A4900EB800001EB8000F6
:1021D000211D01F02AF8E06A2968C96A884200D303
:1021E000EE61D8F800000028DDD10CB1FFF712FF36
:1021F000AC6944B1FFF76CFF00B1EE61641E002CC6
:10220000F8D10020A861E86920B101271A493807F0
:10221000086000E003E0BFF34F8FBFF36F8F01F062
:1022200076F8384662E72DE9F04104460F46114E34
:10223000F5683068001D01F01CF838B9306890F876
:102240002C1001208840316981433161601C08D124
:102250003FB13168BDE8F0410548091DB43000F0D8
:10226000E4BF2C4430684460AC420DD2316805E0D4
:10227000340E00207809002004ED00E0B06B091D49
:10228000BDE8F04100F0DDBF3168706B091D00F062
:10229000D8FFB06A844200D2B46227E7FB48016BE2
:1022A000491C0163704770B505460E460023FFF7D1
:1022B000F5FFF648C2682C68A119944205D98C42F2
:1022C00008D9914206D9012304E08C4201D89142F9
:1022D00000D9012329601BB1881A0021FFF7A3FF51
:1022E000FFF74DFF002807D1E9494FF08050086003
:1022F000BFF34F8FBFF36F8F70BD10B50246002044
:10230000002A07D0FFF7CAFF00211046FFF78BFF16
:10231000FFF735FF002807D1DD494FF080500860F6
:10232000BFF34F8FBFF36F8F10BD10B5044600F0A1
:10233000E2FF0CB9D5480468E46A00F0E8FF2046E3
:1023400010BD8022EFF3118182F31188BFF34F8F0C
:10235000BFF36F8F002801D1CC480068C06A81F3B9
:10236000118870472DE9F04104460D460026052DE1
:1023700000D3042500F0BFFFC44F04B93C68606C73
:10238000A84241D0854208D939688C4209D03968C1
:10239000C96AA94205D8012603E039688C4200D1F8
:1023A0000126D4F82C80404500D1E5626564A0691F
:1023B000002802DBC5F10500A061B64D08EB8801DD
:1023C000606905EB8101884215D1201D00F051FFA5
:1023D000012120B93A6901FA08F082433A61E06AC2
:1023E0003A6981401143396100EB800005EB8000C0
:1023F000211D00F01AFF3EB1A5494FF08050086042
:10240000BFF34F8FBFF36F8FBDE8F04100F07FBF88
:102410009E4A106B002802D00120D0617047002036
:10242000D0611069B0FA80F0C0F11F00994900EB4B
:10243000800001EB800041684968416000F10803B9
:10244000994201D1496841604068C0681060704796
:1024500070B5044600F04FFF8C4D04B92C68201D68
:1024600000F007FF58B9E06A8A4A00EB800152F891
:10247000211021B901218140286988432861A06A7F
:1024800018B104F1180000F0F4FE8248211DB430A8
:1024900000F0CBFE00F03BFF686928B100F02BFF95
:1024A000FFF7B8FD00F033FF2868844209D168695E
:1024B00040B177494FF080500860BFF34F8FBFF3B2
:1024C0006F8F70BD7348A968B4300068884202D12C
:1024D0000020286070BDBDE8704099E700216D4B79
:1024E0004269B4339A4206D1806AA3F1280290422D
:1024F00001D000B901210846704770B50446002C90
:102500002BD0624D2868844227D000F0F4FE20468C
:10251000FFF7E4FFE8B1201D00F0ABFEE06A012107
:102520002A698140114329615A4900EB800001EB7F
:102530008000211D00F079FEE06A2968C96A88429E
:1025400007D353494FF080500860BFF34F8FBFF35C
:102550006F8FBDE8704000F0DABE70BD2DE9F0412C
:10256000044600268020EFF3118580F31188BFF325
:102570004F8FBFF36F8F2046FFF7B0FF40B1434F3F
:10258000386B48B1434804F118018C3000F04DFE1F
:1025900085F311883046A9E5E06A3968C96A88423E
:1025A00000D30126201D00F064FEE06A01213A6993
:1025B000814011433961374900EB800001EB800015
:1025C000211D00F032FEE3E770B5324E2F4DA036EC
:1025D0001CE0FFF763FE306820B10024FFF7CFFD59
:1025E000A4B901E00124F9E700F085FEF068C468B1
:1025F000201D00F03EFEA868401EA8606868401ECE
:10260000686000F084FE2046FFF713FD686800282C
:10261000DFD170BD1F4E4FF080541D4DFFF7D4FF2A
:1026200030680128FAD92C60BFF34F8FBFF36F8F4A
:10263000F4E71CB5154800242C30CDE900402346B2
:10264000802215A11648FFF7B5FC012811D1802082
:1026500080F31188BFF34F8FBFF36F8F0B484FF09C
:10266000FF31816201214161C460BDE81C4000F07E
:102670002EBE1CBD802080F31188BFF34F8FBFF3A7
:102680006F8F02490020486100F034BE78090020B5
:1026900004ED00E0340E002049444C4500000000E9
:1026A00015260000FC48C0687047FB48C0687047AA
:1026B000F94880687047002801D1F7480068343035
:1026C000704710B50C46F4490968183100F0B9FD9F
:1026D0002046BDE810400121A5E570B5154641F042
:1026E0000043ED490C68A3610968183100F09DFDB5
:1026F0002846BDE87040012195E52DE9F041C0680C
:10270000C46804F11800074600F0B3FDE24D2A6BDF
:1027100001265AB13946E14800F087FDE06A296890
:10272000C96A884215D90120EE61DFE4201D00F05E
:10273000A0FDE06A2A6906FA00F111432961D74930
:1027400000EB80008C3901EB8000211D00F06DFD55
:10275000E4E70020CAE470B541F000410160C468BC
:1027600000F087FD201D00F084FDCB4DE06A0126BE
:102770002A6906FA00F111432961C84900EB80007B
:102780008C3901EB8000211D00F04FFDE06A2968C3
:10279000C96A884202D90120EE6170BD002070BD77
:1027A000BD490A6A0260C9684160704770B5044655
:1027B0000D4600F0A0FDB849C8682A68531C08D02F
:1027C0002368096A8B4206D06168814203D80124DC
:1027D0000DE000240BE06168401A904206D2101A06
:1027E00028602046FFF7DCFF002400E0012400F011
:1027F0008EFD204670BDA8490120C8617047A648DB
:102800000068704770B5044600283AD0A24DE06ACF
:102810002968C96A884234D2A069002804DB286884
:10282000C06AC0F10500A061E06A9C4E00EB800028
:102830008C3E616906EB800081421FD1201D00F0B3
:1028400018FD012150B9E06A00EB800256F8222001
:1028500022B92A6901FA00F082432A612868C06A15
:10286000E0622A6981401143296100EB800006EB98
:102870008000211DBDE8704000F0D7BC2868C06A08
:10288000E06270BD70B504460020002C2DD0A16C14
:10289000491EA164636CE26A9A4226D0002924D1C1
:1028A000201D00F0E6FC7D4A7B498C3A012350B99B
:1028B000E06A00EB800552F8255025B90D6903FA4E
:1028C00000F085430D61606CE062C0F10500A0611D
:1028D000E06A0D6983402B430B6100EB800002EB43
:1028E0008000211D00F0A1FC012070BD6A4908682C
:1028F00080690A680968D26AC2F105028A61704774
:1029000065490868002803D00868826C521C8264FC
:102910000868704770B506460C4600F0ECFC5E4D4A
:102920002868C06C80B92A68012082F850005CB128
:1029300001212046FFF777FC59494FF0805008608D
:10294000BFF34F8FBFF36F8F00F0E1FC00F0D3FCBB
:102950002868C46C002034B116B12968C86402E04C
:102960002A68611ED164296881F8500000F0CFFC0C
:10297000204670BD2DE9F04781460F461646984621
:1029800000F0B9FC444D286890F85000022817D098
:102990002C68E06C20EA0900E0642968012081F8D5
:1029A0005000B8F1000F0BD001214046FFF73BFC6F
:1029B0003B494FF080500860BFF34F8FBFF36F8FDC
:1029C00000F0A5FC00F097FC16B12868C06C3060E0
:1029D000286890F8500001280DD02868C16CB943D0
:1029E000C16401242968002081F8500000F08FFCA8
:1029F0002046BDE8F0870024F4E72DE9F0410446C5
:102A00000D4690461F46012600F075FC0FB1E06CA4
:102A1000386094F85000022184F85010B8F1050F86
:102A200013D2DFE808F01203070B0D00E16C294315
:102A3000E1640AE0E16C491CE16406E0E56404E05D
:102A4000022801D0E56400E0002601281FD1201DE6
:102A500000F00FFC104DE06A01212A69814011430A
:102A600029610E4900EB80008C3901EB8000211DAB
:102A700000F0DBFBE06A2968C96A884207D9084987
:102A80004FF080500860BFF34F8FBFF36F8F00F09F
:102A90003EFC30467FE5000078090020C00E002093
:102AA00004ED00E02DE9F0470446089F0126802050
:102AB000EFF3118580F31188BFF34F8FBFF36F8F52
:102AC000002B01D0E06C186094F85000022384F8C9
:102AD0005030052A13D2DFE802F01203070B0D0075
:102AE000E26C0A43E2640AE0E16C491CE16406E03E
:102AF000E16404E0022801D0E16400E0002601283E
:102B00002CD1DFF81481D8F830004FF0010970B1F2
:102B100004F11801414800F088FBE06AD8F8001081
:102B2000C96A88421AD9BFB1C7F8009016E0201DC3
:102B300000F09FFBE06AD8F8102009FA00F1114379
:102B4000C8F8101000EB800134488C3800EB81008D
:102B5000211D00F06AFBE0E7C8F81C9085F311889E
:102B6000304646E72DE9F041044688468020EFF3E1
:102B7000118780F31188BFF34F8FBFF36F8F94F8E5
:102B80005010022084F85000E06C401CE0640129E1
:102B900027D1214D286B012678B104F118011F4877
:102BA00000F043FBE06A2968C96A884219D9B8F184
:102BB000000F15D0C8F8006013E0201D00F059FB8D
:102BC000E06A2A6906FA00F111432961134900EB12
:102BD00080008C3901EB8000211D00F026FBE1E72D
:102BE000EE6187F31188D6E410B500280BD00446B7
:102BF00000F081FB94F85000022807D0002400F078
:102C000086FB204610BD04480468F1E7002084F8E4
:102C100050000124F3E7000078090020C00E0020D6
:102C200070B504460D4600F066FBD4E90F1220682B
:102C300001FB020060600020A0632068A060E06BE0
:102C4000226C2168401E00FB0210E0604FF0FF3054
:102C500084F8440084F8450004F110004DB100F000
:102C6000D6FA04F1240000F0D2FA00F050FB012063
:102C700070BD21690029F8D0FFF73FFD0028F4D08E
:102C8000FC494FF080500860BFF34F8FBFF36F8F48
:102C9000EBE703460098002904D00260C363016497
:102CA0000121BDE70060F9E7F8B506460D46174675
:102CB000002D10D006FB05F0483000F096FB0446CE
:102CC0003CB104F148023B46294630460094FFF7E8
:102CD000E0FF2046F8BD0020EEE72DE9F041044674
:102CE00000F009FB94F9455004F1240609E0606AFC
:102CF00048B13046FFF701FD08B1FFF77CFD6D1EBE
:102D00006DB2002DF3DC4FF0FF3684F8456000F023
:102D1000FEFA00F0F0FA94F9445004F1100709E0CB
:102D2000206948B13846FFF7E8FC08B1FFF763FDBA
:102D30006D1E6DB2002DF3DC84F84460BDE8F041F7
:102D400000F0E5BA10B5044600F0D5FAA06BE16BCF
:102D5000884201D1012400E0002400F0D8FA204686
:102D600010BD2DE9F041044617460026A56B226CE4
:102D7000002A10D0C7B1E06802F072FAE168206C56
:102D8000091AE1602268914202D26168081AE06083
:102D9000022F16D017E02068A8B96068FFF772FD0F
:102DA0000646002060600EE0A06802F059FA216C2F
:102DB000A0680844A0606168884204D32068A060CD
:102DC00001E005B16D1E6D1CA5633046BDE8F081C4
:102DD0002DE9FF4782B004468A4699460025A84659
:102DE0004FF08056A34F00F086FAA06BE16B88424B
:102DF00006D3B9F1020F03D00498F8B115B325E05A
:102E00004A4651462046FFF7ACFF616A51B104F1D2
:102E10002400FFF772FC58B13E60BFF34F8FBFF341
:102E20006F8F05E020B13E60BFF34F8FBFF36F8F10
:102E300000F06DFA012006B0BDE8F08700F067FAF7
:102E40000020F8E76846FFF7ABFC012500F05FFAC9
:102E5000FFF724FA00F04FFA94F94400401C01D126
:102E600084F8448094F94500401C01D184F84580E1
:102E700000F04DFA04A96846FFF798FC30B12046EF
:102E8000FFF72BFFFFF77BF90020D4E72046FFF781
:102E900059FF88B104F110000499FFF712FC204695
:102EA000FFF71BFFFFF76BF900289CD13E60BFF3D3
:102EB0004F8FBFF36F8F96E72046FFF70EFFFFF7A8
:102EC0005EF990E7002807D0002141600160C160F1
:102ED00000231A4619467BE7704710B502460021C9
:102EE0000120FFF7E1FE04462046FFF7EBFF2046F6
:102EF00010BD2DE9F041174604461A468020EFF335
:102F0000118680F31188BFF34F8FBFF36F8FA06BD3
:102F1000E36B984205D3022A03D0002086F3118880
:102F200054E794F945502046FFF71BFF681C04D076
:102F30006D1C84F845500120F0E7606A0028FAD043
:102F400004F12400FFF7D9FB0028F4D0002FF2D0C1
:102F500001203860EFE770B50D468021EFF3118452
:102F600081F31188BFF34F8FBFF36F8F836BC16BFA
:102F7000994217D990F945205B1C8363511C04D0FA
:102F8000521C80F8452001200DE0416A0029FAD04A
:102F90002430FFF7B2FB0028F5D0002DF3D001203C
:102FA0002860F0E7002084F3118870BD10B5044656
:102FB00000F0A1F9A06B20B1002400F0A8F9204690
:102FC00010BD0124F9E730B40B46026C002A0CD086
:102FD000C1681144C1604468A14201D30168C16065
:102FE000C16830BC184602F03BB930BC70472DE9CF
:102FF000FF4F83B004468B469A460026B1464FF0F9
:103000008057DFF8708000F076F9A56BA5B3E6680D
:1030100059462046FFF7D7FFBAF1000F13D0E660FC
:10302000606A50B104F12400FFF767FB28B1C8F8CB
:103030000070BFF34F8FBFF36F8F00F068F901206E
:1030400007B0BDE8F08F6D1EA563206810B9FFF7CB
:1030500057FC606020690028EFD004F11000FFF7F2
:103060004CFB0028E9D0C8F80070BFF34F8FBFF3C6
:103070006F8FE2E704ED00E0FFE7059808B126B1A5
:1030800007E000F044F90020DAE701A8FFF788FB29
:10309000012600F03CF9FFF701F900F02CF994F952
:1030A0004400401C01D184F8449094F94500401C30
:1030B00001D184F8459000F02AF905A901A8FFF78D
:1030C00075FB58B12046FFF708FEFFF758F8204679
:1030D000FFF76CFF002896D00020B1E72046FFF7ED
:1030E00065FFE0B1206830B900F005F96068FFF7CE
:1030F00089FB00F00CF904F124000599FFF7E1FACF
:103100002046FFF7EAFDFFF73AF800287FF47BAF8F
:10311000C8F80070BFF34F8FBFF36F8F73E720467F
:10312000FFF7DBFDFFF72BF86DE72DE9F0410446D3
:1031300090468020EFF3118780F31188BFF34F8F03
:10314000BFF36F8FA66B002E1DD094F9445020461C
:10315000FFF739FF761EA663681C04D06D1C84F847
:103160004450012010E020690028FAD004F110003A
:10317000FFF7C3FA0028F4D0B8F1000FF1D0012016
:10318000C8F80000EDE7002087F311881EE670B54F
:1031900004468020EFF3118580F31188BFF34F8F31
:1031A000BFF36F8FA06B002806D0E6682046FFF7BC
:1031B0000AFFE660012000E0002085F3118870BD61
:1031C00010B5044600F097F8A46B00F0A0F8204674
:1031D00010BD10B5044600F08EF8D4E90E10441A64
:1031E00000F095F8204610BD806B704700F047B99D
:1031F000806B002801D00020704701207047816B50
:10320000C06B814201D1012070470020704700F15E
:10321000080141604FF0FF328260C160016100210E
:103220000160704700210161704742684A609368FD
:103230008B6093685960916008610168491C016066
:10324000704730B50C68621C02D000F1080202E041
:10325000026904E01A4653681D68A542FAD953680A
:103260004B6099608A60516008610168491C016087
:1032700030BD0169D0E901329A60D0E901235A607A
:103280004A68824201D182684A600022026108686D
:10329000401E086070470000802080F31188BFF353
:1032A0004F8FBFF36F8FFEE720384FF08073C361FD
:1032B00021F0010181612449416140F820297047D2
:1032C0004FF0E0202149416107210161704710B5AD
:1032D0001F48016841F47F010160016841F07F41AE
:1032E0000160FFF7EDFF1B4900200860FCF74AFF73
:1032F000002010BD7047802080F31188BFF34F8FEE
:10330000BFF36F8F13480168491C01607047114972
:103310000868401E0860002801D180F311887047BA
:1033200010B5802080F31188BFF34F8FBFF36F8FEC
:10333000FEF7CEFE20B106494FF080501C390860E0
:10334000002080F3118810BD99320000FFAF01000A
:1033500020ED00E0B409002030B55C4900E01146E2
:103360000A688242FBD34B685C18844203D14068F0
:103370001844486008460D6844682318AB420DD1D4
:10338000524B103B1B689A4206D05268224442605E
:103390000A681268026002E0036000E00260814295
:1033A00000D0086030BD4FF4B4314948420706D020
:1033B000C01D20F007004649411AC1F5B431434A07
:1033C0001060002353600144083921F00701103ACE
:1033D00011604B600B600B1A4360016040689060A5
:1033E00050604FF00040D06070472DE9F041054635
:1033F0000026FEF753FF354F103F386808B9FFF736
:10340000D2FFF868054235D13DB10835680704D0D0
:1034100005F00700C0F1080005445DB378688542F7
:1034200028D82A490846046801E021460446606815
:10343000A84202D220680028F7D13868844219D007
:103440000E680836206808606068411B102904D99E
:10345000601941606560FFF77FFF61687868401A16
:103460007860BA68904200D2B860F8680143616041
:1034700000202060FEF783FE3046BDE8F08170B585
:10348000002819D008380446104D6068103DE968DE
:10349000084211D02268002A0ED188436060FEF7EE
:1034A000FDFE60686968084468602046FFF754FFC5
:1034B000BDE87040FEF763BE70BD04481038406838
:1034C000704702481038806870477047C80900206C
:1034D000FC0E0020416821F40071416070472DE925
:1034E000F04704460D46D5484FF4805726184FF054
:1034F00080404FF400584FF4405973D0BE4276D00C
:10350000464579D04E4503D1816841F480418160C0
:103510002046FFF7DFFF606840F400506060A0685D
:103520006FF30D00A060C648296800680009B0FB71
:10353000F1F0A168401E0843A060606820F47C00A0
:10354000606060682979AA7940EA81406979C90494
:1035500041EA825108436060F6B3BE4255D0464509
:1035600057D04E4502D12A2000F05CF9E06880B2C5
:10357000E060E879697A401C000440EA0160E16893
:103580000843E060606820F07F4060606068E97A2E
:1035900040EA01606060606844F214018843606042
:1035A0006068297A2A7B40EA0110A97A890041EAF9
:1035B00082310843606086B3BE423FD046454DD05D
:1035C0004E4560D1287AA97A0843297B084355D013
:1035D000BDE8F0472A2003E013E003E007E00BE03A
:1035E00000F015B9816841F40061816090E781685D
:1035F00041F4805181608BE7816841F40051816022
:1036000086E7272000F00EF9B0E7282000F00AF93D
:10361000ACE7292000F006F9A8E7FFE7287AA97AA5
:103620000843297B084304D0BDE8F047272000F079
:10363000EEB8BDE8F047272000F0F4B8287AA97A60
:103640000843297B084304D0BDE8F047282000F058
:10365000DEB8BDE8F047282000F0E4B8287AA97A5F
:103660000843297B084304D0BDE8F047292000F037
:10367000CEB8BDE8F047292000F0D4B8BDE8F04747
:103680002A2000F0CFB8BDE8F087416841F400710E
:1036900041607047016070470068C0F308020A602B
:1036A000400501D50220704700207047406840F374
:1036B0000000401C7047406840F3C000401C704749
:1036C0004068C0F34000704782686FF30D0282606B
:1036D0005B4A12681209B2FBF1F18268491E11437C
:1036E000816070475649806809680909C0F30D0078
:1036F000401CB1FBF0F07047436923F005034361C0
:10370000436941EA82010B43436170474069C0F35A
:10371000C010704710B5446924F07A0444614469CC
:10372000D20044EA410142EA03121143416110BD53
:103730004069C0F300207047036923F0050303616B
:10374000036941EA82010B4303617047016941F05B
:103750001001016170470069C0F3400070470069C3
:10376000C0F3C00070470022FF2918D0A1F5807374
:10377000FF3B14D0FE290DD0B1F5FF7F0AD0F82908
:103780000AD0B1F5FC7F07D0802907D0B1F5C07F02
:1037900004D0FEE7012202E0022200E00322816859
:1037A00021F06071816081684FF4000343EA026296
:1037B0001143816070478168090201D5002070477C
:1037C0008068400101D5022070470120704742689F
:1037D0000A434260704742688A4342607047CA06A3
:1037E00002D5826852020ED44A0402D5826892023F
:1037F00009D44A0702D58268920304D4490604D545
:103800008068000101D5012070470020704700F05A
:103810001F02012191404009800000F1E020C0F822
:103820000011704700F01F02012191404009800003
:1038300000F1E020C0F88011704700000000FEBFDA
:10384000E00900202DE9F0471646DDF820801F46EC
:10385000DFF8AC920124AB4D8C40A0EB09034FF490
:10386000805C4FF08042484576D01FDCA64BC018E4
:1038700038D0604558D0B0F5005F15D1906840F061
:103880000400906001230022022000F047F99F48C5
:10389000012E6CD04168A1434160012F6BD0D5F857
:1038A0001002A043C5F81002BDE8F08763457DD043
:1038B000B3F5405FF8D1906840F4001090600123A8
:1038C0000022052000F02AF99148012E6FD04168AE
:1038D000A1434160012F6BD0D5F83002A043C5F859
:1038E0003002E1E7906840F001009060002201237F
:1038F000104600F013F984484042012E0AD0416876
:10390000A1434160012F09D0D5F80002A043C5F8BA
:103910000002C9E7416821434160F3E7D5F800029E
:103920002043C5F80002BFE7906840F002009060B5
:1039300001230022184600F0F1F87648012E0CD041
:103940004168A1434160B8F1010F0AD0D5F80003E6
:10395000A043C5F80003A7E713E041682143416095
:10396000F1E7D5F800032043C5F800039CE7416860
:103970002143416091E7D5F810022043C5F81002B9
:1039800092E7906840F0100090600123002203202D
:1039900000F0C4F8012E10D0D9F80400A043C9F8F3
:1039A0000400012F0FD0D5F8200202E011E032E030
:1039B00035E0A043C5F8200276E7D9F8040020439B
:1039C000C9F80400EDE7D5F820022043C5F820022D
:1039D0006AE7906840F020009060012300220420F4
:1039E00000F09CF84C48012E0BD04168A143416087
:1039F000B8F1010F09D0D5F82003A043C5F8200382
:103A000052E7416821434160F2E7D5F820032043A3
:103A1000C5F8200348E74168214341605AE7D5F8DB
:103A200030022043C5F830023EE70122400100EB9E
:103A3000810000F18440026070470022400100EBE9
:103A4000810000F1844002607047400100EB81007A
:103A500000F184400168C1F1010101607047006814
:103A6000C84000F001007047C2F118036FF07F42B8
:103A7000DA4003688A40134303607047C2F11803B9
:103A80006FF07F42DA4003688A40934303607047D7
:103A9000C2F118036FF07F42DA4003688A40534056
:103AA00003607047C2F118036FF07F42DA4000688C
:103AB000C84010407047C2F118036FF07F42DA40EF
:103AC00072B603688A401343036062B67047C2F15E
:103AD00018036FF07F42DA4072B603688A4093435E
:103AE000036062B67047C2F118036FF07F42DA409C
:103AF00072B603688A405340036062B670470000A4
:103B0000005001400000014000F0FEBF00300140C5
:103B10000080014000200140006001402DE9F04F8D
:103B200086B001EB81074FF01F0BA2F1640A0BFA7C
:103B300007F60AFA07F48D1F05EB850C0BFA0CF754
:103B40000AFA0CF54FF001084FEA41094FF0030C57
:103B5000A1F10C0E0CFA09FC08FA01F80EEB8E0E1E
:103B60008B40CDF800E00BFA0EFECDF814E0DDF846
:103B700000E00AFA0EFECDF810E0A1F1120E0EEBF5
:103B80008E0E0BFA0EFB0AFA0EFACDE902ABA1F18A
:103B9000100A4FEA4A0A4FF0030B0BFA0AFBCDF862
:103BA00004A0DFF89CA3062837D2DFE800F0033931
:103BB0006EA3F0EF632A18D906290AD2DAF80001B9
:103BC000B043CAF80001DAF800012043CAF8000146
:103BD0000BE00C2909D2DAF80401B843CAF8040151
:103BE000DAF804012843CAF80401DAF8000020EAF0
:103BF0000C00CAF80000632A00D90122DAF800009C
:103C000002FA09F20243CAF80020CE48016821EA0C
:103C10000801016001681943016006B0BDE8F08F3A
:103C2000632A18D906290AD2DAF81001B043CAF873
:103C30001001DAF810012043CAF810010BE00C293A
:103C400009D2DAF81401B843CAF81401DAF81401F9
:103C50002843CAF81401DAF8040020EA0C00CAF874
:103C60000400632A00D90122DAF8040002FA09F2FA
:103C70000243CAF80420B3481030016821EA080161
:103C80000160016819430160C7E7632A18D9062952
:103C90000AD2DAF82001B043CAF82001DAF820018C
:103CA0002043CAF820010BE00C2909D2DAF82401DC
:103CB000B843CAF82401DAF824012843CAF82401D9
:103CC000DAF8080020EA0C00CAF80800632A00D9D4
:103CD0000122DAF8080002FA09F20243CAF80820C1
:103CE00098482030016821EA080101600168194301
:103CF000016092E7632A36D906290AD2DAF8600110
:103D0000B043CAF86001DAF860012043CAF86001E4
:103D100029E00C290AD2DAF86401B843CAF8640130
:103D2000DAF864012843CAF864011CE012290CD2B5
:103D3000DAF86801059CA043CAF86801DAF868015E
:103D4000049C2043CAF868010DE018290BD2DAF868
:103D50006C01039CA043CAF86C01DAF86C01029C68
:103D60002043CAF86C01102912D2DAF8200020EAA8
:103D70000C00CAF82000632A00D90122DAF82000DA
:103D800002FA09F20243CAF8202011E071E019E0BA
:103D9000DAF8240020EA0B00CAF82400632A00D9CC
:103DA000012201988240DAF824000243CAF8242054
:103DB00064484030016821EA080101600168194344
:103DC00001602AE7632A27D906290AD2DAF87001A6
:103DD000B043CAF87001DAF870012043CAF87001E4
:103DE0001AE00C290AD2DAF87401B843CAF874014F
:103DF000DAF874012843CAF874010DE012290BD2D5
:103E0000DAF87801059CA043CAF87801DAF878411D
:103E100004980443CAF87841102910D2DAF8300027
:103E200020EA0C00CAF83000632A00D90122DAF82F
:103E3000300002FA09F20243CAF830200FE0DAF843
:103E4000340020EA0B00CAF83400632A00D90122AA
:103E500001988240DAF834000243CAF83420394825
:103E60005030016821EA08010160016819430160CE
:103E7000D3E6632A36D906290AD2DAF88001B0439C
:103E8000CAF88001DAF880012043CAF8800129E0ED
:103E90000C290AD2DAF88401B843CAF88401DAF8A6
:103EA00084012843CAF884011CE012290CD2DAF8F4
:103EB0008801059CA043CAF88801DAF88841049873
:103EC0000443CAF888410DE018290BD2DAF88C4176
:103ED00003988443CAF88C41DAF88C01029C204391
:103EE000CAF88C01102910D2DAF8400020EA0C0040
:103EF000CAF84000632A00D90122DAF8400002FA29
:103F000009F20243CAF840200FE0DAF8440020EA40
:103F10000B00CAF84400632A00D9012201988240AC
:103F2000DAF844000243CAF84420064860300168C9
:103F300021EA080101600168194301606DE6000093
:103F4000000001400006014010B572B6000B1B4C8A
:103F5000A16888472068804762B610BD10B5030786
:103F600001D0022010BD930701D0022010BD72B60F
:103F70009208124CE36898472068804762B6002098
:103F800010BD10B572B60D4940F289431E284A682B
:103F900008D028280AD050280CD00949581C90472E
:103FA00062B610BD074918469047F9E7064918461A
:103FB0009047F5E7054918469047F1E7D0090020FA
:103FC0006E7AFCAB251FF4AB2929F4AB4D52F8AB4C
:103FD000426901238B409A434261704770B50446A1
:103FE0000E46154631462046FFF7F2FFEA064FF02F
:103FF000010000FA06F00CD5A1680143A160E907B1
:1040000003D021690143216118E0216981432161C5
:1040100014E0A1688143A160A90703D5E1680143C9
:10402000E1600BE0E1688143E160E90703D02169C9
:104030000143216102E0216981432161206270BD59
:10404000426901238B401A4342617047C069C840EE
:1040500000F0010070478069C84000F0010070471F
:1040600001228A400262704730B54FF080410868F3
:104070007B4A45077B4C7C4B7C480CD50D68AD07D3
:1040800001D502601CE02268D20702D0784A0260A3
:1040900016E0036014E00D68ED070ED0646AA40713
:1040A00001D5036000E0026002680523B2FBF3F271
:1040B000C8235A43D208026002E04FF4FA42026079
:1040C0004968C90702D0016849080160694A016866
:1040D000B1FBF2F1416030BD4FF08040016849070B
:1040E00002D40068C00707D0002044F6206100BF5A
:1040F000401C8842FBD37047002000BF401C14289E
:10410000FBD3704710B5574C01202062FFF7E4FF46
:10411000FFF7E2FF606A20F002006062A06A564981
:104120000840A062A06A55490843A062606A20F076
:1041300004006062206B0028FCD010BD10B5FFF7B2
:10414000E1FF4848416A41F0010141628004016891
:1041500041F001010160016821F00401016010BD1E
:1041600010B5404901200862FFF7B6FFFFF7B4FF22
:104170004FF08040016841F002010160016841F0A8
:104180000401016010BD10B54FF08044A06840F0FC
:104190008070A0603A48016A21F001010162FFF7D6
:1041A0009BFF206820F001002060206820F00400C0
:1041B000206010BD10B52B4901200860FFF78CFF6F
:1041C0004FF08040016821F002010160016841F078
:1041D0000401016010BD10B5224900200860FFF7FE
:1041E0007BFF4FF08040016821F00201016001680F
:1041F00041F00401016010BD10B54FF08044A0688B
:1042000040F48000A0607820FFF7BBFEFFF796FF28
:10421000606820F00100606060686060FFF724FF64
:10422000124818490068884204D9BDE81040782037
:10423000FFF7A7BE0E49884204D9BDE810405020C0
:10424000FFF79FBE1049884204D9BDE810402820DE
:10425000FFF797BEBDE810401E20FFF792BE00009A
:104260000080510100100340002D3101E0090020C1
:10427000005A620240420F0000FEE0FC32000500DE
:1042800000E0014000B4C40480C3C90125480047D0
:10429000FEE7FEE7FEE7FEE7FEE7FEE7FEE7FEE7F6
:1042A000FEE7FEE7FEE7FEE7FEE7FEE7FEE7FEE7E6
:1042B000FEE7FEE7FEE7FEE7FEE7FEE7FEE7FEE7D6
:1042C000FEE7FEE7FEE7FEE7FEE7FEE7FEE7FEE7C6
:1042D000FEE7FEE7FEE7FEE7FEE7FEE7FEE7FEE7B6
:1042E000FEE7FEE7FEE7FEE7FEE7FEE7FEE7FEE7A6
:1042F000FEE7FEE7FEE7FEE7FEE7FEE7FEE7FEE796
:10430000FEE7FEE7FEE7FEE7FEE7FEE7FEE7FEE785
:10431000FEE7FEE7FEE7FEE7FEE7FEE7FEE7FEE775
:10432000FEE7FEE7490100003FB5A1B05E4C2368FF
:10433000002B13D08DF800008DF801100025ADF88A
:104340000250802101A8249B01F07AFB8DF8835054
:1043500000231A4669462068FEF73AFD25B030BDB5
:1043600037B5A2B0002400944F4D2B68002BF5D038
:104370008DF804008DF80540ADF806400A4680210E
:1043800002A8249B01F05CFB8DF8874000236A465D
:1043900001A92868FEF7ADFD00980028DED043494A
:1043A0004FF080500860BFF34F8FBFF36F8FD5E79A
:1043B0000FB410B503AB00210846029AFFF7B4FF13
:1043C00010BC5DF814FB0FB410B503AB0021012045
:1043D000029AFFF7A9FFF3E70FB410B503AB002172
:1043E0000220029AFFF7A0FFEAE70FB410B503AB73
:1043F00000210320029AFFF797FFE1E70FB410B501
:1044000003AB00210420029AFFF78EFFD8E70FB418
:1044100010B503AA00200299FFF7A2FFD0E710B55C
:10442000214C2068002808D1002284216420FEF756
:104430003BFC2060002800D1FEE710BD70B5A2B0A3
:104440001BA51948006800281ED000231A4601A9A0
:10445000FEF7CDFD012817D19DF80400012815D0E5
:10446000022817D0032813D0042811D010A49DF8D7
:10447000050001AE80B1FEF715F90246331D214655
:104480000CA0009501F0B2FA22B070BD08A4EEE7CE
:1044900007A4ECE706A4EAE72B46321D214608A054
:1044A00001F0A4FAF0E70000E809002004ED00E0C4
:1044B0000000000025735B25645D202573257300D3
:1044C00025732573257300002DE9F0410646102061
:1044D000FEF78BFF0446BE4DC4B100202060606033
:1044E000A060E0604FF400673846FEF77EFF606032
:1044F00090B1394600F0CDFEA760266028683946A5
:104500000269B4A090472046BDE8F081286881691F
:10451000BBA088470020F7E728688169C2A08847C8
:104520002046FEF7ACFF0020EEE710B50446002C55
:104530000DD0606808B1FEF7A2FF2046FEF79FFF8E
:10454000A34800680169BDE81040C1A0084710BD3C
:1045500070B504460D46284600F0C2FE01462068AC
:1045600082682846BDE87040104710B504462068B0
:1045700000698047D4E9010100F08BFE0020E06073
:1045800010BD2DE9F04704460F4616469846002513
:104590006FF0010A002C20D02068F0B12046FFF710
:1045A000E4FF39462046FFF7D3FFA8A12046FFF7D6
:1045B000CFFF3220FDF7A1FEFEF774F80746DFF8C3
:1045C0001092D4E90210491E884209D26168084459
:1045D00021684A680121904703E05046BDE8F08712
:1045E0000020002807DDE1680844E06062680021DF
:1045F00011540025E5E795A1606800F055FE68B10B
:104600009AA1606800F050FE08B10120E6E798A189
:10461000606800F049FE08B10020DFE7E06828B1DB
:104620006168084410F8010C3E2811D096B1701C46
:1046300010D06D1C0120FDF760FEB5420DD9D9F8F0
:104640000000E16802698CA090474FF0FF30C5E799
:104650000320C3E70A20FDF750FEFEF723F8C01B36
:104660004045AED9D9F80000E268414603698BA005
:1046700098475046B2E72DE9F04104460F46544EA4
:1046800039463068026992A0904720680168384630
:1046900088476420FDF731FE2046FFF766FF94A1AE
:1046A0002046FFF755FF4FF49670FDF726FE0025D4
:1046B000A0682268411B60685268491E28449047E0
:1046C00008B10544F4E7616800204855E5608AA117
:1046D000606800F0E9FD20B964A1606800F0E4FDC5
:1046E00030B130683946026984A0904700200BE75A
:1046F0003068394602698AA090474FF0FF3003E7DF
:1047000070B5064600248F4D304655F82410FFF74B
:10471000B2FF50B1641C052CF6D32D4800688169A6
:1047200089A088474FF0FF3070BD002070BD70B584
:104730000546274E002D3068026909D0E96839B175
:104740008DA090473068016995A08847002415E046
:10475000BDE8704096A010476868015DA1F1200097
:104760005F2803D298A001F041F906E00D2911D08D
:104770000A2913D095A001F039F9641CE868A04219
:10478000EAD832A001F032F93068016990A0884778
:10479000002413E092A001F029F9EEE791A001F0C6
:1047A00025F9EAE76868015D8FA001F01FF9601C38
:1047B000C00602D18EA001F019F9641CE868A0427D
:1047C00001D9802CEED3BDE8704020A001F00EB9D5
:1047D0000C0A00205B61745F6465765D2064657619
:1047E00069636520637265617465642C2072786208
:1047F00075663D25752062797465730D0A000000A9
:104800005B61745F6465765D206372656174653AAF
:10481000206D616C6C6F6320646576206661696CE5
:1048200065640D0A000000005B61745F6465765D7D
:10483000206372656174653A206D616C6C6F6320F2
:104840007278627566206661696C65640D0A0000A5
:104850005B61745F6465765D20646576696365207D
:1048600064656C657465640D0A0000004F4B0000C0
:104870004552524F520000005B61745F6465765D83
:1048800020646174612074696D656F75742C207289
:10489000786C656E3D256C750D0A00005B61745F78
:1048A0006465765D20636F6D6D616E642074696D03
:1048B000656F75742C2063746F3D256C756D732C5A
:1048C0002072786C656E3D256C750D0A0000000045
:1048D0005B61745F6465765D20747279696E6720D0
:1048E000256C75206270732E2E2E0D0A00000000BC
:1048F00041540D0A00000000415400005B61745FE8
:104900006465765D206175746F2062617564204F07
:104910004B20617420256C75206270730D0A0000B5
:104920005B61745F6465765D206E6F207265737085
:104930006F6E736520617420256C75206270730D35
:104940000A000000E46300005B61745F6465765DEB
:10495000206175746F2062617564204641494C4541
:10496000442C20616C6C20726174657320747269D0
:1049700065640D0A000000005B61745F6465765D2C
:10498000202D2D2D2072786275662028256C7520CB
:10499000627974657329202D2D2D0D0A0000000009
:1049A0005B61745F6465765D20746578743A20009D
:1049B0005B61745F6465765D207278627566206500
:1049C0006D7074790D0A0000256300002E00000050
:1049D0005B61745F6465765D206865783A200000ED
:1049E0005C7200005C6E0000253032582000000030
:1049F0000D0A2020202020200000000010B50446D1
:104A00002068C268002A0CD0E1688A4209D2416855
:104A1000606800F025FC2068C068A0606268002122
:104A2000115410BD70B50D46294600F03DFC0446FA
:104A300024B1284600F054FC204402E0002070BD60
:104A4000401C01782029FBD03A29F9D070BD70B5FF
:104A50000446FE49206840F6B83309684FF4FA72FC
:104A60008D68FBA1A84705462046FFF7C7FF2846EB
:104A700070BD2DE9F04104460D461646F349206805
:104A800040F6B83309684FF4FA728F68F1A1B8475D
:104A900007462046FFF7B2FF012F02D03846BDE897
:104AA000F081EFA16068FFF7BDFF88B185B1002EEE
:104AB0000EDD0023761E01E0EC545B1CC45C2CB1BF
:104AC0000D2C03D00A2C01D0B342F5DB0020E854B2
:104AD0000120E4E72DE9F04104460E461546DB4986
:104AE000206840F6B83309684FF4FA728F68DEA187
:104AF000B84707462046FFF781FF012F01D038460F
:104B0000CDE7DBA16068FFF78DFF044674B11EB1ED
:104B1000204600F0ECFB30602C21204600F0D6FB54
:104B200020B11DB1401C00F0E2FB28600120B6E777
:104B300070B504460D46C549206840F6B83309688B
:104B40004FF4FA728E68CCA1B04706462046FFF7B4
:104B500055FF012E01D0304670BDCAA16068FFF735
:104B600061FF40B12C2100F0B1FB20B11DB1401C10
:104B700000F0BDFB2860012070BD70B504460D46F5
:104B8000B249206841F2883309684FF4FA728E689E
:104B9000BEA1B04706462046FFF730FF012E01D0E8
:104BA000304670BDBCA16068FFF73CFF18B115B17D
:104BB00000F09DFB2860012070BD2DE9F041044606
:104BC0000D461646A149206840F6B83309684FF4EF
:104BD000FA728F68B2A1B84707462046FFF70EFF6A
:104BE000012F01D038465AE70DB1002E01DC01201B
:104BF00055E7636800E05B1C18780D28FBD00A2895
:104C0000F9D00020761E01E02C54401C1C5C2CB115
:104C10000D2C03D00A2C01D0B042F5DB0021295421
:104C200001203CE72DE9F04104460D461646874930
:104C3000206840F6B83309684FF4FA728F689AA179
:104C4000B84707462046FFF7D9FE012F01D0384666
:104C500025E70DB1002E01DC012020E7636800E0AC
:104C60005B1C18780D28FBD00A28F9D00020761E8E
:104C700001E02C54401C1C5C2CB10D2C03D00A2CE0
:104C800001D0B042F5DB00212954012007E730B5FF
:104C900089B004460B4686A2202101A800F0B6FE8A
:104CA0006A49206841F2883309684FF47A728D6846
:104CB00001A9A84705462046FFF7A0FE284609B0EF
:104CC00030BD30B589B004460B467DA2202101A835
:104CD00000F09CFE5D49206841F2883309684FF47A
:104CE0007A728D6801A9A84705462046FFF786FE1F
:104CF0002846E4E730B5A3B0044600290ED0087872
:104D000060B103B955A302B954A2CDE900230B4603
:104D10006FA2802103A800F079FE04E072A2802136
:104D200003A800F073FE4949206842F21073096835
:104D30004FF47A728D6803A9A84705462046FFF70D
:104D40005DFE23B0284630BD70B504463F4920685B
:104D50004EF66023096800228D6865A1A8470546C4
:104D60002046FFF74BFE284670BD2DE9F041044672
:104D70000D4616463549206841F2883309684FF4DC
:104D8000FA728F685DA1B84707462046FFF736FEE6
:104D9000012F01D0384682E60DB1002E01DC012042
:104DA0007DE6636800E05B1C187810B130380A2893
:104DB000F9D2187880B10020761E01E02C54401CF6
:104DC0001C5C3CB1A4F13001092901D92E2C01D180
:104DD000B042F3DB00212954012060E630B5C3B0B6
:104DE0000446CDE900230B4647A24FF4807103A887
:104DF00000F00CFE1549206847F230530968002284
:104E00008D6803A9A84705462046FFF7F7FD012D49
:104E100002D0284643B030BD42A1606800F044FA99
:104E200008B10120F6E70120F4E730B589B0044667
:104E30000B463EA2202101A800F0E8FD03492068AE
:104E400042F2107309684FF47A7277E0240A002066
:104E50004154000041542B4350494E3F0000000094
:104E60002B4350494E3A000041542B43535100000C
:104E70002B4353513A00000041542B435245473FC6
:104E8000000000002B435245473A000041542B4399
:104E9000474154543F0000002B43474154543A00CB
:104EA00041542B43474D490041542B43474D520039
:104EB00041542B4349504D4F44453D25640000006B
:104EC00041542B4349504D55583D25640000000086
:104ED00041542B435354543D222573222C222573D5
:104EE000222C22257322000041542B43535454009A
:104EF00041542B43494943520000000041542B4385
:104F0000494653520000000041542B43495053542A
:104F10004152543D222573222C222573222C222516
:104F200073220000434F4E4E4543540041542B43DF
:104F30004950434C4F53453D256400008D6801A9FD
:104F4000A84705462046FFF759FD2846B7E62DE954
:104F5000F041704F39680968884705466E4E002D4C
:104F600038D04820FEF741FA0446200038D04821C6
:104F700000F08FF94FF400684046FEF736FA6060A3
:104F8000002837D0414600F084F9C4F80C80256031
:104F900062482061624860616248A0616248E061E5
:104FA00062482062624860626248A0626248E062D1
:104FB00062482063624860636248A0636248E063BD
:104FC00062482064624860643068016961A0884773
:104FD000204664E53068816967A0884700205EE567
:104FE000306881696DA088473868416828468847DD
:104FF000002054E53068816971A088472046FEF79B
:105000003EFA3868416828468847002047E510B5D1
:105010000446002C13D0206818B13E49096849683D
:105020008847606808B1FEF72AFA2046FEF727FA9B
:10503000394800680169BDE8104069A0084710BD03
:1050400070B504460D46002C13D02068002810D0FF
:10505000284600F045F90146206800688268284625
:1050600090472068022100688268BDE8704062A015
:10507000104770BD70B50446002C13D0206818B1DD
:10508000006808B1006980472068002528B1816860
:10509000406800F0FEF82068C560E168606800F0D4
:1050A000F8F8A56070BD70B505461B4C002D206852
:1050B000026909D0A96839B150A0904720680169F8
:1050C00058A08847002415E0BDE870405AA010475A
:1050D0006868015DA1F120005F2803D25CA000F0A8
:1050E00085FC06E00D290DD00A290FD059A000F04B
:1050F0007DFC641CA868A042EAD8BDE870403EA0D0
:1051000000F074BC54A000F071FCF2E753A000F072
:105110006DFCEEE7240A00200C0A00204F4A000034
:10512000734A0000D54A0000314B00007B4B000061
:10513000BB4B0000254C00008F4C0000C34C00000E
:10514000F54C0000494D00006B4D0000DD4D0000A6
:105150002B4E00005B6169725F6D616E5D2041499D
:105160005237323420646576696365206372656105
:105170007465640D0A0000005B6169725F6D616EA9
:105180005D206372656174652061745F646576207B
:105190006661696C65640D0A000000005B616972FC
:1051A0005F6D616E5D206D616C6C6F632061697213
:1051B0005F646576206661696C65640D0A000000B5
:1051C0005B6169725F6D616E5D206D616C6C6F63B8
:1051D000207278627566206661696C65640D0A00EC
:1051E0005B6169725F6D616E5D20646576696365A0
:1051F0002064656C657465640D0A00005B6169720A
:105200005F6D616E5D202D2D2D2072786275662098
:1052100028256C7520627974657329202D2D2D0D3C
:105220000A0000005B6169725F6D616E5D207465EC
:1052300078743A20000000005B6169725F6D616EF6
:105240005D20727862756620656D7074790D0A0054
:10525000256300002E0000005C7200005C6E000000
:1052600040EA01039B0703D009E008C9121F08C0E8
:10527000042AFAD203E011F8013B00F8013B521E68
:10528000F9D27047D2B201E000F8012B491EFBD2DF
:1052900070470022F6E710B513460A460446194641
:1052A000FFF7F0FF204610BD30B505462A460B46F5
:1052B00012F8010B13F8014B08B1A042F8D01CB151
:1052C000002802D06D1CF1E7284630BDCAB2401E4E
:1052D00010F8011F8A4202D00029F9D1002070473E
:1052E000421C10F8011B0029FBD1801A704770B5D1
:1052F000064600F0BFFB046805460A22002130463E
:1053000000F056F82C6070BD70B5064600F0B2FB98
:10531000046805460A220021304600F049F82C6056
:1053200070BD30B50B46014600202022012409E063
:1053300021FA02F59D4205D303FA02F5491B04FA4E
:1053400002F52844151EA2F10102F1DC30BD2DE961
:10535000F05F0546002092469B46884606468146F9
:1053600040241BE0284641464746224600F031FAD9
:1053700053465A46C01A914110D311461846224648
:1053800000F018FA2D1A67EB01084F46224601205B
:10539000002100F00FFA17EB00094E41201EA4F186
:1053A0000104DFDC484631462A464346BDE8F09F0B
:1053B0002DE9F04791460F4680460446002614F832
:1053C000015B2DB100F028FA0068405DC007F6D1FE
:1053D0002B2D02D02D2D18D0641E4A46394620466A
:1053E00000F01EFA27B13968A14201D1C7F8008048
:1053F00071054FF002040BD54042002803DD00F098
:1054000039FB0460A007BDE8F08746F48066E4E756
:105410000028F8DA00F02EFB04606FF00040F2E79D
:105420002DE9FE4F804681EA0300C00F0C46009034
:1054300021F0004123F00045B8EB0200A94105D25C
:105440004046214690461C460B46024623F000404B
:10545000104347D0270DC7F30A00C3F30A51029047
:10546000401A019040286BDAC3F3130040F4801B0C
:105470000098924620B10023D2EB030A63EB0B0B9A
:1054800001985946C0F14002504600F093F9064693
:105490000D4650465946019A00F0ABF910EB080052
:1054A0006141002487EA115284EAE7731A4340D02D
:1054B000009A62B3019A012A4FEA075215DC001BD9
:1054C00061EB02014FF0004202EA0752CDE90042CF
:1054D000001C41F5801132462B4600F0FFF903B065
:1054E000BDE8F08F40462146F9E7001B61EB020161
:1054F000001C41F5801300185B412018A2F500172D
:1055000047EB030140EAD570B6196D4111E06D0813
:105510004FEA360645EAC0754FEA0752001B61EBB9
:105520000201001C41F5801149084FEA30000019C2
:10553000514132462B4603B0BDE8F04F00F0BFB9F1
:105540000098012240000023D0EB020263EBE073DD
:10555000009821464FEAE074B8EB000061EB0401CB
:10556000E9E783F000435BE781F0004158E72DE96C
:10557000FE4F81EA030404F0004421F0004100944E
:105580004FF0000B23F0004350EA01045ED052EAD2
:1055900003045BD0C3F30A54C1F30A552C44A4F2AC
:1055A000F3340194A0FB0254C1F3130141F48011C0
:1055B000C3F3130343F4801301FB024400FB034EC7
:1055C000840A970A44EA815447EA8357A4FB076890
:1055D00002958D0A05FB07854FEA932C04FB0C54BA
:1055E0002705029D4FEA065847EA1637B5EB08052E
:1055F0006EEB070C870E920E47EA811742EA831280
:10560000A7FB0201B6EB0B0164EB00042B0D43EA90
:105610000C335E1844EB1C50DA465146E7FB02019E
:10562000C5F313044FEA0B3343EA14534FEA043231
:10563000019C43EA0603A4F10C040294009CCDE90A
:1056400000B400F04BF903B0BDE8F08F0020014634
:10565000F9E72DE9F04D81EA030404F0004B21F055
:10566000004514464FF0000A23F0004150EA0502BD
:1056700020D054EA01021DD0C5F30A570246C5F3F3
:105680001303C1F31300C1F30A5640F4801543F429
:105690008013A7EB0608101BD64608F2FD3873EB03
:1056A000050002D308F1010801E092185B41B8F14E
:1056B000000F03DA00200146BDE8F08D00204FF412
:1056C0008011064684460EE0171B73EB050705D3D1
:1056D000121B63EB050306434CEA010C49084FEA31
:1056E000300092185B4150EA0107EDD152EA030005
:1056F00012D082EA040083EA0501084305D0101B9A
:10570000AB4106D20122002306E000224FF0004305
:1057100002E06FF0010253101AEB06004CEB085147
:1057200010EB0A0041EB0B01BDE8F04D00F0C7B8EB
:10573000C1F30A52C1F3130140F2FF3341F4801167
:105740009A4202DA00200146704740F233439A42FF
:10575000A2F2334202DC524200F03BB800F02AB819
:1057600030B5041E71F1000404DB4FF000444042E8
:1057700064EB0101141E73F1000405DB1C464FF0BD
:105780000043524263EB0403994208BF904230BD8C
:10579000064C074D06E0E06840F0010394E807007E
:1057A00098471034AC42F6D3FAF7D2FC20670000D9
:1057B00040670000202A04DB203A00FA02F10020B2
:1057C00070479140C2F1200320FA03F3194390403F
:1057D0007047202A04DB203A21FA02F000217047AA
:1057E00021FA02F3D040C2F1200291400843194649
:1057F0007047202A06DBCB17203A41FA02F043EA31
:10580000E07306E041FA02F3D040C2F12002914079
:105810000843194670470000004870477C64000048
:105820002DE9F05F82460078002715468B460AF185
:105830000104B946302801D09DB113E014F8010BE2
:105840000127782803D0582801D045B10AE00DB1CE
:10585000102D07D10027102514F8010B02E00825B0
:1058600000E00A250026B0460EE005FB080005FB17
:1058700006F1012701EB10461FFA80F8B6F5803FCC
:1058800000D3B94614F8010B294600F075F800283A
:10589000EBDABBF1000F05D00FB1641E00E05446F7
:1058A000CBF80040B9F1000F06D000F0E3F8022178
:1058B0000160C81EBDE8F09F48EA0640FAE710B54F
:1058C000141E73F1000408DA401C41F10001921823
:1058D0005B411A4301D120F0010010BD2DE9F04DCC
:1058E00092469B4611B1B1FA81F202E0B0FA80F221
:1058F00020329046FFF75EFF04460F4640EA0A005A
:1059000041EA0B0153465A46084313D0114653EA65
:10591000010019D0C8F140025046FFF75AFF054672
:105920000E46504659464246FFF744FF084305D00D
:10593000012004E020463946BDE8F08D00200543F3
:1059400046EAE0762C4337430A986305E40AA0EB65
:1059500008000022FD0A44EA47540A3002D500201C
:105960000146E9E7010510196941DDE9084500191B
:105970006941BDE8F04DA2E73A2800D2303820F066
:105980002002412A01D3A2F13700884201D34FF00F
:10599000FF30704770B58C1810F8015B15F00703E5
:1059A00001D110F8013B2A1106D110F8012B03E0B8
:1059B00010F8016B01F8016B5B1EF9D12B0705D4C0
:1059C0000023521E0DD401F8013BFAE710F8013B09
:1059D000CB1A921C03E013F8015B01F8015B521E25
:1059E000F9D5A142D8D3002070BD00000FB4054BFB
:1059F00010B503A9044A029800F012F910BC5DF832
:105A000014FB0000F9010000400A00200FB47CB52F
:105A10000C0009AD01D0611E00E00021CDE90001BC
:105A2000064B6A462946089800F0FAF8002C02D086
:105A3000009A002111707CBC5DF814FB2763000004
:105A40007CB50C001D461646014601D0601E00E0E4
:105A50000020CDE90010064B6A462946304600F08A
:105A6000DFF8002C02D0009A002111707CBD0000EC
:105A70002763000000487047440A002002E008C87D
:105A8000121F08C1002AFAD170477047002001E0B8
:105A900001C1121F002AFBD1704700002DE9FF5FF2
:105AA00082B00021DDE90430020DDDF840B003438F
:105AB00018D044F61050A2F2FF3242431514119848
:105AC00001281FD0A5EB0B00401C5FEA000A4FF035
:105AD00000064E4FDFF83891B046504615D5CAF152
