:020000040000FA
:100000002010002051100000551000005710000073
:10001000591000005B1000005D100000000000009F
:100020000000000000000000000000005F10000061
:100030006110000000000000631000006510000067
:1000400067100000691000006B1000006D100000C8
:100050006F10000071100000731000007510000098
:1000600077100000791000007B1000007D10000068
:100070007F10000081100000831000008510000038
:1000800087100000891000008B1000008D10000008
:100090008F100000911000009310000095100000D8
:1000A00097100000991000009B1000009D100000A8
:1000B0009F100000A1100000A3100000A510000078
:1000C000A7100000A9100000AB100000AD10000048
:1000D000AF100000B1100000B3100000B510000018
:1000E000B7100000B9100000BB10000000000000B5
:1000F000BD100000BF100000C1100000C3100000C0
:10010000C5100000C7100000C9100000CB1000008F
:10011000CD100000CF100000D1100000D31000005F
:10012000D5100000D7100000D9100000DB1000002F
:10013000DD100000DF100000E1100000E3100000FF
:10014000E5100000E7100000DFF810D000F0E4FF39
:1001500000480047E9010000AFF3008020100020B4
:1001600008B53A4800900098411E0091FBD208BDA6
:100170001FB5012364220221002000F089FA002328
:1001800064220321184600F083FA4FF4E130009016
:1001900000208DF804008DF805008DF8060003217D
:1001A0008DF807108DF808008DF809108DF80A00F9
:1001B0000A218DF80B108DF80C00254C694620465D
:1001C00000F081FC204600F054FD1FBD70B50546CF
:1001D0001F4C2946204600F051FD204600F05AFDF4
:1001E0000028FAD1284670BD08B500F0E7FEFFF7F9
:1001F000BFFF18A000F0A2FF17A000F09FFF21A0F2
:1002000000F09CFF2848016828A000F097FF2DA06F
:1002100000F094FF0020374C034600900122042197
:10022000204600F085F80421204600F074F932A041
:1002300000F084FFFFF794FF0421204600F073F9DB
:1002400034A000F07BFFFFF78BFFECE780841E00FB
:10025000000002400D0A00003D3D3D3D3D3D3D3D5D
:100260003D3D3D3D3D3D3D3D3D3D3D3D3D3D3D3DBE
:100270003D3D3D3D3D3D3D3D3D3D3D3D3D3D3D3DAE
:100280000D0A000020205374657020313A20486523
:100290006C6C6F2053574D333230202D2D20426C23
:1002A000696E6B79210D0A00100000202020435058
:1002B0005520436C6F636B3A20256420487A0D0A01
:1002C000000000003D3D3D3D3D3D3D3D3D3D3D3D52
:1002D0003D3D3D3D3D3D3D3D3D3D3D3D3D3D3D3D4E
:1002E0003D3D3D3D3D3D3D3D3D3D3D3D0D0A0D0A04
:1002F00000000000003001405B4F4E5D20204C4567
:100300004420617420433420697320484947480DD4
:100310000A0000005B4F46465D204C454420617456
:10032000204334206973204C4F570D0A0000000011
:100330002DE9F0471646DDF820801F46DFF8AC9225
:100340000124AB4D8C40A0EB09034FF4805C4FF0CF
:100350008042484576D01FDCA64BC01838D0604597
:1003600058D0B0F5005F15D1906840F0040090605F
:1003700001230022022000F08BF99F48012E6CD04F
:100380004168A1434160012F6BD0D5F81002A04312
:10039000C5F81002BDE8F08763457DD0B3F5405F36
:1003A000F8D1906840F400109060012300220520ED
:1003B00000F06EF99148012E6FD04168A143416071
:1003C000012F6BD0D5F83002A043C5F83002E1E729
:1003D000906840F00100906000220123104600F078
:1003E00057F984484042012E0AD04168A143416038
:1003F000012F09D0D5F80002A043C5F80002C9E7D3
:10040000416821434160F3E7D5F800022043C5F875
:100410000002BFE7906840F00200906001230022D4
:10042000184600F035F97648012E0CD04168A143FA
:100430004160B8F1010F0AD0D5F80003A043C5F818
:100440000003A7E713E0416821434160F1E7D5F8D5
:1004500000032043C5F800039CE741682143416045
:1004600091E7D5F810022043C5F8100292E7906892
:1004700040F01000906001230022032000F008F9F2
:10048000012E10D0D9F80400A043C9F80400012FB0
:100490000FD0D5F8200202E011E032E035E0A043B1
:1004A000C5F8200276E7D9F804002043C9F8040013
:1004B000EDE7D5F820022043C5F820026AE79068EE
:1004C00040F02000906001230022042000F0E0F8BA
:1004D0004C48012E0BD04168A1434160B8F1010F97
:1004E00009D0D5F82003A043C5F8200352E741689E
:1004F00021434160F2E7D5F820032043C5F82003EB
:1005000048E74168214341605AE7D5F8300220436B
:10051000C5F830023EE70122400100EB810000F106
:100520008440026070470022400100EB810000F12E
:10053000844002607047400100EB810000F184407C
:100540000168C1F10101016070470068C84000F016
:1005500001007047C2F118036FF07F42DA40036870
:100560008A40134303607047C2F118036FF07F4263
:10057000DA4003688A40934303607047C2F118036E
:100580006FF07F42DA4003688A405340036070474F
:10059000C2F118036FF07F42DA400068C840104093
:1005A0007047C2F118036FF07F42DA4072B60368F9
:1005B0008A401343036062B67047C2F118036FF0BC
:1005C0007F42DA4072B603688A409343036062B6A2
:1005D0007047C2F118036FF07F42DA4072B60368C9
:1005E0008A405340036062B67047000000500140EB
:1005F0000000014000F0FEBF0030014000800140DB
:10060000002001400060014010B572B6000B1B4C89
:10061000A16888472068804762B610BD10B50307FF
:1006200001D0022010BD930701D0022010BD72B688
:100630009208124CE36898472068804762B6002011
:1006400010BD10B572B60D4940F289431E284A68A4
:1006500008D028280AD050280CD00949581C9047A7
:1006600062B610BD074918469047F9E70649184693
:100670009047F5E7054918469047F1E7000000204C
:100680006E7AFCAB251FF4AB2929F4AB4D52F8ABC5
:100690002DE9F04F86B001EB81074FF01F0BA2F15F
:1006A000640A0BFA07F60AFA07F48D1F05EB850CAE
:1006B0000BFA0CF70AFA0CF54FF001084FEA410962
:1006C0004FF0030CA1F10C0E0CFA09FC08FA01F82A
:1006D0000EEB8E0E8B40CDF800E00BFA0EFECDF83F
:1006E00014E0DDF800E00AFA0EFECDF810E0A1F10A
:1006F000120E0EEB8E0E0BFA0EFB0AFA0EFACDE975
:1007000002ABA1F1100A4FEA4A0A4FF0030B0BFAB1
:100710000AFBCDF804A0DFF89CA3062837D2DFE857
:1007200000F003396EA3F0EF632A18D906290AD224
:10073000DAF80001B043CAF80001DAF800012043FA
:10074000CAF800010BE00C2909D2DAF80401B84319
:10075000CAF80401DAF804012843CAF80401DAF8F7
:10076000000020EA0C00CAF80000632A00D9012228
:10077000DAF8000002FA09F20243CAF80020CE4873
:10078000016821EA0801016001681943016006B0AF
:10079000BDE8F08F632A18D906290AD2DAF81001C9
:1007A000B043CAF81001DAF810012043CAF810016A
:1007B0000BE00C2909D2DAF81401B843CAF8140185
:1007C000DAF814012843CAF81401DAF8040020EA20
:1007D0000C00CAF80400632A00D90122DAF80400E8
:1007E00002FA09F20243CAF80420B3481030016843
:1007F00021EA08010160016819430160C7E7632A23
:1008000018D906290AD2DAF82001B043CAF8200123
:10081000DAF820012043CAF820010BE00C2909D2A4
:10082000DAF82401B843CAF82401DAF8240128438D
:10083000CAF82401DAF8080020EA0C00CAF8080017
:10084000632A00D90122DAF8080002FA09F2024309
:10085000CAF8082098482030016821EA08010160A0
:1008600001681943016092E7632A36D906290AD242
:10087000DAF86001B043CAF86001DAF86001204399
:10088000CAF8600129E00C290AD2DAF86401B843F9
:10089000CAF86401DAF864012843CAF864011CE06C
:1008A00012290CD2DAF86801059CA043CAF8680145
:1008B000DAF86801049C2043CAF868010DE01829A1
:1008C0000BD2DAF86C01039CA043CAF86C01DAF889
:1008D0006C01029C2043CAF86C01102912D2DAF88C
:1008E000200020EA0C00CAF82000632A00D9012267
:1008F000DAF8200002FA09F20243CAF8202011E0D7
:1009000071E019E0DAF8240020EA0B00CAF82400AC
:10091000632A00D9012201988240DAF824000243B8
:10092000CAF8242064484030016821EA08010160C7
:100930000168194301602AE7632A27D906290AD2E8
:10094000DAF87001B043CAF87001DAF87001204398
:10095000CAF870011AE00C290AD2DAF87401B84317
:10096000CAF87401DAF874012843CAF874010DE07A
:1009700012290BD2DAF87801059CA043CAF8780155
:10098000DAF8784104980443CAF87841102910D263
:10099000DAF8300020EA0C00CAF83000632A00D9E7
:1009A0000122DAF8300002FA09F20243CAF83020D4
:1009B0000FE0DAF8340020EA0B00CAF83400632AAA
:1009C00000D9012201988240DAF834000243CAF8C3
:1009D000342039485030016821EA0801016001687B
:1009E00019430160D3E6632A36D906290AD2DAF818
:1009F0008001B043CAF88001DAF880012043CAF8C8
:100A0000800129E00C290AD2DAF88401B843CAF837
:100A10008401DAF884012843CAF884011CE0122911
:100A20000CD2DAF88801059CA043CAF88801DAF8EC
:100A3000884104980443CAF888410DE018290BD274
:100A4000DAF88C4103988443CAF88C41DAF88C01B7
:100A5000029C2043CAF88C01102910D2DAF8400019
:100A600020EA0C00CAF84000632A00D90122DAF813
:100A7000400002FA09F20243CAF840200FE0DAF817
:100A8000440020EA0B00CAF84400632A00D901227E
:100A900001988240DAF844000243CAF8442006482C
:100AA0006030016821EA08010160016819430160B2
:100AB0006DE600000000014000060140416821F49D
:100AC0000071416070472DE9F04704460D46D54856
:100AD0004FF4805726184FF080404FF400584FF4E1
:100AE000405973D0BE4276D0464579D04E4503D1A9
:100AF000816841F4804181602046FFF7DFFF606834
:100B000040F400506060A0686FF30D00A060C6481C
:100B1000296800680009B0FBF1F0A168401E084395
:100B2000A060606820F47C00606060682979AA7920
:100B300040EA81406979C90441EA82510843606012
:100B4000F6B3BE4255D0464557D04E4502D12A2075
:100B500000F05CF9E06880B2E060E879697A401CF6
:100B6000000440EA0160E1680843E060606820F04A
:100B70007F4060606068E97A40EA016060606068B8
:100B800044F21401884360606068297A2A7B40EA55
:100B90000110A97A890041EA82310843606086B376
:100BA000BE423FD046454DD04E4560D1287AA97A05
:100BB0000843297B084355D0BDE8F0472A2003E0CD
:100BC00013E003E007E00BE000F015B9816841F4A1
:100BD0000061816090E7816841F4805181608BE71A
:100BE000816841F40051816086E7272000F00EF90A
:100BF000B0E7282000F00AF9ACE7292000F006F958
:100C0000A8E7FFE7287AA97A0843297B084304D09C
:100C1000BDE8F047272000F0EEB8BDE8F0472720F8
:100C200000F0F4B8287AA97A0843297B084304D055
:100C3000BDE8F047282000F0DEB8BDE8F0472820E6
:100C400000F0E4B8287AA97A0843297B084304D045
:100C5000BDE8F047292000F0CEB8BDE8F0472920D4
:100C600000F0D4B8BDE8F0472A2000F0CFB8BDE8C6
:100C7000F087416841F4007141607047016070473E
:100C80000068C0F308020A60400501D502207047E1
:100C900000207047406840F30000401C70474068E7
:100CA00040F3C000401C70474068C0F340007047EC
:100CB00082686FF30D0282605B4A12681209B2FB10
:100CC000F1F18268491E114381607047564980687E
:100CD00009680909C0F30D00401CB1FBF0F0704732
:100CE000436923F005034361436941EA82010B43F1
:100CF000436170474069C0F3C010704710B5446944
:100D000024F07A0444614469D20044EA410142EA91
:100D100003121143416110BD4069C0F300207047C8
:100D2000036923F005030361036941EA82010B4370
:100D300003617047016941F010010161704700696A
:100D4000C0F3400070470069C0F3C0007047002244
:100D5000FF2918D0A1F58073FF3B14D0FE290DD0D8
:100D6000B1F5FF7F0AD0F8290AD0B1F5FC7F07D092
:100D7000802907D0B1F5C07F04D0FEE7012202E050
:100D8000022200E00322816821F0607181608168A5
:100D90004FF4000343EA02621143816070478168A7
:100DA000090201D5002070478068400101D502206A
:100DB00070470120704742680A43426070474268AA
:100DC0008A4342607047CA0602D5826852020ED436
:100DD0004A0402D58268920209D44A0702D5826881
:100DE000920304D4490604D58068000101D501208E
:100DF00070470020704700F01F0201219140400918
:100E0000800000F1E020C0F80011704700F01F02E0
:100E1000012191404009800000F1E020C0F88011DC
:100E2000704700000000FEBF1000002030B54FF0FA
:100E3000804108687B4A45077B4C7C4B7C480CD53D
:100E40000D68AD0701D502601CE02268D20702D010
:100E5000784A026016E0036014E00D68ED070ED0DA
:100E6000646AA40701D5036000E0026002680523FC
:100E7000B2FBF3F2C8235A43D208026002E04FF4F7
:100E8000FA4202604968C90702D001684908016056
:100E9000694A0168B1FBF2F1416030BD4FF080401A
:100EA0000168490702D40068C00707D0002044F653
:100EB000206100BF401C8842FBD37047002000BF68
:100EC000401C1428FBD3704710B5574C01202062FA
:100ED000FFF7E4FFFFF7E2FF606A20F002006062C4
:100EE000A06A56490840A062A06A55490843A0621A
:100EF000606A20F004006062206B0028FCD010BD06
:100F000010B5FFF7E1FF4848416A41F00101416235
:100F10008004016841F001010160016821F00401D1
:100F2000016010BD10B5404901200862FFF7B6FF0F
:100F3000FFF7B4FF4FF08040016841F0020101600B
:100F4000016841F00401016010BD10B54FF080440C
:100F5000A06840F08070A0603A48016A21F0010169
:100F60000162FFF79BFF206820F0010020602068ED
:100F700020F00400206010BD10B52B49012008604E
:100F8000FFF78CFF4FF08040016821F00201016003
:100F9000016841F00401016010BD10B52249002034
:100FA0000860FFF77BFF4FF08040016821F00201ED
:100FB0000160016841F00401016010BD10B54FF0FF
:100FC0008044A06840F48000A0607820FFF739FBDF
:100FD000FFF796FF606820F0010060606068606065
:100FE000FFF724FF124818490068884204D9BDE879
:100FF00010407820FFF725BB0E49884204D9BDE890
:1010000010405020FFF71DBB1049884204D9BDE8AD
:1010100010402820FFF715BBBDE810401E20FFF749
:1010200010BB00000080510100100340002D310171
:1010300010000020005A620240420F0000FEE0FC57
:101040003200050000E0014000B4C40480C3C901BF
:1010500025480047FEE7FEE7FEE7FEE7FEE7FEE77E
:10106000FEE7FEE7FEE7FEE7FEE7FEE7FEE7FEE758
:10107000FEE7FEE7FEE7FEE7FEE7FEE7FEE7FEE748
:10108000FEE7FEE7FEE7FEE7FEE7FEE7FEE7FEE738
:10109000FEE7FEE7FEE7FEE7FEE7FEE7FEE7FEE728
:1010A000FEE7FEE7FEE7FEE7FEE7FEE7FEE7FEE718
:1010B000FEE7FEE7FEE7FEE7FEE7FEE7FEE7FEE708
:1010C000FEE7FEE7FEE7FEE7FEE7FEE7FEE7FEE7F8
:1010D000FEE7FEE7FEE7FEE7FEE7FEE7FEE7FEE7E8
:1010E000FEE7FEE7FEE7FEE74901000030B50B46EC
:1010F000014600202022012409E021FA02F59D4248
:1011000005D303FA02F5491B04FA02F52844151E1B
:10111000A2F10102F1DC30BD064C074D06E0E068AB
:1011200040F0010394E8070098471034AC42F6D32E
:10113000FFF70EF8D0120000F01200000FB4054BBC
:1011400010B503A9044A029800F018F810BC5DF825
:1011500014FB0000CD0100001800002002E008C8C8
:10116000121F08C1002AFAD170477047002001E021
:1011700001C1121F002AFBD1704700002DE9FF4F6B
:1011800089B09B460446002506E025280BD05A4628
:101190000B999047641C6D1C20780028F5D10DB088
:1011A0002846BDE8F08F0027B8460122474900E0F5
:1011B000074314F8013F203B02FA03F00842F7D13D
:1011C00020782E2819D114F8010F47F004072A2897
:1011D0000ED06FF02F022078A0F1300109290CD831
:1011E00008EB880102EB410100EB0108641CF2E707
:1011F0000A98641C50F8048B0A9020780028CED0FE
:10120000642808D0692806D075281ED05A460B9944
:1012100090476D1C58E00A994FF00A0901C90A91DC
:10122000002802DA40422D2102E0390504D52B21A5
:101230008DF82010012103E0F90704D02021F7E701
:101240008A4608AE0DE00021FAE70A994FF00A0934
:1012500001C90A91F7E74946FFF748FF303106F820
:10126000011D0028F7D1ADEB060000F12009780739
:1012700001D44FF00108C84502DDA8EB090000E0E9
:1012800000208046002706E008A85A46C05D0B995A
:1012900090476D1C7F1C5745F6DB04E030205A4612
:1012A0000B9990476D1CB8F10001A8F10108F5DC1D
:1012B00005E016F8010B5A460B9990476D1CB9F1E1
:1012C0000001A9F10109F4DC641C65E709280100AB
:1012D000F0120000000000201C0000005C11000063
:1012E0000C1300001C000020041000006C11000012
:1012F000010600118106001181070011010800118B
:0C130000002D310114000000000000006E
:0400000500000149AD
:00000001FF
