:020000040000FA
:10000000B0110020D5160000D9160000DB16000044
:10001000DD160000DF160000E11600000000000001
:10002000000000000000000000000000E3160000D7
:10003000E516000000000000E7160000E1030000E4
:10004000EB160000ED160000EF160000F1160000A0
:10005000F3160000F5160000F7160000F916000070
:10006000FB160000FD160000FF160000011700003F
:10007000031700000517000007170000091700000C
:100080000B1700000D1700000F17000011170000DC
:1000900013170000151700001717000019170000AC
:1000A0001B1700001D1700001F170000211700007C
:1000B000231700002517000027170000291700004C
:1000C0002B1700002D1700002F170000311700001C
:1000D00033170000351700003717000057040000E1
:1000E0003B1700003D1700003F1700000000000014
:1000F0004117000043170000451700004717000094
:10010000491700004B1700004D1700004F17000063
:100110005117000053170000551700005717000033
:10012000591700005B1700005D1700005F17000003
:1001300061170000631700006517000067170000D3
:10014000691700006B170000DFF810D001F07EFB8C
:100150000048004761010000AFF30080B0110020AB
:1001600001F06EFA00F0B2F8164C4FF47A71206884
:10017000B0FBF1F0401EB0F1807F09D24FF0E021DA
:100180004861114AE0201070002088610720086152
:100190004FF4E13000F02EF90CA001F089FB0CA027
:1001A00001F086FB15A001F083FB1EA0216801F081
:1001B0007FFB22A001F07CFB05A001F079FB00F0A1
:1001C0008EFAFCE71C00002023ED00E00D0A000081
:1001D0003D3D3D3D3D3D3D3D3D3D3D3D3D3D3D3D4F
:1001E0003D3D3D3D3D3D3D3D3D3D3D3D3D3D3D3D3F
:1001F0003D3D3D3D3D3D3D3D0D0A000020205374F9
:10020000657020373A20496E74657261637469764F
:100210006520436F6D6D616E64204C696E650D0ADB
:1002200000000000202043505520436C6F636B3A60
:1002300020256420487A0D0A00000000202054790F
:100240007065202768656C702720666F7220617664
:1002500061696C61626C6520636F6D6D616E647362
:100260000D0A00000021C0F80011C0F80411704709
:1002700010B5D0F800315A1CD2B2D0F804419442E3
:1002800001D1002010BDC154C0F80021012010BDD3
:10029000D0F80031D0F80421934201D100207047FA
:1002A000825C0A7090F80411491CC9B2C0F80411AC
:1002B00001207047D0F80011D0F80401814201D329
:1002C000081A7047401AC0F580707047F8B50521CC
:1002D00026A001F0EDFA00252A4F002605EB450087
:1002E00007EBC004606901281AD00023201D07C84D
:1002F00000F010FD6069012814D00096002301224F
:10030000A168206900F056FBA168206900F04DFC4F
:100310001DA0216801F0CCFA6D1C052DDED3F8BDBF
:100320000123E3E7009601230022A168206900F081
:1003300041FB1DA0216801F0BBFAEDE770B5002478
:10034000104E04EB440506EBC5008168006900F01F
:100350003EFC08B11BA200E01CA256F835101DA0FF
:1003600001F0A6FA641C052CEBD370BD5B494F204D
:10037000494E49545D2025642070696E733A0D0A18
:1003800000000000481D00002020257320202D3E85
:10039000204F55545055542028696E6974204C4F95
:1003A00057290D0A000000002020257320202D3E33
:1003B00020494E505554202870756C6C2D7570294D
:1003C0000D0A000048494748000000004C4F5720E4
:1003D0000000000020202573203A2025730D0A001C
:1003E00003480168491C0160704701480068704774
:1003F000000000201FB504463448FFF733FF0123F7
:1004000064220221002000F085FC002364220321E5
:10041000184600F07FFC009400208DF804008DF851
:1004200005008DF8060007218DF8071001218DF8D1
:1004300008108DF809008DF80A00FF208DF80B00D8
:100440008DF80C10224C6946204600F07EFE2046B6
:1004500000F051FF1FBD38B51D4C1021204600F0A3
:10046000F4FF48B90DE0694600F04CFF20B9009850
:10047000C1B21648FFF7FCFEE1682046C9B2012967
:10048000F1D84FF48041204600F0DFFF50B938BD6D
:100490006946204600F036FF20B90098C1B20B48EB
:1004A000FFF7E6FE204600F03CFF0028F0D038BD04
:1004B00070B50546064C2946204600F021FF20462F
:1004C00000F02AFF0028FAD1284670BD280000203D
:1004D000000002402DE9F04106460C4617469846BA
:1004E000002500E0641C217801B3404601F064F966
:1004F0000028F7D11AE028466D1C47F8204000E09C
:10050000641C217821B1404601F056F90028F7D04B
:10051000207820B1002004F8010B00E0641C217851
:1005200021B1404601F048F90028F7D1207808B100
:10053000B542E0DB2846BDE8F08170B506460D46C1
:10054000A749A8A001F0B4F9002406E055F824203A
:100550002146A6A001F0ACF9641CB442F6DB0020F1
:1005600070BD10B5A6A001F0A3F9002010BD70B5B4
:10057000A6A001F09DF90024994D403DA9A055F891
:10058000341001F095F9641C082CF7D39EA001F0FB
:100590008FF9002070BDA5A001F08AF9BFF34F8F3D
:1005A000A6480168A64A01F4E06111430160BFF367
:1005B0004F8FFEE770B50C464FF0FF35022804DA86
:1005C000A0A001F075F9284670BDA3A1606801F0F4
:1005D000FDF8A24E50B1A2A1606801F0F7F868B131
:1005E000A0A0616801F064F9284670BD042130467E
:1005F00000F0D3FAA3A001F05BF906E00421304635
:1006000000F0D3FAA2A001F053F9002070BD2DE94B
:10061000F0410C464FF0FF38032804DA9FA001F0A8
:1006200047F9404687E7A4A1606801F0CFF8A34EE0
:1006300050B1A3A1606801F0C9F840B1A1A0616800
:1006400001F036F9404676E73546022701E0A64D2F
:100650000C2781A1A06801F0B9F850B180A1A06871
:1006600001F0B4F890B17FA0A16801F021F94046F3
:1006700061E73946284600F090FAB54201D00121E1
:1006800000E0002199A001F013F90BE0394628465B
:1006900000F08BFAB54201D0012100E0002196A0C4
:1006A00001F006F9002046E710B5FFF747FE0020ED
:1006B00010BD10B593A001F0FBF89848016898A010
:1006C00001F0F6F89C4801689CA001F0F1F8A1A0A7
:1006D00001F0EEF84CA001F0EBF8002010BD2DE980
:1006E000F043ABB0A34F00257868002805D001285F
:1006F0000ED07D602BB0BDE8F0839FA001F0D8F84C
:1007000080219E4801F04DF83D6001207860F1E7BE
:100710002AA99B48FFF7BCFD0028EBD03A68802A45
:1007200001DB7D60E6E79DF8A81094480A291AD0FD
:1007300004DC08290DD0092904D1DBE70D2916D0E6
:100740007F2906D0531C3B6081548EA001F0B0F885
:10075000D0E7002A02DD521E3A60855487498AA0FC
:1007600001F0A6F8C6E7002AC4D17D60C2E785542F
:100770002AB3521C8149684600F0FAFF84A320AADC
:1007800069460A20FFF7A6FE8146B9F1000F18D08E
:1007900000260024DFF84880A8F14008209858F887
:1007A000341001F013F870B1641C082CF6DB002E35
:1007B000A0D179A0209901F07BF87D609AE77D6057
:1007C00098E77D6096E710A001F072F808EBC4008E
:1007D00020A942684846904701267D60E7E700006F
:1007E000001E000025730D0A000000002020617229
:1007F00067765B25645D3A2025730D0A00000000D2
:100800000D0A0D0A0D0A0D0A0D0A00000D0A3D3DE4
:100810003D20436F6D6D616E6473203D3D3D0D0A5B
:1008200000000000202025730D0A00005265626F51
:100830006F74696E672E2E2E0D0A00000CED00E01D
:100840000400FA0555736167653A206C6564206F92
:100850006E7C6F66660D0A006F6E0000003001400E
:100860006F666600496E76616C69643A2025732074
:1008700028657870656374206F6E7C6F6666290DDD
:100880000A0000004C4544204F4E0D0A00000000B5
:100890004C4544204F46460D0A00000055736167E1
:1008A000653A2072656C617920307C31206F6E7CF6
:1008B0006F66660D0A000000300000000050014025
:1008C00031000000496E76616C69642072656C616C
:1008D000793A20257320286578706563742030206C
:1008E0006F722031290D0A0000200140454C43253C
:1008F00064204F4E0D0A0000454C432564204F46AE
:10090000460D0A000D0A3D3D3D2053797374656D17
:1009100020496E666F203D3D3D0D0A001C00002001
:10092000202043505520436C6F636B203A20256490
:1009300020487A0D0A000000000000202020537992
:10094000735469636B2020203A202564206D730D59
:100950000A00000020205541525420202020202051
:100960003A203131353230302D382D4E2D310D0AAF
:1009700000000000040000200D0A3E0030010020AD
:1009800028000020256300000D0A3E2573000000AA
:1009900020090A0D000000000D0A2020756E6B6E04
:1009A0006F776E20636F6D6D616E643A2025730DF5
:1009B0000A0000002DE9F0471646DDF820801F46AA
:1009C000DFF8AC920124AB4D8C40A0EB09034FF44F
:1009D000805C4FF08042484576D01FDCA64BC018A3
:1009E00038D0604558D0B0F5005F15D1906840F020
:1009F0000400906001230022022000F08BF99F4840
:100A0000012E6CD04168A1434160012F6BD0D5F815
:100A10001002A043C5F81002BDE8F08763457DD001
:100A2000B3F5405FF8D1906840F400109060012366
:100A30000022052000F06EF99148012E6FD0416828
:100A4000A1434160012F6BD0D5F83002A043C5F817
:100A50003002E1E7906840F001009060002201233D
:100A6000104600F057F984484042012E0AD04168F0
:100A7000A1434160012F09D0D5F80002A043C5F879
:100A80000002C9E7416821434160F3E7D5F800025D
:100A90002043C5F80002BFE7906840F00200906074
:100AA00001230022184600F035F97648012E0CD0BB
:100AB0004168A1434160B8F1010F0AD0D5F80003A5
:100AC000A043C5F80003A7E713E041682143416054
:100AD000F1E7D5F800032043C5F800039CE741681F
:100AE0002143416091E7D5F810022043C5F8100278
:100AF00092E7906840F010009060012300220320EC
:100B000000F008F9012E10D0D9F80400A043C9F86C
:100B10000400012F0FD0D5F8200202E011E032E0EE
:100B200035E0A043C5F8200276E7D9F80400204359
:100B3000C9F80400EDE7D5F820022043C5F82002EB
:100B40006AE7906840F020009060012300220420B2
:100B500000F0E0F84C48012E0BD04168A143416001
:100B6000B8F1010F09D0D5F82003A043C5F8200340
:100B700052E7416821434160F2E7D5F82003204362
:100B8000C5F8200348E74168214341605AE7D5F89A
:100B900030022043C5F830023EE70122400100EB5D
:100BA000810000F18440026070470022400100EBA8
:100BB000810000F1844002607047400100EB810039
:100BC00000F184400168C1F10101016070470068D3
:100BD000C84000F001007047C2F118036FF07F4277
:100BE000DA4003688A40134303607047C2F1180378
:100BF0006FF07F42DA4003688A4093430360704796
:100C0000C2F118036FF07F42DA4003688A40534014
:100C100003607047C2F118036FF07F42DA4000684A
:100C2000C84010407047C2F118036FF07F42DA40AD
:100C300072B603688A401343036062B67047C2F11C
:100C400018036FF07F42DA4072B603688A4093431C
:100C5000036062B67047C2F118036FF07F42DA405A
:100C600072B603688A405340036062B67047000062
:100C7000005001400000014000F0FEBF0030014084
:100C800000800140002001400060014010B572B6B4
:100C9000000B1B4CA16888472068804762B610BDD6
:100CA00010B5030701D0022010BD930701D0022028
:100CB00010BD72B69208124CE368984720688047CE
:100CC00062B6002010BD10B572B60D4940F28943DE
:100CD0001E284A6808D028280AD050280CD0094974
:100CE000581C904762B610BD074918469047F9E76F
:100CF000064918469047F5E7054918469047F1E739
:100D00000C0000206E7AFCAB251FF4AB2929F4AB54
:100D10004D52F8AB2DE9F04F86B001EB81074FF053
:100D20001F0BA2F1640A0BFA07F60AFA07F48D1FEB
:100D300005EB850C0BFA0CF70AFA0CF54FF00108DD
:100D40004FEA41094FF0030CA1F10C0E0CFA09FC1B
:100D500008FA01F80EEB8E0E8B40CDF800E00BFA8E
:100D60000EFECDF814E0DDF800E00AFA0EFECDF834
:100D700010E0A1F1120E0EEB8E0E0BFA0EFB0AFA2A
:100D80000EFACDE902ABA1F1100A4FEA4A0A4FF080
:100D9000030B0BFA0AFBCDF804A0DFF89CA306288E
:100DA00037D2DFE800F003396EA3F0EF632A18D9D9
:100DB00006290AD2DAF80001B043CAF80001DAF8CD
:100DC00000012043CAF800010BE00C2909D2DAF82F
:100DD0000401B843CAF80401DAF804012843CAF848
:100DE0000401DAF8000020EA0C00CAF80000632AC7
:100DF00000D90122DAF8000002FA09F20243CAF827
:100E00000020CE48016821EA080101600168194309
:100E1000016006B0BDE8F08F632A18D906290AD20E
:100E2000DAF81001B043CAF81001DAF810012043D3
:100E3000CAF810010BE00C2909D2DAF81401B84302
:100E4000CAF81401DAF814012843CAF81401DAF8D0
:100E5000040020EA0C00CAF80400632A00D9012229
:100E6000DAF8040002FA09F20243CAF80420B3488F
:100E70001030016821EA080101600168194301602E
:100E8000C7E7632A18D906290AD2DAF82001B04345
:100E9000CAF82001DAF820012043CAF820010BE04B
:100EA0000C2909D2DAF82401B843CAF82401DAF887
:100EB00024012843CAF82401DAF8080020EA0C00CB
:100EC000CAF80800632A00D90122DAF8080002FAF9
:100ED00009F20243CAF8082098482030016821EA44
:100EE0000801016001681943016092E7632A36D95D
:100EF00006290AD2DAF86001B043CAF86001DAF8CC
:100F000060012043CAF8600129E00C290AD2DAF80E
:100F10006401B843CAF86401DAF864012843CAF8E6
:100F200064011CE012290CD2DAF86801059CA04388
:100F3000CAF86801DAF86801049C2043CAF868011D
:100F40000DE018290BD2DAF86C01039CA043CAF813
:100F50006C01DAF86C01029C2043CAF86C0110297C
:100F600012D2DAF8200020EA0C00CAF82000632A26
:100F700000D90122DAF8200002FA09F20243CAF885
:100F8000202011E071E019E0DAF8240020EA0B00DB
:100F9000CAF82400632A00D9012201988240DAF8B5
:100FA00024000243CAF8242064484030016821EA42
:100FB000080101600168194301602AE7632A27D903
:100FC00006290AD2DAF87001B043CAF87001DAF8DB
:100FD00070012043CAF870011AE00C290AD2DAF82D
:100FE0007401B843CAF87401DAF874012843CAF8E6
:100FF00074010DE012290BD2DAF87801059CA043A8
:10100000CAF87801DAF8784104980443CAF87841BC
:10101000102910D2DAF8300020EA0C00CAF83000AB
:10102000632A00D90122DAF8300002FA09F20243F9
:10103000CAF830200FE0DAF8340020EA0B00CAF8D2
:101040003400632A00D9012201988240DAF8340082
:101050000243CAF8342039485030016821EA0801B7
:101060000160016819430160D3E6632A36D9062975
:101070000AD2DAF88001B043CAF88001DAF88001B8
:101080002043CAF8800129E00C290AD2DAF8840149
:10109000B843CAF88401DAF884012843CAF8840105
:1010A0001CE012290CD2DAF88801059CA043CAF88A
:1010B0008801DAF8884104980443CAF888410DE0B1
:1010C00018290BD2DAF88C4103988443CAF88C4172
:1010D000DAF88C01029C2043CAF88C01102910D246
:1010E000DAF8400020EA0C00CAF84000632A00D970
:1010F0000122DAF8400002FA09F20243CAF840205D
:101100000FE0DAF8440020EA0B00CAF84400632A32
:1011100000D9012201988240DAF844000243CAF85B
:10112000442006486030016821EA08010160016836
:10113000194301606DE60000000001400006014017
:10114000416821F40071416070472DE9F047044681
:101150000D46D5484FF4805726184FF080404FF485
:1011600000584FF4405973D0BE4276D0464579D0EE
:101170004E4503D1816841F4804181602046FFF7EC
:10118000DFFF606840F400506060A0686FF30D00FE
:10119000A060C648296800680009B0FBF1F0A168AA
:1011A000401E0843A060606820F47C0060606068B6
:1011B0002979AA7940EA81406979C90441EA8251D2
:1011C00008436060F6B3BE4255D0464557D04E4501
:1011D00002D12A2000F05CF9E06880B2E060E87992
:1011E000697A401C000440EA0160E1680843E0605D
:1011F000606820F07F4060606068E97A40EA0160E2
:101200006060606844F21401884360606068297A15
:101210002A7B40EA0110A97A890041EA8231084319
:10122000606086B3BE423FD046454DD04E4560D14A
:10123000287AA97A0843297B084355D0BDE8F047AE
:101240002A2003E013E003E007E00BE000F015B90B
:10125000816841F40061816090E7816841F48051C8
:1012600081608BE7816841F40051816086E7272027
:1012700000F00EF9B0E7282000F00AF9ACE72920C9
:1012800000F006F9A8E7FFE7287AA97A0843297B46
:10129000084304D0BDE8F047272000F0EEB8BDE8D1
:1012A000F047272000F0F4B8287AA97A0843297B70
:1012B000084304D0BDE8F047282000F0DEB8BDE8C0
:1012C000F047282000F0E4B8287AA97A0843297B5F
:1012D000084304D0BDE8F047292000F0CEB8BDE8AF
:1012E000F047292000F0D4B8BDE8F0472A2000F0EC
:1012F000CFB8BDE8F087416841F4007141607047A4
:10130000016070470068C0F308020A60400501D51B
:101310000220704700207047406840F30000401CE6
:101320007047406840F3C000401C70474068C0F3FD
:101330004000704782686FF30D0282605B4A12685A
:101340001209B2FBF1F18268491E114381607047B6
:101350005649806809680909C0F30D00401CB1FBBB
:10136000F0F07047436923F005034361436941EAA4
:1013700082010B43436170474069C0F3C01070475E
:1013800010B5446924F07A0444614469D20044EA07
:10139000410142EA03121143416110BD4069C0F3AB
:1013A00000207047036923F005030361036941EAE4
:1013B00082010B4303617047016941F01001016133
:1013C00070470069C0F3400070470069C0F3C00077
:1013D00070470022FF2918D0A1F58073FF3B14D07D
:1013E000FE290DD0B1F5FF7F0AD0F8290AD0B1F55A
:1013F000FC7F07D0802907D0B1F5C07F04D0FEE77D
:10140000012202E0022200E00322816821F06071E3
:10141000816081684FF4000343EA026211438160F6
:1014200070478168090201D500207047806840013B
:1014300001D5022070470120704742680A4342608C
:10144000704742688A4342607047CA0602D5826884
:1014500052020ED44A0402D58268920209D44A0785
:1014600002D58268920304D4490604D5806800013D
:1014700001D5012070470020704700F01F020121B4
:1014800091404009800000F1E020C0F80011704751
:1014900000F01F02012191404009800000F1E0208E
:1014A000C0F88011704700000000FEBF1C00002043
:1014B00030B54FF0804108687B4A45077B4C7C4B38
:1014C0007C480CD50D68AD0701D502601CE0226890
:1014D000D20702D0784A026016E0036014E00D687B
:1014E000ED070ED0646AA40701D5036000E0026036
:1014F00002680523B2FBF3F2C8235A43D208026004
:1015000002E04FF4FA4202604968C90702D001685C
:1015100049080160694A0168B1FBF2F1416030BDE0
:101520004FF080400168490702D40068C00707D027
:10153000002044F6206100BF401C8842FBD3704766
:10154000002000BF401C1428FBD3704710B5574C37
:1015500001202062FFF7E4FFFFF7E2FF606A20F05E
:1015600002006062A06A56490840A062A06A55491C
:101570000843A062606A20F004006062206B0028CB
:10158000FCD010BD10B5FFF7E1FF4848416A41F0BB
:10159000010141628004016841F0010101600168BC
:1015A00021F00401016010BD10B54049012008621E
:1015B000FFF7B6FFFFF7B4FF4FF08040016841F03E
:1015C00002010160016841F00401016010BD10B525
:1015D0004FF08044A06840F08070A0603A48016AF3
:1015E00021F001010162FFF79BFF206820F001005C
:1015F0002060206820F00400206010BD10B52B4949
:1016000001200860FFF78CFF4FF08040016821F057
:1016100002010160016841F00401016010BD10B5D4
:10162000224900200860FFF77BFF4FF080400168EF
:1016300021F002010160016841F00401016010BD68
:1016400010B54FF08044A06840F48000A06078207E
:10165000FFF739FBFFF796FF606820F0010060603C
:1016600060686060FFF724FF1248184900688842EC
:1016700004D9BDE810407820FFF725BB0E49884209
:1016800004D9BDE810405020FFF71DBB1049884227
:1016900004D9BDE810402820FFF715BBBDE8104075
:1016A0001E20FFF710BB0000008051010010034016
:1016B000002D31011C000020005A620240420F0040
:1016C00000FEE0FC3200050000E0014000B4C4046C
:1016D00080C3C90125480047FEE7FEE7FEE7FEE7B5
:1016E000FEE7FEE7FEE7FEE7FEE7FEE7FEE7FEE7D2
:1016F000FEE7FEE7FEE7FEE7FEE7FEE7FEE7FEE7C2
:10170000FEE7FEE7FEE7FEE7FEE7FEE7FEE7FEE7B1
:10171000FEE7FEE7FEE7FEE7FEE7FEE7FEE7FEE7A1
:10172000FEE7FEE7FEE7FEE7FEE7FEE7FEE7FEE791
:10173000FEE7FEE7FEE7FEE7FEE7FEE7FEE7FEE781
:10174000FEE7FEE7FEE7FEE7FEE7FEE7FEE7FEE771
:10175000FEE7FEE7FEE7FEE7FEE7FEE7FEE7FEE761
:10176000FEE7FEE7FEE7FEE7FEE7FEE749010000D1
:1017700040EA01039B0703D009E008C9121F08C013
:10178000042AFAD203E011F8013B00F8013B521E93
:10179000F9D27047D2B201E000F8012B491EFBD20A
:1017A00070470022F6E710B513460A46044619466C
:1017B000FFF7F0FF204610BDCAB2401E10F8011F0F
:1017C0008A4202D00029F9D10020704710B50022CA
:1017D00000E0521C835C8C5CA34201D1002BF8D149
:1017E000D8B2E1B2401A10BD2DE9F05F05460020E5
:1017F00092469B4688460646814640241BE0284682
:1018000041464746224600F042F853465A46C01A1F
:10181000914110D311461846224600F029F82D1A9E
:1018200067EB01084F4622460120002100F020F816
:1018300017EB00094E41201EA4F10104DFDC4846ED
:1018400031462A464346BDE8F09F0000064C074D4E
:1018500006E0E06840F0010394E807009847103480
:10186000AC42F6D3FEF774FC6C1E00008C1E000028
:10187000202A04DB203A00FA02F100207047914050
:10188000C2F1200320FA03F3194390407047202A45
:1018900004DB203A21FA02F00021704721FA02F31A
:1018A000D040C2F120029140084319467047000021
:1018B0000FB4054B10B503A9044A029800F018F8BC
:1018C00010BC5DF814FB0000B104000024000020EF
:1018D00002E008C8121F08C1002AFAD170477047F9
:1018E000002001E001C1121F002AFBD17047000057
:1018F0002DE9FF4F8DB00F460546002606E025284E
:101900000BD0DDE90F1290476D1C761C287800285B
:10191000F5D111B03046BDE8F08F0024A246A146B3
:101920000122E94900E0044315F8013F203B02FA97
:1019300003F00842F7D128782A2810D06FF02F0240
:101940002878A0F13001092914D80AEB8A0102EBAA
:10195000410144F0020400EB010A6D1CF0E701CFE5
:101960005FEA000A03D544F40054CAF1000A44F0C7
:1019700002046D1C28782E2817D115F8010F44F0A9
:1019800004042A280ED06FF02F022878A0F130012D
:1019900009290AD809EB890102EB410100EB010991
:1019A0006D1CF2E757F8049B6D1C28786C280FD04B
:1019B00006DC4C2817D068280DD06A2814D104E022
:1019C000742810D07A280FD10DE044F400140AE0F6
:1019D00044F4801401E044F440146978814202D157
:1019E00004F580146D1C6D1C28786E281ED00CDC4C
:1019F000632830D004DC00288BD0582811D19FE018
:101A0000642867D069280CD164E073282DD004DCE9
:101A10006F2872D0702804D194E075286ED0782891
:101A20006DD0DDE90F129047761C4BE1C4F30250F4
:101A3000022806D0032809D0042801CF09D0066067
:101A400040E101CFF117C0E900613BE101CF068021
:101A500038E1067036E117F8040B8DF8000000201D
:101A60008DF80100EB46012003E057F804BB4FF06E
:101A7000FF3061074FF0000102D40DE008F10101D1
:101A8000884649450FDA8045F8DB1BF80810002925
:101A9000F4D108E008F1010188468142FADB1BF825
:101AA00008100029F6D1DDE90F23AAEB08008146D2
:101AB000214600F031F9304400EB080604E0DDE98E
:101AC0000F121BF8010B9047B8F10108F7D221461D
:101AD0004846F2E00A21C4F302524FF0000B08918D
:101AE000022A04D001CFC117032A09D00AE0FF1D42
:101AF00027F00707F7E8020108E02CE01EE01FE0EE
:101B000000B2C117042A01D140B2C117021E71F1FF
:101B1000000206DA0023D0EB030063EB01012D2263
:101B200002E0220504D52B228DF82420012203E0B7
:101B3000E20701D02022F7E7904653E00A210BE0AC
:101B4000102109E010214FF0000B44F004044FF085
:101B50000809089103E008214FF0000B0891C4F335
:101B60000252022A04D001CF0021032A06D006E047
:101B7000FF1D27F00707F7E8020103E080B2042AFF
:101B800000D1C0B24FF0000822072BD52A78702A66
:101B900007D0DDF820C08CF0100C5CEA0B0C05D0EF
:101BA0000EE040228DF82420012208E050EA0103D3
:101BB00006D030238DF824308DF82520022290465F
:101BC000089B83F0080353EA0B030BD150EA010290
:101BD00001D1620706D530228DF824204FF001088C
:101BE000A9F101092A78582A04D038A20B9208AA30
:101BF0000A920BE03AA2F9E75B46089AFFF7F4FD78
:101C00000B9B9B5C0A9A521E0A92137050EA0102C7
:101C1000F2D10A98ADEB000000F1200B600702D56D
:101C200024F4803401E04FF00109D94502DDA9EB2D
:101C30000B0000E0002000EB0B0141440890AAEBF0
:101C4000010AE00306D4DDE90F232146504600F0E7
:101C500063F806444FF0000908E009A911F80900EB
:101C6000DDE90F12904709F10109761CC145F4DB4B
:101C7000E0030CD5DDE90F232146504600F04CF877
:101C8000064404E0DDE90F1230209047761C0899E5
:101C9000481E08900029F5DC08E00A980A990078A7
:101CA000491C0A91DDE90F129047761CBBF1000137
:101CB000ABF1010BF1DC21465046DDE90F2300F0CA
:101CC00019F806446D1C21E6092801003031323331
:101CD0003435363738396162636465660000000068
:101CE0003031323334353637383941424344454652
:101CF000000000002DE9F041044600251E4617466D
:101D0000880404D405E039462020B0476D1C641EC9
:101D1000F9D52846BDE8F0812DE9F04104460025BB
:101D20001E469046C80301D5302700E020278804CE
:101D300004D505E041463846B0476D1C641EF9D510
:101D40002846BDE8F08100000C1E000003000000E2
:101D500002000000000000000050014000000000F0
:101D6000141E0000010000000C0000000000000034
:101D700000200140000000001C1E000002000000C6
:101D800004000000000000000030014000000000DE
:101D90002C1E0000040000000700000000000000EE
:101DA0000060014000000000241E0000020000004E
:101DB00002000000000000000030014001000000AF
:101DC0005C1E00003B0500004C1E00006305000087
:101DD000441E00006F050000541E0000970500001F
:101DE000341E0000B5050000641E00000F06000050
:101DF000401E0000A9060000381E0000B3060000C7
:101E0000636D645F7465737400000000454C43307B
:101E100020200000454C433120200000534C454415
:101E20002020000066757365302000004E657452F6
:101E3000737400006C656400696E666F00000000DA
:101E4000696F000068656C7000000000636C65617C
:101E5000720000007265626F6F74000074657374C5
:101E60000000000072656C61790000008C1E0000AB
:101E70000000002028000000D0180000B41E000060
:101E80002800002088110000E01800000000000079
:101E90000000000000000000010600118106001192
:101EA0008107001101080011002D3101140000000C
:041EB000000000002E
:0400000500000149AD
:00000001FF
