:020000040000FA
:1000000020100020ED120000F1120000F312000099
:10001000F5120000F7120000F912000000000000C5
:10002000000000000000000000000000FB120000C3
:10003000FD12000000000000FF120000011300008C
:10004000031300000513000007130000091300004C
:100050000B1300000D1300000F130000111300001C
:1000600013130000151300001713000019130000EC
:100070001B1300001D1300001F13000021130000BC
:10008000231300002513000027130000291300008C
:100090002B1300002D1300002F130000311300005C
:1000A000331300003513000037130000391300002C
:1000B0003B1300003D1300003F13000041130000FC
:1000C00043130000451300004713000049130000CC
:1000D0004B1300004D1300004F130000511300009C
:1000E00053130000551300005713000000000000D8
:1000F000591300005B1300005D1300005F13000044
:100100006113000063130000651300006713000013
:10011000691300006B1300006D1300006F130000E3
:1001200071130000731300007513000077130000B3
:10013000791300007B1300007D1300007F13000083
:100140008113000083130000DFF810D001F032F9B2
:100150000048004761010000AFF30080201000203C
:1001600001F07AF800F066F93FA001F035F93FA000
:1001700001F032F948A001F02FF95248016852A06D
:1001800001F02AF956A001F027F900F091F960A0DA
:1001900001F022F900F0C4F933A001F01DF9634D1C
:1001A000634E644FDFF8908164A001F015F92C468E
:1001B0000221204600F0FDFA00F0B2F900F02EF91D
:1001C00067A001F009F90221204600F0FAFA00F0D8
:1001D000A7F900F023F966A001F0FEF834460C21DF
:1001E000204600F0E6FA00F09BF900F017F969A04C
:1001F00001F0F2F80C21204600F0E3FA00F090F94B
:1002000000F00CF967A001F0E7F83C460421204615
:1002100000F0CFFA00F084F900F0F8F865A001F0E2
:10022000DBF80421204600F0CCFA00F079F900F068
:10023000EDF864A001F0D0F844460721204600F014
:10024000B8FA00F06DF900F0E1F863A001F0C4F82D
:100250000721204600F0B5FA00F062F900F0D6F868
:1002600062A001F0B9F89FE70D0A00003D3D3D3D59
:100270003D3D3D3D3D3D3D3D3D3D3D3D3D3D3D3DAE
:100280003D3D3D3D3D3D3D3D3D3D3D3D3D3D3D3D9E
:100290003D3D3D3D0D0A0000202053746570203324
:1002A0003A2053444B204750494F20E2809420E5A8
:1002B00085A8E983A820494F20E5BC95E8849A0DDC
:1002C0000A00000010000020202043505520436CFD
:1002D0006F636B3A20256420487A0D0A0000000005
:1002E0003D3D3D3D3D3D3D3D3D3D3D3D3D3D3D3D3E
:1002F0003D3D3D3D3D3D3D3D3D3D3D3D3D3D3D3D2E
:100300003D3D3D3D3D3D3D3D0D0A0D0A00000000D7
:100310000D0A5B5354415455535D20E5889DE5A774
:100320008BE78AB6E680813A0D0A00000050014052
:100330000020014000300140006001403E3E3E2070
:10034000454C433020484947482028E68F92E5BA7B
:10035000A73120E590B8E59088290D0A000000003B
:100360003E3E3E20454C4330204C4F570D0A000086
:100370003E3E3E20454C433120484947482028E630
:100380008F92E5BAA73220E590B8E59088290D0A4A
:10039000000000003E3E3E20454C4331204C4F576C
:1003A0000D0A00003E3E3E20534C4544204F4E0D6A
:1003B0000A0000003E3E3E20534C4544204F464636
:1003C0000D0A00003E3E3E204E6574527374204874
:1003D0004947480D0A0000003E3E3E204E657452DB
:1003E0007374204C4F570D0A000000003D3D3D3D09
:1003F0003D20E4B880E8BDAEE5AE8CE68890203DB7
:100400003D3D3D3D0D0A0D0A0000000008B50748BE
:1004100000900098411E0091FBD208BD08B5044829
:1004200000900098411E0091FBD208BD804F120041
:1004300000093D001FB5012364220221002000F0C5
:1004400075FA002364220321184600F06FFA4FF476
:10045000E130009000208DF804008DF805008DF843
:10046000060003218DF807108DF808008DF809109B
:100470008DF80A000A218DF80B108DF80C000B4C3A
:100480006946204600F06DFC204600F040FD1FBD8F
:1004900070B50546054C2946204600F03DFD204636
:1004A00000F046FD0028FAD1284670BD0000024049
:1004B000F8B5052126A000F08FFF00252C4F00265F
:1004C00005EB450007EBC004606901281AD0002342
:1004D000201D07C800F02AFA6069012814D0009690
:1004E00000230122A168206900F070F8A16820694A
:1004F00000F067F91FA0216800F06EFF6D1C052D4C
:10050000DED3F8BD0123E3E7009601230022A168B2
:10051000206900F05BF81FA0216800F05DFFEDE7A7
:1005200070B50024124E04EB440506EBC50081684B
:10053000006900F058F908B11DA200E01EA256F8AB
:1005400035101FA000F048FF641C052CEBD370BDD4
:100550005B494F20494E49545D20E585B120256413
:1005600020E4B8AAE5BC95E8849A3A0D0A00000098
:10057000D0150000202025732020E2869220E8BEBE
:1005800093E587BA2028E5889DE5A78B204C4F5737
:10059000290D0A00202025732020E2869220E8BE43
:1005A00093E585A52028E4B88AE68B89290D0A0001
:1005B00048494748000000004C4F57200000000009
:1005C00020202573203A2025730D0A002DE9F047DD
:1005D0001646DDF820801F46DFF8AC920124AB4DB3
:1005E0008C40A0EB09034FF4805C4FF080424845FB
:1005F00076D01FDCA64BC01838D0604558D0B0F577
:10060000005F15D1906840F0040090600123002243
:10061000022000F08BF99F48012E6CD04168A14365
:100620004160012F6BD0D5F81002A043C5F810022D
:10063000BDE8F08763457DD0B3F5405FF8D19068A1
:1006400040F40010906001230022052000F06EF9B4
:100650009148012E6FD04168A1434160012F6BD0BA
:10066000D5F83002A043C5F83002E1E7906840F0C9
:100670000100906000220123104600F057F98448E1
:100680004042012E0AD04168A1434160012F09D0A8
:10069000D5F80002A043C5F80002C9E7416821432C
:1006A0004160F3E7D5F800022043C5F80002BFE738
:1006B000906840F00200906001230022184600F08C
:1006C00035F97648012E0CD04168A1434160B8F15C
:1006D000010F0AD0D5F80003A043C5F80003A7E72F
:1006E00013E0416821434160F1E7D5F8000320435E
:1006F000C5F800039CE741682143416091E7D5F8C4
:1007000010022043C5F8100292E7906840F01000F4
:10071000906001230022032000F008F9012E10D080
:10072000D9F80400A043C9F80400012F0FD0D5F870
:10073000200202E011E032E035E0A043C5F82002DB
:1007400076E7D9F804002043C9F80400EDE7D5F8AE
:1007500020022043C5F820026AE7906840F020009C
:10076000906001230022042000F0E0F84C48012EA4
:100770000BD04168A1434160B8F1010F09D0D5F811
:100780002003A043C5F8200352E74168214341609C
:10079000F2E7D5F820032043C5F8200348E7416875
:1007A000214341605AE7D5F830022043C5F83002B2
:1007B0003EE70122400100EB810000F1844002602D
:1007C00070470022400100EB810000F1844002608C
:1007D0007047400100EB810000F184400168C1F1E5
:1007E0000101016070470068C84000F001007047D7
:1007F000C2F118036FF07F42DA4003688A40134366
:1008000003607047C2F118036FF07F42DA4003685B
:100810008A40934303607047C2F118036FF07F4230
:10082000DA4003688A40534003607047C2F11803FE
:100830006FF07F42DA400068C84010407047C2F154
:1008400018036FF07F42DA4072B603688A401343A0
:10085000036062B67047C2F118036FF07F42DA405E
:1008600072B603688A409343036062B67047C2F170
:1008700018036FF07F42DA4072B603688A40534033
:10088000036062B670470000005001400000014064
:1008900000F0FEBF00300140008001400020014018
:1008A0000060014010B572B6000B1B4CA168884770
:1008B0002068804762B610BD10B5030701D0022042
:1008C00010BD930701D0022010BD72B69208124CE1
:1008D000E36898472068804762B6002010BD10B5D5
:1008E00072B60D4940F289431E284A6808D028286C
:1008F0000AD050280CD00949581C904762B610BD48
:10090000074918469047F9E7064918469047F5E722
:10091000054918469047F1E7000000206E7AFCABCD
:10092000251FF4AB2929F4AB4D52F8AB2DE9F04F5C
:1009300086B001EB81074FF01F0BA2F1640A0BFA9E
:1009400007F60AFA07F48D1F05EB850C0BFA0CF776
:100950000AFA0CF54FF001084FEA41094FF0030C79
:10096000A1F10C0E0CFA09FC08FA01F80EEB8E0E40
:100970008B40CDF800E00BFA0EFECDF814E0DDF868
:1009800000E00AFA0EFECDF810E0A1F1120E0EEB17
:100990008E0E0BFA0EFB0AFA0EFACDE902ABA1F1AC
:1009A000100A4FEA4A0A4FF0030B0BFA0AFBCDF884
:1009B00004A0DFF89CA3062837D2DFE800F0033953
:1009C0006EA3F0EF632A18D906290AD2DAF80001DB
:1009D000B043CAF80001DAF800012043CAF8000168
:1009E0000BE00C2909D2DAF80401B843CAF8040173
:1009F000DAF804012843CAF80401DAF8000020EA12
:100A00000C00CAF80000632A00D90122DAF80000BD
:100A100002FA09F20243CAF80020CE48016821EA2E
:100A20000801016001681943016006B0BDE8F08F5C
:100A3000632A18D906290AD2DAF81001B043CAF895
:100A40001001DAF810012043CAF810010BE00C295C
:100A500009D2DAF81401B843CAF81401DAF814011B
:100A60002843CAF81401DAF8040020EA0C00CAF896
:100A70000400632A00D90122DAF8040002FA09F21C
:100A80000243CAF80420B3481030016821EA080183
:100A90000160016819430160C7E7632A18D9062974
:100AA0000AD2DAF82001B043CAF82001DAF82001AE
:100AB0002043CAF820010BE00C2909D2DAF82401FE
:100AC000B843CAF82401DAF824012843CAF82401FB
:100AD000DAF8080020EA0C00CAF80800632A00D9F6
:100AE0000122DAF8080002FA09F20243CAF80820E3
:100AF00098482030016821EA080101600168194323
:100B0000016092E7632A36D906290AD2DAF8600131
:100B1000B043CAF86001DAF860012043CAF8600106
:100B200029E00C290AD2DAF86401B843CAF8640152
:100B3000DAF864012843CAF864011CE012290CD2D7
:100B4000DAF86801059CA043CAF86801DAF8680180
:100B5000049C2043CAF868010DE018290BD2DAF88A
:100B60006C01039CA043CAF86C01DAF86C01029C8A
:100B70002043CAF86C01102912D2DAF8200020EACA
:100B80000C00CAF82000632A00D90122DAF82000FC
:100B900002FA09F20243CAF8202011E071E019E0DC
:100BA000DAF8240020EA0B00CAF82400632A00D9EE
:100BB000012201988240DAF824000243CAF8242076
:100BC00064484030016821EA080101600168194366
:100BD00001602AE7632A27D906290AD2DAF87001C8
:100BE000B043CAF87001DAF870012043CAF8700106
:100BF0001AE00C290AD2DAF87401B843CAF8740171
:100C0000DAF874012843CAF874010DE012290BD2F6
:100C1000DAF87801059CA043CAF87801DAF878413F
:100C200004980443CAF87841102910D2DAF8300049
:100C300020EA0C00CAF83000632A00D90122DAF851
:100C4000300002FA09F20243CAF830200FE0DAF865
:100C5000340020EA0B00CAF83400632A00D90122CC
:100C600001988240DAF834000243CAF83420394847
:100C70005030016821EA08010160016819430160F0
:100C8000D3E6632A36D906290AD2DAF88001B043BE
:100C9000CAF88001DAF880012043CAF8800129E00F
:100CA0000C290AD2DAF88401B843CAF88401DAF8C8
:100CB00084012843CAF884011CE012290CD2DAF816
:100CC0008801059CA043CAF88801DAF88841049895
:100CD0000443CAF888410DE018290BD2DAF88C4198
:100CE00003988443CAF88C41DAF88C01029C2043B3
:100CF000CAF88C01102910D2DAF8400020EA0C0062
:100D0000CAF84000632A00D90122DAF8400002FA4A
:100D100009F20243CAF840200FE0DAF8440020EA62
:100D20000B00CAF84400632A00D9012201988240CE
:100D3000DAF844000243CAF84420064860300168EB
:100D400021EA080101600168194301606DE60000B5
:100D50000000014000060140416821F4007141603B
:100D600070472DE9F04704460D46D5484FF48057AB
:100D700026184FF080404FF400584FF4405973D07C
:100D8000BE4276D0464579D04E4503D1816841F4C4
:100D9000804181602046FFF7DFFF606840F400502B
:100DA0006060A0686FF30D00A060C6482968006805
:100DB0000009B0FBF1F0A168401E0843A060606824
:100DC00020F47C00606060682979AA7940EA81405B
:100DD0006979C90441EA825108436060F6B3BE42B2
:100DE00055D0464557D04E4502D12A2000F05CF937
:100DF000E06880B2E060E879697A401C000440EA6B
:100E00000160E1680843E060606820F07F40606056
:100E10006068E97A40EA01606060606844F2140149
:100E2000884360606068297A2A7B40EA0110A97AC9
:100E3000890041EA82310843606086B3BE423FD0F8
:100E400046454DD04E4560D1287AA97A0843297B82
:100E5000084355D0BDE8F0472A2003E013E003E043
:100E600007E00BE000F015B9816841F40061816092
:100E700090E7816841F4805181608BE7816841F49B
:100E80000051816086E7272000F00EF9B0E72820A6
:100E900000F00AF9ACE7292000F006F9A8E7FFE71F
:100EA000287AA97A0843297B084304D0BDE8F04793
:100EB000272000F0EEB8BDE8F047272000F0F4B896
:100EC000287AA97A0843297B084304D0BDE8F04773
:100ED000282000F0DEB8BDE8F047282000F0E4B894
:100EE000287AA97A0843297B084304D0BDE8F04753
:100EF000292000F0CEB8BDE8F047292000F0D4B892
:100F0000BDE8F0472A2000F0CFB8BDE8F08741687F
:100F100041F4007141607047016070470068C0F3A0
:100F200008020A60400501D5022070470020704782
:100F3000406840F30000401C7047406840F3C00028
:100F4000401C70474068C0F34000704782686FF3F0
:100F50000D0282605B4A12681209B2FBF1F18268ED
:100F6000491E114381607047564980680968090924
:100F7000C0F30D00401CB1FBF0F07047436923F053
:100F800005034361436941EA82010B4343617047B2
:100F90004069C0F3C010704710B5446924F07A046A
:100FA00044614469D20044EA410142EA0312114318
:100FB000416110BD4069C0F300207047036923F010
:100FC00005030361036941EA82010B430361704732
:100FD000016941F01001016170470069C0F34000F0
:100FE00070470069C0F3C00070470022FF2918D085
:100FF000A1F58073FF3B14D0FE290DD0B1F5FF7F22
:101000000AD0F8290AD0B1F5FC7F07D0802907D093
:10101000B1F5C07F04D0FEE7012202E0022200E029
:101020000322816821F06071816081684FF40003C0
:1010300043EA02621143816070478168090201D569
:10104000002070478068400101D5022070470120D0
:10105000704742680A434260704742688A43426070
:101060007047CA0602D5826852020ED44A0402D5DD
:101070008268920209D44A0702D58268920304D496
:10108000490604D58068000101D501207047002081
:10109000704700F01F02012191404009800000F1DB
:1010A000E020C0F80011704700F01F0201219140BC
:1010B0004009800000F1E020C0F880117047000076
:1010C0000000FEBF1000002030B54FF080410868DE
:1010D0007B4A45077B4C7C4B7C480CD50D68AD07A3
:1010E00001D502601CE02268D20702D0784A026073
:1010F00016E0036014E00D68ED070ED0646AA407E3
:1011000001D5036000E0026002680523B2FBF3F240
:10111000C8235A43D208026002E04FF4FA42026048
:101120004968C90702D0016849080160694A016835
:10113000B1FBF2F1416030BD4FF0804001684907DA
:1011400002D40068C00707D0002044F6206100BF29
:10115000401C8842FBD37047002000BF401C14286D
:10116000FBD3704710B5574C01202062FFF7E4FF16
:10117000FFF7E2FF606A20F002006062A06A564951
:101180000840A062A06A55490843A062606A20F046
:1011900004006062206B0028FCD010BD10B5FFF782
:1011A000E1FF4848416A41F0010141628004016861
:1011B00041F001010160016821F00401016010BDEE
:1011C00010B5404901200862FFF7B6FFFFF7B4FFF2
:1011D0004FF08040016841F002010160016841F078
:1011E0000401016010BD10B54FF08044A06840F0CC
:1011F0008070A0603A48016A21F001010162FFF7A6
:101200009BFF206820F001002060206820F004008F
:10121000206010BD10B52B4901200860FFF78CFF3E
:101220004FF08040016821F002010160016841F047
:101230000401016010BD10B5224900200860FFF7CD
:101240007BFF4FF08040016821F0020101600168DE
:1012500041F00401016010BD10B54FF08044A0685A
:1012600040F48000A0607820FFF739FBFFF796FF7D
:10127000606820F00100606060686060FFF724FF34
:10128000124818490068884204D9BDE81040782007
:10129000FFF725BB0E49884204D9BDE81040502015
:1012A000FFF71DBB1049884204D9BDE81040282033
:1012B000FFF715BBBDE810401E20FFF710BB000074
:1012C0000080510100100340002D3101100000206A
:1012D000005A620240420F0000FEE0FC32000500AE
:1012E00000E0014000B4C40480C3C90125480047A0
:1012F000FEE7FEE7FEE7FEE7FEE7FEE7FEE7FEE7C6
:10130000FEE7FEE7FEE7FEE7FEE7FEE7FEE7FEE7B5
:10131000FEE7FEE7FEE7FEE7FEE7FEE7FEE7FEE7A5
:10132000FEE7FEE7FEE7FEE7FEE7FEE7FEE7FEE795
:10133000FEE7FEE7FEE7FEE7FEE7FEE7FEE7FEE785
:10134000FEE7FEE7FEE7FEE7FEE7FEE7FEE7FEE775
:10135000FEE7FEE7FEE7FEE7FEE7FEE7FEE7FEE765
:10136000FEE7FEE7FEE7FEE7FEE7FEE7FEE7FEE755
:10137000FEE7FEE7FEE7FEE7FEE7FEE7FEE7FEE745
:10138000FEE7FEE74901000030B50B4601460020AC
:101390002022012409E021FA02F59D4205D303FA37
:1013A00002F5491B04FA02F52844151EA2F10102B8
:1013B000F1DC30BD064C074D06E0E06840F001036B
:1013C00094E8070098471034AC42F6D3FEF7C0FE0D
:1013D00070160000901600000FB4054B10B503A95D
:1013E000044A029800F018F810BC5DF814FB0000E5
:1013F000910400001800002002E008C8121F08C174
:10140000002AFAD170477047002001E001C1121F85
:10141000002AFBD1704700002DE9FF4F8BB09A46A0
:101420000F460546002606E025280BD052460D99AA
:1014300090476D1C761C28780028F5D10FB03046F7
:10144000BDE8F08F0024A0460122604900E004437B
:1014500015F8013F203B02FA03F00842F7D1287843
:101460002E2817D115F8010F44F004042A280ED0B5
:101470006FF02F022878A0F1300109290AD808EB73
:10148000880102EB410100EB01086D1CF2E757F8FF
:10149000048B6D1C287869283ED006DC0028CDD04E
:1014A00063280BD0642804D136E0732810D0752847
:1014B0004BD052460D999047761C85E017F8040BE7
:1014C0008DF8000000208DF80100E946012003E0BE
:1014D00057F8049B4FF0FF3061074FF0000401D430
:1014E0000AE0641C44450DDA8442FADB19F8041062
:1014F0000029F6D106E0641C8442FCDB19F80410D4
:101500000029F8D1264404E019F8010B52460D9940
:101510009047641EF8D257E001CF4FF00A0B002825
:1015200002DA40422D2102E0210504D52B218DF85D
:101530002410012103E0E10705D02021F7E70DF198
:10154000200908910CE00021F9E701CF4FF00A0BC8
:10155000F9E75946FFF718FF01F1300209F8012DAC
:101560000028F6D1ADEB090000F1200B600701D493
:101570004FF00108D84502DDA8EB0B0000E0002089
:101580008046002406E009A85246005D0D99904768
:10159000641C761C08988442F5DB04E03020524637
:1015A0000D999047761CB8F10001A8F10108F5DC0F
:1015B00005E019F8010B52460D999047761CBBF1D6
:1015C0000001ABF1010BF4DC6D1C34E709280100CC
:1015D00048160000030000000200000000000000A8
:1015E0000050014000000000501600000100000003
:1015F0000C0000000000000000200140000000007E
:101600005816000002000000040000000000000066
:1016100000300140000000006816000004000000D7
:101620000700000000000000006001400000000012
:101630006016000002000000020000000000000030
:101640000030014001000000454C433020200000E4
:10165000454C433120200000534C454420200000DD
:1016600066757365302000004E6574527374000017
:1016700090160000000000201C000000F81300007D
:10168000AC1600001C00002004100000081400002C
:1016900001060011810600118107001101080011E7
:0C16A000002D31011400000000000000CB
:0400000500000149AD
:00000001FF
