:020000040000FA
:10000000C8820120093300000D3300000F330000C7
:10001000113300001333000015330000000000000E
:10002000000000000000000000000000610100006E
:100030001933000000000000A50100009D2300000E
:100040001F3300002133000023330000253300005C
:1000500027330000293300002B3300002D3300002C
:100060002F330000313300003333000035330000FC
:1000700037330000393300003B3300003D330000CC
:100080003F3300004133000043330000453300009C
:1000900047330000493300004B3300004D3300006C
:1000A0004F3300005133000053330000553300003C
:1000B00057330000593300005B3300005D3300000C
:1000C0005F330000613300006333000065330000DC
:1000D00067330000693300006B330000850E0000B9
:1000E0006F33000071330000733300000000000024
:1000F0007533000077330000793300007B33000054
:100100007D3300007F33000081330000B50D000017
:10011000B90D0000BD0D0000C10D0000C50D0000AF
:10012000C90D00008F3300009133000093330000AD
:100130009533000097330000993300009B33000093
:100140009D3300009F330000DFF810D003F07CF9EE
:10015000004800475D020000AFF30080C882012024
:10016000224B19680868B0E8F00F80F30988BFF3E4
:100170006F8F4FF0000080F311884EF00D0E704726
:100180000000000006480068006880F3088862B636
:1001900061B6BFF34F8FBFF36F8F00DF00BF00BFAB
:1001A00008ED00E0EFF30980BFF36F8F0F4B1A6883
:1001B00020E9F00F106008B54FF0800080F311883F
:1001C000BFF34F8FBFF36F8F01F060F94FF0000066
:1001D00080F31188BDE8084019680868B0E8F00F9E
:1001E00080F30988BFF36F8F704700BFA40700201A
:1001F000EFF30580704700001CB50024002501F0D6
:100200008FFA0190384E4FF4FA771DB100251DB1D9
:10021000012102E00125FAE700213068426811203F
:100220009047641CE00709D101F07AFA00902F484A
:1002300000231A466946806801F008FE394601A885
:1002400001F06FF8E1E708B5284C00F082FA0023CE
:100250001A466946A06801F008FFF6E71CB503F0EE
:1002600009F800F0E7F84FF4E13000F0E8FB20A0D7
:1002700003F028F91FA003F025F929A003F022F9C3
:100280003148016831A003F01DF936A003F01AF9D6
:100290003FA003F017F94AA003F014F954A003F0AB
:1002A00011F914A003F00EF9002204210A2001F034
:1002B00039FD0E49886008460221CDE9001000236F
:1002C000802257A1584800F0B3FE08480121001DC4
:1002D000CDE900104A02002354A1554800F0A8FEC1
:1002E00001F0E5F9FEE700003000002000000020EA
:1002F0000D0A00003D3D3D3D3D3D3D3D3D3D3D3D0B
:100300003D3D3D3D3D3D3D3D3D3D3D3D3D3D3D3D1D
:100310003D3D3D3D3D3D3D3D3D3D3D3D0D0A0000EA
:100320002020537465702031313A205541525420B9
:10033000506F7274204472697665722028647276F8
:1003400070290D0A000000000C08002020204350F6
:100350005520436C6F636B203A20256420487A0D4A
:100360000A000000202055415254204150492020CD
:100370003A20647276705F75617274302D3E496EFA
:1003800069742F57726974652F4F70656E0D0A007E
:1003900020202020202020202020202020202D3E32
:1003A0002053444B20554152545F496E69742F5776
:1003B00072697465427974652F2E2E2E0D0A000025
:1003C0002020554152542049535220203A20647233
:1003D00076705F756172743020495352202D3E2033
:1003E00072785F63616C6C6261636B0D0A00000080
:1003F00020202020202020202020202020202D3ED2
:10040000206C6F6F702D3E777269746528675F7519
:10041000617274305F6C6F6F70290D0A000000000C
:10042000626C696E6B000000F9010000636D64008E
:1004300047020000F8B5052126A003F043F8002587
:100440002A4F002605EB450007EBC0046069012830
:100450001AD00023201D07C802F076FA606901282F
:1004600014D0009600230122A168206902F0BCF894
:10047000A168206902F0B3F91DA0216803F022F8F9
:100480006D1C052DDED3F8BD0123E3E700960123A3
:100490000022A168206902F0A7F81DA0216803F0DE
:1004A00011F8EDE770B50024104E04EB440506EB9F
:1004B000C5008168006902F0A4F908B11BA200E040
:1004C0001CA256F835101DA002F0FCFF641C052C80
:1004D000EBD370BD5B494F20494E49545D202564E4
:1004E0002070696E733A0D0A00000000BC360000EF
:1004F0002020257320202D3E204F55545055542048
:1005000028696E6974204C4F57290D0A00000000BD
:100510002020257320202D3E20494E505554202860
:1005200070756C6C2D7570290D0A0000484947489C
:10053000000000004C4F57200000000020202573D1
:10054000203A2025730D0A002DE9F04106460C469D
:1005500017469846002500E0641C217801B3404608
:1005600002F044FF0028F7D11AE028466D1C47F836
:10057000204000E0641C217821B1404602F036FFA3
:100580000028F7D0207820B1002004F8010B00E00B
:10059000641C217821B1404602F028FF0028F7D1E1
:1005A000207808B1B542E0DB2846BDE8F08170B59F
:1005B00006460D46A849A9A002F084FF002406E0E3
:1005C00055F824202146A7A002F07CFF641CB44209
:1005D000F6DB002070BD10B5A7A002F073FF00206D
:1005E00010BD70B5A7A002F06DFF00249A4D403DEC
:1005F000AAA055F8341002F065FF641C082CF7D34C
:100600009FA002F05FFF002070BDA6A002F05AFF7D
:10061000BFF34F8FA7480168A74A01F4E061114377
:100620000160BFF34F8FFEE770B50C464FF0FF3609
:10063000022804DAA1A002F045FF304670BDA4A153
:10064000606802F0DDFEA34D50B1A3A1606802F026
:10065000D7FE70B1A1A0616802F034FF304670BDD2
:1006600028680121426811209047A4A002F02AFFC7
:1006700007E028680021426811209047A2A002F0FC
:1006800021FF002070BD2DE9F0410C464FF0FF37EF
:10069000032804DA9FA002F015FF384685E7A4A1DD
:1006A000606802F0ADFE50B1A2A1606802F0A8FE41
:1006B00040B1A1A0616802F005FF384675E71A2530
:1006C000A6A601E00325A7A681A1A06802F098FED6
:1006D000DFF8008250B180A1A06802F091FE80B1E5
:1006E0007EA0A16802F0EEFE38465EE7D8F8000072
:1006F000012142682846904731469CA002F0E2FE64
:1007000009E0D8F8000000214268284690473146A9
:1007100098A002F0D7FE002047E710B5FFF7C2FE11
:10072000002010BD10B596A002F0CCFE9A480168DA
:100730009AA002F0C7FE00F0F3FF01469DA002F070
:10074000C1FEA2A002F0BEFE4DA002F0BBFE002042
:1007500010BD2DE9F043ABB0A44F00267868002807
:1007600005D001280ED07E602BB0BDE8F083A0A09C
:1007700002F0A8FE80219F4802F02DFE3E6001207D
:100780007860F1E79C4801222AA9006803689B4829
:10079000006898470028E7D03A68802A01DB7E602D
:1007A000E2E79DF8A81093480A291AD004DC08292A
:1007B0000DD0092904D1D7E70D2916D07F2906D0FD
:1007C000531C3B6081548EA002F07CFECCE7002AD3
:1007D00002DD521E3A60865486498AA002F072FEFB
:1007E000C2E7002AC0D17E60BEE78654FAB1521C2F
:1007F0008049684602F0D6FD84A320AA69460A20F3
:10080000FFF7A2FE81465FEA090012D0002500240E
:10081000DFF84480A8F14008209858F8341002F01E
:10082000EFFD40B1641C082CF6DB7DB112E07E6068
:100830009AE77E6098E712A002F044FE08EBC4003D
:1008400020A94268484690470125EEE771A020990B
:1008500002F038FE7E6087E77437000025730D0ACA
:10086000000000002020617267765B25645D3A20FD
:1008700025730D0A000000000D0A0D0A0D0A0D0A6D
:100880000D0A00000D0A3D3D3D20436F6D6D616E08
:100890006473203D3D3D0D0A0000000020202573BB
:1008A0000D0A00005265626F6F74696E672E2E2EFE
:1008B0000D0A00000CED00E00400FA0555736167B5
:1008C000653A206C6564206F6E7C6F66660D0A0069
:1008D0006F6E0000300000206F666600496E766122
:1008E0006C69643A202573202865787065637420EC
:1008F0006F6E7C6F6666290D0A0000004C4544202F
:100900004F4E0D0A000000004C4544204F46460D56
:100910000A00000055736167653A2072656C617961
:1009200020307C31206F6E7C6F66660D0A000000FF
:100930003000000031000000496E76616C6964206F
:1009400072656C61793A202573202865787065633B
:10095000742030206F722031290D0A00454C43303D
:1009600000000000454C4331000000002573204F7B
:100970004E0D0A002573204F46460D0A0000000068
:100980000D0A3D3D3D2053797374656D20496E66B7
:100990006F203D3D3D0D0A000C08002020204350F3
:1009A0005520436C6F636B203A20256420487A0DF4
:1009B0000A00000020205469636B202020202020A2
:1009C0003A202564206D730D0A0000002020554157
:1009D00052542020202020203A203131353230302E
:1009E0002D382D4E2D310D0A000000000C00002086
:1009F0000D0A3E00180800204400002014000020CA
:100A0000256300000D0A3E257300000020090A0D31
:100A1000000000000D0A2020756E6B6E6F776E204F
:100A2000636F6D6D616E643A2025730D0A000000DE
:100A3000134A01461348126800685268104770B59F
:100A400005460F480068C06880470E49086068B1D5
:100A50000D4C206841690D48884720680168284688
:100A6000884720684068BDE870400047FEE710B541
:100A700004460549E0B20968C9688847204610BDA8
:100A80004400002014000020A0070020310A0000CC
:100A90000D490968096808470B4A126852681047EF
:100AA000094A12689268104730B4074C2468E46819
:100AB000A44630BC60470449096809690847024AEE
:100AC00012685269104700007C07002070B5034689
:100AD000002003F108050BE0D3E90064B44209D01B
:100AE000645D0C549C88641CC4F309045C60401C65
:100AF0009042F1DB70BD10B502684468531CC3F32B
:100B00000903A34207D000F10803D1540188491C0E
:100B1000C1F30901016010BD00210160416070470F
:100B200010B54FF4816001F09EFC002802D0002136
:100B30000160416010BD0000412801D300207047D2
:100B4000A249C0EBC00001EB800081680029F6D10A
:100B50000020704710B5FFF7EFFF28B1C16880682B
:100B6000BDE8104001F04DBE002010BD10B50C4690
:100B7000FFF7E2FF00280CD02CB1C1688068BDE807
:100B8000104001F024BEC1688068BDE8104001F04B
:100B900026BE10BD38B50D46FFF7CEFF002200235C
:100BA0000024002812D0052D10D2DFE805F0030A3A
:100BB00005070900012204E0012302E0012400E00E
:100BC00001220094C168806801F00EFD38BD70B547
:100BD00014461D46FFF7B0FF18B14461856100203F
:100BE00070BD4FF0FF3070BD10B5FFF7A5FF20B10D
:100BF000002141618161002010BD4FF0FF3010BD28
:100C0000F8B50E46FFF798FF044620004FF0FF327C
:100C100013D00125012E12D094F9100000F01F010D
:100C20008D404009800000F1E020C0F88051D4E9F7
:100C3000020101F08DFC0020F8BD1046F8BDA1694D
:100C40000020052954D2DFE801F003101D2A3700E7
:100C50000095D4E9020100231A4601F0C5FCD4E94D
:100C60000201012201F07AFC32E00090D4E9020195
:100C70000123002201F0B8FCD4E90201002201F0B6
:100C80006DFC25E00095D4E902010123002201F06A
:100C9000ABFCD4E90201022201F060FC18E00095EF
:100CA000D4E9020100231A4601F09EFCD4E90201B6
:100CB000112201F053FC0BE00090D4E90201012362
:100CC000002201F091FCD4E90201102201F046FC5F
:100CD00094F9100000F01F018D404009800000F1E0
:100CE000E020C0F80051D4E9020101F069FCA2E75C
:100CF0001046F8BD2DE9F0413549884201D1002167
:100D000017E03449884201D1012112E0324988427A
:100D100001D102210DE03149884201D1032108E0CF
:100D20002F49884201D1042103E02E4988423FD156
:100D300005212D4AA2F5A87652F82130DBB901230E
:100D400042F821300022214FC1EBC10406EBC4055B
:100D5000C3EBC30407EB8404D4F808C0844507D16F
:100D6000D4F800C01446521C45F824C00E2A02DAFA
:100D70005B1C412BECDB0025C1EBC10006EBC00680
:100D800056F8250088B1FFF7D7FE044620000CD0A6
:100D9000D4E9020101F01AFC38B1D4E9020101F0F2
:100DA0001FFC616909B1A06988476D1C0E2DE7DB46
:100DB000BDE8F08106489DE706489BE7064899E7AD
:100DC000064897E7064895E7064893E7480000205D
:100DD000001001400020014000300140005001405F
:100DE0000060014000800140E80900201FB5044672
:100DF000012364220221002001F0A6FD00236422C9
:100E00000321184601F0A0FD009400208DF8040095
:100E10008DF805008DF8060007218DF807100121D7
:100E20008DF808108DF809008DF80A00FF208DF864
:100E30000B008DF80C106946294801F0A0FF1FBD7A
:100E4000274802F072B8264801F094BF10B5244C30
:100E50000146204602F06EF8204602F077F800289E
:100E6000FAD110BD1E4802F071B81E4908607047E3
:100E700080211D4A002802D0C2F800117047C2F834
:100E80008011704738B5164D1021284602F0F7F84A
:100E9000144C48B90DE0694602F04EF820B92168BB
:100EA00011B10098C0B28847E9682846C9B2012943
:100EB000F1D84FF48041284602F0E1F850B938BD2E
:100EC0006946284602F038F820B9216811B1009827
:100ED000C0B28847284602F03EF80028F0D038BD5E
:100EE000000002408007002004E000E070B500240C
:100EF000FE4D04EB840005EB800001F0C6F9641C94
:100F0000052CF6D3F948643001F0BFF9F748783082
:100F100001F0BBF9F5488C3001F0B7F9F348A03087
:100F200001F0B3F9F148B43001F0AFF9EF49F048FE
:100F3000643141631431816370BD70B5044601F0C2
:100F400018FAEB4DA868401CA860286810B16869C1
:100F500038B10CE02C60A868012808D1FFF7C6FF63
:100F600005E02868E16AC06A884200D82C60686A97
:100F7000401C6862E06A01212A69814011432961AD
:100F8000DA4900EB800001EB8000211D01F08BF9B4
:100F900001F0FBF9686900280CD02868E16AC06A92
:100FA000884207D2D3494FF080500860BFF34F8F7B
:100FB000BFF36F8F70BD2DE9F0478146DDE908561C
:100FC0000A9C9846521E206B00EB820020F0070717
:100FD000002023180A5C83F834200A5C12B1401CFC
:100FE0001028F6D34FF0000A84F843A0052D00D353
:100FF0000425E5626564C4F848A0201D01F050F99D
:1010000004F1180001F04CF92461C5F10500A0615C
:101010006462C4F84CA084F850A042464946384661
:1010200001F080F92060002E00D03460BDE8F08728
:101030002DE9FF5F8146DDE90E788A4616469B461C
:10104000B00001F010FA054628000AD0542001F043
:101050000AFA04460CB1256304E0284601F04DFA73
:1010600000E000248CB10020CDE90240CDE90078F9
:101070005B46324651464846FFF79DFF2046FFF744
:101080005CFF012004B0BDE8F09F4FF0FF30F9E7AE
:101090009748416B0968002905D0416BC968C96848
:1010A0004968816270474FF0FF318162704710B527
:1010B0000446206B01F021FA2046BDE8104001F003
:1010C0001CBA70B5044601F054F9894D04B92C6876
:1010D000201D01F00CF958B9E06A844A00EB800148
:1010E00052F8211021B901218140286988432861E3
:1010F000A06A18B104F1180001F0F9F8686A401C00
:1011000068622868844208D17848211DA03001F027
:10111000CAF86868401C686007E0A868401EA860BC
:101120002046FFF7C4FFFFF7B3FF01F02EF968690F
:1011300000280AD02868844207D16E494FF08050B9
:101140000860BFF34F8FBFF36F8F70BD2DE9F04183
:101150000026674F386B002808D0B869401CB8617A
:10116000F86900B101263046BDE8F081FD686D1CCC
:10117000FD6045B9786BB96B7963B863386A401C18
:101180003862FFF785FFB86ADFF8608185420DD3CA
:10119000786B006838B1786BC068C4686068854255
:1011A0000ED2B86202E04FF0FF30B8623868C06A11
:1011B00000EB800058F820000128D1D90126CFE7A4
:1011C000201D01F094F8A06A18B104F1180001F094
:1011D0008EF8E06A01213A6981401143396100EBE0
:1011E000800008EB8000211D01F05DF8E06A39689D
:1011F000C96A8842CCD30126CAE72DE9F041002410
:10120000002701F0B6F83A4D286B401E2863286B82
:10121000F0BBA868E0B3DFF8D480012608F18C08A1
:101220001DE0D8F80C00C46804F1180001F05FF864
:10123000201D01F05CF8E06A2A6906FA00F111430A
:1012400029612A4900EB800001EB8000211D01F09B
:101250002AF8E06A2968C96A884200D3EE61D8F8A2
:1012600000000028DDD10CB1FFF712FFAC6944B1DA
:10127000FFF76CFF00B1EE61641E002CF8D1002076
:10128000A861E86920B101271A493807086000E021
:1012900003E0BFF34F8FBFF36F8F01F076F838464E
:1012A00062E72DE9F04104460F46114EF5683068BB
:1012B000001D01F01CF838B9306890F82C1001209E
:1012C0008840316981433161601C08D13FB1316888
:1012D000BDE8F0410548091DB43000F0E4BF2C44DE
:1012E00030684460AC420DD2316805E0000A00204D
:1012F000A407002004ED00E0B06B091DBDE8F0413B
:1013000000F0DDBF3168706B091D00F0D8FFB06AD6
:10131000844200D2B46227E7FB48016B491C016399
:10132000704770B505460E460023FFF7F5FFF648F7
:10133000C2682C68A119944205D98C4208D99142FF
:1013400006D9012304E08C4201D8914200D901233F
:1013500029601BB1881A0021FFF7A3FFFFF74DFF9B
:10136000002807D1E9494FF080500860BFF34F8F44
:10137000BFF36F8F70BD10B502460020002A07D062
:10138000FFF7CAFF00211046FFF78BFFFFF735FF7D
:10139000002807D1DD494FF080500860BFF34F8F20
:1013A000BFF36F8F10BD10B5044600F0E2FF0CB91B
:1013B000D5480468E46A00F0E8FF204610BD8022AA
:1013C000EFF3118182F31188BFF34F8FBFF36F8F5B
:1013D000002801D1CC480068C06A81F311887047A9
:1013E0002DE9F04104460D460026052D00D30425C5
:1013F00000F0BFFFC44F04B93C68606CA84241D004
:10140000854208D939688C4209D03968C96AA9422D
:1014100005D8012603E039688C4200D10126D4F8B2
:101420002C80404500D1E5626564A069002802DB9C
:10143000C5F10500A061B64D08EB8801606905EBB8
:101440008101884215D1201D00F051FF012120B9F2
:101450003A6901FA08F082433A61E06A3A698140E8
:101460001143396100EB800005EB8000211D00F085
:101470001AFF3EB1A5494FF080500860BFF34F8F6F
:10148000BFF36F8FBDE8F04100F07FBF9E4A106B45
:10149000002802D00120D06170470020D06110697F
:1014A000B0FA80F0C0F11F00994900EB800001EB19
:1014B000800041684968416000F10803994201D108
:1014C000496841604068C0681060704770B5044664
:1014D00000F04FFF8C4D04B92C68201D00F007FF71
:1014E00058B9E06A8A4A00EB800152F8211021B90C
:1014F00001218140286988432861A06A18B104F15C
:10150000180000F0F4FE8248211DB43000F0CBFE3C
:1015100000F03BFF686928B100F02BFFFFF7B8FD32
:1015200000F033FF2868844209D1686940B17749E7
:101530004FF080500860BFF34F8FBFF36F8F70BDC7
:101540007348A968B4300068884202D1002028603E
:1015500070BDBDE8704099E700216D4B4269B4331E
:101560009A4206D1806AA3F12802904201D000B9C4
:1015700001210846704770B50446002C2BD0624DFF
:101580002868844227D000F0F4FE2046FFF7E4FFED
:10159000E8B1201D00F0ABFEE06A01212A6981401C
:1015A000114329615A4900EB800001EB8000211DA5
:1015B00000F079FEE06A2968C96A884207D3534976
:1015C0004FF080500860BFF34F8FBFF36F8FBDE8BF
:1015D000704000F0DABE70BD2DE9F04104460026EF
:1015E0008020EFF3118580F31188BFF34F8FBFF395
:1015F0006F8F2046FFF7B0FF40B1434F386B48B1C3
:10160000434804F118018C3000F04DFE85F3118839
:101610003046A9E5E06A3968C96A884200D30126E4
:10162000201D00F064FEE06A01213A698140114307
:101630003961374900EB800001EB8000211D00F08B
:1016400032FEE3E770B5324E2F4DA0361CE0FFF7B7
:1016500063FE306820B10024FFF7CFFDA4B901E09C
:101660000124F9E700F085FEF068C468201D00F051
:101670003EFEA868401EA8606868401E686000F0D2
:1016800084FE2046FFF713FD68680028DFD170BD97
:101690001F4E4FF080541D4DFFF7D4FF30680128D6
:1016A000FAD92C60BFF34F8FBFF36F8FF4E71CB5EF
:1016B000154800242C30CDE900402346802215A196
:1016C0001648FFF7B5FC012811D1802080F311885E
:1016D000BFF34F8FBFF36F8F0B484FF0FF31816225
:1016E00001214161C460BDE81C4000F02EBE1CBD5C
:1016F000802080F31188BFF34F8FBFF36F8F0249B3
:101700000020486100F034BEA407002004ED00E092
:10171000000A002049444C450000000091160000DA
:10172000FC48C0687047FB48C0687047F94880684B
:101730007047002801D1F74800683430704710B571
:101740000C46F4490968183100F0B9FD2046BDE89F
:1017500010400121A5E570B5154641F00043ED4963
:101760000C68A3610968183100F09DFD2846BDE8AA
:101770007040012195E52DE9F041C068C46804F18D
:101780001800074600F0B3FDE24D2A6B01265AB15E
:101790003946E14800F087FDE06A2968C96A884255
:1017A00015D90120EE61DFE4201D00F0A0FDE06A04
:1017B0002A6906FA00F111432961D74900EB80003C
:1017C0008C3901EB8000211D00F06DFDE4E7002065
:1017D000CAE470B541F000410160C46800F087FDC3
:1017E000201D00F084FDCB4DE06A01262A6906FA2F
:1017F00000F111432961C84900EB80008C3901EBED
:101800008000211D00F04FFDE06A2968C96A884206
:1018100002D90120EE6170BD002070BDBD490A6A89
:101820000260C9684160704770B504460D4600F01B
:10183000A0FDB849C8682A68531C08D02368096A03
:101840008B4206D06168814203D801240DE0002458
:101850000BE06168401A904206D2101A28602046B8
:10186000FFF7DCFF002400E0012400F08EFD20469D
:1018700070BDA8490120C8617047A648006870473C
:1018800070B5044600283AD0A24DE06A2968C96ABA
:10189000884234D2A069002804DB2868C06AC0F1FD
:1018A0000500A061E06A9C4E00EB80008C3E6169FF
:1018B00006EB800081421FD1201D00F018FD0121A0
:1018C00050B9E06A00EB800256F8222022B92A695A
:1018D00001FA00F082432A612868C06AE0622A693E
:1018E00081401143296100EB800006EB8000211D3F
:1018F000BDE8704000F0D7BC2868C06AE06270BDE7
:1019000070B504460020002C2DD0A16C491EA164A6
:10191000636CE26A9A4226D0002924D1201D00F08F
:10192000E6FC7D4A7B498C3A012350B9E06A00EB22
:10193000800552F8255025B90D6903FA00F085435A
:101940000D61606CE062C0F10500A061E06A0D69A4
:1019500083402B430B6100EB800002EB8000211DD4
:1019600000F0A1FC012070BD6A49086880690A681E
:101970000968D26AC2F105028A6170476549086840
:10198000002803D00868826C521C82640868704783
:1019900070B506460C4600F0ECFC5E4D2868C06C45
:1019A00080B92A68012082F850005CB101212046EC
:1019B000FFF777FC59494FF080500860BFF34F8F15
:1019C000BFF36F8F00F0E1FC00F0D3FC2868C46C1B
:1019D000002034B116B12968C86402E02A68611E8B
:1019E000D164296881F8500000F0CFFC204670BD1A
:1019F0002DE9F04781460F461646984600F0B9FC9F
:101A0000444D286890F85000022817D02C68E06CEC
:101A100020EA0900E0642968012081F85000B8F14B
:101A2000000F0BD001214046FFF73BFC3B494FF034
:101A300080500860BFF34F8FBFF36F8F00F0A5FC9D
:101A400000F097FC16B12868C06C3060286890F8E8
:101A5000500001280DD02868C16CB943C16401242D
:101A60002968002081F8500000F08FFC2046BDE876
:101A7000F0870024F4E72DE9F04104460D46904636
:101A80001F46012600F075FC0FB1E06C386094F839
:101A90005000022184F85010B8F1050F13D2DFE88E
:101AA00008F01203070B0D00E16C2943E1640AE022
:101AB000E16C491CE16406E0E56404E0022801D021
:101AC000E56400E0002601281FD1201D00F00FFC76
:101AD000104DE06A01212A698140114329610E49B4
:101AE00000EB80008C3901EB8000211D00F0DBFB56
:101AF000E06A2968C96A884207D908494FF08050CE
:101B00000860BFF34F8FBFF36F8F00F03EFC30468D
:101B10007FE50000A40700208C0A002004ED00E00F
:101B20002DE9F0470446089F01268020EFF3118538
:101B300080F31188BFF34F8FBFF36F8F002B01D05D
:101B4000E06C186094F85000022384F85030052AA5
:101B500013D2DFE802F01203070B0D00E26C0A4318
:101B6000E2640AE0E16C491CE16406E0E16404E03F
:101B7000022801D0E16400E0002601282CD1DFF822
:101B80001481D8F830004FF0010970B104F1180148
:101B9000414800F088FBE06AD8F80010C96A884222
:101BA0001AD9BFB1C7F8009016E0201D00F09FFBC6
:101BB000E06AD8F8102009FA00F11143C8F81010B3
:101BC00000EB800134488C3800EB8100211D00F0CF
:101BD0006AFBE0E7C8F81C9085F31188304646E7B9
:101BE0002DE9F041044688468020EFF3118780F309
:101BF0001188BFF34F8FBFF36F8F94F850100220FE
:101C000084F85000E06C401CE064012927D1214D8C
:101C1000286B012678B104F118011F4800F043FB3E
:101C2000E06A2968C96A884219D9B8F1000F15D04D
:101C3000C8F8006013E0201D00F059FBE06A2A6933
:101C400006FA00F111432961134900EB80008C3939
:101C500001EB8000211D00F026FBE1E7EE6187F338
:101C60001188D6E410B500280BD0044600F081FBA3
:101C700094F85000022807D0002400F086FB20468C
:101C800010BD04480468F1E7002084F850000124E6
:101C9000F3E70000A40700208C0A002070B504467A
:101CA0000D4600F066FBD4E90F12206801FB02002C
:101CB00060600020A0632068A060E06B226C216857
:101CC000401E00FB0210E0604FF0FF3084F844003B
:101CD00084F8450004F110004DB100F0D6FA04F18B
:101CE000240000F0D2FA00F050FB012070BD216901
:101CF0000029F8D0FFF73FFD0028F4D0FC494FF051
:101D000080500860BFF34F8FBFF36F8FEBE7034640
:101D10000098002904D00260C36301640121BDE77B
:101D20000060F9E7F8B506460D461746002D10D0BD
:101D300006FB05F0483000F096FB04463CB104F188
:101D400048023B46294630460094FFF7E0FF204614
:101D5000F8BD0020EEE72DE9F041044600F009FB54
:101D600094F9455004F1240609E0606A48B1304610
:101D7000FFF701FD08B1FFF77CFD6D1E6DB2002D70
:101D8000F3DC4FF0FF3684F8456000F0FEFA00F017
:101D9000F0FA94F9445004F1100709E0206948B1C1
:101DA0003846FFF7E8FC08B1FFF763FD6D1E6DB222
:101DB000002DF3DC84F84460BDE8F04100F0E5BAA2
:101DC00010B5044600F0D5FAA06BE16B884201D152
:101DD000012400E0002400F0D8FA204610BD2DE9CF
:101DE000F041044617460026A56B226C002A10D04D
:101DF000C7B1E06801F0D6FAE168206C091AE16029
:101E00002268914202D26168081AE060022F16D05F
:101E100017E02068A8B96068FFF772FD0646002049
:101E200060600EE0A06801F0BDFA216CA068084473
:101E3000A0606168884204D32068A06001E005B119
:101E40006D1E6D1CA5633046BDE8F0812DE9FF478E
:101E500082B004468A4699460025A8464FF080562F
:101E6000A34F00F086FAA06BE16B884206D3B9F16C
:101E7000020F03D00498F8B115B325E04A46514645
:101E80002046FFF7ACFF616A51B104F12400FFF76F
:101E900072FC58B13E60BFF34F8FBFF36F8F05E008
:101EA00020B13E60BFF34F8FBFF36F8F00F06DFA2C
:101EB000012006B0BDE8F08700F067FA0020F8E7DF
:101EC0006846FFF7ABFC012500F05FFAFFF724FA44
:101ED00000F04FFA94F94400401C01D184F844808A
:101EE00094F94500401C01D184F8458000F04DFA7A
:101EF00004A96846FFF798FC30B12046FFF72BFF96
:101F0000FFF77BF90020D4E72046FFF759FF88B19F
:101F100004F110000499FFF712FC2046FFF71BFFA5
:101F2000FFF76BF900289CD13E60BFF34F8FBFF3E2
:101F30006F8F96E72046FFF70EFFFFF75EF990E7F9
:101F4000002807D0002141600160C16000231A46CB
:101F500019467BE7704710B5024600210120FFF7C4
:101F6000E1FE04462046FFF7EBFF204610BD2DE9B9
:101F7000F041174604461A468020EFF3118680F39D
:101F80001188BFF34F8FBFF36F8FA06BE36B984245
:101F900005D3022A03D0002086F3118854E794F970
:101FA00045502046FFF71BFF681C04D06D1C84F8C9
:101FB00045500120F0E7606A0028FAD004F12400BF
:101FC000FFF7D9FB0028F4D0002FF2D001203860B1
:101FD000EFE770B50D468021EFF3118481F311888E
:101FE000BFF34F8FBFF36F8F836BC16B994217D9CC
:101FF00090F945205B1C8363511C04D0521C80F86F
:10200000452001200DE0416A0029FAD02430FFF775
:10201000B2FB0028F5D0002DF3D001202860F0E7B6
:10202000002084F3118870BD10B5044600F0A1F9BA
:10203000A06B20B1002400F0A8F9204610BD0124B7
:10204000F9E730B40B46026C002A0CD0C168114489
:10205000C1604468A14201D30168C160C16830BC5D
:10206000184601F09FB930BC70472DE9FF4F83B08F
:1020700004468B469A460026B1464FF08057DFF85B
:10208000708000F076F9A56BA5B3E6685946204646
:10209000FFF7D7FFBAF1000F13D0E660606A50B1C6
:1020A00004F12400FFF767FB28B1C8F80070BFF304
:1020B0004F8FBFF36F8F00F068F9012007B0BDE8C4
:1020C000F08F6D1EA563206810B9FFF757FC6060A4
:1020D00020690028EFD004F11000FFF74CFB002826
:1020E000E9D0C8F80070BFF34F8FBFF36F8FE2E7FE
:1020F00004ED00E0FFE7059808B126B107E000F025
:1021000044F90020DAE701A8FFF788FB012600F078
:102110003CF9FFF701F900F02CF994F94400401C58
:1021200001D184F8449094F94500401C01D184F811
:10213000459000F02AF905A901A8FFF775FB58B1F1
:102140002046FFF708FEFFF758F82046FFF76CFF20
:10215000002896D00020B1E72046FFF765FFE0B1E8
:10216000206830B900F005F96068FFF789FB00F0DE
:102170000CF904F124000599FFF7E1FA2046FFF776
:10218000EAFDFFF73AF800287FF47BAFC8F800704B
:10219000BFF34F8FBFF36F8F73E72046FFF7DBFD71
:1021A000FFF72BF86DE72DE9F041044690468020BB
:1021B000EFF3118780F31188BFF34F8FBFF36F8F59
:1021C000A66B002E1DD094F944502046FFF739FF2E
:1021D000761EA663681C04D06D1C84F84450012050
:1021E00010E020690028FAD004F11000FFF7C3FACC
:1021F0000028F4D0B8F1000FF1D00120C8F8000099
:10220000EDE7002087F311881EE670B504468020B4
:10221000EFF3118580F31188BFF34F8FBFF36F8FFA
:10222000A06B002806D0E6682046FFF70AFFE660AC
:10223000012000E0002085F3118870BD10B5044630
:1022400000F097F8A46B00F0A0F8204610BD10B580
:10225000044600F08EF8D4E90E10441A00F095F808
:10226000204610BD806B704700F047B9806B002896
:1022700001D00020704701207047816BC06B814204
:1022800001D1012070470020704700F10801416032
:102290004FF0FF328260C160016100210160704730
:1022A00000210161704742684A6093688B609368BF
:1022B0005960916008610168491C0160704730B540
:1022C0000C68621C02D000F1080202E0026904E01E
:1022D0001A4653681D68A542FAD953684B60996045
:1022E0008A60516008610168491C016030BD016964
:1022F000D0E901329A60D0E901235A604A688242EB
:1023000001D182684A60002202610868401E0860AC
:1023100070470000802080F31188BFF34F8FBFF318
:102320006F8FFEE720384FF08073C36121F0010109
:1023300081612449416140F8202970474FF0E02035
:102340002149416107210161704710B51F480168AB
:1023500041F47F010160016841F07F410160FFF7B6
:10236000EDFF1B4900200860FDF70CFF002010BDA9
:102370007047802080F31188BFF34F8FBFF36F8FBA
:1023800013480168491C0160704711490868401EE4
:102390000860002801D180F31188704710B58020B3
:1023A00080F31188BFF34F8FBFF36F8FFEF7CEFE20
:1023B00020B106494FF080501C390860002080F39E
:1023C000118810BD15230000FFAF010020ED00E0D3
:1023D000E007002030B55C4900E011460A688242FF
:1023E000FBD34B685C18844203D1406818444860B2
:1023F00008460D6844682318AB420DD1524B103B80
:102400001B689A4206D05268224442600A681268E9
:10241000026002E0036000E00260814200D00860D8
:1024200030BD4FF4B4314948420706D0C01D20F0FA
:1024300007004649411AC1F5B431434A10600023F0
:1024400053600144083921F00701103A11604B60D4
:102450000B600B1A436001604068906050604FF061
:102460000040D06070472DE9F04105460026FEF798
:1024700053FF354F103F386808B9FFF7D2FFF868AF
:10248000054235D13DB10835680704D005F0070095
:10249000C0F1080005445DB37868854228D82A4910
:1024A0000846046801E0214604466068A84202D25A
:1024B00020680028F7D13868844219D00E680836A1
:1024C000206808606068411B102904D960194160C8
:1024D0006560FFF77FFF61687868401A7860BA68C6
:1024E000904200D2B860F86801436160002020602B
:1024F000FEF783FE3046BDE8F08170B5002819D0A4
:1025000008380446104D6068103DE968084211D053
:102510002268002A0ED188436060FEF7FDFE6068E5
:102520006968084468602046FFF754FFBDE87040C2
:10253000FEF763BE70BD044810384068704702481B
:102540001038806870477047F4070020C80A0020E0
:10255000426901238B409A434261704770B504463B
:102560000E46154631462046FFF7F2FFEA064FF0C9
:10257000010000FA06F00CD5A1680143A160E9074B
:1025800003D021690143216118E021698143216160
:1025900014E0A1688143A160A90703D5E168014364
:1025A000E1600BE0E1688143E160E90703D0216964
:1025B0000143216102E0216981432161206270BDF4
:1025C000426901238B401A4342617047C069C84089
:1025D00000F0010070478069C84000F001007047BA
:1025E00001228A40026270472DE9F0471646DDF865
:1025F00020801F46DFF8AC920124AB4D8C40A0EB4D
:1026000009034FF4805C4FF08042484576D01FDCD0
:10261000A64BC01838D0604558D0B0F5005F15D132
:10262000906840F00400906001230022022000F036
:102630008BF99F48012E6CD04168A1434160012F66
:102640006BD0D5F81002A043C5F81002BDE8F087A2
:1026500063457DD0B3F5405FF8D1906840F4001039
:10266000906001230022052000F06EF99148012EB0
:102670006FD04168A1434160012F6BD0D5F8300283
:10268000A043C5F83002E1E7906840F00100906097
:1026900000220123104600F057F984484042012EE1
:1026A0000AD04168A1434160012F09D0D5F800024A
:1026B000A043C5F80002C9E7416821434160F3E740
:1026C000D5F800022043C5F80002BFE7906840F04B
:1026D0000200906001230022184600F035F9764888
:1026E000012E0CD04168A1434160B8F1010F0AD01E
:1026F000D5F80003A043C5F80003A7E713E041683D
:1027000021434160F1E7D5F800032043C5F80003F9
:102710009CE741682143416091E7D5F810022043CE
:10272000C5F8100292E7906840F010009060012315
:102730000022032000F008F9012E10D0D9F804007F
:10274000A043C9F80400012F0FD0D5F8200202E001
:1027500011E032E035E0A043C5F8200276E7D9F871
:1027600004002043C9F80400EDE7D5F82002204317
:10277000C5F820026AE7906840F0200090600123CD
:102780000022042000F0E0F84C48012E0BD04168F4
:10279000A1434160B8F1010F09D0D5F82003A0434F
:1027A000C5F8200352E7416821434160F2E7D5F8BC
:1027B00020032043C5F8200348E7416821434160D6
:1027C0005AE7D5F830022043C5F830023EE701222F
:1027D000400100EB810000F184400260704700225C
:1027E000400100EB810000F184400260704740012D
:1027F00000EB810000F184400168C1F1010101603A
:1028000070470068C84000F001007047C2F118032B
:102810006FF07F42DA4003688A40134303607047D9
:10282000C2F118036FF07F42DA4003688A40934395
:1028300003607047C2F118036FF07F42DA4003680B
:102840008A40534003607047C2F118036FF07F4223
:10285000DA400068C84010407047C2F118036FF0BA
:102860007F42DA4072B603688A401343036062B65F
:102870007047C2F118036FF07F42DA4072B6036806
:102880008A409343036062B67047C2F118036FF049
:102890007F42DA4072B603688A405340036062B6F2
:1028A00070470000005001400000014000F0FEBFF2
:1028B00000300140008001400020014000600140E4
:1028C00010B572B6000B1B4CA16888472068804782
:1028D00062B610BD10B5030701D0022010BD9307EA
:1028E00001D0022010BD72B69208124CE3689847DE
:1028F0002068804762B6002010BD10B572B60D4941
:1029000040F289431E284A6808D028280AD0502857
:102910000CD00949581C904762B610BD07491846AB
:102920009047F9E7064918469047F5E705491846E4
:102930009047F1E7FC0700206E7AFCAB251FF4AB53
:102940002929F4AB4D52F8AB2DE9F04F86B001EBDD
:1029500081074FF01F0BA2F1640A0BFA07F60AFA7F
:1029600007F48D1F05EB850C0BFA0CF70AFA0CF532
:102970004FF001084FEA41094FF0030CA1F10C0E92
:102980000CFA09FC08FA01F80EEB8E0E8B40CDF81C
:1029900000E00BFA0EFECDF814E0DDF800E00AFAD4
:1029A0000EFECDF810E0A1F1120E0EEB8E0E0BFA1A
:1029B0000EFB0AFA0EFACDE902ABA1F1100A4FEABA
:1029C0004A0A4FF0030B0BFA0AFBCDF804A0DFF81C
:1029D0009CA3062837D2DFE800F003396EA3F0EF9E
:1029E000632A18D906290AD2DAF80001B043CAF8D6
:1029F0000001DAF800012043CAF800010BE00C29BD
:102A000009D2DAF80401B843CAF80401DAF804017B
:102A10002843CAF80401DAF8000020EA0C00CAF8DA
:102A20000000632A00D90122DAF8000002FA09F254
:102A30000243CAF80020CE48016821EA080101607B
:102A400001681943016006B0BDE8F08F632A18D908
:102A500006290AD2DAF81001B043CAF81001DAF8F0
:102A600010012043CAF810010BE00C2909D2DAF852
:102A70001401B843CAF81401DAF814012843CAF85B
:102A80001401DAF8040020EA0C00CAF80400632AF2
:102A900000D90122DAF8040002FA09F20243CAF866
:102AA0000420B3481030016821EA08010160016880
:102AB00019430160C7E7632A18D906290AD2DAF850
:102AC0002001B043CAF82001DAF820012043CAF8F7
:102AD00020010BE00C2909D2DAF82401B843CAF826
:102AE0002401DAF824012843CAF82401DAF808009E
:102AF00020EA0C00CAF80800632A00D90122DAF89B
:102B0000080002FA09F20243CAF808209848203067
:102B1000016821EA0801016001681943016092E738
:102B2000632A36D906290AD2DAF86001B043CAF816
:102B30006001DAF860012043CAF8600129E00C293D
:102B40000AD2DAF86401B843CAF86401DAF8640119
:102B50002843CAF864011CE012290CD2DAF8680193
:102B6000059CA043CAF86801DAF86801049C204378
:102B7000CAF868010DE018290BD2DAF86C01039C41
:102B8000A043CAF86C01DAF86C01029C2043CAF831
:102B90006C01102912D2DAF8200020EA0C00CAF8E1
:102BA0002000632A00D90122DAF8200002FA09F293
:102BB0000243CAF8202011E071E019E0DAF824009D
:102BC00020EA0B00CAF82400632A00D901220198E8
:102BD0008240DAF824000243CAF8242064484030D6
:102BE000016821EA080101600168194301602AE7D0
:102BF000632A27D906290AD2DAF87001B043CAF845
:102C00007001DAF870012043CAF870011AE00C294B
:102C10000AD2DAF87401B843CAF87401DAF8740118
:102C20002843CAF874010DE012290BD2DAF87801B2
:102C3000059CA043CAF87801DAF878410498044367
:102C4000CAF87841102910D2DAF8300020EA0C00D6
:102C5000CAF83000632A00D90122DAF8300002FAFB
:102C600009F20243CAF830200FE0DAF8340020EA13
:102C70000B00CAF83400632A00D90122019882406F
:102C8000DAF834000243CAF8342039485030016879
:102C900021EA08010160016819430160D3E6632A53
:102CA00036D906290AD2DAF88001B043CAF8800181
:102CB000DAF880012043CAF8800129E00C290AD201
:102CC000DAF88401B843CAF88401DAF884012843A9
:102CD000CAF884011CE012290CD2DAF88801059C9C
:102CE000A043CAF88801DAF8884104980443CAF876
:102CF00088410DE018290BD2DAF88C4103988443FF
:102D0000CAF88C41DAF88C01029C2043CAF88C0185
:102D1000102910D2DAF8400020EA0C00CAF840006E
:102D2000632A00D90122DAF8400002FA09F20243CC
:102D3000CAF840200FE0DAF8440020EA0B00CAF895
:102D40004400632A00D9012201988240DAF8440045
:102D50000243CAF8442006486030016821EA0801AD
:102D600001600168194301606DE600000000014048
:102D700000060140416821F40071416070472DE96F
:102D8000F04704460D46D5484FF4805726184FF0BB
:102D900080404FF400584FF4405973D0BE4276D073
:102DA000464579D04E4503D1816841F48041816028
:102DB0002046FFF7DFFF606840F400506060A068C5
:102DC0006FF30D00A060C648296800680009B0FBD9
:102DD000F1F0A168401E0843A060606820F47C0008
:102DE000606060682979AA7940EA81406979C904FC
:102DF00041EA825108436060F6B3BE4255D0464571
:102E000057D04E4502D12A2000F05CF9E06880B22C
:102E1000E060E879697A401C000440EA0160E168FA
:102E20000843E060606820F07F4060606068E97A95
:102E300040EA01606060606844F2140188436060A9
:102E40006068297A2A7B40EA0110A97A890041EA60
:102E500082310843606086B3BE423FD046454DD0C4
:102E60004E4560D1287AA97A0843297B084355D07A
:102E7000BDE8F0472A2003E013E003E007E00BE0A1
:102E800000F015B9816841F40061816090E78168C4
:102E900041F4805181608BE7816841F40051816089
:102EA00086E7272000F00EF9B0E7282000F00AF9A5
:102EB000ACE7292000F006F9A8E7FFE7287AA97A0D
:102EC0000843297B084304D0BDE8F047272000F0E1
:102ED000EEB8BDE8F047272000F0F4B8287AA97AC8
:102EE0000843297B084304D0BDE8F047282000F0C0
:102EF000DEB8BDE8F047282000F0E4B8287AA97AC7
:102F00000843297B084304D0BDE8F047292000F09E
:102F1000CEB8BDE8F047292000F0D4B8BDE8F047AE
:102F20002A2000F0CFB8BDE8F087416841F4007175
:102F300041607047016070470068C0F308020A6092
:102F4000400501D50220704700207047406840F3DB
:102F50000000401C7047406840F3C000401C7047B0
:102F60004068C0F34000704782686FF30D028260D2
:102F70005B4A12681209B2FBF1F18268491E1143E3
:102F8000816070475649806809680909C0F30D00DF
:102F9000401CB1FBF0F07047436923F00503436127
:102FA000436941EA82010B43436170474069C0F3C2
:102FB000C010704710B5446924F07A044461446934
:102FC000D20044EA410142EA03121143416110BDBB
:102FD0004069C0F300207047036923F005030361D3
:102FE000036941EA82010B4303617047016941F0C3
:102FF0001001016170470069C0F34000704700692B
:10300000C0F3C00070470022FF2918D0A1F58073DB
:10301000FF3B14D0FE290DD0B1F5FF7F0AD0F8296F
:103020000AD0B1F5FC7F07D0802907D0B1F5C07F69
:1030300004D0FEE7012202E0022200E003228168C0
:1030400021F06071816081684FF4000343EA0262FD
:103050001143816070478168090201D500207047E3
:103060008068400101D50220704701207047426806
:103070000A434260704742688A4342607047CA060A
:1030800002D5826852020ED44A0402D582689202A6
:1030900009D44A0702D58268920304D4490604D5AC
:1030A0008068000101D5012070470020704700F0C2
:1030B0001F02012191404009800000F1E020C0F88A
:1030C0000011704700F01F0201219140400980006B
:1030D00000F1E020C0F88011704700000000FEBF42
:1030E0000C08002030B54FF0804108687B4A450746
:1030F0007B4C7C4B7C480CD50D68AD0701D502603C
:103100001CE02268D20702D0784A026016E0036011
:1031100014E00D68ED070ED0646AA40701D50360C2
:1031200000E0026002680523B2FBF3F2C8235A43B1
:10313000D208026002E04FF4FA4202604968C9070F
:1031400002D0016849080160694A0168B1FBF2F1E7
:10315000416030BD4FF080400168490702D40068EB
:10316000C00707D0002044F6206100BF401C884201
:10317000FBD37047002000BF401C1428FBD37047CE
:1031800010B5574C01202062FFF7E4FFFFF7E2FF84
:10319000606A20F002006062A06A56490840A0629E
:1031A000A06A55490843A062606A20F0040060628A
:1031B000206B0028FCD010BD10B5FFF7E1FF484898
:1031C000416A41F0010141628004016841F001015E
:1031D0000160016821F00401016010BD10B5404993
:1031E00001200862FFF7B6FFFFF7B4FF4FF0804001
:1031F000016841F002010160016841F004010160D1
:1032000010BD10B54FF08044A06840F08070A06001
:103210003A48016A21F001010162FFF79BFF206833
:1032200020F001002060206820F00400206010BD24
:1032300010B52B4901200860FFF78CFF4FF080404C
:10324000016821F002010160016841F004010160A0
:1032500010BD10B5224900200860FFF77BFF4FF03A
:103260008040016821F002010160016841F0040121
:10327000016010BD10B54FF08044A06840F480009C
:10328000A0607820FFF739FBFFF796FF606820F019
:103290000100606060686060FFF724FF1248184911
:1032A0000068884204D9BDE810407820FFF725BBAC
:1032B0000E49884204D9BDE810405020FFF71DBBDD
:1032C0001049884204D9BDE810402820FFF715BBFB
:1032D000BDE810401E20FFF710BB00000080510128
:1032E00000100340002D31010C080020005A62023A
:1032F00040420F0000FEE0FC3200050000E001400B
:1033000000B4C40480C3C90125480047FEE7FEE7B6
:10331000FEE7FEE7FEE7FEE7FEE7FEE7FEE7FEE785
:10332000FEE7FEE7FEE7FEE7FEE7FEE7FEE7FEE775
:10333000FEE7FEE7FEE7FEE7FEE7FEE7FEE7FEE765
:10334000FEE7FEE7FEE7FEE7FEE7FEE7FEE7FEE755
:10335000FEE7FEE7FEE7FEE7FEE7FEE7FEE7FEE745
:10336000FEE7FEE7FEE7FEE7FEE7FEE7FEE7FEE735
:10337000FEE7FEE7FEE7FEE7FEE7FEE7FEE7FEE725
:10338000FEE7FEE7FEE7FEE7FEE7FEE7FEE7FEE715
:10339000FEE7FEE7FEE7FEE7FEE7FEE7FEE7FEE705
:1033A0004901000040EA01039B0703D009E008C976
:1033B000121F08C0042AFAD203E011F8013B00F8FA
:1033C000013B521EF9D27047D2B201E000F8012B46
:1033D000491EFBD270470022F6E710B513460A4695
:1033E00004461946FFF7F0FF204610BDCAB2401E42
:1033F00010F8011F8A4202D00029F9D1002070473D
:1034000010B5002200E0521C835C8C5CA34201D109
:10341000002BF8D1D8B2E1B2401A10BD30B50B463E
:10342000014600202022012409E021FA02F59D42F4
:1034300005D303FA02F5491B04FA02F52844151EC8
:10344000A2F10102F1DC30BD064C074D06E0E06858
:1034500040F0010394E8070098471034AC42F6D3DB
:10346000FCF776FEE03800000039000070B58C18DB
:1034700010F8015B15F0070301D110F8013B2A1188
:1034800006D110F8012B03E010F8016B01F8016B75
:103490005B1EF9D12B0705D40023521E0DD401F871
:1034A000013BFAE710F8013BCB1A921C03E013F83A
:1034B000015B01F8015B521EF9D5A142D8D300206F
:1034C00070BD00000FB4054B10B503A9044A029863
:1034D00000F018F810BC5DF814FB00006F0A000043
:1034E0001408002002E008C8121F08C1002AFAD1FF
:1034F00070477047002001E001C1121F002AFBD174
:10350000704700002DE9FF4F8BB09A460F460546E5
:10351000002606E025280BD052460D9990476D1CD9
:10352000761C28780028F5D10FB03046BDE8F08F22
:103530000024A0460122604900E0044315F8013F41
:10354000203B02FA03F00842F7D128782E2817D141
:1035500015F8010F44F004042A280ED06FF02F0252
:103560002878A0F1300109290AD808EB880102EB7C
:10357000410100EB01086D1CF2E757F8048B6D1C4C
:10358000287869283ED006DC0028CDD063280BD0EF
:10359000642804D136E0732810D075284BD05246E9
:1035A0000D999047761C85E017F8040B8DF8000004
:1035B00000208DF80100E946012003E057F8049B44
:1035C0004FF0FF3061074FF0000401D40AE0641CA3
:1035D00044450DDA8442FADB19F804100029F6D1CB
:1035E00006E0641C8442FCDB19F804100029F8D1C1
:1035F000264404E019F8010B52460D999047641EC9
:10360000F8D257E001CF4FF00A0B002802DA40420F
:103610002D2102E0210504D52B218DF82410012154
:1036200003E0E10705D02021F7E70DF1200908911B
:103630000CE00021F9E701CF4FF00A0BF9E75946FA
:10364000FFF7ECFE01F1300209F8012D0028F6D158
:10365000ADEB090000F1200B600701D44FF0010829
:10366000D84502DDA8EB0B0000E0002080460024D6
:1036700006E009A85246005D0D999047641C761C2F
:1036800008988442F5DB04E0302052460D999047BB
:10369000761CB8F10001A8F10108F5DC05E019F885
:1036A000010B52460D999047761CBBF10001ABF11E
:1036B000010BF4DC6D1C34E70928010080370000A1
:1036C0000300000002000000000000000050014064
:1036D0000000000088370000010000000C0000001E
:1036E00000000000002001400000000090370000B2
:1036F0000200000004000000000000000030014053
:1037000000000000A03700000400000007000000D7
:103710000000000000600140000000009837000039
:103720000200000002000000000000000030014024
:1037300001000000D0370000AF050000C0370000D6
:10374000D7050000B8370000E3050000C8370000C7
:103750000B060000A837000029060000D83700003B
:1037600087060000B43700001B070000AC370000DC
:1037700025070000636D645F7465737400000000CA
:10378000454C433020200000454C433120200000B0
:10379000534C4544202000006675736530200000BE
:1037A0004E657452737400006C656400696E666FD8
:1037B00000000000696F000068656C700000000088
:1037C000636C6561720000007265626F6F74000067
:1037D000746573740000000072656C61790000000C
:1037E000413130004E313000503130004130000066
:1037F000423000004D3000004E3000004341503058
:1038000000000000503000004131310050313100E3
:10381000413100004D3100004E3100004341503134
:1038200000000000503100004131320042313200CE
:103830005031320041320000433200004D3200006E
:103840004E32000043415032000000005032000070
:103850005031330041330000433300004D3300004A
:103860004E33000050330000335633004134000023
:10387000433400004D3400004E340000503400004A
:1038800041350000433500004D3500004E35000045
:1038900050350000433600004D3600004E36000023
:1038A00050360000433700004D3700004E3700000F
:1038B0005037000050380000413900004E390000F8
:1038C00050390000474E440058490000584F00004E
:1038D00052455345540000004E6F6E6500000000D5
:1038E0000039000000000020180800006C340000BF
:1038F000783B000018080020B07A0100F434000082
:10390000011823910A1A99041AA1041AA9041AB7D2
:10391000041ABF0422181B20CD081AF70423190B20
:103920001A21041A3414410316D83832010A1568D2
:103930001C32020316FC3732032A2C383520014092
:103940000C1968910A1904540A19051C32060A1543
:10395000C41C32070A15441C32082ABC1C356001FD
:103960004009A9B329102AE411191CDA0A1C2910EC
:103970000A151C540A190B8C29F00916C4320D5A69
:10398000408CDA0270320E5A181CDA011C320F5ABF
:10399000F8A841A91C0A19107032112A701C353080
:1039A000014004B23532125A841CDA051C32135A13
:1039B000941CDA061C32145AA41CDA071C32155A5D
:1039C000381C29E0A91C32165A581CDA031C32177D
:1039D0000A15C8C432180A15CC1C32190A15D01C95
:1039E000321A2A3C1C4A508CB236321B5A5C1C29B3
:1039F0008CA91C321C5A741CDA041C321D5A881CF7
:103A0000DA051C321E5A981CDA061C321F5AA81CF2
:103A1000DA071C32200A15C4C432215A1438DA01DC
:103A20003832224BF4371C41A91C32232A04384A6D
:103A3000801CA95F2A2404591C2954A91C32255A28
:103A40004C1CDA021C32265A641CDA031C32275A38
:103A50007C1CDA041C32285A901CDA051C32295AC4
:103A6000A01CDA061C322A5AB01CDA071C322B5A68
:103A7000B41CDA081C322C5AC01CDA091C322D4B3B
:103A8000E8371CDA0A1C322E5A0C38DA0B1C322F9B
:103A90005A301CDA0C1C32305A501CDA0D1C3231F0
:103AA0002AF07044200140B23432322AEC1C4A1011
:103AB0001CB233290C2A1049191CDA011C29445A5A
:103AC000341CDA021C32355A541CDA031C32365AC2
:103AD0006C1CDA041C29875A801CDA051C29172A59
:103AE000AC055D600140072C8132395A9C1CDA0616
:103AF0001C323A5A8C1C2954A91C323B5A781C2976
:103B00008CA91C2A3C17591C29C4A91C323D5AB83F
:103B1000A8DA09A8323E2AE02D191CDA0A1C323F25
:103B20005A0838DA0B1C32405A281CDA0C1C1A5579
:103B30002D1A6D041A95041ACF041AE9041A0125E6
:103B4000136407422023ED0D23410E1A47041A4D3A
:103B5000041A65041A6B041A71045A842401381A71
:103B6000AA0101181301062B118104120714110177
:083B7000081211752D3101143A
:0400000500000149AD
:00000001FF
