:020000040000FA
:10000000B0830120D12E0000D52E0000D72E000095
:10001000D92E0000DB2E0000DD2E000000000000C5
:10002000000000000000000000000000610100006E
:10003000E12E000000000000A5010000651F000087
:10004000E72E0000E92E0000EB2E0000ED2E000050
:10005000EF2E0000F12E0000F32E0000F52E000020
:10006000F72E0000F92E0000FB2E0000FD2E0000F0
:10007000FF2E0000012F0000032F0000052F0000BD
:10008000072F0000092F00000B2F00000D2F00008C
:100090000F2F0000112F0000132F0000152F00005C
:1000A000172F0000192F00001B2F00001D2F00002C
:1000B0001F2F0000212F0000232F0000252F0000FC
:1000C000272F0000292F00002B2F00002D2F0000CC
:1000D0002F2F0000312F0000332F000009100000E7
:1000E000372F0000392F00003B2F000000000000D8
:1000F0003D2F00003F2F0000412F0000432F000044
:10010000452F0000472F0000492F0000110F00006D
:10011000150F0000190F00001D0F0000210F000037
:10012000250F0000572F0000592F00005B2F000003
:100130005D2F00005F2F0000612F0000632F000083
:10014000652F0000672F0000DFF810D002F060FF7D
:1001500000480047F9010000AFF30080B0830120A0
:10016000224B19680868B0E8F00F80F30988BFF3E4
:100170006F8F4FF0000080F311884EF00D0E704726
:100180000000000006480068006880F3088862B636
:1001900061B6BFF34F8FBFF36F8F00DF00BF00BFAB
:1001A00008ED00E0EFF30980BFF36F8F0F4B1A6883
:1001B00020E9F00F106008B54FF0800080F311883F
:1001C000BFF34F8FBFF36F8F01F03CFA4FF0000089
:1001D00080F31188BDE8084019680868B0E8F00F9E
:1001E00080F30988BFF36F8F704700BF8808002035
:1001F000EFF305807047000002F020FE0448002164
:10020000006842690846904701F02DFBFEE70000B8
:1002100030000020F8B5052126A002F037FF0025A8
:100220002A4F002605EB450007EBC0046069012852
:100230001AD00023201D07C802F06AF9606901285E
:1002400014D0009600230122A168206901F0B0FFBC
:10025000A168206902F0A7F81DA0216802F016FF2E
:100260006D1C052DDED3F8BD0123E3E700960123C5
:100270000022A168206901F09BFF1DA0216802F007
:1002800005FFEDE770B50024104E04EB440506EBC6
:10029000C5008168006902F098F808B11BA200E06F
:1002A0001CA256F835101DA002F0F0FE641C052CAF
:1002B000EBD370BD5B494F20494E49545D20256406
:1002C0002070696E733A0D0A00000000843200004D
:1002D0002020257320202D3E204F5554505554206A
:1002E00028696E6974204C4F57290D0A00000000E0
:1002F0002020257320202D3E20494E505554202883
:1003000070756C6C2D7570290D0A000048494748BE
:10031000000000004C4F57200000000020202573F3
:10032000203A2025730D0A002DE9F04106460C46BF
:1003300017469846002500E0641C217801B340462A
:1003400002F038FE0028F7D11AE028466D1C47F865
:10035000204000E0641C217821B1404602F02AFED2
:100360000028F7D0207820B1002004F8010B00E02D
:10037000641C217821B1404602F01CFE0028F7D110
:10038000207808B1B542E0DB2846BDE8F08170B5C1
:1003900006460D46A749A8A002F078FE002406E014
:1003A00055F824202146A6A002F070FE641CB44239
:1003B000F6DB002070BD10B5A6A002F067FE00209D
:1003C00010BD70B5A6A002F061FE0024994D403D1D
:1003D000A9A055F8341002F059FE641C082CF7D37C
:1003E0009EA002F053FE002070BDA5A002F04EFEBC
:1003F000BFF34F8FA6480168A64A01F4E06111439C
:100400000160BFF34F8FFEE770B50C464FF0FF362B
:10041000022804DAA0A002F039FE304670BDA3A184
:10042000606802F0D1FDA24D50B1A2A1606802F057
:10043000CBFD70B1A0A0616802F028FE304670BD0F
:1004400028680121426811209047A3A002F01EFEF7
:1004500007E028680021426811209047A1A002F01F
:1004600015FE002070BD2DE9F0410C464FF0FF371E
:10047000032804DA9EA002F009FE384685E7A3A10E
:10048000606802F0A1FD50B1A1A1606802F09CFD7E
:1004900040B1A0A0616802F0F9FD384675E71A2561
:1004A000A5A601E00325A6A680A1A06802F08CFD08
:1004B000DFF8FC8150B17FA1A06802F085FD80B11A
:1004C0007DA0A16802F0E2FD38465EE7D8F80000A2
:1004D000012142682846904731469BA002F0D6FD94
:1004E00009E0D8F8000000214268284690473146CC
:1004F00097A002F0CBFD002047E710B5FFF7C2FE42
:10050000002010BD10B595A002F0C0FD994801680B
:1005100099A002F0BBFD01F0DFF901469CA002F0BA
:10052000B5FDA1A002F0B2FD4CA002F0AFFD00208D
:1005300010BD2DE9F043ABB0A34F0026786800282A
:1005400005D001280ED07E602BB0BDE8F0839FA0BF
:1005500002F09CFD80219E4802F021FD3E600120BA
:100560007860F1E79B480121006842682AA890471B
:100570000028E9D03A68802A01DB7E60E4E79DF834
:10058000A81093480A291AD004DC08290DD009299B
:1005900004D1D9E70D2916D07F2906D0531C3B6022
:1005A00081548DA002F072FDCEE7002A02DD521EBA
:1005B0003A608654864989A002F068FDC4E7002AA3
:1005C000C2D17E60C0E78654FAB1521C80496846A9
:1005D00002F0CCFC83A320AA69460A20FFF7A4FE00
:1005E00081465FEA090012D000250024DFF844802C
:1005F000A8F14008209858F8341002F0E5FC40B10A
:10060000641C082CF6DB7DB112E07E609CE77E6006
:100610009AE712A002F03AFD08EBC40020A9426854
:10062000484690470125EEE770A0209902F02EFD84
:100630007E6089E73C33000025730D0A000000004E
:100640002020617267765B25645D3A2025730D0A70
:10065000000000000D0A0D0A0D0A0D0A0D0A000027
:100660000D0A3D3D3D20436F6D6D616E6473203D0D
:100670003D3D0D0A00000000202025730D0A0000FA
:100680005265626F6F74696E672E2E2E0D0A000020
:100690000CED00E00400FA0555736167653A206CC3
:1006A0006564206F6E7C6F66660D0A006F6E0000D9
:1006B000040100206F666600496E76616C69643AD9
:1006C0002025732028657870656374206F6E7C6FB9
:1006D0006666290D0A0000004C4544204F4E0D0A65
:1006E000000000004C4544204F46460D0A00000023
:1006F00055736167653A2072656C617920307C3191
:10070000206F6E7C6F66660D0A00000030000000EE
:1007100031000000496E76616C69642072656C611D
:10072000793A20257320286578706563742030201D
:100730006F722031290D0A00454C43300000000043
:10074000454C4331000000002573204F4E0D0A0038
:100750002573204F46460D0A000000000D0A3D3D5E
:100760003D2053797374656D20496E666F203D3D61
:100770003D0D0A00F0080020202043505520436C16
:100780006F636B203A20256420487A0D0A00000030
:1007900020205469636B2020202020203A202564EB
:1007A000206D730D0A000000202055415254202076
:1007B000202020203A203131353230302D382D4E56
:1007C0002D310D0A00000000000000200D0A3E003F
:1007D000FC080020E8000020256300000D0A3E25EB
:1007E0007300000020090A0D000000000D0A2020FF
:1007F000756E6B6E6F776E20636F6D6D616E643AB0
:100800002025730D0A00000010B530A002F03EFC58
:100810002FA002F03BFC39A002F038FC41480168EF
:1008200041A002F033FC46A002F030FC4EA002F0E2
:100830002DFC27A002F02AFCBDE8104023A002F006
:1008400025BC5548006801684FF4E1308847FFF740
:10085000E1FC524C0021206842681A209047206831
:10086000002142680320904720680021426811203F
:10087000904720680121426838209047FFF7C4FF65
:1008800047480021006842690846904745480021D2
:100890000068426908469047434800210068426961
:1008A00008469047052000F042FEFBE71CB53F4894
:1008B0000023006802680169CDE9001281898AB2CB
:1008C00041683B4800F090FC1CBD00000D0A000090
:1008D0003D3D3D3D3D3D3D3D3D3D3D3D3D3D3D3D48
:1008E0003D3D3D3D3D3D3D3D3D3D3D3D3D3D3D3D38
:1008F0003D3D3D3D3D3D3D3D0D0A000020205374F2
:1009000065702031333A204D756C74692D546173D4
:100910006B204172636869746563747572650D0A52
:1009200000000000F0080020202043505520436CB8
:100930006F636B203A20256420487A0D0A0000007E
:1009400020205061747465726E2020203A207461FA
:10095000736B5F626F64795F7420283420746173F5
:100960006B73290D0A00000020205461736B732003
:10097000202020203A207374617274202F20686F29
:100980007374202F206374726C202F206C69737431
:10099000656E0D0A00000000E80000200401002040
:1009A00060000020C0000020900000202C000020EB
:1009B00043080000002400F08FFF05464FF4FA774B
:1009C000134E00F089FF411BB9420CD305461CB100
:1009D00000241CB1012102E00124FAE70021306863
:1009E000426811209047FFF7A4FD022000F09FFD10
:1009F000E7E71CB507480023006802680169CDE9F4
:100A0000001281898AB24168034800F0EDFB1CBDE9
:100A1000040100205C000020B50900000AA002F0DB
:100A200035FB642000F083FDFBE71CB50E48002376
:100A3000006802680169CDE9001281898AB24168C3
:100A40000A4800F0D1FB1CBD5B6374726C5D2072C0
:100A5000756E6E696E672028706C616365686F6C77
:100A6000646572290D0A00008C0000201D0A000038
:100A70000AA002F00BFB642000F059FDFBE71CB557
:100A80000F480023006802680169CDE900128189DE
:100A90008AB241680B4800F0A7FB1CBD5B6C697310
:100AA00074656E5D2072756E6E696E672028706C5D
:100AB000616365686F6C646572290D0A000000004F
:100AC000BC000020710A0000434A014643481268F6
:100AD00000685268104710B53F4A404C0146126802
:100AE0006068136801229847002801DD012010BDCD
:100AF0000020A06010BD38B5384CA068002810D187
:100B000035480122694600680368606898470028F4
:100B100007DD0120A06032480068C1699DF800002F
:100B2000884738BD70B505462B4E3068C068804791
:100B30002A4C20603068C068804760602168A1B19D
:100B400098B10020A060264C20684169254888475C
:100B500020688169244888472068016828468847BA
:100B600020684068BDE870400047FEE7CAB21A49F5
:100B700009680B6801461948006818472DE9F041DB
:100B800005460E460024144FDFF8508006E0386812
:100B9000295D4268D8F804009047641CB442F6DB33
:100BA000BDE8F041A7E710B50B4A01460B481268B3
:100BB000406852689047BDE810409CE706480068CE
:100BC000816806480068084710B50446E0B2FFF7A0
:100BD000EAFF204610BD000018010020C8000020D8
:100BE00084080020C90A0000D70A00000D490968DE
:100BF000096808470B4A126852681047094A126888
:100C00009268104730B4074C2468E468A44630BCAE
:100C100060470449096809690847024A126852692D
:100C2000104700005008002070B50346002003F173
:100C300008050BE0D3E90064B44209D0645D0C54AC
:100C40009C88641CC4F309045C60401C9042F1DB86
:100C500070BD10B502684468531CC3F30903A34276
:100C600007D000F10803D1540188491CC1F30901E0
:100C7000016010BD002101604160704710B54FF464
:100C8000816001F0D4F9002802D0002101604160A8
:100C900010BD0000412801D300207047A249C0EBDD
:100CA000C00001EB800081680029F6D10020704768
:100CB00010B5FFF7EFFF28B1C1688068BDE81040AC
:100CC00001F083BB002010BD10B50C46FFF7E2FF1A
:100CD00000280CD02CB1C1688068BDE8104001F03C
:100CE0005ABBC1688068BDE8104001F05CBB10BD14
:100CF00038B50D46FFF7CEFF002200230024002860
:100D000012D0052D10D2DFE805F0030A050709000F
:100D1000012204E0012302E0012400E0012200940A
:100D2000C168806801F044FA38BD70B514461D46AC
:100D3000FFF7B0FF18B144618561002070BD4FF02E
:100D4000FF3070BD10B5FFF7A5FF20B10021416154
:100D50008161002010BD4FF0FF3010BDF8B50E4688
:100D6000FFF798FF044620004FF0FF3213D0012513
:100D7000012E12D094F9100000F01F018D4040099F
:100D8000800000F1E020C0F88051D4E9020101F0B8
:100D9000C3F90020F8BD1046F8BDA169002005295F
:100DA00054D2DFE801F003101D2A37000095D4E982
:100DB000020100231A4601F0FBF9D4E902010122E5
:100DC00001F0B0F932E00090D4E9020101230022E1
:100DD00001F0EEF9D4E90201002201F0A3F925E0C7
:100DE0000095D4E902010123002201F0E1F9D4E9E0
:100DF0000201022201F096F918E00095D4E90201FF
:100E000000231A4601F0D4F9D4E90201112201F0BD
:100E100089F90BE00090D4E902010123002201F0DE
:100E2000C7F9D4E90201102201F07CF994F910000D
:100E300000F01F018D404009800000F1E020C0F863
:100E40000051D4E9020101F09FF9A2E71046F8BD74
:100E50002DE9F0413549884201D1002117E034499C
:100E6000884201D1012112E03249884201D1022198
:100E70000DE03149884201D1032108E02F49884221
:100E800001D1042103E02E4988423FD105212D4A9A
:100E9000A2F5A87652F82130DBB9012342F82130BF
:100EA0000022214FC1EBC10406EBC405C3EBC30410
:100EB00007EB8404D4F808C0844507D1D4F800C0F7
:100EC0001446521C45F824C00E2A02DA5B1C412B42
:100ED000ECDB0025C1EBC10006EBC00656F825008F
:100EE00088B1FFF7D7FE044620000CD0D4E90201F8
:100EF00001F050F938B1D4E9020101F055F9616906
:100F000009B1A06988476D1C0E2DE7DBBDE8F081B3
:100F100006489DE706489BE7064899E7064897E795
:100F2000064895E7064893E71C01002000100140A1
:100F300000200140003001400050014000600140AD
:100F400000800140CC0A00201FB504460123642222
:100F50000221002001F0DCFA00236422032118465C
:100F600001F0D6FA009400208DF804008DF80500F9
:100F70008DF8060007218DF8071001218DF8081063
:100F80008DF809008DF80A00FF208DF80B008DF810
:100F90000C106946404801F0D6FC1FBD3E4801F0E8
:100FA000A8BD3D4801F0CABC10B53B4C01462046E7
:100FB00001F0A4FD204601F0ADFD0028FAD110BDDE
:100FC000354801F0A7BD354908607047334948608E
:100FD000704710B5304C0146204601F08FFD606827
:100FE00040F00400606010BD2B48416821F004010E
:100FF0004160704780212A4A002802D0C2F80011BF
:101000007047C2F8801170477CB5234D10212846E7
:1010100001F019FE214C48B90DE001A901F070FD65
:1010200020B9216811B10198C0B28847E968284603
:10103000C9B20129F1D84FF48041284601F003FEDE
:1010400050B90EE001A9284601F05AFD20B92168E7
:1010500011B10198C0B28847284601F060FD002810
:10106000F0D00421284601F0EEFD002801D0606890
:1010700048B97CBD61686846884750B19DF800104A
:10108000284601F03BFD284601F04EFD0028F1D036
:101090007CBDFFF7A9FF7CBD000002405408002082
:1010A00004E000E070B50024FE4D04EB840005EB85
:1010B000800000F0CFFE641C052CF6D3F9486430A4
:1010C00000F0C8FEF748783000F0C4FEF5488C30D8
:1010D00000F0C0FEF348A03000F0BCFEF148B43090
:1010E00000F0B8FEEF49F048643141631431816388
:1010F00070BD70B5044600F020FFEB4DA868401CA1
:10110000A860286810B1686938B10CE02C60A86844
:10111000012808D1FFF7C6FF05E02868E16AC06A28
:10112000884200D82C60686A401C6862E06A01212D
:101130002A69814011432961DA4900EB800001EB03
:101140008000211D00F094FE00F003FF6869002874
:101150000CD02868E16AC06A884207D2D3494FF0B0
:1011600080500860BFF34F8FBFF36F8F70BD2DE9C4
:10117000F0478146DDE908560A9C9846521E206BCE
:1011800000EB820020F00707002023180A5C83F898
:1011900034200A5C12B1401C1028F6D34FF0000A2C
:1011A00084F843A0052D00D30425E5626564C4F8E6
:1011B00048A0201D00F059FE04F1180000F055FE73
:1011C0002461C5F10500A0616462C4F84CA084F8F4
:1011D00050A042464946384600F088FE2060002E66
:1011E00000D03460BDE8F0872DE9FF5F8146DDE97E
:1011F0000E788A4616469B46B00000F018FF05465A
:1012000028000AD0542000F012FF04460CB12563D8
:1012100004E0284600F055FF00E000248CB10020D7
:10122000CDE90240CDE900785B463246514648465A
:10123000FFF79DFF2046FFF75CFF012004B0BDE8EB
:10124000F09F4FF0FF30F9E79748416B096800299C
:1012500005D0416BC968C9684968816270474FF021
:10126000FF318162704710B50446206B00F029FF02
:101270002046BDE8104000F024BF70B5044600F0E1
:101280005CFE894D04B92C68201D00F015FE58B98C
:10129000E06A844A00EB800152F8211021B9012153
:1012A0008140286988432861A06A18B104F11800B8
:1012B00000F002FE686A401C68622868844208D117
:1012C0007848211DA03000F0D3FD6868401C68609C
:1012D00007E0A868401EA8602046FFF7C4FFFFF79C
:1012E000B3FF00F036FE686900280AD028688442FF
:1012F00007D16E494FF080500860BFF34F8FBFF3A6
:101300006F8F70BD2DE9F0410026674F386B0028C4
:1013100008D0B869401CB861F86900B101263046B0
:10132000BDE8F081FD686D1CFD6045B9786BB96B57
:101330007963B863386A401C3862FFF785FFB86A82
:10134000DFF8608185420DD3786B006838B1786B27
:10135000C068C468606885420ED2B86202E04FF08F
:10136000FF30B8623868C06A00EB800058F820008F
:101370000128D1D90126CFE7201D00F09DFDA06AEC
:1013800018B104F1180000F097FDE06A01213A69F4
:1013900081401143396100EB800008EB8000211D82
:1013A00000F066FDE06A3968C96A8842CCD301263C
:1013B000CAE72DE9F0410024002700F0BEFD3A4DB8
:1013C000286B401E2863286BF0BBA868E0B3DFF8E9
:1013D000D480012608F18C081DE0D8F80C00C46800
:1013E00004F1180000F068FD201D00F065FDE06AC2
:1013F0002A6906FA00F1114329612A4900EB8000AD
:1014000001EB8000211D00F033FDE06A2968C96A04
:10141000884200D3EE61D8F800000028DDD10CB17D
:10142000FFF712FFAC6944B1FFF76CFF00B1EE614A
:10143000641E002CF8D10020A861E86920B10127C2
:101440001A493807086000E003E0BFF34F8FBFF38D
:101450006F8F00F07EFD384662E72DE9F0410446CB
:101460000F46114EF5683068001D00F025FD38B9B3
:10147000306890F82C100120884031698143316137
:10148000601C08D13FB13168BDE8F0410548091D35
:10149000B43000F0EDBC2C4430684460AC420DD256
:1014A000316805E0E40A00208808002004ED00E02F
:1014B000B06B091DBDE8F04100F0E6BC3168706B0F
:1014C000091D00F0E1FCB06A844200D2B46227E753
:1014D000FB48016B491C0163704770B505460E4619
:1014E0000023FFF7F5FFF648C2682C68A119944263
:1014F00005D98C4208D9914206D9012304E08C42D7
:1015000001D8914200D9012329601BB1881A00211A
:10151000FFF7A3FFFFF74DFF002807D1E9494FF080
:1015200080500860BFF34F8FBFF36F8F70BD10B551
:1015300002460020002A07D0FFF7CAFF002110460C
:10154000FFF78BFFFFF735FF002807D1DD494FF08C
:1015500080500860BFF34F8FBFF36F8F10BD10B581
:10156000044600F0EAFC0CB9D5480468E46A00F0CF
:10157000F0FC204610BD8022EFF3118182F3118828
:10158000BFF34F8FBFF36F8F002801D1CC480068A5
:10159000C06A81F3118870472DE9F04104460D4679
:1015A0000026052D00D3042500F0C7FCC44F04B964
:1015B0003C68606CA84241D0854208D939688C42A9
:1015C00009D03968C96AA94205D8012603E03968FB
:1015D0008C4200D10126D4F82C80404500D1E56230
:1015E0006564A069002802DBC5F10500A061B64D65
:1015F00008EB8801606905EB8101884215D1201D47
:1016000000F05AFC012120B93A6901FA08F082433E
:101610003A61E06A3A6981401143396100EB800028
:1016200005EB8000211D00F023FC3EB1A5494FF0E1
:1016300080500860BFF34F8FBFF36F8FBDE8F0415C
:1016400000F087BC9E4A106B002802D00120D061B8
:1016500070470020D0611069B0FA80F0C0F11F001F
:10166000994900EB800001EB8000416849684160C6
:1016700000F10803994201D1496841604068C0689F
:101680001060704770B5044600F057FC8C4D04B9EB
:101690002C68201D00F010FC58B9E06A8A4A00EB63
:1016A000800152F8211021B9012181402869884325
:1016B0002861A06A18B104F1180000F0FDFB82480F
:1016C000211DB43000F0D4FB00F043FC686928B160
:1016D00000F033FCFFF7B8FD00F03BFC28688442C3
:1016E00009D1686940B177494FF080500860BFF375
:1016F0004F8FBFF36F8F70BD7348A968B430006817
:10170000884202D10020286070BDBDE8704099E792
:1017100000216D4B4269B4339A4206D1806AA3F12D
:101720002802904201D000B901210846704770B5E7
:101730000446002C2BD0624D2868844227D000F04C
:10174000FCFB2046FFF7E4FFE8B1201D00F0B4FBEE
:10175000E06A01212A698140114329615A4900EB5D
:10176000800001EB8000211D00F082FBE06A296807
:10177000C96A884207D353494FF080500860BFF3CD
:101780004F8FBFF36F8FBDE8704000F0E2BB70BDBC
:101790002DE9F041044600268020EFF3118580F307
:1017A0001188BFF34F8FBFF36F8F2046FFF7B0FF55
:1017B00040B1434F386B48B1434804F118018C30B5
:1017C00000F056FB85F311883046A9E5E06A3968D8
:1017D000C96A884200D30126201D00F06DFBE06A33
:1017E00001213A69814011433961374900EB80009A
:1017F00001EB8000211D00F03BFBE3E770B5324EAA
:101800002F4DA0361CE0FFF763FE306820B10024A6
:10181000FFF7CFFDA4B901E00124F9E700F08DFB4B
:10182000F068C468201D00F047FBA868401EA8604F
:101830006868401E686000F08CFB2046FFF713FDCF
:1018400068680028DFD170BD1F4E4FF080541D4DD9
:10185000FFF7D4FF30680128FAD92C60BFF34F8F0F
:10186000BFF36F8FF4E71CB5154800242C30CDE989
:1018700000402346802215A11648FFF7B5FC012839
:1018800011D1802080F31188BFF34F8FBFF36F8F8A
:101890000B484FF0FF31816201214161C460BDE816
:1018A0001C4000F036BB1CBD802080F31188BFF3C4
:1018B0004F8FBFF36F8F02490020486100F03CBB9F
:1018C0008808002004ED00E0E40A002049444C456B
:1018D0000000000049180000FC48C0687047FB4841
:1018E000C0687047F94880687047002801D1F74800
:1018F00000683430704710B50C46F4490968183157
:1019000000F0C2FA2046BDE810400121A5E570B5FF
:10191000154641F00043ED490C68A3610968183190
:1019200000F0A6FA2846BDE87040012195E52DE9B2
:10193000F041C068C46804F11800074600F0BCFA22
:10194000E24D2A6B01265AB13946E14800F090FA7F
:10195000E06A2968C96A884215D90120EE61DFE48E
:10196000201D00F0A9FAE06A2A6906FA00F1114385
:101970002961D74900EB80008C3901EB8000211DE3
:1019800000F076FAE4E70020CAE470B541F00041C7
:101990000160C46800F090FA201D00F08DFACB4D74
:1019A000E06A01262A6906FA00F111432961C84953
:1019B00000EB80008C3901EB8000211D00F058FA0B
:1019C000E06A2968C96A884202D90120EE6170BDC7
:1019D000002070BDBD490A6A0260C9684160704755
:1019E00070B504460D4600F0A8FAB849C8682A68E0
:1019F000531C08D02368096A8B4206D06168814273
:101A000003D801240DE000240BE06168401A9042E5
:101A100006D2101A28602046FFF7DCFF002400E001
:101A2000012400F096FA204670BDA8490120C86143
:101A30007047A6480068704770B5044600283AD041
:101A4000A24DE06A2968C96A884234D2A069002898
:101A500004DB2868C06AC0F10500A061E06A9C4E02
:101A600000EB80008C3E616906EB800081421FD153
:101A7000201D00F021FA012150B9E06A00EB80023C
:101A800056F8222022B92A6901FA00F082432A611D
:101A90002868C06AE0622A6981401143296100EB2D
:101AA000800006EB8000211DBDE8704000F0E0B929
:101AB0002868C06AE06270BD70B504460020002C42
:101AC0002DD0A16C491EA164636CE26A9A4226D0B3
:101AD000002924D1201D00F0EFF97D4A7B498C3A82
:101AE000012350B9E06A00EB800552F8255025B972
:101AF0000D6903FA00F085430D61606CE062C0F18E
:101B00000500A061E06A0D6983402B430B6100EB87
:101B1000800002EB8000211D00F0AAF9012070BDB9
:101B20006A49086880690A680968D26AC2F10502D0
:101B30008A61704765490868002803D00868826C8C
:101B4000521C82640868704770B506460C4600F067
:101B5000F4F95E4D2868C06C80B92A68012082F8CB
:101B600050005CB101212046FFF777FC59494FF046
:101B700080500860BFF34F8FBFF36F8F00F0E9F91B
:101B800000F0DBF92868C46C002034B116B1296874
:101B9000C86402E02A68611ED164296881F8500097
:101BA00000F0D7F9204670BD2DE9F04781460F4679
:101BB0001646984600F0C1F9444D286890F8500048
:101BC000022817D02C68E06C20EA0900E06429683C
:101BD000012081F85000B8F1000F0BD001214046E0
:101BE000FFF73BFC3B494FF080500860BFF34F8F3D
:101BF000BFF36F8F00F0ADF900F09FF916B12868C0
:101C0000C06C3060286890F8500001280DD028681A
:101C1000C16CB943C16401242968002081F85000D7
:101C200000F097F92046BDE8F0870024F4E72DE99D
:101C3000F04104460D4690461F46012600F07DF90E
:101C40000FB1E06C386094F85000022184F8501015
:101C5000B8F1050F13D2DFE808F01203070B0D00EF
:101C6000E16C2943E1640AE0E16C491CE16406E0AF
:101C7000E56404E0022801D0E56400E000260128C4
:101C80001FD1201D00F018F9104DE06A01212A69CA
:101C90008140114329610E4900EB80008C3901EB32
:101CA0008000211D00F0E4F8E06A2968C96A8842D2
:101CB00007D908494FF080500860BFF34F8FBFF33A
:101CC0006F8F00F046F930467FE50000880800205D
:101CD000700B002004ED00E02DE9F0470446089F5A
:101CE00001268020EFF3118580F31188BFF34F8F19
:101CF000BFF36F8F002B01D0E06C186094F8500098
:101D0000022384F85030052A13D2DFE802F01203D0
:101D1000070B0D00E26C0A43E2640AE0E16C491C27
:101D2000E16406E0E16404E0022801D0E16400E03F
:101D3000002601282CD1DFF81481D8F830004FF0AC
:101D4000010970B104F11801414800F091F8E06A0E
:101D5000D8F80010C96A88421AD9BFB1C7F80090F4
:101D600016E0201D00F0A8F8E06AD8F8102009FA63
:101D700000F11143C8F8101000EB800134488C3892
:101D800000EB8100211D00F073F8E0E7C8F81C901B
:101D900085F31188304646E72DE9F0410446884630
:101DA0008020EFF3118780F31188BFF34F8FBFF3CB
:101DB0006F8F94F85010022084F85000E06C401CA3
:101DC000E064012927D1214D286B012678B104F167
:101DD00018011F4800F04CF8E06A2968C96A884277
:101DE00019D9B8F1000F15D0C8F8006013E0201D14
:101DF00000F062F8E06A2A6906FA00F111432961ED
:101E0000134900EB80008C3901EB8000211D00F0AC
:101E10002FF8E1E7EE6187F31188D6E410B50028CA
:101E20000BD0044600F089F894F85000022807D03F
:101E3000002400F08EF8204610BD04480468F1E745
:101E4000002084F850000124F3E7000088080020F7
:101E5000700B002000F1080141604FF0FF328260FA
:101E6000C16001610021016070470021016170477C
:101E700042684A6093688B6093685960916008611A
:101E80000168491C0160704730B50C68621C02D0C3
:101E900000F1080202E0026904E01A4653681D6876
:101EA000A542FAD953684B6099608A605160086115
:101EB0000168491C016030BD0169D0E901329A60B6
:101EC000D0E901235A604A68824201D182684A609F
:101ED000002202610868401E08607047802080F37D
:101EE0001188BFF34F8FBFF36F8FFEE720384FF09D
:101EF0008073C36121F0010181612449416140F88F
:101F0000202970474FF0E0202149416107210161FC
:101F1000704710B51F48016841F47F0101600168F6
:101F200041F07F410160FFF7EDFF1B490020086091
:101F3000FEF728F9002010BD7047802080F311883B
:101F4000BFF34F8FBFF36F8F13480168491C0160C7
:101F5000704711490868401E0860002801D180F3CD
:101F60001188704710B5802080F31188BFF34F8F20
:101F7000BFF36F8FFFF7C6F920B106494FF08050CD
:101F80001C390860002080F3118810BDDD1E0000A0
:101F9000FFAF010020ED00E0C408002030B55C492F
:101FA00000E011460A688242FBD34B685C18844209
:101FB00003D140681844486008460D6844682318F7
:101FC000AB420DD1524B103B1B689A4206D052686F
:101FD000224442600A681268026002E0036000E086
:101FE0000260814200D0086030BD4FF4B4314948EE
:101FF000420706D0C01D20F007004649411AC1F52E
:10200000B431434A1060002353600144083921F081
:102010000701103A11604B600B600B1A43600160BE
:102020004068906050604FF00040D06070472DE9EC
:10203000F04105460026FFF74BFA354F103F386850
:1020400008B9FFF7D2FFF868054235D13DB1083530
:10205000680704D005F00700C0F1080005445DB32F
:102060007868854228D82A490846046801E0214654
:1020700004466068A84202D220680028F7D1386878
:10208000844219D00E680836206808606068411BD9
:10209000102904D9601941606560FFF77FFF61680E
:1020A0007868401A7860BA68904200D2B860F868E0
:1020B0000143616000202060FFF77BF93046BDE8F6
:1020C000F08170B5002819D008380446104D6068BA
:1020D000103DE968084211D02268002A0ED18843D9
:1020E0006060FFF7F5F96068696808446860204639
:1020F000FFF754FFBDE87040FFF75BB970BD0448BF
:102100001038406870470248103880687047704740
:10211000D8080020AC0B0020426901238B409A4371
:102120004261704770B504460E461546314620465A
:10213000FFF7F2FFEA064FF0010000FA06F00CD5B7
:10214000A1680143A160E90703D02169014321612E
:1021500018E021698143216114E0A1688143A160F5
:10216000A90703D5E1680143E1600BE0E168814321
:10217000E160E90703D021690143216102E021699F
:1021800081432161206270BD426901238B401A4363
:1021900042617047C069C84000F001007047806923
:1021A000C84000F00100704701228A400262704777
:1021B0002DE9F0471646DDF820801F46DFF8AC9287
:1021C0000124AB4D8C40A0EB09034FF4805C4FF031
:1021D0008042484576D01FDCA64BC01838D06045F9
:1021E00058D0B0F5005F15D1906840F004009060C1
:1021F00001230022022000F08BF99F48012E6CD0B1
:102200004168A1434160012F6BD0D5F81002A04373
:10221000C5F81002BDE8F08763457DD0B3F5405F97
:10222000F8D1906840F4001090600123002205204E
:1022300000F06EF99148012E6FD04168A1434160D2
:10224000012F6BD0D5F83002A043C5F83002E1E78A
:10225000906840F00100906000220123104600F0D9
:1022600057F984484042012E0AD04168A143416099
:10227000012F09D0D5F80002A043C5F80002C9E734
:10228000416821434160F3E7D5F800022043C5F8D7
:102290000002BFE7906840F0020090600123002236
:1022A000184600F035F97648012E0CD04168A1435C
:1022B0004160B8F1010F0AD0D5F80003A043C5F87A
:1022C0000003A7E713E0416821434160F1E7D5F837
:1022D00000032043C5F800039CE7416821434160A7
:1022E00091E7D5F810022043C5F8100292E79068F4
:1022F00040F01000906001230022032000F008F954
:10230000012E10D0D9F80400A043C9F80400012F11
:102310000FD0D5F8200202E011E032E035E0A04312
:10232000C5F8200276E7D9F804002043C9F8040074
:10233000EDE7D5F820022043C5F820026AE790684F
:1023400040F02000906001230022042000F0E0F81B
:102350004C48012E0BD04168A1434160B8F1010FF8
:1023600009D0D5F82003A043C5F8200352E74168FF
:1023700021434160F2E7D5F820032043C5F820034C
:1023800048E74168214341605AE7D5F830022043CD
:10239000C5F830023EE70122400100EB810000F168
:1023A0008440026070470022400100EB810000F190
:1023B000844002607047400100EB810000F18440DE
:1023C0000168C1F10101016070470068C84000F078
:1023D00001007047C2F118036FF07F42DA400368D2
:1023E0008A40134303607047C2F118036FF07F42C5
:1023F000DA4003688A40934303607047C2F11803D0
:102400006FF07F42DA4003688A40534003607047B0
:10241000C2F118036FF07F42DA400068C8401040F4
:102420007047C2F118036FF07F42DA4072B603685A
:102430008A401343036062B67047C2F118036FF01D
:102440007F42DA4072B603688A409343036062B603
:102450007047C2F118036FF07F42DA4072B603682A
:102460008A405340036062B670470000005001404C
:102470000000014000F0FEBF00300140008001403C
:10248000002001400060014010B572B6000B1B4CEB
:10249000A16888472068804762B610BD10B5030761
:1024A00001D0022010BD930701D0022010BD72B6EA
:1024B0009208124CE36898472068804762B6002073
:1024C00010BD10B572B60D4940F289431E284A6806
:1024D00008D028280AD050280CD00949581C904709
:1024E00062B610BD074918469047F9E706491846F5
:1024F0009047F5E7054918469047F1E7E0080020C6
:102500006E7AFCAB251FF4AB2929F4AB4D52F8AB26
:102510002DE9F04F86B001EB81074FF01F0BA2F1C0
:10252000640A0BFA07F60AFA07F48D1F05EB850C0F
:102530000BFA0CF70AFA0CF54FF001084FEA4109C3
:102540004FF0030CA1F10C0E0CFA09FC08FA01F88B
:102550000EEB8E0E8B40CDF800E00BFA0EFECDF8A0
:1025600014E0DDF800E00AFA0EFECDF810E0A1F16B
:10257000120E0EEB8E0E0BFA0EFB0AFA0EFACDE9D6
:1025800002ABA1F1100A4FEA4A0A4FF0030B0BFA13
:102590000AFBCDF804A0DFF89CA3062837D2DFE8B9
:1025A00000F003396EA3F0EF632A18D906290AD286
:1025B000DAF80001B043CAF80001DAF8000120435C
:1025C000CAF800010BE00C2909D2DAF80401B8437B
:1025D000CAF80401DAF804012843CAF80401DAF859
:1025E000000020EA0C00CAF80000632A00D901228A
:1025F000DAF8000002FA09F20243CAF80020CE48D5
:10260000016821EA0801016001681943016006B010
:10261000BDE8F08F632A18D906290AD2DAF810012A
:10262000B043CAF81001DAF810012043CAF81001CB
:102630000BE00C2909D2DAF81401B843CAF81401E6
:10264000DAF814012843CAF81401DAF8040020EA81
:102650000C00CAF80400632A00D90122DAF8040049
:1026600002FA09F20243CAF80420B34810300168A4
:1026700021EA08010160016819430160C7E7632A84
:1026800018D906290AD2DAF82001B043CAF8200185
:10269000DAF820012043CAF820010BE00C2909D206
:1026A000DAF82401B843CAF82401DAF824012843EF
:1026B000CAF82401DAF8080020EA0C00CAF8080079
:1026C000632A00D90122DAF8080002FA09F202436B
:1026D000CAF8082098482030016821EA0801016002
:1026E00001681943016092E7632A36D906290AD2A4
:1026F000DAF86001B043CAF86001DAF860012043FB
:10270000CAF8600129E00C290AD2DAF86401B8435A
:10271000CAF86401DAF864012843CAF864011CE0CD
:1027200012290CD2DAF86801059CA043CAF86801A6
:10273000DAF86801049C2043CAF868010DE0182902
:102740000BD2DAF86C01039CA043CAF86C01DAF8EA
:102750006C01029C2043CAF86C01102912D2DAF8ED
:10276000200020EA0C00CAF82000632A00D90122C8
:10277000DAF8200002FA09F20243CAF8202011E038
:1027800071E019E0DAF8240020EA0B00CAF824000E
:10279000632A00D9012201988240DAF8240002431A
:1027A000CAF8242064484030016821EA0801016029
:1027B0000168194301602AE7632A27D906290AD24A
:1027C000DAF87001B043CAF87001DAF870012043FA
:1027D000CAF870011AE00C290AD2DAF87401B84379
:1027E000CAF87401DAF874012843CAF874010DE0DC
:1027F00012290BD2DAF87801059CA043CAF87801B7
:10280000DAF8784104980443CAF87841102910D2C4
:10281000DAF8300020EA0C00CAF83000632A00D948
:102820000122DAF8300002FA09F20243CAF8302035
:102830000FE0DAF8340020EA0B00CAF83400632A0B
:1028400000D9012201988240DAF834000243CAF824
:10285000342039485030016821EA080101600168DC
:1028600019430160D3E6632A36D906290AD2DAF879
:102870008001B043CAF88001DAF880012043CAF829
:10288000800129E00C290AD2DAF88401B843CAF899
:102890008401DAF884012843CAF884011CE0122973
:1028A0000CD2DAF88801059CA043CAF88801DAF84E
:1028B000884104980443CAF888410DE018290BD2D6
:1028C000DAF88C4103988443CAF88C41DAF88C0119
:1028D000029C2043CAF88C01102910D2DAF840007B
:1028E00020EA0C00CAF84000632A00D90122DAF875
:1028F000400002FA09F20243CAF840200FE0DAF879
:10290000440020EA0B00CAF84400632A00D90122DF
:1029100001988240DAF844000243CAF8442006488D
:102920006030016821EA0801016001681943016013
:102930006DE600000000014000060140416821F4FE
:102940000071416070472DE9F04704460D46D548B7
:102950004FF4805726184FF080404FF400584FF442
:10296000405973D0BE4276D0464579D04E4503D10A
:10297000816841F4804181602046FFF7DFFF606895
:1029800040F400506060A0686FF30D00A060C6487E
:10299000296800680009B0FBF1F0A168401E0843F7
:1029A000A060606820F47C00606060682979AA7982
:1029B00040EA81406979C90441EA82510843606074
:1029C000F6B3BE4255D0464557D04E4502D12A20D7
:1029D00000F05CF9E06880B2E060E879697A401C58
:1029E000000440EA0160E1680843E060606820F0AC
:1029F0007F4060606068E97A40EA0160606060681A
:102A000044F21401884360606068297A2A7B40EAB6
:102A10000110A97A890041EA82310843606086B3D7
:102A2000BE423FD046454DD04E4560D1287AA97A66
:102A30000843297B084355D0BDE8F0472A2003E02E
:102A400013E003E007E00BE000F015B9816841F402
:102A50000061816090E7816841F4805181608BE77B
:102A6000816841F40051816086E7272000F00EF96B
:102A7000B0E7282000F00AF9ACE7292000F006F9B9
:102A8000A8E7FFE7287AA97A0843297B084304D0FE
:102A9000BDE8F047272000F0EEB8BDE8F04727205A
:102AA00000F0F4B8287AA97A0843297B084304D0B7
:102AB000BDE8F047282000F0DEB8BDE8F047282048
:102AC00000F0E4B8287AA97A0843297B084304D0A7
:102AD000BDE8F047292000F0CEB8BDE8F047292036
:102AE00000F0D4B8BDE8F0472A2000F0CFB8BDE828
:102AF000F087416841F400714160704701607047A0
:102B00000068C0F308020A60400501D50220704742
:102B100000207047406840F30000401C7047406848
:102B200040F3C000401C70474068C0F3400070474D
:102B300082686FF30D0282605B4A12681209B2FB71
:102B4000F1F18268491E11438160704756498068DF
:102B500009680909C0F30D00401CB1FBF0F0704793
:102B6000436923F005034361436941EA82010B4352
:102B7000436170474069C0F3C010704710B54469A5
:102B800024F07A0444614469D20044EA410142EAF3
:102B900003121143416110BD4069C0F3002070472A
:102BA000036923F005030361036941EA82010B43D2
:102BB00003617047016941F01001016170470069CC
:102BC000C0F3400070470069C0F3C00070470022A6
:102BD000FF2918D0A1F58073FF3B14D0FE290DD03A
:102BE000B1F5FF7F0AD0F8290AD0B1F5FC7F07D0F4
:102BF000802907D0B1F5C07F04D0FEE7012202E0B2
:102C0000022200E00322816821F060718160816806
:102C10004FF4000343EA0262114381607047816808
:102C2000090201D5002070478068400101D50220CB
:102C300070470120704742680A434260704742680B
:102C40008A4342607047CA0602D5826852020ED497
:102C50004A0402D58268920209D44A0702D58268E2
:102C6000920304D4490604D58068000101D50120EF
:102C700070470020704700F01F0201219140400979
:102C8000800000F1E020C0F80011704700F01F0242
:102C9000012191404009800000F1E020C0F880113E
:102CA000704700000000FEBFF008002030B54FF074
:102CB000804108687B4A45077B4C7C4B7C480CD59F
:102CC0000D68AD0701D502601CE02268D20702D072
:102CD000784A026016E0036014E00D68ED070ED03C
:102CE000646AA40701D5036000E00260026805235E
:102CF000B2FBF3F2C8235A43D208026002E04FF459
:102D0000FA4202604968C90702D0016849080160B7
:102D1000694A0168B1FBF2F1416030BD4FF080407B
:102D20000168490702D40068C00707D0002044F6B4
:102D3000206100BF401C8842FBD37047002000BFC9
:102D4000401C1428FBD3704710B5574C012020625B
:102D5000FFF7E4FFFFF7E2FF606A20F00200606225
:102D6000A06A56490840A062A06A55490843A0627B
:102D7000606A20F004006062206B0028FCD010BD67
:102D800010B5FFF7E1FF4848416A41F00101416297
:102D90008004016841F001010160016821F0040133
:102DA000016010BD10B5404901200862FFF7B6FF71
:102DB000FFF7B4FF4FF08040016841F0020101606D
:102DC000016841F00401016010BD10B54FF080446E
:102DD000A06840F08070A0603A48016A21F00101CB
:102DE0000162FFF79BFF206820F00100206020684F
:102DF00020F00400206010BD10B52B4901200860B0
:102E0000FFF78CFF4FF08040016821F00201016064
:102E1000016841F00401016010BD10B52249002095
:102E20000860FFF77BFF4FF08040016821F002014E
:102E30000160016841F00401016010BD10B54FF060
:102E40008044A06840F48000A0607820FFF739FB40
:102E5000FFF796FF606820F00100606060686060C6
:102E6000FFF724FF124818490068884204D9BDE8DA
:102E700010407820FFF725BB0E49884204D9BDE8F1
:102E800010405020FFF71DBB1049884204D9BDE80F
:102E900010402820FFF715BBBDE810401E20FFF7AB
:102EA00010BB00000080510100100340002D3101D3
:102EB000F0080020005A620240420F0000FEE0FCD1
:102EC0003200050000E0014000B4C40480C3C90121
:102ED00025480047FEE7FEE7FEE7FEE7FEE7FEE7E0
:102EE000FEE7FEE7FEE7FEE7FEE7FEE7FEE7FEE7BA
:102EF000FEE7FEE7FEE7FEE7FEE7FEE7FEE7FEE7AA
:102F0000FEE7FEE7FEE7FEE7FEE7FEE7FEE7FEE799
:102F1000FEE7FEE7FEE7FEE7FEE7FEE7FEE7FEE789
:102F2000FEE7FEE7FEE7FEE7FEE7FEE7FEE7FEE779
:102F3000FEE7FEE7FEE7FEE7FEE7FEE7FEE7FEE769
:102F4000FEE7FEE7FEE7FEE7FEE7FEE7FEE7FEE759
:102F5000FEE7FEE7FEE7FEE7FEE7FEE7FEE7FEE749
:102F6000FEE7FEE7FEE7FEE74901000040EA010355
:102F70009B0703D009E008C9121F08C0042AFAD22F
:102F800003E011F8013B00F8013B521EF9D27047F3
:102F9000D2B201E000F8012B491EFBD2704700229B
:102FA000F6E710B513460A4604461946FFF7F0FF48
:102FB000204610BDCAB2401E10F8011F8A4202D03E
:102FC0000029F9D10020704710B5002200E0521C02
:102FD000835C8C5CA34201D1002BF8D1D8B2E1B262
:102FE000401A10BD30B50B460146002020220124B6
:102FF00009E021FA02F59D4205D303FA02F5491BC7
:1030000004FA02F52844151EA2F10102F1DC30BDDC
:10301000064C074D06E0E06840F0010394E8070025
:1030200098471034AC42F6D3FDF792F818350000FB
:103030003835000070B58C1810F8015B15F00703E7
:1030400001D110F8013B2A1106D110F8012B03E041
:1030500010F8016B01F8016B5B1EF9D12B0705D449
:103060000023521E0DD401F8013BFAE710F8013B92
:10307000CB1A921C03E013F8015B01F8015B521EAE
:10308000F9D5A142D8D3002070BD00000FB4054B84
:1030900010B503A9044A029800F018F810BC5DF8B6
:1030A00014FB0000C90B0000F808002002E008C86B
:1030B000121F08C1002AFAD170477047002001E0B2
:1030C00001C1121F002AFBD1704700002DE9FF4FFC
:1030D0008BB09A460F460546002606E025280BD001
:1030E00052460D9990476D1C761C28780028F5D122
:1030F0000FB03046BDE8F08F0024A04601226049A1
:1031000000E0044315F8013F203B02FA03F00842B7
:10311000F7D128782E2817D115F8010F44F00404B0
:103120002A280ED06FF02F022878A0F1300109294B
:103130000AD808EB880102EB410100EB01086D1C85
:10314000F2E757F8048B6D1C287869283ED006DC1E
:103150000028CDD063280BD0642804D136E0732832
:1031600010D075284BD052460D999047761C85E0BB
:1031700017F8040B8DF8000000208DF80100E946D7
:10318000012003E057F8049B4FF0FF3061074FF038
:10319000000401D40AE0641C44450DDA8442FADBE1
:1031A00019F804100029F6D106E0641C8442FCDB07
:1031B00019F804100029F8D1264404E019F8010B8D
:1031C00052460D999047641EF8D257E001CF4FF058
:1031D0000A0B002802DA40422D2102E0210504D525
:1031E0002B218DF82410012103E0E10705D02021D7
:1031F000F7E70DF1200908910CE00021F9E701CF74
:103200004FF00A0BF9E75946FFF7ECFE01F13002E7
:1032100009F8012D0028F6D1ADEB090000F1200BD3
:10322000600701D44FF00108D84502DDA8EB0B0080
:1032300000E000208046002406E009A85246005D18
:103240000D999047641C761C08988442F5DB04E0D5
:10325000302052460D999047761CB8F10001A8F134
:103260000108F5DC05E019F8010B52460D9990476D
:10327000761CBBF10001ABF1010BF4DC6D1C34E7F3
:10328000092801004833000003000000020000008C
:10329000000000000050014000000000503300001A
:1032A000010000000C0000000000000000200140B0
:1032B000000000005833000002000000040000007D
:1032C00000000000003001400000000068330000F2
:1032D0000400000007000000000000000060014042
:1032E0000000000060330000020000000200000047
:1032F0000000000000300140010000009833000091
:103300008F03000088330000B70300008033000003
:10331000C303000090330000EB0300007033000093
:1033200009040000A0330000670400007C330000A3
:10333000FB0400007433000005050000636D645F4A
:103340007465737400000000454C43302020000079
:10335000454C433120200000534C454420200000C0
:1033600066757365302000004E65745273740000FA
:103370006C656400696E666F00000000696F000094
:1033800068656C7000000000636C6561720000008D
:103390007265626F6F7400007465737400000000E2
:1033A00072656C617900000073746172745F74619E
:1033B000736B0000E590AFE58AA8E4BBBBE58AA18A
:1033C00000000000686F73745F7461736B0000002D
:1033D000E4B8BBE68EA7E4BBBBE58AA10000000011
:1033E0006374726C5F7461736B000000E68EA7E516
:1033F00088B6E4BBBBE58AA1000000006C69737469
:10340000656E5F7461736B00E79B91E590ACE4BB04
:10341000BBE58AA100000000413130004E31300090
:103420005031300041300000423000004D3000008B
:103430004E3000004341503000000000503000008A
:103440004131310050313100413100004D31000037
:103450004E31000043415031000000005031000067
:1034600041313200423132005031320041320000ED
:10347000433200004D3200004E32000043415032D2
:103480000000000050320000503133004133000092
:10349000433300004D3300004E3300005033000032
:1034A0003356330041340000433400004D340000F3
:1034B0004E34000050340000413500004335000018
:1034C0004D3500004E3500005035000043360000F9
:1034D0004D3600004E3600005036000043370000E5
:1034E0004D3700004E3700005037000050380000C4
:1034F000413900004E39000050390000474E440069
:1035000058490000584F00005245534554000000F0
:103510004E6F6E650000000038350000000000208E
:10352000FC080000343000001C380000FC080020BB
:10353000B47A0100BC3000008122342420A8331A60
:10354000B4041122103203E3AD08190F2A200441FC
:103550001A64081AC42C9AD030E3F3091A382429C3
:1035600004411A94081AE02C2AEC3019452930E35A
:103570002B0A1A68242904411AC4081AFC2C1A08B8
:10358000991122043205DA7F301A98242904011097
:1035900023250B1A6D041A7D041AA7041ABD041AF8
:1035A000D4281AED081AF5041AFD0423050C1A1381
:1035B000041A1B041AEC1C1A29081A53041A75045D
:1035C0001A7D044B0801580316103532012AA09CBD
:1035D000011332020A15341C29F82A641C1C20012C
:1035E000406711A92719E70917540A19051C320663
:1035F0000A15FC1C32070A157C1C32082AF41C35FB
:1036000060014009B23729105A1C1CDA0A1C291023
:103610000A1554540A190B8C29F00916C4320D5A94
:103620007870DA0270320E5A501CDA011C320F5ACE
:10363000301C41A91C0A19107032112AA81C3530FF
:10364000014004B23532125ABC1CDA051C32135A3E
:10365000CC1CDA061C32145ADC1CDA071C32155A50
:10366000701C29E0A91C32165A901CDA031C421760
:10367000A911B132180A15041C32190A15081C3296
:103680001A2A74704A508CB236321B5A941C298CF8
:10369000A91C321C5AAC1CDA041C321D5AC01CDA9C
:1036A000051C321E5AD01CDA061C321F5AE01CDAE6
:1036B000071C32202AFC1C011332215A4C38DA0133
:1036C0003832225A2C1C41A91C32232A3C1C4A8025
:1036D0001CB23832245A5C1C2954A91C32255A8445
:1036E0001CDA021C32265A9C1CDA031C32275AB4FC
:1036F0001CDA041C32285AC81CDA051C32295AD894
:103700001CDA061C322A5AE81CDA071C322B5AEC47
:103710001CDA081C322C5AF81CDA091C322D5A20EB
:103720001CDA0A1C322E5A441CDA0B1C322F5A683F
:103730001CDA0C1C32305A881CDA0D1C32312A2853
:103740001C44200140290B8132322A24114A101CCA
:10375000B233290C5A481CDA011C29175A6C1CDA9E
:10376000021C32355A8C1CDA031C32365AA41CDA7D
:10377000041C32375AB81CDA051C29D02AE41C5D17
:10378000600140072C8132395AD41CDA061C323AC7
:103790005AC41C2954A91C323B5AB01C298CA91CA0
:1037A000323C5A981C29C4A91C323D5AF0A8DA09A7
:1037B000A8323E5A181CDA0A1C323F5A401CDA0B57
:1037C0001C2A406B591CDA0C1C1AB1111AC9041AB4
:1037D000F104232B0D1A45041A5D041338088220C6
:1037E00023490F1A9D041AA3041AA9041AC1041A22
:1037F000C7041ACD041AD3041AE9041AF5049A5C12
:103800003401341AAA0101181301062B1181041284
:0C38100007141101081211752D3101146C
:0400000500000149AD
:00000001FF
